:020000040800F2
:1000000070490020E9020008771B0008ED1900087C
:10001000751B0008CB0500084D20000800000000FB
:10002000000000000000000000000000290200089D
:10003000790600080000000085020008811B000806
:100040000303000803030008030300080303000878
:100050000303000803030008030300080303000868
:100060000303000803030008030300080303000858
:100070000303000803030008030300080303000848
:100080000303000803030008030300080303000838
:100090000303000803030008030300080303000828
:1000A0000303000803030008030300080303000818
:1000B0000303000803030008030300080303000808
:1000C00003030008030300080303000803030008F8
:1000D00003030008611F000803030008030300086E
:1000E00003030008030300080303000803030008D8
:1000F00003030008030300080303000803030008C8
:1001000003030008030300080303000803030008B7
:100110000303000803030008511C00080303000840
:1001200003030008CD050008D905000803030008F3
:100130000303000803030008030300080303000887
:100140000303000803030008030300080303000877
:1001500003030008E5050008F10500086D1F00080D
:100160000303000803030008030300080303000857
:100170000303000803030008030300080000000055
:10018000030300080303000800F002F800F03CF845
:100190000AA090E8000C82448344AAF10107DA45E2
:1001A00001D100F031F8AFF2090EBAE80F0013F0F8
:1001B000010F18BFFB1A43F001031847002B000082
:1001C000202B0000103A24BF78C878C1FAD8520713
:1001D00024BF30C830C144BF04680C6070470000C1
:1001E0000023002400250026103A28BF78C1FBD840
:1001F000520728BF30C148BF0B6070471FB502F0DF
:1002000033FD1FBD10B510BD00F0A6F91146FFF774
:10021000F5FF01F05EFF00F0C4F903B4FFF7F2FF51
:1002200003BC00F0CBF900002C4B19680868B0E85B
:10023000F04F80F30988BFF36F8F4FF0000080F319
:10024000118870470000000008480068006880F3CB
:1002500008884FF0000080F3148862B661B6BFF3DF
:100260004F8FBFF36F8F00DF00BF00BF08ED00E0CE
:10027000DFF80C00016841F470010160704700BFB5
:1002800088ED00E0EFF30980BFF36F8F134B1A681E
:100290001EF0100F08BF20ED108A20E9F04F10600B
:1002A00009B44FF0500080F31188BFF34F8FBFF3B4
:1002B0006F8F02F0F1FA4FF0000080F3118809BC53
:1002C00019680868B0E8F04F1EF0100F08BFB0ECD6
:1002D000108A80F30988BFF36F8F704714000020E5
:1002E000EFF3058070470000094880470948004740
:1002F000FEE7FEE7FEE7FEE7FEE7FEE7FEE7FEE7D6
:10030000FEE7FEE704480549054A064B7047000032
:10031000411C00088901000870430020704900203A
:10032000704500207045002053EA020C00F06980FF
:100330002DE9F04B4FF00006002B1FBFB3FA83F5F9
:1003400003FA05F424FA05F65E4012BF1643B2FA2A
:1003500082F502FA05F4C5F120051EBF22FA05FC5C
:1003600044EA0C04203556EA044C4FEA144418BF02
:10037000641C4FF000084FF00009904271EB030C31
:1003800039D3002919BFB1FA81F701FA07F6B0FA9B
:1003900080F700FA07F6C7F120071EBF20FA07FC16
:1003A00046EA0C062037B6FBF4FCA7EB0507103F26
:1003B00007F01F0BCBF120060CFA0BFB2CFA06F60C
:1003C00044BFB3460026202FA4BF5E464FF0000B6B
:1003D0005BEA060C08BF4FF0010B19EB0B09ABFBF6
:1003E000027C48EB0608C01B06FB02CC0BFB03CCCF
:1003F00071EB0C01C1E70B46024641464846BDE899
:10040000F08B13B54FF000004FF00001AFF3008008
:10041000BDE81C407047032A40F2308010F0030C06
:1004200000F0158011F8013BBCF1020F624498BF47
:1004300011F801CB00F8013B38BF11F8013BA2F1E4
:10044000040298BF00F801CB38BF00F8013B11F05F
:10045000030300F02580083AC0F0088051F8043BFF
:10046000083A51F804CBA0E80810F5E7121D5CBF6C
:1004700051F8043B40F8043BAFF30080D20724BF9F
:1004800011F8013B11F801CB48BF11F8012B24BF33
:1004900000F8013B00F801CB48BF00F8012B704782
:1004A00010B5203AC0F00B80B1E81850203AA0E80F
:1004B0001850B1E81850A0E81850BFF4F5AF5FEA43
:1004C000027C24BFB1E81850A0E8185044BF18C9F6
:1004D00018C0BDE810405FEA827C24BF51F8043B9D
:1004E00040F8043B08BF7047D20728BF31F8023BF1
:1004F00048BF11F8012B28BF20F8023B48BF00F885
:10050000012B70474FF0000200B513469446964603
:10051000203922BFA0E80C50A0E80C50B1F1200116
:10052000BFF4F7AF090728BFA0E80C5048BF0CC0C4
:100530005DF804EB890028BF40F8042B08BF704722
:1005400048BF20F8022B11F0804F18BF00F8012B94
:100550007047704770477047754600F02BF8AE46FD
:1005600005006946534620F00700854618B020B5BF
:10057000FFF7C8FEBDE820404FF000064FF000072F
:100580004FF000084FF0000B21F00701AC46ACE83B
:10059000C009ACE8C009ACE8C009ACE8C0098D46A8
:1005A000704710B50446AFF300802046BDE8104008
:1005B000FFF733BE00487047104300200149182060
:1005C000ABBEFEE7260002007047FEE7014800F0E0
:1005D000B1B800002C040020014800F0ABB80000C6
:1005E0006C030020014800F0A5B800008C04002036
:1005F000014800F09FB80000CC03002001681823D8
:10060000CAB2103AB2FBF3F2054B6FF30901032AA9
:100610009B5CC36500D9091D8165084670470000D1
:10062000902C000810B5014600208B698A6A4FF0B3
:10063000C07453B1B3F5005F15D072B1012A0CD06C
:10064000022A0AD0032A09D104E01AB1012A06D0ED
:10065000022A03D1C96AC90100D5012010BDC96AA7
:10066000A142FAD010BD002AF7D0012AF2D0022A06
:10067000F3D0032AF3D010BD704772B6FEE72DE920
:10068000F0410446876D00F08DFA064694F8350077
:100690000025022806D08020606584F834500120AF
:1006A000BDE8F0812068016821F016010160206832
:1006B000416921F080014161206C08B9A06C20B132
:1006C0002068016821F0080101602068016821F0BC
:1006D000010101600CE000F065FA801B052807D9D4
:1006E00020206065032084F8350084F83450D7E773
:1006F00020680068C007EED194F85C103F20884065
:10070000B860012084F8350084F834500020C7E731
:1007100090F83510022903D08021416501207047EF
:10072000052180F835100068016821F001010160A1
:10073000002070472DE9F84304464FF00009CDF83A
:10074000009063484FF41651A56D0068B0FBF1F7B7
:100750002E6894F85C10082000FA01F131420FD0A5
:1007600021680A6852070BD50A6822F004020A6061
:1007700094F85C108840A860606D40F001006065EE
:1007800094F85C104FF0010808FA01F0304208D0EC
:1007900021684969090604D5A860606D40F002002F
:1007A000606594F85C1004208840304208D02168CD
:1007B0000968890704D5A860606D40F00400606591
:1007C00094F85C1010208840304218D021680968E5
:1007D000090714D5A86020680168490304D500689A
:1007E000000308D5A16C07E00168C90503D40168BE
:1007F00021F008010160216C09B12046884794F876
:100800005C1020208840304231D021680968C90638
:100810002DD5A86094F8350005282068016806D019
:10082000490347D5006800031DD4616C1CE021F02A
:10083000160101602068416921F080014161206C4E
:1008400008B9A06C20B12068016821F0080101609E
:1008500094F85C103F208840A86084F8358084F8C4
:100860003490216D1FE0E16B09B120468847606D2F
:1008700000282BD0606DC00714D0052084F8350007
:100880002068016821F0010101600098401C00907F
:10089000B84203D820680068C007F6D184F83580D4
:1008A00084F83490E16C002910D001B02046BDE8F6
:1008B000F04308470168C905D5D4016821F010014B
:1008C000016084F8358084F83490CCE7BDE8F88383
:1008D000100000202DE9F041044600F063F90646BF
:1008E0005CB1022084F83500002584F8345020687B
:1008F000016821F0010101600DE00120BDE8F081F7
:1009000000F050F9801B052805D9202060650320E0
:1009100084F83500F2E720680068C007F0D122684B
:10092000116820480140D4E901031843D4E9033693
:100930003343184363691843A3691843E3691843B1
:10094000236A18430843616A042903D1D4E90B13CD
:1009500019430843106020684069666A20F0070167
:1009600030460E43012704280CD1A06A0643E06AF2
:1009700040B12046FFF756FE20B14020606584F864
:100980003570BAE7206846612046FFF737FE94F8D5
:100990005C203F2191408160656584F835700020BE
:1009A000ACE700003F8010F02DE9F84FDFF8BCA164
:1009B0000022012503264FF00F090AF1040BAAF1CA
:1009C000040E00BF0B6805FA02F42340A34270D165
:1009D0000F7907F00307012F01D0022F16D1876886
:1009E0004FEA420806FA08FC27EA0C07D1F80CC0C7
:1009F0000CFA08FC4CEA070CC0F808C04768A7438B
:100A00000C79C4F3001494403C4344600C79E443F3
:100A1000A4070AD0C4684FEA420C06FA0CF7BC439C
:100A20008F6807FA0CF72743C7600C7904F00304BA
:100A3000022C12D1D40800EB840CDCF820405707BC
:100A4000FF0E09FA07F824EA0804D1F8108008FA22
:100A500007F848EA0408CCF8208004684FEA420C02
:100A600006FA0CF7BC430F7907F0030707FA0CF7F7
:100A7000274307604C6814F4403F70D03C4C276813
:100A800047F480472760246822F0030704F4804479
:100A90000094384C07EB040CDCF8084897074FEA41
:100AA000177809FA08F7BC43334FB84202D1002740
:100AB00024E054E0314FB84201D101271EE0304F0D
:100AC000B84201D1022719E02E4FB84201D10327C5
:100AD00014E02D4FB84201D104270FE02B4FB8424C
:100AE00001D105270AE02A4FB84201D1062705E0C7
:100AF000284FB84201D1072700E0082707FA08F776
:100B00002743CCF80878DAF800405746D1F804C0FB
:100B10009C435FEACC2C00D51C433C60DBF80040D2
:100B20005F46D1F804C09C435FEA8C2C00D51C437F
:100B30003C60DEF800407746D1F804C09C435FEA91
:100B40008C3C00D51C433C60084F083F3C68D1F802
:100B500004C09C435FEACC3C00D51C433C60521C63
:100B6000102AFFF42FAFBDE8F88F0000083C0140C9
:100B700044380240003001400000024000040240BE
:100B800000080240000C0240001002400014024025
:100B900000180240001C02400AB18161704709043C
:100BA000FBE7000001488068704700000400002057
:100BB0000248816802781144816070470400002077
:100BC0000B4810B5016841F400710160016841F4FF
:100BD00080610160016841F480710160032000F0D0
:100BE0009FF80F2000F006F800F050F8002010BD2C
:100BF000003C024030B505461F4887B0002401681C
:100C000041F010010160006806A900F0100000909A
:100C100001A800F031F90498A8B100F04DF94000A6
:100C20001649174AB0FBF1F11648491E026040F21E
:100C3000E732C0E90324C0E90114846100F046FBF7
:100C4000040003D015E000F037F9E9E70D4800F0A3
:100C50006BFB04000DD1362000F034F8102D07D2C4
:100C600000222946362000F03BF80748056000E0E6
:100C7000012407B0204630BD4038024040420F00FA
:100C800000100040EC040020080000200C4882B056
:100C9000016841F480410160006800F480400090E8
:100CA0000748001F016841F0805101600068002280
:100CB00000F0805000900F21901E02B000F010B89C
:100CC00044380240002809DB00F01F020121914056
:100CD0004009800000F1E020C0F8001170470000DA
:100CE000F0B40E4B1B680C46C3F30223C3F1070597
:100CF000042D00D90425191D072901D2002300E085
:100D0000DB1E012606FA05F1491E214099409E404E
:100D1000761E16403143F0BC01F099B90CED00E0AD
:100D2000064900F0070208684FF6FF03184040EA42
:100D30000220034A10430860704700000CED00E0F9
:100D40000000FA052DE9F0470E46050065D0DFF8F2
:100D50001481D8F80000F7B200F00700B04207D2C3
:100D600088F80070D8F8000000F00700B04254D1B5
:100D700028683D4C810712D5400703D5206840F410
:100D8000E05020602878000703D5206840F46040D8
:100D900020602068A96820F0F000084320602878CF
:100DA000C0072DD0304968680839012812D00228C0
:100DB00013D0032811D00968890700292DDA21688A
:100DC00021F0030101432160FFF7ECFE814641F26F
:100DD000883A0EE009688903EFE709688901ECE7C2
:100DE000FFF7E0FEA0EB0901514502D90320BDE861
:100DF000F0872068696800F00C00B0EB810FEFD13C
:100E0000D8F80010404601F00701B14207D9077039
:100E1000006800F00700B04201D00120E7E7287821
:100E2000400705D52068E96820F4E05008432060B9
:100E30002878000706D52068296920F4604040EA38
:100E4000C100206000F058F82168084AC1F303117E
:100E5000515CC8400649086006480068FFF7CAFEB2
:100E60000020C4E7003C024008380240982C0008EB
:100E700010000020080000200F2202600C4A1368B6
:100E800003F003034360136803F0F0038360136807
:100E900003F4E053C36012684FF4E05303EAD20254
:100EA00002610448006800F0070008607047000015
:100EB00008380240003C02400448054900680968BF
:100EC000044AC1F38221515CC840704710000020E1
:100ED00008380240A82C0008044805490068096841
:100EE000044AC1F34231515CC840704710000020F1
:100EF00008380240A82C0008154810B5006810F00A
:100F00000C02144813D01449042A0FD0082A0ED119
:100F10000F4C241F2268236802F03F025B0207D5B2
:100F20002068C0F38810A0FB010106E0084610BD50
:100F30002168C1F38811A1FB00010023FFF7F4F938
:100F40002168C1F30141491C4900B0FBF1F010BD1B
:100F5000083802400024F400001BB7002DE9F84FC8
:100F600004006ED02078DFF84C93C007A9F1040587
:100F70004AD009F104000168C1F38101012908D0B8
:100F80000068C0F3810002280AD1D9F800004002AD
:100F900006D52868800337D560680028E1D033E0A3
:100FA0006068B0F5803F10D0B0F5A02F286810D051
:100FB00020F480302860286820F480202860606851
:100FC000A8B1FFF7EFFD06460DE0286840F4803039
:100FD000F4E740F480202860F7E700BFFFF7E2FD68
:100FE000801B642873D828688003F7D50CE0FFF7CE
:100FF000D9FD064605E000BFFFF7D4FD801B64283D
:10100000F0D828688003F7D42078DFF8AC82800716
:101010004FF0000A3ED5A748001D016811F00C0FE3
:1010200008D00068C0F3810002280BD1D9F8000075
:10103000400207D42868800716D5E068012800D14F
:1010400012E033E1E068B8B10120C8F80000FFF712
:10105000A9FD064605E000BFFFF7A4FD801B02289E
:10106000C0D828688007F7D52868216920F0F800E3
:1010700040EAC10028600DE0C8F800A0FFF792FD2B
:10108000064604E0FFF78EFD801B02281FD8286863
:101090008007F7D42078000722D5864F87486169FA
:1010A000703771B101210160FFF77CFD064604E055
:1010B000FFF778FD801B022809D838688007F7D52C
:1010C0000EE0C0F800A0FFF76DFD064605E082E0E7
:1010D000FFF768FD801B02287DD838688007F7D4A9
:1010E0002078400768D5DFF8CCB100270BF13C0B26
:1010F000DBF80000C0000BD4DBF8001041F0805199
:10110000CBF80010DBF80000012700F080500090C1
:101110006B4E3068C00510D4306840F48070306089
:10112000FFF740FD009005E0FFF73CFD0099401AF5
:10113000022850D83068C005F6D55E4EA0686C36DF
:1011400001280FD00528306810D020F00100306051
:10115000306820F004003060A068B8B1FFF722FDCD
:1011600000900FE0306840F00100F4E740F0040028
:101170003060F7E7FFF716FD0099411A41F2883019
:10118000814266D830688007F4D50EE0FFF70AFD8B
:10119000009007E0FFF706FD0099411A41F2883000
:1011A000814256D830688007F4D42FB1DBF80010A4
:1011B00021F08051CBF80010A069C8B33D49091D4A
:1011C0000968C1F3810102294AD00228504607D09C
:1011D000C8F8600000E03CE0FFF7E4FC04463BE0B8
:1011E0004746C8F86000FFF7DDFC064605E000BF93
:1011F000FFF7D8FC801B02282BD828688001F7D481
:10120000D4E907010843A16A2E4A490802EB0141CB
:10121000626A41EA8211084394F82C1040EA0161A5
:10122000C9F8001001203866FFF7BCFC044606E050
:101230003EE000BFFFF7B6FC001B022809D8286873
:101240008001F7D534E000BFFFF7ACFC001B02289B
:1012500002D90320BDE8F88F28688001F4D427E084
:101260000128F7D0D9F80000E26900F4800191422A
:101270001CD1226A00F03F01914217D147F6C0719C
:10128000626A0140B1EB821F10D1A26A4FF0FF33B6
:1012900000F4403103EB5202B1EB024F06D194F857
:1012A0002C1000F07060B0EB016F01D00120D1E78D
:1012B0000020CFE70438024000004742800E47423A
:1012C000007000400000FFFF7047704710B5040039
:1012D00003D094F83D0010B107E0012010BD0020BC
:1012E00084F83C00204600F01EF8022084F83D00FF
:1012F000211D206800F0B2FC012084F8460084F82B
:101300003E0084F83F0084F8400084F8410084F8EF
:10131000420084F8430084F8440084F8450084F8CF
:101320003D00002010BD704790F83D10012901D00C
:1013300001207047022180F83D100168CA6842F020
:101340000102CA6000681149884214D0B0F1804F90
:1013500011D00F4988420ED00E4988420BD00E4959
:10136000884208D00D49884205D00D49884202D0F4
:101370000C49884204D1816801F00701062903D095
:10138000016841F001010160002070470000014048
:101390000004004000080040000C00400004014030
:1013A000004001400018004070472DE9F04104461C
:1013B0000068C66805694FF00007A90713D5B10793
:1013C00011D5F91E0161012020772068806980070E
:1013D000204602D0FFF7E8FF04E000F07EF8204648
:1013E00000F07CF82777680716D5700714D52168B8
:1013F0006FF004000861022020772068806910F4F3
:10140000407F204602D0FFF7CFFF04E000F065F8F0
:10141000204600F063F82777280715D5300713D545
:1014200021686FF008000861042020772068C069F7
:101430008007204602D0FFF7B7FF04E000F04DF828
:10144000204600F04BF82777E80616D5F00614D5AD
:1014500021686FF010000861082020772068C069BB
:1014600010F4407F204602D0FFF79EFF04E000F01A
:1014700034F8204600F032F82777E80708D0F00764
:1014800006D021686FF001000861204600F028F8BE
:10149000280608D5300606D521686FF0800008615F
:1014A0002046FFF711FF680608D5700606D52168AB
:1014B0006FF040000861204600F01CF8A8060AD52D
:1014C000B00608D521686FF0200008612046BDE80D
:1014D000F041FFF7FABEBDE8F081704770470000A9
:1014E00000680349884201D1FFF762BB70470000E2
:1014F000001000407047704770470000F8B5016861
:1015000004460868CA684B6910F00F0F4FF00005D9
:1015100059D003F0010602F49077374365D0C10734
:1015200005D0D10503D5616C41F00101616441072B
:1015300005D5D90703D0616C41F0020161648107D0
:1015400005D5D90703D0616C41F00401616401073E
:1015500007D502F02001314303D0616C41F008014E
:101560006164616C00293AD0800604D5900602D5EA
:10157000204600F00EFC20684069616CC0F38010CA
:10158000090700D460B3204600F0DCFB2068406906
:10159000400621D52068143050E8001F21F040019A
:1015A00040E80012002AF5D1E06BA8B16E49016550
:1015B000E06BFFF7ADF8002811D0E06B016D01B0D2
:1015C000BDE8F040084783060FD593060DD52046A9
:1015D000BDE8F84000F0DDBB2046FFF78DFFF8BD09
:1015E0002046FFF789FF6564F8BD266B2023012E96
:1015F0007DD1C6067BD5D60679D5086848680090A7
:1016000048694FF00206400641D5E16B0868406822
:101610000004000CE8D0A28D8242E5D9E085C869BB
:10162000B0F5807F2DD020680C3050E8001F21F4E9
:10163000807140E80012002AF5D12068143050E88B
:10164000001F21F0010140E80012002AF5D12068B6
:10165000143050E8001F21F0400140E80012002A39
:10166000F5D184F84230256320680C3050E8001F23
:1016700021F0100140E80012002AF5D1E06BFEF7DE
:10168000FEFF6663A08DE18D401A81B22AE0A08D35
:10169000E18D401A81B2E08D0028A5D00029A3D0A9
:1016A00022680C3252E8000F20F4907042E80007E4
:1016B000002FF5D12068143050E8002F22F00102ED
:1016C00040E80027002FF5D184F8423025632068D8
:1016D0000C3050E8002F22F0100240E80023002BCD
:1016E000F5D166632046FFF706FFF8BDFFE7050664
:1016F0002BD5150629D594F841002128F5D1A068ED
:10170000B0F5805F01D12069B0B1206A411C21622F
:10171000216800784860E08C401E0004000CE084E2
:10172000E3D12068C16821F08001C1602068C168F0
:1017300041F04001C160D8E7206A0088C0F308008A
:101740004860206A801C2062E5E74006CDD550063F
:10175000CBD5CA68204622F04002CA6084F84130E6
:1017600000F01CF9C1E70000351D000870B5040049
:1017700004D094F84100002510B106E0012070BDAE
:1017800084F84050204600F023F8242084F84100DB
:101790002068C16821F40051C160204600F05AFB66
:1017A0002068016921F4904101612068416921F0BC
:1017B0002A0141612068C16841F40051C16065643B
:1017C000202084F8410084F842006563002070BD49
:1017D0002DE9F04F87B0044614216846FEF792FECB
:1017E0006548644B226864491438022603270025A3
:1017F0004FF0400B4FF4806A9A4260D10A6842F081
:1018000010020A60096801F010010591016841F0B9
:1018100002010160016801F002010591016841F0D7
:1018200001010160006802AA00F00100059080201B
:10183000CDE900064FF0070882E8A00169464F484D
:10184000FFF7B2F83002CDE9000602AA694682E845
:10185000A0014B48FFF7A8F84B4E4A484FF00068EC
:101860003060C6E90185C6E9035A7561B561F56165
:101870003562574630467562FFF72CF808B1FEF71F
:10188000FCFEE663B463404E3E4860367830C6E9FD
:1018900003577561B561F5613562756286E80109C6
:1018A0003046FFF717F808B1FEF7E7FEA6630022FF
:1018B00005212520B463FFF713FA252055E0334BAB
:1018C0009A4254D10A6842F020020A60096801F085
:1018D00020010591016841F0400101600068029516
:1018E00000F0400005904FF48440CDE90006082048
:1018F000CDE9037069462648FFF756F8224E214885
:10190000C036183830604FF02069C6E90195C6E945
:10191000035A4FF480787561C6E906584FF4403099
:10192000C6E9080557463046FEF7D4FF08B1FEF772
:10193000A4FEE663B463174E1248C6E90357756107
:10194000C6E9065835626030756286E8010A30469D
:10195000FEF7C0FF08B1FEF790FEA6630022052146
:101960004720B463FFF7BCF94720FFF7ABF907B096
:10197000BDE8F08F001001404438024000040240EE
:1019800000000240406402406C030020001401404B
:10199000001802408C0400207047000070B5044617
:1019A00000680D4988420ED10C4D00224021284686
:1019B000FFF7F2F8002280212846FFF7EDF80848EB
:1019C0004168491C416007492068884202D10649A4
:1019D0000120087070BD000000140140002002408A
:1019E00080000020001001407C000020FEE7000085
:1019F000154808B5016841F48001016000680022C3
:101A000000F48000009005213920FFF769F93920A2
:101A1000FFF758F9002205213A20FFF761F93A2033
:101A2000FFF750F9002205214520FFF759F945201D
:101A3000FFF748F9002205214620FFF751F9BDE8DC
:101A400008404620FFF73EB93038024000B587B065
:101A50001C2206496846FEF723FD0021684600F077
:101A60005CFB0349086007B000BD0000742C00084F
:101A70000000002030B587B014216846FEF742FD13
:101A80001D480024016841F040010160016801F037
:101A900040010591016841F001010160016801F018
:101AA00001010591016841F002010160016801F046
:101AB00002010591016841F480710160016801F43F
:101AC00080710591016841F08001016000680B4D53
:101AD00000F0800005900022C0212846FFF75CF846
:101AE000C02000900120CDE90104694628460394F6
:101AF000FEF75AFF07B030BD3038024000200240E8
:101B00000C4810B50A4901604FF4E13141600021F1
:101B100081600C22C160C0E904128161C161FFF7DC
:101B200025FE002803D0BDE81040FEF7A6BD10BD7D
:101B300000100140DC0200200C4810B50A49016089
:101B40000B494160002181600C22C160C0E9041290
:101B50008161C161FFF70AFE002803D0BDE8104093
:101B6000FEF78BBD10BD00000014014024030020CF
:101B7000003E4900FEE7FEE7012000F0C1FAFBE766
:101B800010B5502080F31188BFF34F8FBFF36F8FD4
:101B900000F09AFF18B104494FF08050086000200F
:101BA00080F3118810BD000004ED00E030B593B063
:101BB00030216846FEF7A6FC14210CA8FEF7A2FC13
:101BC0001D480025016841F080510160006800F067
:101BD000805011901948016841F48041016000680B
:101BE000022400F480401190012000900004019034
:101BF0008001CDE9064006200890A820CDE909041F
:101C000004200B906846FFF7A9F908B172B6FEE709
:101C10000CA90F2081E831004FF4A0500F904FF431
:101C20008050109005210CA8FFF78CF8002801D0F7
:101C300072B6FEE713B030BD40380240007000407D
:101C40000248016841F470010160704788ED00E0CE
:101C50000148FFF7AABB0000EC040020F0B50268C1
:101C6000294C2A4D2A4E2B4F2B4B4FF0804CA04233
:101C700009D0604507D0A84205D0B04203D0B84291
:101C800001D0984204D122F0700E4A6842EA0E0256
:101C9000A0421BD0604519D0A84217D0B04215D041
:101CA000B84213D0984211D01C4DA8420ED01C4D02
:101CB000A8420BD01B4DA84208D01B4DA84205D00E
:101CC0001A4DA84202D01A4DA84203D122F4407501
:101CD000CA682A434D6922F080022A4302608A685A
:101CE000C2620A688262A04201D0984201D10969A9
:101CF0000163012141610169C90703D0016921F034
:101D000001010161F0BD000000000140000400403D
:101D100000080040000C0040000401400040014069
:101D2000004401400048014000180040001C0040F1
:101D30000020004010B5806B0021C185C184FFF7F1
:101D4000DBFB10BD01680C3151E8002F22F49072CA
:101D500041E80023002BF5D10168143151E8002F30
:101D600022F0010241E80023002BF5D1016B01298B
:101D700009D101680C3151E8002F22F0100241E82E
:101D80000023002BF5D1202180F8421000210163AF
:101D9000704708B590F84210222901D0022008BDF2
:101DA00082684FF480539A4201D1016921B1816A5E
:101DB0009A421BD04AB10AE00268816A5268C2F3B3
:101DC00008020A80816A891C08E0026972B102680F
:101DD000526802F07F020A70816A491C8162C18DDB
:101DE000491E0904090CC18503D01BE00268526832
:101DF000F1E70168CA6822F02002CA600168CA6877
:101E000022F48072CA6001684A6922F001024A61C4
:101E1000202180F8421000214163026B012A03D087
:101E2000FFF7BAFD002008BD016301680C3151E8DD
:101E3000002F22F0100241E80023002BF5D10168A9
:101E40000A68D20602D50A6849680091818DFFF7B9
:101E500052FBE7E770B5044600680169E26821F4C7
:101E60004051114301612169A068E2690843616939
:101E7000114308432168CA6849F20C639A4302433C
:101E8000CA6020684169A26921F44071114341612F
:101E900031492068884202D03049884202D1FFF798
:101EA0001BF801E0FFF708F8E26900231921642517
:101EB0003226B2F5004F626828D0A0FB0101930FD3
:101EC0009200FEF731FA0146B0FBF5F06FF0180210
:101ED000504301EB800006EB0010B0FBF5F000F082
:101EE000F002B1FBF5F002EB0012B1FBF5F06FF080
:101EF0001803584301EB800006EB0010B0FBF5F02F
:101F000000F00F0021681044886070BDA0FB010143
:101F100092185B41FEF708FA0146B0FBF5F00201AA
:101F2000B1FBF5F06FF01803584301EB800006EBAE
:101F3000C000B0FBF5F000F0F80002EB4002B1FB8E
:101F4000F5F0584301EB800006EBC000B0FBF5F064
:101F500000F00700D6E70000001001400014014027
:101F60000148FFF7CBBA0000DC02002010B503489F
:101F7000FFF7C4FABDE8104000F04EB8240300207B
:101F8000204930B488423BD11F48026811681F4B7A
:101F90000D031F4915684FF09C0425F001051560DD
:101FA00015D405686A68C2F19C0292B21A806C600E
:101FB0000B6843F400230B600068016841F00101E5
:101FC00001604E2A1CD1134901F19C0015E0026802
:101FD0005568C5F19C05ADB21D8054600A6822F4B5
:101FE00000220A600068016841F0010101604E2D85
:101FF00006D108494E3101F14E0030BC00F056B810
:1020000030BC7047240300202C04002080000020F6
:1020100028640240244200200A4808B5006801688C
:10202000890603D501684068009008BD0649096823
:10203000C906FAD50168406800900248FFF7A0FF82
:1020400008BD00002403002000140140FEE709073A
:10205000090E002804DB00F1E02080F8001470472E
:1020600000F00F0000F1E02080F8141D7047000020
:10207000F0B586464FF0FF3000230B4DC70710E048
:102080005EF823603A46002400284FEA400000DA58
:102090006840164200D068405208641C202CF3D3DC
:1020A0005B1C8B42ECD3F0BDB71DC10470B50C4670
:1020B0000646D1F84A5012212046FFF7D9FFA84220
:1020C00006D121463046BDE870404E22FEF7A3B946
:1020D00070BDFEF775FDFFF769FDFFF7CBFCFFF75D
:1020E00087FCFFF729FDFFF70BFDFFF7AFFC00F0C2
:1020F0000FF8FEE70021842800D0C11C0846704775
:1021000010B5002800D1012000F052FB002010BDC6
:1021100010B500F075FB002010BD30B585B0044649
:102120000D466169B4F90800002910D0A16971B1A8
:10213000FFF7E0FF6269A1690192029100902B46CE
:1021400022692168606800F08FFC049010E0FFF7BE
:10215000D1FF04A901910090208A2B4682B2216808
:10216000606800F04BFC012802D005B0002030BDB3
:10217000049805B030BD00002DE9F04104460F463B
:10218000194EF5683068001D00F044FA48B930680F
:10219000012190F82C0001FA00F0316921EA0000D9
:1021A0003061B4F1FF3F07D137B13068BDE8F0418D
:1021B000011D0E4800F075BA2C4430684460AC42F2
:1021C00006D23068011DB06BBDE8F04100F04EBA98
:1021D0003068011D706B00F049FAB06A844200D289
:1021E000B462BDE8F0810000140000201006002059
:1021F00070B5044600F062FA1C4DA868401CA86047
:10220000286810B1686938B10CE02C60A868012812
:1022100008D100F0EDF805E02868E16AC06A88425C
:1022200000D82C60686A401C6862E06A01212A6953
:102230008140114329610E4900EB800001EB8000D1
:10224000211D00F02EFA00F059FA686900280CD020
:102250002868E16AC06A884207D206494FF0805078
:102260000860BFF34F8FBFF36F8F70BD1400002065
:102270003405002004ED00E070B50D4C60680028C6
:1022800015D00C4E00F01AFAF068C568281D00F051
:10229000C1F9A068401EA0606068401E606000F048
:1022A0002DFA284600F008F860680028EAD170BDD1
:1022B00014000020FC05002010B5044694F85110CD
:1022C00000290BD0012911D0022914D0502080F30D
:1022D0001188BFF34F8FBFF36F8FFEE7206B00F0C5
:1022E00023FA2046BDE8104000F01EBA2046BDE8A3
:1022F000104000F019BA10BD4FF47051104810F0A2
:10230000070F06D0C01D20F007000D49411AC1F586
:1023100070510C4A1060002353600144083921F0C9
:102320000701183A11604B600B600B1A43600160A3
:102330004068906050604FF000405061704700006E
:102340002406002068000020074E4FF08054074DFF
:10235000FFF792FF30680128FAD92C60BFF34F8F46
:10236000BFF36F8FF4E700003405002004ED00E0B8
:102370002DE9F0478146099E089D0A9C9A46521E07
:10238000206B00EB820020F00708002700290CD00A
:10239000002023180A5C83F834200A5C12B1401C28
:1023A0001028F6D384F8437001E084F83470072DC8
:1023B00000D30625E5626564A764201D00F053F98B
:1023C00004F1180000F04FF92461C5F10700A06185
:1023D0006462E76484F8507052464946404600F013
:1023E00003F92060002E00D03460BDE8F0870000C3
:1023F00070B500240F4D04EB840005EB800000F065
:1024000027F9641C072CF6D30B4800F021F90B4880
:1024100000F01EF90A4800F01BF90A4800F018F90C
:10242000094800F015F909480349416314318163F3
:1024300070BD000034050020C0050020D405002038
:10244000E8050020FC0500201006002014000020F4
:1024500010B4144900E011460A688242FBD34B686D
:1024600003EB010C844503D14068184448600846DA
:102470000C68D0F804C00CEB0003A3420CD10A4B4B
:102480001B689A4206D05268624442600A68126829
:10249000026002E0036000E00260814200D0086058
:1024A00010BC704768000020500000200749486BAE
:1024B0000068002805D0486BC068C0684068886222
:1024C00070474FF0FF308862704700001400002012
:1024D0000A484068B0F1FF3F07D0502080F31188D0
:1024E000BFF34F8FBFF36F8FFEE7502080F311884B
:1024F000BFF34F8FBFF36F8FFEE700007000002027
:102500002DE9F0410546002600F0BEF9344F386849
:1025100008B9FFF7F1FE7869054251D19DB1083540
:1025200015F0070F0FD005F00700C0F108000544B3
:1025300015F0070F07D0502080F31188BFF34F8F9D
:10254000BFF36F8FFEE7002D3AD07868854237D809
:1025500024490846046801E0214604466068A84210
:1025600002D220680028F7D13868844228D0086851
:1025700000F10806206808606068411B10290FD927
:10258000601910F0070F07D0502080F31188BFF3B7
:102590004F8FBFF36F8FFEE741606560FFF758FF15
:1025A00061687868401A7860BA68904200D2B86072
:1025B00078690843606000202060F868401CF8607B
:1025C00000F0ECFA16F0070F07D0502080F31188C6
:1025D000BFF34F8FBFF36F8FFEE73046BDE8F0814A
:1025E0005000002068000020001F4FF0807303603F
:1025F000001F21F001010160001F0549016014382E
:102600000260001F6FF00201016020387047000077
:10261000D12400080169436882689A60836842682F
:102620005A604A68824201D182684A60002202618F
:102630000868401E0860086870470000034B03608C
:1026400003F154000860802010607047880000206B
:1026500000F1080141604FF0FF328260C16001610A
:1026600000210160704700210161704710B4D1F86A
:1026700000C0BCF1FF3F02D000F1080202E0026995
:1026800004E01A4653681C686445FAD953684B60E5
:1026900099608A60516008610168491C016010BC42
:1026A000704742684A6093688B6093685960916094
:1026B00008610168491C016070470000502080F3E8
:1026C0001188BFF34F8FBFF36F8F0A494868401CD2
:1026D000486001280CD10848006810F0FF0F07D0AF
:1026E000502080F31188BFF34F8FBFF36F8FFEE749
:1026F000704700007000002004ED00E009494868C0
:10270000002806D0401E4860002801D180F31188BF
:102710007047502080F31188BFF34F8FBFF36F8F46
:10272000FEE700007000002070B500282AD0A0F15C
:102730000804154D60686969084207D1502080F38C
:102740001188BFF34F8FBFF36F8FFEE722683AB156
:10275000502080F31188BFF34F8FBFF36F8FFEE7D8
:102760008843606000F090F86068696808446860B9
:102770002046FFF76DFE2869401C2861BDE87040C7
:1027800000F00CBA70BD0000500000204FF0E020B7
:1027900000210161816105494FF47A720968B1FB3A
:1027A000F2F1491E416107210161704710000020CC
:1027B00010B502460020002A12D00F48006B38B135
:1027C000502080F31188BFF34F8FBFF36F8FFEE768
:1027D00000F05AF800211046FFF7CEFC00F0DEF9B9
:1027E000002807D105494FF080500860BFF34F8F94
:1027F000BFF36F8F10BD00001400002004ED00E057
:1028000010B586B000240594049403AA04A905A871
:10281000FFF714FF0598049901910290002300949A
:1028200015A11748039A00F01FF91649C86208B1AC
:10283000012000E0002001280AD0B0F1FF3F19D1AB
:10284000502080F31188BFF34F8FBFF36F8FFEE7E7
:10285000502080F31188BFF34F8FBFF36F8F4FF07D
:10286000FF30886201204861CC6006B0BDE81040AE
:1028700000F042B806B010BD49444C4500000000CD
:1028800049230008140000200248016B491C016321
:102890007047000014000020154A106B002802D079
:1028A0000120D06170470020D0611069B0FA80F03B
:1028B000C0F11F000F4900EB800051F8203073B1C8
:1028C00001EB800041684968416000F108039942CA
:1028D00001D1496841604068C0681060704750206D
:1028E00080F31188BFF34F8FBFF36F8FFEE70000B7
:1028F000140000203405002010B582B0384801686B
:10290000384A914207D1502080F31188BFF34F8F8E
:10291000BFF36F8FFEE700683349884207D150202C
:1029200080F31188BFF34F8FBFF36F8FFEE72F49FE
:1029300008780190FF200870087800909DF800004A
:102940009DF8002000F0F000904207D0502080F366
:102950001188BFF34F8FBFF36F8FFEE79DF8000024
:10296000234C00F0500020700720A0609DF800006C
:1029700010F0800F0BD0A068401EA0609DF80000F2
:10298000400000909DF8000010F0800FF3D1A06887
:10299000032807D0502080F31188BFF34F8FBFF377
:1029A0006F8FFEE74FF44070A060019808701148E7
:1029B000016841F470010160016841F070410160FB
:1029C000FFF7E4FE00206060FDF752FC0A48016852
:1029D00041F040410160FDF737FC02B0002010BD1E
:1029E00000ED00E071C20F4170C20F4100E400E051
:1029F0007000002020ED00E034EF00E02DE9F04F02
:102A000085B081460F9F0E9E8A4690469B464FEAB0
:102A10008800FFF775FD054628000AD05420FFF70F
:102A20006FFD04460CB1256304E02846FFF77CFEE9
:102A300000E000249CB1002084F8510003905B4624
:102A4000424651460197009602944846FFF790FC93
:102A50002046FFF7CDFB05B00120BDE8F08F05B0A3
:102A60004FF0FF30BDE8F08F70B586B00646DDF858
:102A700028C00C9C0B98002816D0ECB15425049566
:102A80002063022084F85100002005AD0390CDF8AA
:102A900000C0019502943046FFF76AFC2046FFF71C
:102AA000A7FB059806B070BD502080F31188BFF3D6
:102AB0004F8FBFF36F8FFEE7502080F31188BFF375
:102AC0004F8FBFF36F8FFEE72DE9F0470026314FA0
:102AD000386B002805D0B869401CB8613046BDE8A5
:102AE000F087F868451CFD609DB9786B006838B1C7
:102AF000502080F31188BFF34F8FBFF36F8FFEE735
:102B0000786BB96B7963B863386A401C3862FFF739
:102B1000CDFCB86ADFF8808085420FD34FF0010901
:102B2000786B006838B1786BC068C46860688542AB
:102B300012D2B86202E04FF0FF30B8623868C06A63
:102B400000EB800058F82000012800D90126F86920
:102B50000028C3D00126C1E7201DFFF75BFDA06A56
:102B600018B104F11800FFF755FDE16A3A6909FA56
:102B700001F01043386101EB810008EB8000211D5A
:102B8000FFF78FFDE06A3968C96A8842C8D3012619
:102B9000C6E7000014000020340500202DE9F047AE
:102BA0000024A0462D4D286B002807D0FFF786FD96
:102BB000286B401E2863286B40B149E0502080F309
:102BC0001188BFF34F8FBFF36F8FFEE7A86800280F
:102BD0003ED0234F3868012600B3A7F1B409F86846
:102BE000C46804F11800FFF715FD201DFFF712FD62
:102BF000E06A2A6906FA00F11143296100EB8000BE
:102C000009EB8000211DFFF74CFDE06A2968C96AC5
:102C1000884200D3EE6138680028E0D10CB1FFF79C
:102C200045FCAC6944B1FFF74FFF00B1EE61641E93
:102C3000002CF8D10020A861E86948B14FF00108E4
:102C400008494FF080500860BFF34F8FBFF36F8F7C
:102C5000FFF754FD4046BDE8F08700001400002057
:102C6000E805002004ED00E04FF04070E1EE100AAE
:102C700070470000B02C0008791B0008000000001D
:102C800000000000800000000000000000000000C4
:102C900000061016000610160000000000000000DC
:102CA00001020304060708090000000001020304F2
:102CB00064656661756C745461736B00DC2C00088C
:102CC0000000002088000000C4010008642D0008F6
:102CD00088000020E8480000E00100080000000033
:102CE0000100000010000000000000000024F400BB
:102CF00000000000000000000000000000000000D4
:102D000000000000000000000000000000000000C3
:102D100000000000000000000000000000000000B3
:102D200000000000000000000000000000000000A3
:102D30000000000000000000000000000000000093
:102D40000000000000000000000000000000000083
:102D5000AAAAAAAA000000000100000000000000CA
:042D6000000000006F
:040000050800018965
:00000001FF
