:020000040800F2
:100000004891002029030008958000086B6E0008C5
:1000100091800008591300080DE800080000000056
:10002000000000000000000000000000690200085D
:10003000F31F000800000000C5020008B1B100086D
:100040004303000843030008430300084303000878
:100050004303000843030008F51F0008430300089A
:10006000430300080B200008152000084303000884
:100070004303000843030008430300084303000848
:100080004303000843030008430300084303000838
:100090005D13000843030008430300081F20000805
:1000A0004303000843030008430300084303000818
:1000B000ADB20008430300084303000843030008EF
:1000C00043030008430300084303000843030008F8
:1000D00043030008ADBC00084303000843030008C5
:1000E000FF1F000843030008430300084303000800
:1000F00043030008430300084303000843030008C8
:1001000043030008430300084303000843030008B7
:100110004303000843030008BDB20008430300087E
:10012000430300080116000811160008A91E000864
:100130004303000843030008430300084303000887
:1001400043030008430300084303000899800008A4
:10015000B91E0008C91E0008D91E0008C1BC00084D
:100160004303000843030008430300084303000857
:100170004303000843030008430300080000000095
:10018000430300084303000800F002F800F05CF8A5
:100190000AA090E8000C82448344AAF10107DA45E2
:1001A00001D100F051F8AFF2090EBAE80F0013F0D8
:1001B000010F18BFFB1A43F00103184724A30100E5
:1001C00044A301000A444FF0000C10F8013B13F067
:1001D000070408BF10F8014B1D1108BF10F8015BA0
:1001E000641E05D010F8016B641E01F8016BF9D193
:1001F00013F0080F1EBF10F8014BAD1C0C1B09D1EA
:100200006D1E58BF01F801CBFAD505E014F8016B5B
:1002100001F8016B6D1EF9D59142D6D370470000ED
:100220000023002400250026103A28BF78C1FBD8FF
:10023000520728BF30C148BF0B6070471FB519F087
:100240000DFA1FBD10B510BD00F090FA1146FFF772
:10025000F5FF15F043F800F0AEFA03B4FFF7F2FF34
:1002600003BC00F013FB00002C4B19680868B0E8D1
:10027000F04F80F30988BFF36F8F4FF0000080F3D9
:10028000118870470000000008480068006880F38B
:1002900008884FF0000080F3148862B661B6BFF39F
:1002A0004F8FBFF36F8F00DF00BF00BF08ED00E08E
:1002B000DFF80C00016841F470010160704700BF75
:1002C00088ED00E0EFF30980BFF36F8F134B1A68DE
:1002D0001EF0100F08BF20ED108A20E9F04F1060CB
:1002E00009B44FF0500080F31188BFF34F8FBFF374
:1002F0006F8F16F079FE4FF0000080F3118809BC73
:1003000019680868B0E8F04F1EF0100F08BFB0EC95
:10031000108A80F30988BFF36F8F7047A400002014
:10032000EFF30580704700000948804709480047FF
:10033000FEE7FEE7FEE7FEE7FEE7FEE7FEE7FEE795
:10034000FEE7FEE704480549054A064B70470000F2
:1003500099B2000889010008487D002048910020DA
:10036000488D0020488D00209FED1A1AF5EE000AF6
:1003700040EE010ABDEEE00AF5EEC00A10EE100AEA
:10038000F1EE10FA38BF401E00EE100A1349F7EEE6
:10039000001AB8EEC00A30EEC00ADFED0F0A20EEF8
:1003A000200AFCEEC00A10EE900AC0F3080000EE2E
:1003B000900A01EB8000F8EE600A90ED011A70EEF1
:1003C000600A90ED000A71EEE01A21EE800A00EE5C
:1003D000810A704783F9223E00000044C89B01084F
:1003E000DFED190AB5EEC00A60EE200ABDEEE01A94
:1003F00011EE100AF1EE10FA38BF401E00EE100A9E
:100400001349F7EE001AB8EEC00A30EEC00ADFED6D
:100410000F0A60EE200ABCEEE00A10EE100AC0F3EC
:10042000080000EE100A01EB8000B8EE400A90EDE3
:10043000011A70EEC00A90ED000A71EEE01A21EE8A
:10044000800A00EE810A704783F9223E00000044D2
:10045000C89B010853EA020C00F069802DE9F04BBB
:100460004FF00006002B1FBFB3FA83F503FA05F423
:1004700024FA05F65E4012BF1643B2FA82F502FA7C
:1004800005F4C5F120051EBF22FA05FC44EA0C0460
:10049000203556EA044C4FEA144418BF641C4FF050
:1004A00000084FF00009904271EB030C39D300298A
:1004B00019BFB1FA81F701FA07F6B0FA80F700FA2E
:1004C00007F6C7F120071EBF20FA07FC46EA0C0614
:1004D0002037B6FBF4FCA7EB0507103F07F01F0B16
:1004E000CBF120060CFA0BFB2CFA06F644BFB34600
:1004F0000026202FA4BF5E464FF0000B5BEA060CDF
:1005000008BF4FF0010B19EB0B09ABFB027C48EB6A
:100510000608C01B06FB02CC0BFB03CC71EB0C01E5
:10052000C1E70B46024641464846BDE8F08B13B58D
:100530004FF000004FF00001AFF30080BDE81C4019
:10054000704710B5431C02E010F8011B71B1810720
:10055000FAD14FF0013202C88C1A8C4314EAC2114E
:10056000F9D0C01A0A0603D0C01E10BDC01A10BDB3
:100570000A0401D0801E10BD0902FCD0401E10BD2F
:10058000032A40F2308010F0030C00F0158011F8BF
:10059000013BBCF1020F624498BF11F801CB00F897
:1005A000013B38BF11F8013BA2F1040298BF00F8EB
:1005B00001CB38BF00F8013B11F0030300F02580A8
:1005C000083AC0F0088051F8043B083A51F804CBCF
:1005D000A0E80810F5E7121D5CBF51F8043B40F895
:1005E000043BAFF30080D20724BF11F8013B11F8A0
:1005F00001CB48BF11F8012B24BF00F8013B00F8E4
:1006000001CB48BF00F8012B704710B5203AC0F06D
:100610000B80B1E81850203AA0E81850B1E8185003
:10062000A0E81850BFF4F5AF5FEA027C24BFB1E840
:100630001850A0E8185044BF18C918C0BDE81040B1
:100640005FEA827C24BF51F8043B40F8043B08BFBA
:100650007047D20728BF31F8023B48BF11F8012B81
:1006600028BF20F8023B48BF00F8012B704702F07A
:10067000FF0343EA032242EA024200F037B84FF098
:10068000000200B5134694469646203922BFA0E8E2
:100690000C50A0E80C50B1F12001BFF4F7AF0907EE
:1006A00028BFA0E80C5048BF0CC05DF804EB8900DF
:1006B00028BF40F8042B08BF704748BF20F8022B22
:1006C00011F0804F18BF00F8012B7047704770473A
:1006D000704710B500F02AF8006810BD10B5044648
:1006E00000F024F8046010BD4FF000020429C0F0AF
:1006F000128010F0030C3FF4C4AFCCF1040CBCF139
:10070000020F18BF00F8012BA8BF20F8022BA1EBA5
:100710000C01FFF7B6BF5FEAC17C24BF00F8012BD4
:1007200000F8012B48BF00F8012B704700487047C4
:10073000E47C00201FB584B000200A9C06AB04AA0C
:1007400002A90094AFF3008018B1DDE9020108B0FE
:1007500010BD0348204000F037F800200146F6E7BE
:100760000000207C00487047E47C00207546FFF7BD
:10077000F9FFAE4605006946534620F0070085465E
:1007800018B020B5FFF7DEFDBDE820404FF00006B1
:100790004FF000074FF000084FF0000B21F0070169
:1007A000AC46ACE8C009ACE8C009ACE8C009ACE8AC
:1007B000C0098D46704710B50446AFF3008020464F
:1007C000BDE81040FFF749BD10B500F009F8BDE8DD
:1007D0001040AFF30080002801D000F057B87047F8
:1007E00010B5022803D0410103D50DA112E000206D
:1007F00010BD010101D50FA10CE0C10001D511A16F
:1008000008E0810001D512A104E0400001D513A148
:1008100000E0002115A000F03FF8012010BD00000D
:10082000496E76616C6964204F7065726174696F9E
:100830006E000000446976696465204279205A653B
:10084000726F00004F766572666C6F770000000073
:10085000556E646572666C6F77000000496E65784E
:1008600061637420526573756C7400005349474688
:1008700050453A2041726974686D657469632065FA
:100880007863657074696F6E3A2000000149182022
:10089000ABBEFEE72600020070B505460C460A20F6
:1008A00000E06D1C00F011F835B128780028F8D16F
:1008B00002E0641C00F009F814B120780028F8D197
:1008C000BDE870400A20AFF3008008B569468DF896
:1008D00000000320ABBE08BD704710B52DED028BA4
:1008E000B0EE408AB0EE480A0EF0E8F8BDEC028B9C
:1008F00010BD10B52DED028BB0EE408AF0EE608A8F
:10090000F0EE680AB0EE480A0EF06EF9BDEC028B0C
:1009100010BD10B52DED028BB0EE408AB0EE480A46
:10092000FFF722FDBDEC028B10BDF0EE400AF5EEA4
:10093000C00AF1EE10FA02DDB0EE600A7047B1EEC7
:10094000600AFBE718B19FED020A80ED000A7047CC
:100950000000000018B1B3EE060A80ED000A7047EF
:1009600070B52DED0C8B84B006460C4615469FEDF8
:10097000990AF0EE408A9FED970AB0EE409A9FEDFB
:10098000950AF0EE40BA9FED930AF0EE409A9FED83
:10099000910AB0EE40AA0EB104B11DB904B0BDEC8D
:1009A0000C8B70BD8C48FFF7CDFF8C48FFF7D2FF52
:1009B0008A48D0ED000A9FED8A1A60EE810AB0EEF7
:1009C000600A00F02DF9F0EE408A28EEA80AF0EE59
:1009D000408A8248D0ED000AB0EE001A60EE810A2B
:1009E0009FED7F1A60EE810AB0EE600A00F018F900
:1009F000B0EE409A29EE090AB0EE409ADFED790A8E
:100A0000B7EE000A00EEA80ADFED770A00EEC90A89
:100A1000DFED760A20EE200A754880ED000A6E4868
:100A200090ED000ADFED730A80EE201AB7EE000A9F
:100A300031EE000A20EE000A6D48D0ED000A80EE8B
:100A4000801A6D4880ED001A94ED000AB5EEC00AD8
:100A5000F1EE10FA0DD194ED010AB5EEC00AF1EEF7
:100A600010FA06D194ED020AB5EEC00AF1EE10FAC2
:100A700046D09FED580AB0EE408A002001900290C7
:100A80000390D4ED000A60EEA00A94ED011AD4EDB3
:100A9000011A41EE210A94ED021AD4ED021A41EE38
:100AA000210AB0EE600A00F0A9F8B0EE408A94ED99
:100AB000000A20EE080A8DED010A94ED010A20EEED
:100AC000080A8DED020A94ED020A20EE080A8DED67
:100AD000030ADDED010AF1EE600AB0EE600AFFF7ED
:100AE000FCFEF0EE409A9DED031AF0EE410A9DEDFA
:100AF000021AB0EE410AFFF7FCFEB0EE40AA07E092
:100B00009FED340AF0EE409A9FED320AB0EE40AA13
:100B100095ED000AB5EEC00AF1EE10FA0DD195ED93
:100B2000010AB5EEC00AF1EE10FA06D195ED020AFF
:100B3000B5EEC00AF1EE10FA3CD0B0EE690A00F052
:100B40006FF8B0EE408AB0EE690AFFF7E2FEB0EE51
:100B500040DAB0EE4A0A00F063F8F0EE40AAB0EED8
:100B60004A0AFFF7D6FEB0EE40BA28EE2A0AD5EDC3
:100B7000010A20EE200AD5ED000A0DEE200A68EEEB
:100B80000B0A95ED021A00EE810AB0EE40CA95ED0F
:100B9000010A20EE0B0AD5ED020A0AEEE00AF0EE99
:100BA00040CAF0EE6C0AB0EE4C0AFFF7A2FEF0EE7F
:100BB00040BA03E09FED070AF0EE40BAB0EE4A1AE1
:100BC000F0EE690AB0EE6B0A30460FF023FD00BF6D
:100BD000E4E6000000000000800C0020840C0020EF
:100BE00035FA8E3CC1BFAD3B9DF8C5362F7C1C410C
:100BF000880C0020506CC24A8C0C002010B52DEDE2
:100C0000028BB0EE408AB0EE480A0FF0A6F9B7EEBC
:100C1000001AC1EE000AB0EE600ABDEC028B10BDF6
:100C200010B52DED028BB0EE408AB0EE480AFFF70A
:100C3000D7FBBDEC028B10BD2DE9F0412DED028BF1
:100C40009AB00546B0EE408A0E46174698460020F8
:100C50001790189019901490159016904DB146B1B8
:100C60003FB1B8F1000F04D0B5EEC08AF1EE10FA32
:100C700005D100201AB0BDEC028BBDE8F08196EDE5
:100C8000000A8DED170A96ED010A8DED180A96ED12
:100C9000020A8DED190A97ED000A8DED140A97ED01
:100CA000010A8DED150A97ED020A8DED160A17AAB5
:100CB00014A928460FF000FB402104A8FFF7DFFC31
:100CC00000200090019002900390002417A904A82E
:100CD00015F0DEFD00BF30E004A800EB041090ED3D
:100CE000000AD5ED000A20EE200A04A800EB04104B
:100CF000D0ED010A95ED011A00EE810A04A800EB7F
:100D00000410D0ED020A95ED021A00EE810A04A843
:100D100000EB0410D0ED030A95ED031A00EE810AF2
:100D200020EE080AF0EE000A80EE201A684600EB7A
:100D3000840080ED001A601CC4B2042CCCDB0024BB
:100D400010E005EB840090ED000A684600EB84009B
:100D5000D0ED000A30EE200A05EB840080ED000A99
:100D6000601CC4B2042CECDB284615F073FA012099
:100D700080E7000010B59FED162ADFED161A9FEDF3
:100D8000161ADFED160A9FED160A16480FF0EAFE56
:100D900015F0EEFA4FF4C870134908804E2213493B
:100DA000A1F14E0015F01AFCDFED110AB0EE000AB9
:100DB000104A0021104807F0C5FBF6EE000AB0EE1D
:100DC000000A0E4A00210E4807F0BCFB10BD0000CF
:100DD000852B3C4300001643A410B3433D0AC34196
:100DE00000000C43187B0020FC7A0020467C002089
:100DF000CDCC4C3EA49B01086C7A0020B09B01082E
:100E0000B47A002010B501221021024802F06AFDD8
:100E100010BD00000000024010B500221021024861
:100E200002F060FD10BD00000000024070470000AD
:100E300010B501221146024802F054FD10BD000019
:100E40000004024010B500220121024802F04AFDD0
:100E500010BD00000004024010B543781B021BB215
:100E60000478234300EE103AB8EEC01A1C4BD3EDC1
:100E7000001A21EE211A81ED001AC3781B021BB261
:100E80008478234300EE103AB8EEC01A144BD3ED29
:100E9000001A21EE211A81ED011A43791B021BB2BF
:100EA0000479234300EE103AB8EEC01A0C4BD3ED90
:100EB000001A21EE211A81ED021A037A1B04C4796B
:100EC00043EA04238479234300EE903AB8EE601A93
:100ED000DFED041A21EE211A82ED001A10BD000088
:100EE000B00B002000401C42704710B5044620465D
:100EF00014F014FB10BD10B50446204611F0EAFCB6
:100F000010BD00004278120212B203781A4300EEBC
:100F1000102AF8EEC00A144A92ED001A60EE810A17
:100F2000C1ED000AC278120212B283781A4300EEB1
:100F3000102AF8EEC00A0C4A92ED001A60EE810AFF
:100F4000C1ED010A4279120212B203791A4300EE8E
:100F5000102AF8EEC00A044A92ED001A60EE810AE7
:100F6000C1ED020A70470000B40B002010B5002448
:100F7000FFF75CFFFFF7B8FF0FF086FF10B144F0FA
:100F8000800402E00FF0E6FE044310F075F910B1A2
:100F900044F0400402E010F0F5F80443204610BD90
:100FA0002DE9FC4105460E461746002000900190B1
:100FB000FFF732FF922000F0D1F806226946122096
:100FC00000F0ACF8FFF71EFF9DF80100000200B230
:100FD0009DF8001040EA010400EE104AB8EEC00A85
:100FE0004C48D0ED000A20EE200A86ED000A9DF85C
:100FF0000300000200B29DF8021040EA010400EE76
:10100000104AB8EEC00A4348D0ED000A20EE200A8C
:1010100086ED010A9DF80500000200B29DF804105B
:1010200040EA010400EE104AB8EEC00A3948D0ED9B
:10103000000A20EE200A86ED020AFFF703FF0822CD
:101040006946002000F06AF8FFF7F2FE9DF8000004
:101050000F2838D19DF80300000200B29DF802105D
:1010600040EA010400EE104AB8EEC00A2A48D0ED6A
:10107000000A20EE200A85ED000A9DF80500000216
:1010800000B29DF8041040EA010400EE104AB8EEE8
:10109000C00A2148D0ED000A20EE200A85ED010AA1
:1010A0009DF80700000200B29DF8061040EA010416
:1010B00000EE104AB8EEC00A1748D0ED000A20EE44
:1010C000200A85ED020AFFF7A7FEA22000F046F8ED
:1010D00002226946222000F021F8FFF793FE9DF8D6
:1010E0000000C0009DF8011040EA6114B4F5806F63
:1010F00002DBA4F5006004B200EE104AF8EEC00A6C
:10110000B4EE001AB3EE070A00EE810A87ED000A7A
:10111000BDE8FC81B00B0020B40B002070B5064682
:101120000C46154646F0800000F018F806E0552001
:1011300000F014F82070641C681EC5B2002DF6D1B2
:1011400070BD70B504460D4644F0800000F006F80E
:10115000552000F003F8287070BD000001B582B082
:101160004FF47A70012301AA02A90090024804F00A
:10117000EDFB9DF804000EBDCC13002010B5024617
:101180001378DB00547843EA6410B0F5806F02DB1B
:10119000A0F5006318B200EE100AF8EEC00AB4EE33
:1011A000001AB3EE070A00EE810A81ED000A10BDB5
:1011B00070B505460C462846FFF7D0FF2046FFF7DE
:1011C000CDFF70BD2DED048B40F2651015F03AFD9A
:1011D00040F2651015F036FD40F2651015F032FD55
:1011E00010F05EF9A7E05448007800287ED0012175
:1011F000084610F085F94FF4967014F08FF94F48B7
:101200000078401E4E49085C4E490978884203D058
:101210004C48007800286AD14948401F90ED000AE8
:10122000B8EEC00AF3EE020A30EE200ABDEEC00AA4
:1012300080ED000A0146086817F0FCFA41EC190B32
:101240009FED410B53EC102B17F054FB41EC180BA6
:1012500016F090FE3A49491F0862642014F05EF9C6
:101260003748401F90ED000AB8EEC00ADFED380A9B
:1012700030EE600ABDEEC00A80ED000A0146086843
:1012800017F0D8FA41EC190B9FED2F0B53EC102BF4
:1012900017F030FB41EC180B16F06CFE2849491F83
:1012A0000862C82014F03AF92548401F90ED000A62
:1012B000B8EEC00AF3EE020A30EE200ABDEEC00A14
:1012C00080ED000A0146086817F0B4FA41EC190BEA
:1012D0009FED1D0B53EC102B17F00CFB41EC180B82
:1012E00016F048FE1649491F086201E020E018E0A8
:1012F000642014F013F911480078401E1049085C6E
:1013000010490978884207D00E48007820B10D486E
:10131000007806F073F808E00E48007806F06EF8E2
:1013200003E00848007806F069F8002002490870D8
:10133000052014F0F3F856E7F9010020F801002029
:10134000CD780020030000209A99999999998940B5
:1013500000001042FA01002000BFFEE710B502486D
:1013600001F0ABFA10BD000050130020F8B507469D
:101370000C4615461E464FF400700D4908600020CB
:101380008860C86008200861380A0A4908704F70F0
:10139000200A8870CC70280A08714D71300A887153
:1013A000CE716B460A460249034801F084F8F8BD45
:1013B00070790020FE0B00205013002038B5044641
:1013C00040F2FF100849086000208860C8600820CB
:1013D0000861200A054908704C706B460A460249AC
:1013E000034801F068F838BD88790020060C002019
:1013F000501300200346042B15D007DC7BB1012BD2
:101400000ED0022B0DD0032B12D10BE0202B0BD0D2
:10141000212B0AD0222B09D0232B09D107E008E089
:1014200007E006E005E004E003E002E001E000E0A0
:1014300000BF00BF002070470020704710B5002299
:10144000044905480AF0E1FE044903480AF0CEFECB
:10145000002010BDCC250020A4180020CC1D0020A9
:1014600070B504460D46214650480AF0BFFE4F486D
:101470000AF088FE2078FF2873D194F82500FE2812
:10148000FAD1002004E0411C615C494A1154401C1F
:101490000428F8DB464890ED000A464880ED000A33
:1014A000002004E0411D615C414A1154401C0428A5
:1014B000F8DB3F4890ED000A3E4880ED010A00202D
:1014C00005E000F10901615C394A1154401C04280F
:1014D000F7DB374890ED000A364880ED020A00201D
:1014E00005E000F10D01615C314A1154401C0428F3
:1014F000F7DB2F4890ED000A2E4880ED030A00200C
:1015000005E000F11101615C294A1154401C0428D6
:10151000F7DB274890ED000A264880ED040A0020FA
:1015200005E000F11501615C214A1154401C0428BA
:10153000F7DB1F4890ED000A1E4880ED050A0020E9
:1015400005E000F11901615C194A1154401C04289E
:10155000F7DB174890ED000A164880ED060A0020D8
:1015600006E021E000F11D01615C114A1154401CAC
:101570000428F7DB0E4890ED000A0E4880ED070ABC
:10158000002005E000F12101615C094A1154401C72
:101590000428F7DB064890ED000A064880ED080AAB
:1015A0000121054800F010F8002070BDA4180020AB
:1015B0007C000020A81D00207800002010B5034604
:1015C0000C460021084610BD2DE9F04104460D46A9
:1015D00000260A48D0F8BC72D7F8140210B10120D6
:1015E000BDE8F0812A46214604480AF00EFE034871
:1015F0000AF0BEFE06463046F2E70000A4180020BE
:1016000010B5024801F034FD10BD00009C17002009
:1016100010B5FE48C06C0068FD49884276D9FC4888
:1016200054380068F949C96C0968FA4A914201D1F5
:10163000202169E0F549C96C0968F54A483A9142A8
:1016400001D1202160E0F149C96C0968F14A60329A
:10165000914201D1202157E0EC49C96C0968EC4A5C
:101660001832914201D120214EE0E849C96C096845
:10167000E84A1832914201D1C91445E0E349C96CE6
:101680000968E34A303A914201D1C9143CE0DF498C
:10169000C96C0968DF4A7832914201D1C91433E03C
:1016A000DA49C96C0968DA4A3032914201D1C91469
:1016B0002AE0D649C96C0968D64A3032914202D133
:1016C0004FF4001120E0D149C96C0968D04A183A9A
:1016D000914202D14FF4001116E0CC49C96C09685F
:1016E000CC4A9032914202D14FF400110CE0C7492C
:1016F000C96C0968C64A4832914203D14FF40011BF
:1017000002E003E04FF00061084070E1BF48C06CA8
:101710000068C049A831884276D9BD485838006869
:10172000BA49C96C0968BB4A914201D1202169E0DC
:10173000B649C96C0968B64A483A914201D120219C
:1017400060E0B249C96C0968B24A6032914201D185
:10175000202157E0AD49C96C0968AD4A1832914261
:1017600001D120214EE0A949C96C0968A94A183263
:10177000914201D1C91445E0A449C96C0968A44A41
:10178000303A914201D1C9143CE0A049C96C0968C2
:10179000A04A7832914201D1C91433E09B49C96C07
:1017A00009689B4A3032914201D1C9142AE0974915
:1017B000C96C0968974A3032914202D14FF4001146
:1017C00020E09249C96C0968914A183A914202D1C5
:1017D0004FF4001116E08D49C96C09688D4A9032AA
:1017E000914202D14FF400110CE08849C96C09689C
:1017F000874A4832914203D14FF4001102E003E0DE
:101800004FF000610840F2E08048C06C00688149F8
:101810004831884276D97F48103840687B49C96C86
:1018200009687C4A914201D1202169E07749C96C5D
:101830000968774A483A914201D1202160E0734912
:10184000C96C0968734A6032914201D1202157E086
:101850006E49C96C09686E4A1832914201D1202143
:101860004EE06A49C96C09686A4A1832914201D14E
:10187000C91445E06549C96C0968654A303A914226
:1018800001D1C9143CE06149C96C0968614A7832E8
:10189000914201D1C91433E05C49C96C09685C4AC2
:1018A0003032914201D1C9142AE05849C96C096803
:1018B000584A3032914202D14FF4001120E053498E
:1018C000C96C0968524A183A914202D14FF400118A
:1018D00016E04E49C96C09684E4A9032914202D1D5
:1018E0004FF400110CE04949C96C0968484A483274
:1018F000914203D14FF4001102E003E04FF0006188
:10190000084074E04348103800684049C96C0968D1
:10191000404A914201D1202168E03C49C96C0968E4
:101920003B4A483A914201D120215FE03749C96CD6
:101930000968384A6032914201D1202156E033498A
:10194000C96C0968324A1832914201D120214DE018
:101950002E49C96C09682F4A1832914201D1C91425
:1019600044E02A49C96C0968294A303A914201D1B8
:10197000C9143BE02549C96C0968264A783291426E
:1019800001D1C91432E02149C96C0968204A3032BA
:10199000914201D1C91429E01C49C96C09681D4A4A
:1019A0003032914202D14FF400111FE01749C96C47
:1019B0000968174A183A914202D14FF4001115E014
:1019C0001249C96C0968134A9032914202D14FF40E
:1019D00000110BE00D49C96C09680D4A483291426B
:1019E00002D14FF4001101E04FF0006108400028DF
:1019F0006FD00648C06C0068054988427BD903480F
:101A0000C06C00680349884208D105E0CC1300206F
:101A10005864024010600240202068E0FE48C06C1C
:101A20000068FE49884201D1202060E0FA48C06C7D
:101A30000068FB49884201D1202058E0F648C06C7C
:101A40000068F6496031884201D120204FE0F24819
:101A5000C06C0068F2494839884201D1C01446E0A0
:101A6000ED48C06C0068ED491831884201D1C014BE
:101A70003DE0E948C06C0068E9491831884201D16D
:101A8000C01434E0E448C06C0068E449783188420E
:101A900001D1C0142BE0E048C06C0068E049303947
:101AA000884202D14FF4001021E0DB48C06C00688E
:101AB000DA493031884202D14FF4001017E0D6489D
:101AC000C06C0068D6493031884204D14FF4001010
:101AD0000DE0DFE10FE0D048C06C0068CF499031E5
:101AE000884202D14FF4001001E04FF00060CB4972
:101AF000091F08606AE1C848C06C0068C8494831DD
:101B0000884274D9C448C06C0068C54960398842AD
:101B100001D1202066E0C048C06C0068BF498842FF
:101B200001D120205EE0BC48C06C0068BC498842FE
:101B300001D1202056E0B848C06C0068B749603138
:101B4000884201D120204DE0B348C06C0068B44900
:101B50004839884201D1C01444E0AF48C06C0068E5
:101B6000AE491831884201D1C0143BE0AA48C06C8C
:101B70000068AB491831884201D1C01432E0A64850
:101B8000C06C0068A5497831884201D1C01429E0B1
:101B9000A148C06C0068A2493039884202D14FF494
:101BA00000101FE09C48C06C00689C49303188429E
:101BB00002D14FF4001015E09748C06C00689849B6
:101BC0003031884202D14FF400100BE09248C06CD3
:101BD000006892499031884202D14FF4001001E030
:101BE0004FF000608D4908390860EFE0FFE78A4850
:101BF000C06C00688A491839884274D98648C06C1C
:101C0000006887496039884201D1202066E0824817
:101C1000C06C00688149884201D120205EE07E4886
:101C2000C06C00687E49884201D1202056E07A4885
:101C3000C06C006879496031884201D120204DE0B4
:101C40007548C06C006876494839884201D1C01493
:101C500044E07148C06C006870491831884201D175
:101C6000C0143BE06C48C06C00686D491831884274
:101C700001D1C01432E06848C06C0068674978310F
:101C8000884201D1C01429E06348C06C00686449EF
:101C90003039884202D14FF400101FE05E48C06C1A
:101CA00000685E493031884202D14FF4001015E0DF
:101CB0005948C06C00685A493031884202D14FF40B
:101CC00000100BE05448C06C0068544990318842C1
:101CD00002D14FF4001001E04FF00060504970391C
:101CE000C86073E0FFE74C48C06C00684C4960393D
:101CF000884201D1202066E04748C06C006847490F
:101D0000884201D120205EE04348C06C006844490D
:101D1000884201D1202056E03F48C06C00683F490E
:101D20006031884201D120204DE03B48C06C006802
:101D30003B494839884201D1C01444E03648C06C60
:101D4000006836491831884201D1C0143BE032485E
:101D5000C06C006832491831884201D1C01432E0A9
:101D60002D48C06C00682D497831884201D1C014DB
:101D700029E02948C06C006829493039884202D1DD
:101D80004FF400101FE02448C06C00682349303134
:101D9000884202D14FF4001015E01F48C06C006863
:101DA0001F493031884202D14FF400100BE01A482D
:101DB000C06C006819499031884202D14FF400107C
:101DC00001E04FF0006016497039886015480078CE
:101DD00000F0020078B11348007820F002001149A9
:101DE00008700846007840F004000870012211468F
:101DF0000D4801F077FD0D48007800F00200E0B1D9
:101E00000A48007820F00200084908700846007867
:101E100040F0040008700BE0CC1300201064024076
:101E200070600240D10A002000040240D20A002063
:101E300001221021184801F055FD1848007800F0E3
:101E4000020078B11548007820F0020013490870AC
:101E50000846007840F004000870012210210E4866
:101E600001F040FD12F092FB0D48007800F00400F4
:101E700080B10B48007820F004000949087008463A
:101E8000007840F0080008700648006840F0010043
:101E90000449086010BD000000000240D30A002081
:101EA000D10A0020103C014010B5024801F0E0F8D2
:101EB00010BD00008414002010B5024801F0D8F8CD
:101EC00010BD00003C17002010B5024801F0D0F80A
:101ED00010BD0000FC17002010B5024801F0C8F842
:101EE00010BD0000DC1600200146087810381823C9
:101EF000B0FBF3F20848805CC865032A05D908687E
:101F00006FF30900001D886503E008686FF309009E
:101F10008865886D70470000D49A0108014600204A
:101F20008A6A8B69CBB932B1012A0DD0022A03D05B
:101F3000032A10D10EE000BFCB6A03F08073B3F127
:101F4000807F00D1012007E0CB6AB3F1C07F00D1D0
:101F5000012001E000E000BF34E08B69B3F5005FD1
:101F60001AD132B1012A07D0022A03D0032A11D193
:101F70000AE000BF01200EE0CB6A03F08073B3F1EA
:101F8000807F00D1012006E0CB6AB3F1C07F00D191
:101F9000012000E000BF15E032B1012A05D0022A7D
:101FA00004D0032A0CD103E000BF00BF012008E0E9
:101FB000CB6A03F08073B3F1807F00D1012000E091
:101FC00000BF00BF704730B50468246824F4802443
:101FD00005682C60046863608468402C04D1046840
:101FE000A2600468E16003E00468A1600468E26044
:101FF00030BD704710B5012001F064FB10BD10B575
:102000004FF4804001F05EFB10BD10B5082001F0D8
:1020100059FB10BD10B5102001F054FB10BD10B5D8
:10202000202001F04FFB10BD72B600BFFEE700009C
:102030008A78513000F8032C0A7900F8022C91F9C3
:10204000062040F8012CCA79C270B1F90C2000EECC
:10205000102AF8EEC00A9FED501A80EE810A10EEA9
:10206000102A4260B1F90E2000EE102AB8EEC00A24
:102070009FED4A1AC0EE010A9FED491A80EE810ACF
:1020800010EE102A82600A6900EE102A9FED441AB1
:10209000C0EE010A10EE902AC260B1F91A2000EEDB
:1020A000102AB8EEC00A9FED3D1AC0EE010A9FED5E
:1020B0003C1A80EE810A10EE102A0261D1F81E202F
:1020C00000EE102AF8EEC00A9FED351A80EE810A64
:1020D0009FED341AC0EE010AB0EE000A20EE800A2D
:1020E000DFED310A20EE200A10EE102A4261B1F92C
:1020F000262000EE102AB8EEC00ADFED2C0A20EEF2
:10210000200A10EE102A82615138B1F9282000EE21
:10211000102AB8EEC00ADFED250A20EE200A10EEE4
:10212000102AC0F86D20B1F92A2000EE102AB8EE6E
:10213000C00ADFED1E0A20EE200A10EE102AC0F8B9
:102140007120B1F92C2000EE102AB8EEC00ADFEDA4
:10215000180A20EE200A10EE102AC0F87520B1F9F6
:102160002E2000EE102AB8EEC00ADFED110A20EE94
:10217000200A10EE102AC0F87920B1F9302000EEC4
:10218000102AB8EEC00ADFED0A0A20EE200A10EE8F
:10219000102AC0F87D2070470000804300000043F3
:1021A0009A99114100008046DA0F49407F8C8D3AA0
:1021B00039B41C3B10B5002201B909E0012901D155
:1021C0000A0205E0022901D10A0201E04FF440723F
:1021D0000E4B1B6823F440730C4C236023461B6892
:1021E0001343236023461B6823F0F8032360234630
:1021F0001B68022444EAC0042343044C23602346A2
:102200001B6843F48033236010BD0000103C024083
:102210001C48006800F40070B0B11A48006820F44F
:1022200000701849086000BF0846006840F400606C
:1022300008600846006820F40060086000BF084697
:10224000006840F4007008600E48006800F4806088
:10225000B0B10C48006820F480600A49086000BFF3
:102260000846006840F4805008600846006820F482
:102270008050086000BF0846006840F48060086035
:1022800070470000003C02400A4A126822F4407283
:10229000084B1A601A46126842F004021A601A4685
:1022A00012684FF4803343EA00231A43014B1A604B
:1022B00070470000103C0240074A126822F4407246
:1022C000054B1A601A4612681A601A46126842F0E4
:1022D00001021A6001707047103C024010B50A49B3
:1022E000096821F44071084C21602146096841F4D5
:1022F000407121602146096841F0010121600260BE
:10230000BFF36F8F436010BD103C0240084A126853
:1023100022F44072064B1A601A46126842F4807228
:102320001A601A46126842F001021A600180704772
:10233000103C0240084A126822F44072064B1A60B0
:102340001A46126842F400721A601A46126842F085
:1023500001021A6001607047103C02402348006887
:1023600000F0100040B12248C06940F01000204940
:10237000C86110201D4908601C48006800F020005A
:1023800040B11B48C06940F008001949C8612020CD
:10239000164908601548006800F0400040B1144834
:1023A000C06940F004001249C86140200F4908602C
:1023B0000E48006800F0800040B10D48C06940F050
:1023C00002000B49C861802008490860074800687E
:1023D00000F0020040B10648C06940F02000044906
:1023E000C861022001490860704700000C3C0240AF
:1023F000D034002070B50446002500201449C8617F
:1024000001F076FA054609E0601C38B124B101F00C
:102410006FFA401BA04201D9032070BD0D4800682F
:1024200000F480300028EFD10A48006800F0010075
:1024300010B10120074908600648006800F0F2006A
:1024400018B1FFF78BFF0120E7E70020E5E7000068
:10245000D03400200C3C024070B50A480468001DCE
:102460000568001D0668344454B108220649204618
:1024700005F0CAF9042204491031284605F0C4F9D0
:1024800070BD0000107AFF1F5E00002010B50246EC
:1024900092F82030012B01D0022B06D11068406940
:1024A000084314686061002010BD506A40F4802029
:1024B00050620120F8E7F0B504460D461E4694F838
:1024C000207020688368A86800B900E000BF012F71
:1024D00001D0022F7DD103F0806030B903F000609D
:1024E00018B903F0805000287ED0C3F301610120A9
:1024F00088403060A86860B9B5F800C0E86840EA74
:102500004C5C206800F5C07000EB0110C0F800C002
:102510000FE0D5E901C040EACC00D5F80CC040EA94
:102520000C00D4F800C00CF5C07C0CEB011CCCF8FE
:102530000000D5F810C0206800F5C07000EB011055
:10254000C0F804C0287D01280ED1206800F5C070B5
:1025500000EB0110406840F4807C206800F5C070FA
:1025600000EB0110C0F804C0D079000692F806C054
:1025700040EA0C4092F805C040EA0C2092F804C0F2
:1025800040EA0C00D4F800C00CF5C07C0CEB011C38
:10259000CCF80C00D078000692F802C040EA0C405B
:1025A00092F801C040EA0C2092F800C040EA0C000A
:1025B000D4F800C00CF5C07C0CEB011CCCF8080072
:1025C000206800F5C07000EB0110006840F0010CBD
:1025D00001E00FE008E0206800F5C07000EB01109A
:1025E000C0F800C00020F0BD606A40F400106062D6
:1025F0000120F8E7606A40F4802060620120F2E781
:10260000F0B504460A46216894F82050012D01D007
:10261000022D7ED1424901F50071086840F00100A9
:102620000860086820F47C5008600868566A40EA30
:1026300006200860107D00F01F06012000FA06F356
:10264000C8699843C861A1F50071D069C8B9D1F8CB
:102650000C029843C1F80C02908880B2968940EA37
:10266000064601F51070576940F83760108880B24F
:10267000168940EA064601F51070576900EBC7005D
:102680004660D069012819D1D1F80C021843C1F86D
:102690000C02908880B2168840EA064601F5107058
:1026A000576940F83760908980B2168940EA06463B
:1026B00001F51070576900EBC7004660906928B9B2
:1026C000D1F804029843C1F8040204E0D1F80402EE
:1026D0001843C1F80402106928B9D1F814029843CC
:1026E000C1F8140204E0D1F814021843C1F814022E
:1026F000106A012804D1D1F81C021843C1F81C0249
:10270000D1F8000220F00100C1F800020020F0BD65
:10271000FFE7606A40F4802060620120F7E7000074
:1027200000640040704770B5044694F82050012DB5
:1027300001D0022D7DD151B92068C06800F003009E
:1027400080B9606A40F400106062012070BD2068AA
:10275000006900F0030028B9606A40F4001060626C
:102760000120F3E7206800F5D87000EB0110006845
:1027700000F004009060906840B9206800F5D870BF
:1027800000EB01100068400D106007E0206800F5C4
:10279000D87000EB01100068C0085060206800F598
:1027A000D87000EB0110006800F00200D0602068D3
:1027B00000F5D87000EB0110406800F00F00082809
:1027C00002D30820106108E0206800F5D87000EB03
:1027D0000110406800F00F001061206800F5D8700B
:1027E00000EB0110406800F47F40000A906120680F
:1027F00000F5D87000EB01104068000C50612068B3
:1028000000F5D87000EB011080681870206800F5A2
:10281000D87000EB0110806800F47F40000A587007
:10282000206800F5D87000EB0110806800F47F008C
:1028300000E03CE0000C9870206800F5D87000EBD8
:1028400001108068000ED870206800F5D87000EB89
:102850000110C0681871206800F5D87000EB0110F5
:10286000C06800F47F40000A5871206800F5D870F5
:1028700000EB0110C06800F47F00000C9871206824
:1028800000F5D87000EB0110C068000ED87131B9A6
:102890002068C06840F020002668F06005E02068ED
:1028A000006940F020002668306100204EE7606A31
:1028B00040F480206062012048E72DE9F05F044683
:1028C0000025206846692068D0F804902068876851
:1028D0002068D0F80CA02068D0F810B02068D0F89C
:1028E000188006F00100002855D007F00100C0B1A3
:1028F00001202168886007F0020018B1204600F02E
:1029000046FB0EE007F0040010B145F4006508E056
:1029100007F0080010B145F4805502E0204600F0B1
:1029200035FB07F48070C8B14FF48070216888606F
:1029300007F4007018B1204600F02BFB0EE007F4FE
:10294000806010B145F4005508E007F4006010B154
:1029500045F4804502E0204600F01AFB07F4803081
:10296000C8B14FF480302168886007F4003018B196
:10297000204600F010FB0EE007F4802010B145F473
:10298000004508E007F4002010B145F4803502E06E
:10299000204600F0FFFA06F0080038B10AF01000F7
:1029A00020B145F4007510202168C86006F00400CD
:1029B00040B10AF0080028B108202168C86020460C
:1029C00000F0A8F906F0020038B12068C06800F0F5
:1029D000030010B1204600F09FF906F0400038B126
:1029E0000BF0100020B145F48065102021680861CB
:1029F00006F0200040B10BF0080028B10820216843
:102A00000861204600F090FA06F0100038B1206806
:102A1000006900F0030010B1204600F086FA06F4C9
:102A2000003040B109F0100028B110202168486042
:102A3000204600F07BFA06F4803040B109F008002F
:102A400028B1082021684860204600F0A5FA06F465
:102A5000004088B309F0040078B306F4807020B118
:102A600008F0010008B145F0010506F4007020B13E
:102A700008F0020008B145F0020506F4806020B1BC
:102A800008F0040008B145F0040506F40060A0B1A8
:102A900008F0700088B108F07000402817D006DCFC
:102AA00010280BD020280CD0302819D10CE0502849
:102AB00010D0602814D110E01DE019E045F00805A1
:102AC0000FE045F010050CE045F0200509E045F069
:102AD000400506E045F0800503E045F4807500E020
:102AE00000BF00BF2068806920F070002168886105
:102AF0000420216848602DB1606A28436062204646
:102B0000FFF710FEBDE8F09F70B504460CB9012038
:102B100070BD94F8200010B9204600F0AFF820688E
:102B2000006840F001002168086000F0E1FE054601
:102B30000DE000F0DDFE401B0A2808D9606A40F471
:102B400000306062052084F820000120E0E7206862
:102B5000406800F001000028EBD02068006820F0F9
:102B600002002168086000F0C3FE05460DE000F099
:102B7000BFFE401B0A2808D9606A40F4003060623A
:102B8000052084F820000120C2E72068406800F09A
:102B900002000028EBD1207E012806D120680068C1
:102BA00040F080002168086005E02068006820F09F
:102BB000800021680860607E012806D120680068D6
:102BC00040F040002168086005E02068006820F0BF
:102BD000400021680860A07E012806D120680068B6
:102BE00040F020002168086005E02068006820F0BF
:102BF000200021680860E07E012806D12068006876
:102C000020F010002168086005E02068006840F0AE
:102C1000100021680860207F012806D12068006824
:102C200040F008002168086005E02068006820F096
:102C3000080021680860607F012806D120680068CC
:102C400040F004002168086005E02068006820F07A
:102C5000040021680860D4E902010843216908439F
:102C6000616908436168491E08432168C861002002
:102C70006062012084F82000002049E710B586B08A
:102C80000446142101A8FDF7FAFC1F492068884278
:102C900037D100BF002000901C48006840F0007051
:102CA0001A4908600846006800F00070009000BFF4
:102CB00000BF00BF0020009014481038006840F0AA
:102CC00008001249103908600846006800F0080042
:102CD000009000BF00BF032001900220029000205E
:102CE0000390032004900920059001A9084800F0F2
:102CF000F7FC00220621142001F044FA142001F010
:102D00002DFA06B010BD00000064004040380240BB
:102D1000000C02407047000010B58AB0044601ABB9
:102D200003AA00212046FFF7FEFC0398A0F2012031
:102D3000052877D2DFE800F003040506070000BF8E
:102D400000BF00BF00BF0398401E734908700846CB
:102D5000007800EB4000714931F8300000B26E4954
:102D6000097801EB41016D4A02EBC10108819DF830
:102D700005009DF8041040EA01206749097801EB3D
:102D8000410122F831009DF807009DF8061040EA45
:102D9000012000B26049097801EB410102EBC10159
:102DA00048809DF809009DF8081040EA012000B213
:102DB0005949097801EB410102EBC10188809DF876
:102DC0000A005549097801EB410102EBC101887104
:102DD000534851490978405C002870D04E4800782B
:102DE00000EB4000114631F830004B49097801EB07
:102DF000410102EBC101B1F90810401AB0F5805F42
:102E000011DD4548007800EB4000114601EBC000A1
:102E10004069401E4049097801EB410102EBC101C4
:102E2000486124E073E03C48007800EB40003B49F7
:102E300031F830003849097801EB4101374A02EB9B
:102E4000C101B1F90810401A10F5805F0FDA32485D
:102E5000007800EB4000114601EBC0004069401CC7
:102E60002D49097801EB410102EBC10148612A4873
:102E7000007800EB4000294931F8301026480078EE
:102E800000EB4000254A02EBC000406901EB4030F6
:102E90002149097801EB410102EBC101098A401A7D
:102EA00000EE100AB8EEC00A1B48007800EB4000A4
:102EB000114601EBC00080ED030A27E0FFE7012087
:102EC0001749154A127888549FED160A124800785F
:102ED00000EB4000114901EBC00080ED030A002027
:102EE0000D49097801EB41010C4A02EBC10148612F
:102EF0000948007800EB4000114631F830000649DF
:102F0000097801EB410102EBC101088200E000BF3A
:102F100000BF0AB010BD0000080C0020F8780020A7
:102F2000F40B00200000000070477047704770B538
:102F3000044694F82000012822D1022084F82000C1
:102F40002068006820F001002168086000F0D0FCD3
:102F500005460DE000F0CCFC401B0A2808D9606A49
:102F600040F400306062052084F82000012070BD2C
:102F70002068406800F001000028EBD16062F6E7AD
:102F8000606A40F4002060620120F0E770477047FB
:102F90007047704770477047704770B50446A56D1D
:102FA00000F0A6FC064694F83500022808D08020E0
:102FB000606500BF002084F8340000BF012070BDB0
:102FC0002068006820F016002168086020684069C9
:102FD00020F0800021684861206C08B9A06C28B1FD
:102FE0002068006820F008002168086020680068F8
:102FF00020F001002168086010E000F079FC801BDF
:1030000005280BD920206065032084F8350000BF17
:10301000002084F8340000BF0320D0E72068006857
:1030200000F001000028E8D194F85C103F208840AF
:10303000A860012084F8350000BF002084F8340027
:1030400000BF00BFBBE7014691F83500022803D05E
:103050008020486501207047052081F83500086808
:10306000006820F001000A6810600020F3E700000B
:10307000F8B50446002000908C4800684FF41651C3
:10308000B0FBF1F7A56D2E6894F85C10082088401D
:10309000304098B12068006800F0040070B12068EA
:1030A000006820F004002168086094F85C10082093
:1030B0008840A860606D40F00100606594F85C1085
:1030C00001208840304068B12068406900F08000ED
:1030D00040B194F85C1001208840A860606D40F019
:1030E0000200606594F85C1004208840304068B1AC
:1030F0002068006800F0020040B194F85C100420E1
:103100008840A860606D40F00400606594F85C1031
:1031100010208840304078B32068006800F0080034
:1031200050B394F85C1010208840A86020680068B4
:1031300000F4802080B12068006800F4002028B9E5
:10314000206CC8B12046216C884715E0A06C98B16E
:103150002046A16C88470FE02068006800F480706A
:1031600028B92068006820F0080021680860206CF9
:1031700010B12046216C884794F85C1020208840CC
:103180003040002865D02068006800F0100000285A
:103190005FD094F85C1020208840A86094F8350037
:1031A000052828D12068006820F0160021680860F2
:1031B0002068406920F0800021684861206C08B9CF
:1031C000A06C28B12068006820F008002168086021
:1031D00094F85C103F208840A860012084F83500F6
:1031E00000BF002084F8340000BF206D10B12046DD
:1031F000216D8847F8BD2068006800F4802080B108
:103200002068006800F4002028B9606C10B12046E6
:10321000616C88471DE0E06BD8B12046E16B8847C0
:1032200017E02068006800F4807068B920680068C2
:1032300020F0100021680860012084F8350000BFEC
:10324000002084F8340000BFE06B10B12046E16B31
:103250008847606D38B3606D00F00100F0B1052063
:1032600084F835002068006820F0010021680860BB
:1032700000BF0098401C0090B84200D905E02068CB
:10328000006800F001000028F3D100BF012084F89D
:10329000350000BF002084F8340000BFE06C10B19E
:1032A0002046E16C884700BFA4E70000A000002092
:1032B0002DE9F0410446002500F01AFB074614B939
:1032C0000120BDE8F081606A00B100BF022084F8EF
:1032D000350000BF002084F8340000BF206800687B
:1032E00020F00100216808600AE000F001FBC01B2B
:1032F000052805D920206065032084F83500E0E723
:103300002068006800F001000028EED12068056800
:1033100021480540D4E901010843E16808432169D7
:10332000084361690843A1690843E1690843216AC8
:1033300008430543606A042803D1D4E90B0108431C
:103340000543206805602068456925F00705606A27
:103350000543606A04280DD1A06A0543E06A48B1BC
:103360002046FEF7DBFD28B140206065012084F88F
:103370003500A6E7206845612046FEF7B5FD064604
:1033800094F85C103F208840B06000206065012008
:1033900084F83500002094E73F8010F02DE9F047D5
:1033A00004460D4616461F464FF00008D4F85890C4
:1033B00000BF94F83400012802D10220BDE8F08754
:1033C000012084F8340000BF94F83500012825D18D
:1033D000022084F83500002060653B4632462946CD
:1033E0002046FEF7F0FD94F85C103F208840C9F8B5
:1033F00008002068006840F0160021680860206C12
:1034000028B12068006840F0080021680860206842
:10341000006840F001002168086006E000BF00205D
:1034200084F8340000BF4FF002084046C6E70000B1
:1034300070B5044600F05CFA06462546681C10B1DB
:1034400004480078054400BF00F052FA801BA842EF
:10345000FAD370BD9C0000202DE9F04104460E46D1
:103460000127002500BF2548007E012802D1022047
:10347000BDE8F08101202149087600BF4CF25030B0
:10348000FEF7B8FF0746002F31D1401E306020689C
:1034900001280FD1207C6168FEF7F6FE4CF2503017
:1034A000FEF7A8FF07461648006820F004001449FC
:1034B00008601AE0A56812E0217C2846FEF77AFE33
:1034C0004CF25030FEF796FF07460D48006820F09A
:1034D000FA000B4908600FB1356005E06D1CD4E9B6
:1034E00002100844A842E7D800BFFEF791FE00BFD3
:1034F00000200249087600BF3846B9E7D0340020E2
:10350000103C02400348006840F000400149086058
:1035100000207047103C02402DE9F04106460F465E
:1035200014461D464FF0010800BF1F48007E0128C9
:1035300002D10220BDE8F08101201B49087600BFBE
:103540004CF25030FEF756FF8046B8F1000F23D101
:1035500026B9E1B23846FEF7AFFE12E0012E04D1E3
:10356000A1B23846FEF7D2FE0BE0022E04D121466E
:103570003846FEF7DFFE04E022462B463846FEF7CB
:10358000ADFE4CF25030FEF735FF8046074800682C
:1035900020F001000549086000BF002002490876BC
:1035A00000BF4046C6E70000D0340020103C024077
:1035B00000200949096801F0004159B10749064A4C
:1035C0000C3A1160064911600349096801F0004195
:1035D00001B1012070470000103C02402301674503
:1035E000AB89EFCD10B50446102C11D12A480078D4
:1035F00040F00100284908702848007840F0010098
:10360000264908702648007870B310F0BFFF2BE001
:10361000202C0BD12348007840F00100214908708C
:103620001F48007800B310F0B1FF1DE0082C06D150
:103630001D48007840F001001B49087014E0012C7F
:1036400012D114F0C3F901280ED0184918480068A7
:1036500013F0B2FB1548006830B120071549086027
:10366000BFF34F8FBFF36F8FB4F5804F12D14FF47C
:103670008041114800F02EF960B9104800780928FF
:1036800008D100200D490870342011F025FF0C48A6
:1036900002F018FC10BD0000D20A0020D30A00205E
:1036A000D50A0020D10A0020D40A0020640B002093
:1036B000AC0A002004ED00E00010024006000020EB
:1036C0002C15002010B5044604480068204020B1A5
:1036D000024804602046FFF785FF10BD143C0140FE
:1036E000F8B502460B460025002400200021D6E054
:1036F000012606FA01F51E6806EA0504AC4274D1FB
:103700001E7906F00306012E04D01E7906F003068A
:10371000022E13D190684F000326BE40B0434F00E5
:10372000DE68BE4030439060506801268E40B04352
:103730001E79C6F300168E40304350601E7906F0A5
:103740000306032E09D0D0684F000326BE40B043C5
:103750004F009E68BE403043D0601E7906F00306DD
:10376000022E13D1CF0802F1200656F827004E078B
:10377000F70E0F26BE40B0434F07FF0E1E69BE4036
:103780003043CF0802F1200646F8270010684F00AA
:103790000326BE40B0431E7906F003064F00BE402C
:1037A000304310605E6806F44036002E76D000BFCD
:1037B000002600963C4E366846F480463A4F3E60FE
:1037C0003E46366806F48046009600BF00BF374E7E
:1037D0008F0856F827008E07370F0F26BE40B043DC
:1037E000334EB24202D1002624E057E0314EB242BD
:1037F00001D101261EE0304EB24201D1022619E06D
:103800002E4EB24201D1032614E02D4EB24201D118
:1038100004260FE02B4EB24201D105260AE02A4EC3
:10382000B24201D1062605E0284EB24201D1072658
:1038300000E008268F073F0FBE4030431B4E8F0825
:1038400046F82700224E3068A0435E6806F48016D2
:1038500006B120431E4E3060361D3068A0435E68BE
:1038600006F4001606B12043194E361D3060184E7E
:10387000361F3068A0435E6806F4003606B1204368
:10388000134E361F3060361F3068A0435E6806F462
:10389000803606B120430E4E083E3060491C102988
:1038A000FFF426AFF8BD000044380240083801405C
:1038B000000002400004024000080240000C0240E8
:1038C000001002400014024000180240001C024098
:1038D000083C0140024613690B400BB1012000E097
:1038E000002070470AB1816101E00B0483617047D9
:1038F00001480068704700009400002070B504463D
:103900000CB9012070BD94F83D0028B9002084F85E
:103910003C00204600F010FB242084F83D00206885
:10392000006820F00100216808602068006840F409
:103930000040216808602068006820F40040216889
:10394000086001F02DFC05465C496068884206D895
:103950005B48854201D2012007E0002005E059487C
:10396000854201D2012000E00020012800D1C9E7F2
:103970005548B5FBF0F62068406820F03F00304322
:10398000216848604D496068884201D8701C07E092
:103990004FF4967070434FF47A71B0FBF1F0401C15
:1039A0002168096A21F03F01084321680862434900
:1039B0006068884214D8681E61684900B0FBF1F065
:1039C000401CC0F30B00042801D204203DE0681E17
:1039D00061684900B0FBF1F0401CC0F30B0034E01B
:1039E000A06838B9681E616801EB4101B0FBF1F0D5
:1039F000401C0AE0681E616801EBC10202EB011184
:103A0000B0FBF1F0401C40F48040C0F30B0008B95B
:103A100001201AE0A06848B9681E616801EB410105
:103A2000B0FBF1F0401CC0F30B000CE0681E6168B5
:103A300001EBC10202EB0111B0FBF1F0401CC0F33D
:103A40000B0040F4804040F400402168C9694CF606
:103A5000FF72914308432168C861D4E90701084314
:103A60002168096821F0C001084321680860D4E991
:103A7000031008432168896848F2FF3291430843E4
:103A800021688860D4E9050108432168C96821F0EC
:103A9000FF0108432168C8602068006840F0010009
:103AA0002168086000202064202084F83D00002068
:103AB000206384F83E0000BF24E70000A0860100D8
:103AC00080841E0000093D0040420F002DE9FC5F8C
:103AD00004460F4690469946DDE90CAB0E9EFFF773
:103AE00007FF054694F83D00202870D119230122D4
:103AF000B5492046009503F02CFB10B10220BDE82B
:103B0000FC9F00BF94F83C00012801D10220F6E799
:103B1000012084F83C0000BF2068006800F001002C
:103B200028B92068006840F001002168086020681A
:103B3000006820F4006021680860222084F83D00BD
:103B4000402084F83E0000202064C4F824A0A4F89B
:103B50002AB0608D20859D48E0624B46424639463A
:103B60002046CDE9006503F0A1F908B10120C6E7C0
:103B7000208D88B900BF0020019020684069019025
:103B800020688069019000BF00BF2068006840F491
:103B900000702168086040E0208D012818D120685D
:103BA000006820F480602168086000BF0020019058
:103BB00020684069019020688069019000BF00BFC3
:103BC0002068006840F400702168086025E0F8E093
:103BD000208D022816D12068006820F480602168BA
:103BE00008602068006840F400602168086000BF39
:103BF0000020019020684069019020688069019050
:103C000000BF0AE000BF00200190206840690190D9
:103C100020688069019000BF00BFC3E0208D0328A9
:103C20007ED8208D012815D12A463146204603F042
:103C30006CFB08B1012062E720680069616A0870C6
:103C4000606A401C6062208D401E2085608D401E91
:103C50006085A7E0208D02282AD1334600225C49E6
:103C60002046009503F075FA08B1012047E7206867
:103C7000006840F400702168086020680069616A8B
:103C80000870606A401C6062208D401E2085608D37
:103C9000401E608520680069616A0870606A401C87
:103CA0006062208D401E2085608D401E608579E019
:103CB0003346002246492046009503F04AFA08B1EF
:103CC00001201CE72068006820F4806021680860FB
:103CD00020680069616A0870606A401C6062208D1B
:103CE000401E2085608D401E608533460022384985
:103CF0002046009503F02DFA08B10120FFE6206868
:103D0000006840F400702168086020680069616AFA
:103D10000870606A401C6062208D401E208500E0B3
:103D200010E0608D401E608520680069616A08703F
:103D3000606A401C6062208D401E2085608D401EA0
:103D400060852FE02A463146204603F0DEFA08B1AE
:103D50000120D4E620680069616A0870606A401C2E
:103D60006062208D401E2085608D401E6085206829
:103D70004069C0F38000A8B1208D032805D12068D8
:103D8000006820F480602168086020680069616A2A
:103D90000870606A401C6062208D401E2085608D26
:103DA000401E6085208D00287FF438AF202084F8E5
:103DB0003D00002084F83E0000BF84F83C0000BFB6
:103DC0009DE602209BE60000020010000000FFFFBD
:103DD000040001002DE9FC5F04460F469046994619
:103DE000DDE90CAB0E9EFFF783FD054694F83D0020
:103DF00020287DD1192301224D492046009503F04A
:103E0000A8F910B10220BDE8FC9F00BF94F83C0067
:103E1000012801D10220F6E7012084F83C0000BF10
:103E20002068006800F0010028B92068006840F0B0
:103E30000100216808602068006820F400602168A3
:103E40000860212084F83D00402084F83E000020D6
:103E50002064C4F824A0A4F82AB0608D20853548D9
:103E6000E0624B46424639462046CDE9006503F004
:103E7000CDF808B10120C6E731E02A463146204698
:103E800003F088FA50B1206C042805D1206800683E
:103E900040F40070216808600120B4E7606A00788F
:103EA00021680861606A401C6062208D401E208588
:103EB000608D401E608520684069C0F3800070B14D
:103EC000208D60B1606A007821680861606A401CDA
:103ED0006062208D401E2085608D401E6085208D93
:103EE0000028CAD12A463146204603F0FFF800E0F8
:103EF0001CE050B1206C042805D12068006840F413
:103F000000702168086001207DE72068006840F4A7
:103F1000007021680860202084F83D00002084F8AB
:103F20003E0000BF84F83C0000BF6CE702206AE757
:103F3000020010000000FFFF10B586B004461421F7
:103F400001A8FCF79CFB2A49206888424DD100BF9C
:103F5000002000902748006840F0040025490860D0
:103F60000846006800F00400009000BF00BF00BFDA
:103F7000002000900846006840F0010008600846F4
:103F8000006800F00100009000BF00BF48150190DC
:103F90001220029001200390032004900420059039
:103FA00001A91548FFF79CFB4FF480700190122087
:103FB000029001200390032004900420059001A9A1
:103FC0000E48FFF78DFB00BF00200090094810301D
:103FD000006840F400000749103108600846006896
:103FE00000F40000009000BF00BF06B010BD00004C
:103FF000005C0040303802400008024000000240EF
:10400000034800680349097808440149086070477B
:10401000940000209C00002010B50D48006840F47A
:1040200000700B4908600846006840F48060086032
:104030000846006840F480700860032000F0E0F853
:104040000F2000F007F800F05FF8002010BD00001E
:10405000003C02402DE9F04188B004460027B846F4
:1040600000BF002001902348006840F01000214963
:1040700008600846006800F01000019000BF00BF13
:1040800002A903A801F064F8069F1FB901F088F89F
:10409000054602E001F084F845001748B5FBF0F052
:1040A000A0F1010815481649086040F2E7311448AC
:1040B000C160C0F80480002101618160816101F06C
:1040C000FFFD064696B90E4801F0FCFE06466EB9A5
:1040D000362000F043F8102C07D20022214636206B
:1040E00000F050F80748046000E00126304608B0B0
:1040F000BDE8F0814038024040420F00001000400F
:104100005C1800209800002008B500BF0020009037
:104110001148006840F480400F4908600846006874
:1041200000F48040009000BF00BF00BF002000905E
:10413000081F006840F08050091F086008460068AA
:1041400000F08050009000BF00BF00220F21901EA1
:1041500000F018F808BD0000443802400146084647
:1041600000280DDB00BF00BF00F01F0301229A40B2
:1041700043099B0003F1E023C3F8002100BF00BF07
:1041800000BF70472DE9F05F80460D4616460027B8
:104190000AF0ECFB074639462A46334601F0070091
:1041A000C0F1070ABAF1040F02D94FF0040A01E086
:1041B000C0F1070AD14600F1040ABAF1070F02D292
:1041C0004FF0000A01E0A0F1030AD4464FF0010AC3
:1041D0000AFA09FAAAF1010A0AEA020A0AFA0CFA28
:1041E0004FF0010B0BFA0CFBABF1010B0BEA030BCD
:1041F0004AEA0B04214640460AF0C0FBBDE8F09FA6
:1042000000BF00F00702064B19684FF6FF03194084
:10421000044B0B4343EA0221014B196000BF704776
:104220000CED00E00000FA0570470246106841629C
:1042300000207047F0B5034615461868446A21B956
:1042400044EA05401E68B06219E01868806A04EB11
:104250001044002208E0186800F5827050F822002F
:1042600004EB1044501CC2B2481E9042F3D844EAFA
:104270000547186800F582704E1E40F82670002031
:10428000F0BD10B50446D4F8E00408F0E2FC10BD1F
:1042900070B504460D4605EBC50304F1140101EBAE
:1042A0008301CA682946D4F8E00408F0CDFB70BD4C
:1042B00070B504460D4605EBC50304F5157101EB19
:1042C0008301CA682946D4F8E00408F041FC70BDB7
:1042D00010B50446D4F8E00408F0BEFC10BD2DE98A
:1042E000F04104460D4605F08000802808D105F015
:1042F0000F0000EBC00104F1140000EB810607E0A1
:1043000005F00F0000EBC00104F5157000EB81060D
:104310003146206809F0EAFE07463846BDE8F081DC
:1043200070B504460E4606F0800080280AD106F0DB
:104330000F0000EBC00104F1140000EB8105012027
:10434000687009E006F00F0000EBC00104F515707D
:1043500000EB81050020687006F00F00287000BF98
:1043600094F89404012801D1022070BD012084F842
:10437000940400BF2946206809F046FA00BF0020D7
:1043800084F8940400BF00BFEFE770B504460E4602
:1043900006F00F002179884201D9012070BD06F096
:1043A000800080280AD106F00F0000EBC00104F164
:1043B000140000EB81050120687009E006F00F0091
:1043C00000EBC00104F5157000EB8105002068705A
:1043D0000020A87006F00F00287000BF94F8940425
:1043E000012801D10220D9E7012084F8940400BFFC
:1043F0002946206809F006FC00BF002084F89404D8
:1044000000BF00BFCAE7024601F00F0000EBC00387
:1044100002F5157000EB8300406970472DE9F04705
:1044200005460E4690461F464FF0000906F08000F4
:1044300080280AD106F00F0000EBC00105F114003E
:1044400000EB81040120607009E006F00F0000EB32
:10445000C00105F5157000EB81040020607006F0C6
:104460000F002070C8F30A00A0602771607808B1BF
:1044700020786083022F01D10020607100BF95F881
:104480009404012802D10220BDE8F087012085F8BC
:10449000940400BF2146286809F0CAF800BF002034
:1044A00085F8940400BF4846EEE72DE9F041054643
:1044B0000E461746984606F00F0000EBC00105F5C2
:1044C000157000EB8104E760C4F810800020606183
:1044D000607006F00F002070A879012800D1E76114
:1044E000AA792146286809F021FC0020BDE8F08166
:1044F00070B504460D4605F00F002179884201D9B8
:10450000012070BD05F0800080280AD105F00F0061
:1045100000EBC00104F1140000EB81060120707073
:1045200007E005EBC50104F5157000EB81060020DE
:1045300070700120B07005F00F00307000BF94F86B
:104540009404012801D10220DBE7012084F89404BF
:1045500000BF3146206809F09CFB05F00F0028B928
:10456000A17904F29C42206809F014FB00BF0020EE
:1045700084F8940400BF00BFC3E72DE9F04105466D
:104580000E461746984606F00F0000EBC00105F1F5
:10459000140000EB8104E760C4F810800020606123
:1045A0000120607006F00F002070A879012800D16A
:1045B000E761AA792146286809F0B8FB0020BDE828
:1045C000F0812DE9FE4F0446D4F800B05E46206825
:1045D00009F06EFE002874D1206809F0A8FE08B921
:1045E000BDE8FE8F40F608008059C0F30D20C4F8E6
:1045F000D404206809F09BFE00F00200022805D1D7
:104600002068406900F0020021684861206809F0D4
:104610008EFE00F01000102845D12068806920F03F
:10462000100021688861DBF8209009F00F0000EB92
:10463000C00104F5157000EB810AC9F3434002285C
:104640001AD147F6F07009EA000030B3C9F30A1234
:104650005846DAF80C1009F06FFEC9F30A11DAF8BF
:104660000C000844CAF80C00C9F30A11DAF8140067
:104670000844CAF8140010E0C9F3434006280CD1DE
:10468000082204F29C41584609F056FEC9F30A116B
:10469000DAF814000844CAF814002068806940F071
:1046A000100021688861206809F041FE00F40020B4
:1046B000B0F5002F7BD10025206809F008FE02909C
:1046C00072E0E1E2029800F00100002868D0E9B24F
:1046D000206809F01FFE804608F0010048B1012162
:1046E00006F5306000EB451081602946204603F056
:1046F0000DFD08F00800082809D1082106F53060F2
:1047000000EB451081602946204603F0CDFC08F0FF
:104710001000102805D1102106F5306000EB45107F
:10472000816008F00200022824D1DBF8140000F0B8
:104730008000802807D140F60400805940F4806151
:1047400040F60400815105EBC50104F5157000EB3E
:10475000810A9AF80300012806D100208AF8030094
:10476000E9B2204600F09BFA022106F5306000EB2A
:104770004510816008F02000202805D1202106F591
:10478000306000EB4510816008F40050B0F5005F28
:1047900006D14FF4005106F5306000EB4510816002
:1047A0006D1C029840080290029800288AD1206867
:1047B00009F0BDFD00F48020B0F5802F7DD1206888
:1047C00009F07BFD029000259AE0029800F00100BC
:1047D000002873D0E9B2206809F083FD804608F014
:1047E0000100F0B305F00F0101208840019040F670
:1047F00034008159019821EA000040F634018851C3
:10480000012106F5106000EB45108160A0790128B8
:1048100024D105EBC50104F1140000EB810005EB88
:10482000C502C16804F1140000EB820080680144F5
:1048300005EBC50204F1140000EB8200C1606DB904
:1048400005EBC50104F1140000EB8100006928B9F3
:1048500004F29C420121206809F09CF9E9B220464B
:1048600000E001E0FFF714FD08F00800082805D17A
:10487000082106F5106000EB4510816008F010007B
:10488000102805D1102106F5106000EB451081605D
:1048900008F04000402805D1402106F5106000EBEB
:1048A0004510816008F0020002281DD129465846B3
:1048B00009F0C1FC05EBC50101E025E01CE004F1B5
:1048C000140000EB810A9AF80300012806D10020A9
:1048D0008AF80300E9B2204600F0D8F9022106F573
:1048E000106000EB4510816008F08000802803D143
:1048F0002946204603F0ACFC6D1C0298400802904B
:10490000029800287FF461AF206809F010FD00F0E4
:104910000040B0F1004F1CD140F60400805920F057
:10492000010140F60400815194F8CC04012807D11C
:10493000002084F8CC0400212046FFF775FC02E03B
:10494000204600F0D1FA2068406900F0004021685C
:104950004861206809F0EBFC00F40060B0F5006FDE
:104960000ED140F60800805900F0010010B1204639
:1049700000F012FB2068406900F400602168486183
:10498000206809F0D4FC00F48050B0F5805F7ED13F
:1049900040F60400805920F0010140F604008151E6
:1049A0001021206809F047FC002732E04FF67F31E4
:1049B00006F5106000EB4710816006F5106000EB13
:1049C0004710006820F4001106F5106000EB471056
:1049D00001604FF67F3106F5306000EB47108160D3
:1049E00006F5306000EB4710006820F4001106F572
:1049F000306000EB4710016006F5306000EB4710B7
:104A0000006840F0006106F5306000EB471001607F
:104A10007F1C2079B842C9D840F61C00805940F06C
:104A2000011140F61C008151E07B70B1D6F884087A
:104A300040F00B01C6F8841840F64400805940F05D
:104A40000B0140F6440081510FE040F614008059FC
:104A500042F22B01084340F614018851081F805987
:104A600040F00B014FF401608151D6F8000820F4AA
:104A7000FE60C6F80008A17904F29C42206809F0A3
:104A800089F82068406900F48050216800E000E067
:104A90004861206809F04BFC00F40050B0F5005F5D
:104AA00017D1206808F02CFE206809F0EEFBE071B9
:104AB00000F070FB0090E2792068009909F0BEFCDC
:104AC000204600F0F9F92068406900F400502168A0
:104AD0004861206809F02BFC00F00800082808D184
:104AE000204600F008FA2068406900F008002168BC
:104AF0004861206809F01BFC00F08000802818D174
:104B0000DBF8180020F08000CBF8180001250DE03C
:104B100005EBC50104F5157000EB8100C078012894
:104B200003D1E9B22046FFF7DAFB6D1C2079A842D9
:104B3000EED8206809F0FBFB00F48010B0F5801F70
:104B40002DD1012522E006F5106000EB4510D0F8CC
:104B5000009005EBC50104F1140000EB8100007921
:104B6000012812D109F00040B0F1004F0DD1012110
:104B700005EBC50204F1140000EB8200C170E8B23D
:104B800040F080012046FFF7AAFB6D1C2079A84267
:104B9000D9D82068406900F48010216848612068F5
:104BA00009F0C5FB00F40010B0F5001F44D1012549
:104BB00038E006F5306000EB4510D0F8009005EBCA
:104BC000C50104F5157000EB81000079012828D19A
:104BD00009F00040B0F1004F23D109F4803094F87F
:104BE000D41401F0010188421BD1012105EBC5025B
:104BF00004F5157000EB8200C170DBF8180040F07E
:104C00008000CBF81800DBF8140000F0800040B9F9
:104C100040F60400805940F4007140F604008151D0
:104C200003E06D1C2079A842C3D800BF206840690A
:104C300000F4001021684861206809F078FB00F05A
:104C40008040B0F1804F08D12046FFF71AFB206862
:104C5000406900F0804021684861206809F067FBE6
:104C600000F0040004280FD12068D0F8049009F067
:104C70000400042802D12046FFF72AFB2068406880
:104C800040EA09002168486000BFA9E470B5044605
:104C90000D462946D4F8E00408F04AF870BD70B516
:104CA00004460D462946D4F8E00408F065F870BDC6
:104CB000F8B504460CB90120F8BD266894F89504AF
:104CC00028B9002084F89404204600F0A1F80320BD
:104CD00084F89504B6F1A04F01D10021A17120689C
:104CE00008F050FF207C8DF8000094E80F0008F0D9
:104CF0001BFD20B1022084F895040120DCE700218F
:104D0000206809F049FB20B1022084F895040120B5
:104D1000D2E7002531E0012105EBC50204F11400C2
:104D200000EB8200417005EBC50104F1140000F8AE
:104D3000215005EBC50100EB81004583002105EB07
:104D4000C50204F1140000EB8200017105EBC502FD
:104D500004F1140000EB8200816005EBC50204F150
:104D6000140000EB8200C16005EBC50204F11400E1
:104D700000EB82000161681CC5B22079A842CADC40
:104D800000252AE0002105EBC50204F5157000EBB3
:104D90008200417005EBC50104F5157000F8215043
:104DA000002105EBC50200EB8200017105EBC50295
:104DB00004F5157000EB8200816005EBC50204F577
:104DC000157000EB8200C16005EBC50204F515709B
:104DD00000EB82000161681CC5B22079A842D1DCD9
:104DE000207C8DF8000094E80F0008F0D7FD20B17A
:104DF000022084F8950401205EE700206074012001
:104E000084F89504206808F0B7FD002054E70000FE
:104E100010B586B00446142101A8FBF730FC2068C9
:104E2000B0F1A04F42D100BF0020009020480068A0
:104E300040F001001E4908600846006800F00100CB
:104E4000009000BF00BF4FF4C050019002200290BC
:104E500000200390032004900A20059001A9154822
:104E6000FEF73EFC00BF1248001D006840F08000C5
:104E70000F49091D086000BF002000900C48143045
:104E8000006840F480400A49143108600846006810
:104E900000F48040009000BF00BF00BF0022052149
:104EA0004320FFF76FF94320FFF758F906B010BD14
:104EB000303802400000024070B504460125E07918
:104EC00008B9002506E0E079022801D1012501E0BA
:104ED000FDF7AAF82946D4F8E00407F0F6FFD4F865
:104EE000E00407F09DFF70BD10B50446D4F8E0045F
:104EF00007F0CCFF10BD10B50446D4F8E00407F06D
:104F0000D0FF10BD70B504460D4600BF94F8940460
:104F1000012801D1022070BD012084F8940400BF53
:104F200065742946206809F06BFA00BF002084F8F8
:104F3000940400BF00BFEEE710B5044604F29C41A4
:104F4000D4F8E00407F0D8FF10BD70B5044625681A
:104F500000BF94F89404012801D1022070BD012003
:104F600084F8940400BFE86800F0400030B1607B32
:104F7000012803D1A86B40F48030A863206809F0B1
:104F80002BF9206808F0E6FC00BF002084F89404A8
:104F900000BF00BFE2E7000010B50446D4F8E0040B
:104FA00008F007F82068D0F8000E40F001002168F2
:104FB000C1F8000EE07A28B10348006840F006000E
:104FC0000149086010BD000010ED00E070B5044616
:104FD0000D460CB9012070BD5848006800F007006C
:104FE000A84209D255490D700846006800F0070034
:104FF000A84201D00120EEE7207800F0020002284C
:105000001DD1207800F00400042805D14C48006828
:1050100040F4E0504A490860207800F00800082871
:1050200005D14748006840F460404549086044485D
:10503000006820F0F000A16808434149086020782A
:1050400000F00100A8B36068012807D13C48083887
:105050000068C0F34040B8B90120BCE7606802288E
:1050600002D06068032807D1354808380068C0F3CB
:10507000406048B90120AEE7314808380068C0F305
:10508000400008B90120A6E72D48006820F0030081
:10509000616808432A490860FEF72AFC064609E0D1
:1050A000FEF726FC801B41F28831884202D903209A
:1050B00091E707E02248006800F00C006168B0EB5F
:1050C000810FEDD11D48006800F00700A84209D902
:1050D0001A490D700846006800F00700A84201D088
:1050E000012078E7207800F00400042807D1144854
:1050F000006820F4E050E168084311490860207816
:1051000000F00800082808D10D48006820F460402D
:10511000216940EAC1000A49086000F061F80849C5
:105120000968C1F30311074A515CC8400649086089
:1051300006480068FEF78EFF00204CE7003C024066
:1051400008380240DC9A0108A000002098000020E6
:105150000F2202600D4A126802F0030242600B4AFD
:10516000126802F0F0028260084A126802F4E0520B
:10517000C260064A126802F46042D2080261044A20
:10518000126802F007020A60704700000838024007
:10519000003C02400148006870470000A000002069
:1051A00000B5FFF7F7FF04490968C1F38221034AFC
:1051B000515CC84000BD000008380240EC9A01086C
:1051C00000B5FFF7E7FF04490968C1F34231034A1C
:1051D000515CC84000BD000008380240EC9A01084C
:1051E0002DE9F047002400250026A1462548006847
:1051F00000F00C0020B1042805D008283AD105E0C1
:10520000DFF8849039E0DFF8849036E01D48001F15
:10521000006800F03F041B48001F006800F4800095
:1052200078B11A481749091F0968C1F38811A0FB12
:1052300001700146224600233846FBF70BF905466C
:105240000EE011480F49091F0968C1F38811A0FB3E
:1052500001700146224600233846FBF7FBF805465D
:105260000848001F0068C0F30140401C4600B5FB21
:10527000F6F902E0DFF8109000BF00BF4846BDE835
:10528000F0870000083802400024F400001BB7003B
:10529000F8B504460CB90120F8BD207800F00100F3
:1052A000002874D0F948006800F00C0004280DD0E4
:1052B000F648006800F00C00082813D1F348001FDE
:1052C000006800F48000B0F5800F0BD1EF4808387B
:1052D0000068C0F34040002859D06068002856D1CB
:1052E0000120D9E700BF6068B0F5803F08D1E748EA
:1052F0000838006840F48030E449083908601EE04E
:105300006068B0F5A02F0DD1E0480838006840F47F
:105310008020DE49083908600846006840F4803083
:1053200008600CE0D9480838006820F48030D7497C
:10533000083908600846006820F48020086000BF33
:10534000606890B1FEF7D4FA054606E0FEF7D0FAA1
:10535000401B642801D903209EE7CC480838006828
:10536000C0F340400028F1D011E0FEF7C1FA054635
:1053700006E0FEF7BDFA401B642801D903208BE745
:10538000C24808380068C0F340400028F1D12078B6
:1053900000F0020002285FD1BC48006800F00C0059
:1053A00058B1BA48006800F00C0008281CD1B74872
:1053B000001F006800F48000B0B9B44808380068E5
:1053C000C0F3400020B1E068012801D0012063E76C
:1053D000AE480838006820F0F800216940EAC100B2
:1053E000AA490839086037E0E06800B30120A849FD
:1053F0000860FEF77DFA054606E0FEF779FA401BE5
:10540000022801D9032047E7A04808380068C0F304
:1054100040000028F1D09D480838006820F0F800CE
:10542000216940EAC10099490839086014E0002068
:1054300097490860FEF75CFA054606E0FEF758FA61
:10544000401B022801D9032026E79048083800684D
:10545000C0F340000028F1D1207800F008000828AF
:105460002CD16069A8B101208A490860FEF740FA92
:10547000054606E0FEF73CFA401B022801D903204E
:105480000AE782486C300068C0F340000028F1D081
:1054900014E000207F490860FEF72AFA054606E07E
:1054A000FEF726FA401B022801D90320F4E67748CC
:1054B0006C300068C0F340000028F1D1207800F083
:1054C0000400042870D1002770483830006800F0CC
:1054D000805090B900BF002000906C4838300068C0
:1054E00040F080506949383108600846006800F093
:1054F0008050009000BF00BF01276748006800F49B
:105500008070B0B96448006840F4807062490860F7
:10551000FEF7EEF9054606E0FEF7EAF9401B022821
:1055200001D90320B8E65C48006800F480700028C8
:10553000F2D000BFA068012808D154486830006844
:1055400040F001005149683108601DE0A06805285D
:105550000DD14E486830006840F004004B49683176
:1055600008600846006840F0010008600CE0474809
:105570006830006820F0010044496831086008463E
:10558000006820F00400086000BFA068A8B1FEF722
:10559000AFF9054609E0FEF7ABF9401B41F288314F
:1055A000884202D9032077E626E038486830006850
:1055B000C0F340000028EED013E0FEF799F905464D
:1055C00008E0FEF795F9401B41F28831884201D985
:1055D000032061E62D4868300068C0F340000028D1
:1055E000EFD1012F07D129483830006820F08050D2
:1055F00026493831086000BFA069002845D02348FB
:10560000006800F00C0008285DD0A069022845D190
:1056100000201F490866FEF76BF9054606E0FEF715
:1056200067F9401B022801D9032035E617480838DE
:105630000068C0F340600028F1D1D4E907010843B5
:10564000616A40EA81110122A06AC2EB500041EA7E
:1056500000412C20005D41EA00600C49091F0860F0
:1056600001200B490866FEF743F9054606E0FEF700
:105670003FF9401B022801D903200DE603480838F2
:105680000068C0F340600028F1D049E008380240CB
:1056900000004742800E4742007000400020214930
:1056A0000866FEF725F9054606E0FEF721F9401BDE
:1056B000022801D90320EFE51B480068C0F34060D1
:1056C0000028F2D12CE0A069012800D1E4E51648B9
:1056D000001D0668A069012820D006F48001E06959
:1056E00081421BD106F03F01206A814216D147F664
:1056F000C0703040616AB0EB811F0FD106F44031B9
:105700000122A06AC2EB5000B1EB004F06D106F0B7
:1057100070612C20005DB1EB006F01D00120BBE572
:105720000020B9E5000047420038024010B50446A9
:105730000CB9012010BD606A38B96068B0F5827F8D
:1057400000D105E00021E16102E0002121616161F9
:105750000021A16294F8510028B9002084F850007B
:10576000204600F047F8022084F8510020680068C5
:1057700020F0400021680860A08800F48270218930
:1057800001F404410843A18901F400610843217C2C
:1057900001F002010843217D01F001010843218B42
:1057A00001F400710843217F01F0380108432021F2
:1057B000095D01F080010843218D01F40051084387
:1057C000216808600421A06901EA104094F82410BF
:1057D00001F010010843216848602068C06920F486
:1057E00000602168C86100206065012084F85100D4
:1057F00000209FE710B586B00446142101A8FAF7EF
:105800003EFF4B49206888427ED100BF00200090B7
:105810004848006840F480504649086008460068DF
:1058200000F48050009000BF00BF00BF0020009037
:1058300040481438006840F002003E4914390860BE
:105840000846006800F00200009000BF00BF00BFE3
:10585000002000900846006840F0010008600846FB
:10586000006800F00100009000BF00BF1820019008
:10587000022002900120039003200490052005904F
:1058800001A92D48FDF72CFF8020019002200290F5
:1058900001200390032004900520059001A92748CA
:1058A000FDF71EFF2648274908604FF0C06048609A
:1058B000002124488160C1604FF4806101610021B2
:1058C00041618161C1614FF4403101620021416257
:1058D000FDF7EEFC08B1FCF7A7FB00BF1948E06438
:1058E000846300BF16481830174908604FF0C06045
:1058F00048604021144881600021C1604FF48061FC
:1059000001610021416100E010E08161C1614FF45B
:105910000031016200214162FDF7CAFC08B1FCF7C9
:1059200083FB00BF0848A064846300BF06B010BDBD
:1059300000300140443802400004024000000240B0
:105940004064024024140020841400202DE9FE4FFE
:1059500004460F4690461D460C9E01200190FDF71F
:10596000C7FF814694F851B060680290AA46BBF127
:10597000010F0BD00298B0F5827F04D1A06810B956
:10598000BBF1040F02D00220BDE8FE8F1FB1B8F1B9
:10599000000F00D00DB90120F6E700BF94F85000C9
:1059A000012801D10220EFE7012084F8500000BF58
:1059B00094F85100042802D0052084F851000020FA
:1059C0006065C4F83880E587A5872763E586A586E6
:1059D000206460642068006800F04000402805D022
:1059E0002068006840F0400021680860E068B0F579
:1059F000006F52D1606810B1BAF1010F09D1206B6C
:105A000000882168C860206B801C2063E08E401EE7
:105A1000E0863BE02068806800F00200022810D198
:105A2000E08E70B1019801280BD1206B00882168AD
:105A3000C860206B801C2063E08E401EE086002042
:105A400001902068806800F0010068B1E08F58B1D3
:105A50002068C068A16B0880A06B801CA063E08FE9
:105A6000401EE08701200190FDF742FFA0EB0900F6
:105A7000B0420BD3701C48B1012084F8510000BF24
:105A8000002084F8500000BF03207DE7E08E00284E
:105A9000C0D1E08F0028BDD152E0606810B1BAF1EA
:105AA000010F09D1206B007821680873206B401C1E
:105AB0002063E08E401EE0863CE02068806800F0B5
:105AC0000200022810D1E08E70B1019801280BD19C
:105AD000206B007821680873206B401C2063E08EE7
