:020000040800F2
:10000000680B0020D50200086D390008BB370008D6
:1000100069390008211E000825430008000000007F
:10002000000000000000000000000000C33B0008CA
:100030006F1F000800000000C13B0008C53B00081E
:10004000EF020008EF020008EF020008EF020008CC
:10005000EF020008EF020008EF020008EF020008BC
:10006000EF020008EF020008EF020008EF020008AC
:10007000EF020008EF020008EF020008EF0200089C
:10008000EF020008EF020008EF020008EF0200088C
:10009000EF020008EF020008EF020008EF0200087C
:1000A000EF020008EF020008EF020008EF0200086C
:1000B000EF020008EF020008EF020008EF0200085C
:1000C000EF020008EF020008EF020008EF0200084C
:1000D000EF02000899410008EF020008EF02000853
:1000E000EF020008EF020008EF020008EF0200082C
:1000F000EF020008EF020008EF020008EF0200081C
:10010000EF020008EF020008EF020008EF0200080B
:10011000EF020008EF020008EF020008EF020008FB
:10012000EF020008251E0008351E0008EF02000837
:10013000EF020008EF020008EF020008EF020008DB
:10014000EF020008EF020008EF020008EF020008CB
:10015000EF020008451E0008551E0008A9410008CE
:10016000EF020008EF020008EF020008EF020008AB
:10017000EF020008EF020008EF0200080000000094
:10018000EF020008EF02000800F002F800F092F819
:100190000AA090E8000C82448344AAF10107DA45E2
:1001A00001D100F087F8AFF2090EBAE80F0013F0A2
:1001B000010F18BFFB1A43F00103184768480000FD
:1001C00088480000103A24BF78C878C1FAD852078E
:1001D00024BF30C830C144BF04680C6070470000C1
:1001E0000023002400250026103A28BF78C1FBD840
:1001F000520728BF30C148BF0B6070476E2900F01E
:100200002982702900F07383662904F073836529BD
:1002100004F07083672904F06D83612904F06C8316
:1002200003681B0A28BF41F08001692900F0D681CC
:10023000642900F0D381752900F0D0816F2900F086
:100240000083782900F03F83E92900F09B82E429AC
:1002500000F09882F52900F09582EF2900F0FD82E8
:10026000F82900F03E830368DB0928BF41F08001D4
:10027000632901F07380732901F07880E32901F08C
:100280008380F32901F08880002070471FB504F0B7
:100290002CFB01F0D3F804000020002104F098FAB0
:1002A000401C60600020002104F07CFAE0601FBD6B
:1002B00010B510BD01F094F81146FFF7E7FF04F008
:1002C0002BF901F071F903B4FFF7F2FF03BC01F061
:1002D000B9F900000948804709480047FEE7FEE7F2
:1002E000FEE7FEE7FEE7FEE7FEE7FEE7FEE7FEE7E6
:1002F00004480549054A064B70470000813C000848
:100300008901000868050020680B002068070020AC
:100310006807002053EA020C00F069802DE9F04BD9
:100320004FF00006002B1FBFB3FA83F503FA05F464
:1003300024FA05F65E4012BF1643B2FA82F502FABD
:1003400005F4C5F120051EBF22FA05FC44EA0C04A1
:10035000203556EA044C4FEA144418BF641C4FF091
:1003600000084FF00009904271EB030C39D30029CB
:1003700019BFB1FA81F701FA07F6B0FA80F700FA6F
:1003800007F6C7F120071EBF20FA07FC46EA0C0655
:100390002037B6FBF4FCA7EB0507103F07F01F0B57
:1003A000CBF120060CFA0BFB2CFA06F644BFB34641
:1003B0000026202FA4BF5E464FF0000B5BEA060C20
:1003C00008BF4FF0010B19EB0B09ABFB027C48EBAC
:1003D0000608C01B06FB02CC0BFB03CC71EB0C0127
:1003E000C1E70B46024641464846BDE8F08B13B5CF
:1003F0004FF000004FF00001AFF30080BDE81C405B
:10040000704700007CB51D4616460C00009001D0D8
:100410002044401E074B7B442A46694601903046E3
:1004200000F031F905461CB10020694600F03EF9A4
:1004300028467CBD9D020000032A40F2308010F067
:10044000030C00F0158011F8013BBCF1020F62446F
:1004500098BF11F801CB00F8013B38BF11F8013B00
:10046000A2F1040298BF00F801CB38BF00F8013BAD
:1004700011F0030300F00A83083AC0F0088051F835
:10048000043B083A51F804CBA0E80810F5E7121D28
:100490005CBF51F8043B40F8043BAFF30080D20747
:1004A00024BF11F8013B11F801CB48BF11F8012B13
:1004B00024BF00F8013B00F801CB48BF00F8012B36
:1004C00070474FF0000200B5134694469646203917
:1004D00022BFA0E80C50A0E80C50B1F12001BFF4FD
:1004E000F7AF090728BFA0E80C5048BF0CC05DF863
:1004F00004EB890028BF40F8042B08BF704748BFB1
:1005000020F8022B11F0804F18BF00F8012B704724
:1005100070477047704770B5044685690068C1062A
:1005200001D5302600E02026C00707D070BDD4E9F1
:10053000012130469047206A401C20626D1EF6D58E
:1005400070BD70B5044685690078C00707D170BDDD
:10055000D4E9012120209047206A401C20626D1EB2
:10056000F6D570BD09684A0501D540B27047C90586
:10057000FCD500B2704709684A0501D5C0B2704782
:10058000C905FCD580B2704770B50C460546012AF6
:1005900005D02878800600D5EA69002302E001230F
:1005A00005E05B1C934202D2E05C0028F9D1A86907
:1005B000E618C01AA861286A184428622846FFF77E
:1005C000AAFF04E0D5E9012114F8010B9047B442D9
:1005D000F8D32846FFF7B5FF70BD00002DE9F041C4
:1005E0000646002410687529314616A510D0FFF77D
:1005F000B9FF002802DA404213A507E031688A07F4
:1006000001D512A502E0490704D511A5012401E096
:10061000FFF7B1FF00210A2206F1240709E0B0FB31
:10062000F2FCB0FBF2F302FB1C00303078541846A9
:10063000491C0028F3D123462A463046BDE8F04144
:1006400000F09BBA000000002D0000002B0000000D
:100650002000000011680268006A530501D5087087
:100660000AE0D30501D5088006E0130603D5C217BA
:10067000C1E9000200E008600120704701694A1CDE
:1006800002610878704700B58FB0CDE901310021D3
:10069000059105497944CDE903101146684600F0FB
:1006A00031F90FB000BD0000E5FFFFFF0A6802F856
:1006B000010B0A607047D1E900239A4202D2531C11
:1006C0000B601070704700002DE9FF5F15468A46E9
:1006D0000446DFF8AC80F8440027D8E900103E4615
:1006E000CDE9001010E03AF816106A4602A800F0B2
:1006F00057FE411C07D02178890603D5E2693918D5
:1007000091420DD80744761C2078800602D5E06916
:10071000B84205DDAE42E6DB3AF816000028E2D129
:10072000A069C01BA0612046FFF7F5FED8E90010C4
:10073000CDE90010002017E03AF818106A4602A828
:1007400000F02EFEB0F1FF3F81460BD000250DF1E9
:10075000080B05E0D4E901211BF8050090476D1C4A
:100760004D45F7D308F10100B0428046E4DB206A32
:10077000384420622046FFF7E4FEBDE8FF9F0000FA
:100780004E4200002DE9F0418046D21D22F00702C2
:100790000025D2E90002F52915A614D0011E72F138
:1007A000000106DA0023D0EB030063EB020211A67E
:1007B00008E0D8F800108B0701D50FA602E0490722
:1007C00001D50EA601251146002408F1240704E0F6
:1007D00000F08EF930323A55641C50EA0102F7D12C
:1007E0002B46324621464046BDE8F04100F0C5B9EF
:1007F000000000002D0000002B0000002000000081
:1008000030B4002100F1240408E002F00705D2080A
:10081000303542EA4372DB086554491C52EA03054D
:10082000F3D10468002310A2250707D5A40600D43D
:1008300021B1C46901230DA2641EC46130BC00F063
:100840009CB910B5044621461068FFF794FE024695
:100850002046BDE810400023D2E7D21D22F0070158
:10086000D1E90023CCE700000000000030000000C8
:10087000F0B40D460188090502D5214C7C4402E004
:100880001F4C7C440E34002100F1240608E002F0E5
:100890000F071209E75D42EA03721B097754491CEE
:1008A00052EA0307F3D102780023120704D5702D12
:1008B00006D009B1022311342246F0BC00F05DB924
:1008C00001231034F8E770B504460D462146106840
:1008D000FFF751FE024629462046BDE8704000233E
:1008E000C6E7D21D22F00703D3E90023C0E703685F
:1008F000126843F0200303600823C3610023B7E7B5
:10090000B04000002DE9F05F894604464FF0000A30
:10091000DFF874B1FB44C0F820A02046E1688847A6
:10092000002874D0252806D0D4E901219047206AF8
:10093000401C2062F1E700265F462046E1688847B8
:100940002028054607DB312D05D2781910F8200C38
:1009500008B10643F1E7B00701D526F00406C4F854
:100960001CA00027C4F818A02A2D09D0284603F09F
:100970008BFD38B304EB8708303DC8F8185019E0F8
:1009800059F8041B204604EB87029161E16888470F
:10099000012F054618D1E069002820DA26F020064C
:1009A0001DE0D8F8180000EB800005EB400030385F
:1009B000C8F818002046E1688847054603F064FD42
:1009C0000028EED1012F0AD02E2D08D12046E16853
:1009D00088477F1C0546022F46F02006C4DBA0692D
:1009E000002803DA404246F00106A061F00701D07A
:1009F00026F010066C2D0BD0682D09D04C2D39D067
:100A00006A2D35D0742D35D07A2D33D016E038E0EC
:100A1000E1682F4620468847B842054609D16C2F29
:100A200026D04FF48060E16806432046884705469B
:100A300004E06C2F1AD04FF4807006430DB3A5F17B
:100A40004100192802D8203546F400664A46294656
:100A5000204626604E46FFF7D1FB80B101280BD01F
:100A6000F61D26F0070000F1080956E74020E4E7EC
:100A70008020D8E70020D6E706F104094DE7284694
:100A800052E7206ABDE8F09F4040000010B5203AD0
:100A9000C0F00B80B1E81850203AA0E81850B1E837
:100AA0001850A0E81850BFF4F5AF5FEA027C24BFED
:100AB000B1E81850A0E8185044BF18C918C0BDE8E4
:100AC00010405FEA827C24BF51F8043B40F8043BAD
:100AD00008BF7047D20728BF31F8023B48BF11F862
:100AE000012B28BF20F8023B48BF00F8012B7047BC
:100AF00030B5B0F10A024FEA900E71F100034EEAF0
:100B0000817EB0EB0E0061EB91014FEA101E4EEAC0
:100B1000017E10EB0E0041EB11114FEA102E4EEA50
:100B2000016E10EB0E0041EB11214FEA104E4EEA20
:100B3000014E10EB0E0041EB1141401841F1000154
:100B40004FEAD00040EA41704FEAD10110EB800536
:100B50004FEA810444EA907444EB01046D1944EBBC
:100B60000404521BA3414FF0000348BF0A3200D5D2
:100B700030BD401C41F1000130BD2DE9F0470D466C
:100B800099469246044600F124080168880604D577
:100B9000E06921F01001216000E00120A84201DDA0
:100BA000471B00E00027A1697A1902EB0900081A27
:100BB000A0612078C00602D42046FFF7ACFC0026D6
:100BC00008E0D4E901211AF806009047206A401C89
:100BD000761C20624E45F4DB2078C0060AD52046FC
:100BE000FFF799FC06E0D4E9012130209047206A04
:100BF000401C2062381EA7F10107F4DC07E0D4E9AD
:100C0000012118F805009047206A401C2062281E28
:100C1000A5F10105F3DC2046FFF793FC20780006E0
:100C200002D50220BDE8F0870120FBE770472DE9DF
:100C3000FF4F0C461E464FF0FF378BB0D2E9000144
:100C4000DDF860800A908A46C1F30A5505B93D4631
:100C5000002108464FF00000BAF1000F00F44000F8
:100C600005DA00EB80004FF4400101EA50004FEA42
:100C70009059B9F1010F00DDB9460A9850EA4A00CF
:100C80000ED044F61050A5F2FF3545432F14B8F1AD
:100C9000000F1ED07542291E1EDDC9F100021CE0A6
:100CA000B8F1010F4FF0000001D0302103E0F24312
:100CB00005E02154401CB042FBDB304600220021FD
:100CC00021540B99C1F80880C1E900200FB0BDE89C
:100CD000F08FBD1B6D1CDEE74A4600DA694206A8AC
:100CE00000F0F0FB06AB93E8070003AB83E80700D6
:100CF00050460A9900F0ADFC8DE80700A0F50050C1
:100D00001F3800900398002D0ADD42F21F014A4669
:100D10000844002303A90390684600F016FF09E089
:100D2000A0F500504A461F38002303A903906846E7
:100D300000F020FF8DE807000004000C03D04FF006
:100D4000FF30410800E01046B8F1000F03D0002248
:100D5000009215461EE0751E05D4FFF7C9FE30321D
:100D600062556D1EF9D5B3460122084302D0002218
:100D70007F1C04E02078302801D100227F1E002A49
:100D8000099784D01DE0112D07DAFFF7B1FE30324C
:100D900062556D1C50EA0102F5D1084302D000985B
:100DA000C8B10EE00021681E05E0235C625C63545C
:100DB0002254401E491C8142F7DBAB46A81B401E53
:100DC0000990002004F80B000B98099AC0F80880DD
:100DD000C0E9002B7AE711264FF0000857E72DE90C
:100DE000F04F88460446D21D22F0070191B0D1E9A8
:100DF0000001CDE90A0103F013FB02460B98C00F76
:100E000001D02D2007E02068810701D52B2002E0CA
:100E1000202101EAC000032A099001D0072A05DB3E
:100E200003464146204600F00DFB0BE1207880068A
:100E300001D5E06900E00620B8F1650F814606D0D3
:100E4000B8F1660F18D0B8F1670F70D131E000200B
:100E5000B9F1110F009001DB112301E009F1010349
:100E60000AAA01A90CA8FFF7E2FEDDE90C70002632
:100E700009F10105834647E001204B4600904FF001
:100E800000470AAA01A90CA8FFF7D1FEDDE90DB0C1
:100E90000C995D46002610B909F101000D18B9EB57
:100EA000050003D4C0F1FF3609F10105A5EB0900E7
:100EB0002BE0B9F1010F01DA4FF001090020B9F17F
:100EC000110F0090484601DD112300E003460AAAF5
:100ED00001A90CA8FFF7ABFEDDE90C704D4600261A
:100EE0008346207800070AD4AB4500DA5D4601A8A6
:100EF000012D04DD411911F8011C302907D04F459F
:100F000002DA17F1040F04DA012082460FE06D1EA9
:100F1000EEE7002F02DCED1B3E4403E0781CA84204
:100F200000DD7D1CB81B00F1010A4FF0004720785E
:100F3000000703D4AA4501DB4FF0FF3A0021B7F1C7
:100F4000004F0DF143088DF8431024D002202B23CD
:100F5000002F01DA7F422D230A21021EA0F1010099
:100F600000DC5FB197FBF1FC97FBF1F201FB1C7C0D
:100F700017460CF1300C08F801CDEEE7A8F101009E
:100F800003702188090501D5452100E06521A0F104
:100F9000010800F8011C09980FA9A1EB0807FF1D23
:100FA00000B10120411901EBEA70A1693844081A27
:100FB000401EA0612078C00602D42046FFF7ABFA9D
:100FC000099828B1D4E901219047206A401C206289
:100FD0002078C00622D52046FFF79DFA1EE0002E9D
:100FE00004DBB34502DD01A8805D00E03020D4E9D8
:100FF00001219047206A401C2062761CAAF1010062
:101000005FEA000A0AD100F019FAC0680168405C82
:10101000D4E901219047206A401C2062281EA5F1D6
:101020000105DCDC07E0D4E9012118F8010B904749
:10103000206A401C2062381EA7F10107F3DC20461D
:10104000FFF77FFA032011B041E600002DE9F04FD1
:1010500004460D46D21D22F0070089B0D0E9009762
:101060004846394603F0DCF90246F80F01D02D233B
:1010700007E02068810701D52B2302E0202101EA47
:10108000C0038DF820300BB1012000E00020032ABE
:10109000824601D0072A04DB2946204600F0D2F917
:1010A0003FE12078800601D40D2500E0E569C7F313
:1010B0000A560D2D49DA00214FEA175B08464FF01A
:1010C0000000002F00F4400007DA00EB80004FF42E
:1010D000400100EBD07001EA60008115012901DDBB
:1010E0004FF0FF3100224FEA850CBCF1180F06D3F8
:1010F0001346ACF118004FF08052C24003E04FF4A9
:10110000801323FA0CF30CF10C0CBCF1200F04D368
:10111000ACF1200C09FA0CF001E007FA0CF0002900
:101120004FF0004801DD18B90FE00ED140450CD357
:1011300019EB02095F4121B9404502D19F4329EAD9
:101140000209BBEB175F00D0761C2088000502D592
:101150007B48784402E07A487844193808AA30235A
:1011600002F80A30037C0AF10101002E0AF1020A9A
:1011700053546A4602DC4FF0300101E04FF0310178
:101180004FF001088DF8001002D0A6F2FF3603E000
:1011900059EA470100D06B4E002D02DC2178090787
:1011A00004D54FF002082E218DF80110C44600210D
:1011B0000BE0C7F303433F01C35C491C6D1E02F8FB
:1011C0000830052908F1010801DA002DF1DC0021C1
:1011D0000CE000EB1973491C1B786D1E082902F8FE
:1011E00008304FEA091908F1010801DA002DF0DC96
:1011F00021688B0602D516E0A8F10108E04505DD5F
:1012000002EB080313F8013C302BF5D0B8F1000FC6
:1012100009DD02EB080313F8013C2E2B03D109076B
:1012200001D4A8F10108002D05DD3E2102F80810C7
:101230006D1E08F10108407C002E02F8080008F13C
:10124000010804DA2D20764202F8080002E02B2083
:1012500002F808000A214FF47A70864208F101086A
:101260000BDB96FBF0F3303302F8083096FBF0F31B
:1012700008F1010800FB136601E0642E0CDB64201A
:1012800096FBF0F3303302F8083096FBF0F308F1E8
:10129000010800FB136601E00A2E06DB96FBF1F065
:1012A000303002F8080008F1010896FBF1F001FB6C
:1012B0001060303002F80800A16908F1010808EB5D
:1012C000050202EB0A00081AA0612078C00602D4C9
:1012D0002046FFF720F9216A08AE01EB0A002062E0
:1012E00004E0D4E9012116F8010B9047BAF1010A94
:1012F000F7D22078C00602D52046FFF70CF96E46DB
:1013000009E016F8010B3E280FD0D4E901219047DF
:10131000206A401C2062B8F10108F2D22046FFF793
:1013200010F909B00320BDE8F08F206A284420623C
:1013300003E0D4E90121302090476D1EEBD3F8E79C
:101340002638000002FCFFFF10B5436913B1AFF36C
:10135000008001E0FFF718F9012010BD127800F1BC
:1013600024010A7000224A700122EDE711684FF053
:10137000FF32E9E710B5436913B1AFF3008001E034
:10138000FFF7A2F9012010BD128800F12401828428
:101390000022C2840122EDE711684FF0FF32E9E735
:1013A00070B516460C46054600F040F8036893F801
:1013B0000101012806D0FF2C0FD8185D68B101206B
:1013C0002C7070BDD3F807013246214603F2071393
:1013D00003442846BDE8704018474FF0FF3070BD09
:1013E000754600F0EBF8AE4605006946534620F01E
:1013F0000700854618B020B5FEF77AFFBDE820400B
:101400004FF000064FF000074FF000084FF0000BC0
:1014100021F00701AC46ACE8C009ACE8C009ACE873
:10142000C009ACE8C0098D467047000010B500F057
:1014300005F8001D10BD00BF99330000004870473B
:10144000240500202DE9F0411F46044603260168CB
:10145000072A01F4006004DB08B116A505E016A513
:1014600003E008B115A500E015A521F010002060EB
:10147000A069C01EA0610FB1401EA0612046FFF709
:101480004AF84FB1D4E9012138469047206A401C00
:101490002062C01C206206E0206AFAE7D4E901213C
:1014A00015F8010B9047761EF8D22046FFF749F851
:1014B000BDE8F0814E414E006E616E00494E46001F
:1014C000696E66002DE9F047814616468AB03548B8
:1014D00078440DC88DE80D0032487844801C03AC78
:1014E0000DC884E80D0041F69B300844372190FB7D
:1014F000F1F290FBF1F5A5F1800501FB12041B3C14
:1015000002D56442012000E00020DFF898A0804668
:101510000027FA44AAF1BE0A0EE0E0070AD03246DC
:10152000684607EB470101230AEB810100F022FB2B
:101530008DE8070064107F1C002CEED1194F7F440A
:10154000AE3F19E0E80715D007EB04100DF1180ABB
:1015500090E80E008AE80E00C068F04201D19819A8
:1015600008903246012306A903A800F003FB03AB51
:1015700083E807006D10641C002DE3D14FF00103D8
:1015800032466946B8F1000F03A802D000F0DDFA38
:1015900001E000F0EFFAC9E90001C9F808200AB03B
:1015A000BDE8F0873835000010B50446AFF3008081
:1015B0002046BDE81040FEF786BE00000048704798
:1015C000040500204FF0013C50F8042B51F8043B77
:1015D0009A4221D1A2EB0C03934313EACC1317D107
:1015E00050F8042B51F8043B9A4215D1A2EB0C039E
:1015F000934313EACC130BD150F8042B51F8043B5E
:101600009A4209D1A2EB0C03934313EACC13DBD02B
:101610004FF00000704700BFD01A01BAB1FA81F153
:1016200001F0180122FA01F0CB40C1F12001DBB238
:10163000C0B2C01A2CFA01F3D11A914311EAC311B6
:10164000E6D1704701491820ABBEFEE72600020034
:1016500070475FEA400C08BF91F0000F4FEA8C23FF
:101660004FEAC12243EA51514FEA1C5018BF00F51E
:10167000F0404FEA300018BF41F000415FEA6C5C77
:1016800000F02980BCF1FF3F08BF40F08040704768
:10169000130C06BF12044FF0100C4FF0000C130E89
:1016A00004BF12020CF1080C130F04BF12010CF15D
:1016B000040C930F04BF92000CF1020CD30F04BF73
:1016C00052000CF1010C11464FF00002A0F11F0076
:1016D000A0EB0C00704711F0004F08BF704731F0CD
:1016E00000413FF4D5AF0B0C06BF09044FF0100CBE
:1016F0004FF0000C0B0E04BF09020CF1080C0B0F8D
:1017000004BF09010CF1040C8B0F04BF89000CF11C
:10171000020CCB0F04BF49000CF1010CCCF12003EB
:10172000A0EB0C0022FA03F302FA0CF241EA0301E7
:1017300000F10100704720F07F4C80EA030023F0A5
:101740007F47ACEB070303F57C5300F0004003F147
:10175000FF032DE980494FEA154B09B44FEA1443C2
:1017600025EA0B4E24EA03480FF2042606EB132762
:1017700049083E785FEA320203FB0667C7F50007B7
:1017800007FB06F64FEA54374FEAD64606F1020643
:1017900007FB066CCCF1005C4FEA1C472CEA074CB7
:1017A00007FB06F40CFB06F504EB15464FEA96160C
:1017B00034BF00204FF000404FEAD13706FB07FC52
:1017C0004FEA1C4C0CFB0BF7D21B03FB0CF761EB35
:1017D00007010CFB0EF7B0EB074072EB17420CFB56
:1017E00008F734BFA2EB0742B2EB074261EB1741A7
:1017F0004FEA0C444FEA910706FB07FC4FEA1C4CEA
:101800000CFB0BF7B0EBC74072EB573203FB0CF746
:1018100034BFA2EBC742B2EBC74261EB57310CFBBE
:101820000EF7B0EBC70072EB57720CFB08F734BF32
:10183000A2EBC702B2EBC70261EB5771039F4FEAFD
:10184000816141EA921104EBCC044FEAD1374FEAAF
:10185000826206FB07FC42EA90124FEA80604FEA80
:101860001C4C0CFB0BF7D21B03FB0CF761EB0701C5
:101870000CFB0EF7B0EB074072EB17420CFB08F7BE
:1018800034BFA2EB0742B2EB074261EB17414FEACC
:101890008C554FEA910704EB9C2406FB07FC4FEAAA
:1018A0001C4C0CFB0BF7B0EBC74072EB573203FB41
:1018B0000CF734BFA2EBC742B2EBC74261EB573122
:1018C0000CFB0EF7B0EBC70072EB57720CFB08F77E
:1018D00034BFA2EBC702B2EBC70261EB577115EB45
:1018E0004C254FEA816141EA92114FEA82624FEA48
:1018F000D13742EA901206FB07FC44F100044FEA9C
:1019000080604FEA1C4C0CFB0BF7D21B03FB0CF75F
:1019100061EB07010CFB0EF7B0EB074072EB1742CF
:101920000CFB08F734BFA2EB0742B2EB074261EBB6
:10193000174115EB1C154FEA813141EA92414FEAFC
:10194000823242EA90424FEA80304FEA0C7644F10C
:10195000000448EA03434EEA0B484FF0000EB2EB96
:10196000080C71EB030724BF624639464EEB0E0E9E
:101970004FF0000B0018524149414BEB0B0BB2EBFF
:10198000080C71EB03077BF1000B24BF624639465C
:101990004EEB0E0E4FF0000B0018524149414BEB3D
:1019A0000B0BB2EB080C71EB03077BF1000B24BFB0
:1019B000624639464EEB0E0E51EA020718BF46F05A
:1019C000010616EB0E7655F1000254F1000103D525
:1019D000BDE88901BDE80088BDE88901BDE800488F
:1019E000B619524141EB0101A3F101037047808018
:1019F0007F7E7D7C7B7A7978777676757473727169
:101A000071706F6E6E6D6C6C6B6A6A696868676620
:101A100066656464636362616160605F5F5E5E5DB2
:101A20005D5C5C5B5B5A5A59595858575756565526
:101A300055555454535352525251515050504F4F88
:101A40004F4E4E4D4D4D4C4C4C4B4B4B4A4A4A49D8
:101A5000494948484847474747464646454545441B
:101A60004444444343434342424242414141002BA8
:101A70009C4630D477002BD01CB54FEA370703B40F
:101A80004FF010004FF01001BAF1000F06D0BCF17A
:101A9000000FDCBF40F0080040F008014FF00000EC
:101AA0000FBCBDE810400BF1010BBBF1010F08BFEB
:101AB0005FEA170722BF12F1010211F101014FF095
:101AC000004143F1000300F0004043EA000070478A
:101AD000F9D35708D0E746EA064613F1400F4FEA1C
:101AE00016461FDD13F1200FDFBF16430A46002103
:101AF00020335B42BED0C3F1200746EA064602FA15
:101B000007F74FEA164646EA0706C3F1200722FA0E
:101B100003F201FA07F721FA03F14FF0000342EA5A
:101B20000702A7E746EA020646EA06464FEA1646D5
:101B300046EA0106BCBF46EA0646360C4FF00003F3
:101B40004FF000024FF0000194E72DE9804C9A46D7
:101B5000934670B491E8380007C831EA400C48BF9A
:101B600034EA430C03D5FFF7E6FDFFF780FFF0BC36
:101B7000BDE8008C2DE9804C9A46934670B491E8FC
:101B8000380007C810F0804F08BF13F0804F03D112
:101B900000F005F8FFF76BFFF0BCBDE8008C20F00B
:101BA0007F4780EA030023F07F4C07EB0C03A3F58B
:101BB0007C5300F00040A3F1FE0392F0000F00F010
:101BC000B38095F0000F00F077802DE901494FEACE
:101BD00011404FEA144621EA004800FB06FC24EAC3
:101BE000064708FB06F607FB08F800FB07F718EBAB
:101BF00006484CEB164C4FEA124B18EB07484FEADD
:101C000015464CEB174022EA0B4E0BFB06FC25EA6F
:101C100006470EFB06F607FB0EFE0BFB07F71EEB57
:101C2000064E4CEB164C4FF000061EEB074E4CEBED
:101C3000174B18EB0B0840F1000018EB0E0B58EB9C
:101C4000000840F100008F1A4FF000013CBFC9436B
:101C5000661B14BFB5EB040C00213CBFC943F61B47
:101C60004FEA17444EEA8E0E27EA04454FEA1C4716
:101C700004FB07622CEA074C05FB07F70CFB05F693
:101C800004FB0CFC16EB074642EB174216EB0C4626
:101C900042EB1C421BEB060658EB0202414146EAAE
:101CA0009E0601D5BDE80189B619524141EB0101FB
:101CB000A3F10103BDE801894FEA14454FEA11473A
:101CC00024EA054621EA074C05FB07F406FB07F763
:101CD0000CFB06F105FB0CFC11EB074144EB174430
:101CE0004FEA124711EB0C4144EB1C4422EA074C2B
:101CF00005FB07F206FB07F70CFB06F605FB0CFCE1
:101D000016EB074642EB174216EB0C4642EB1C451E
:101D10006A1854F1000148BF7047B619524141EBAF
:101D20000101A3F10103704795F0000F37D04FEA8E
:101D300011424FEA144721EA024624EA074C02FB0B
:101D400007F106FB07F70CFB06F402FB0CFC14EB97
:101D5000074441EB17414FEA154714EB0C4441EBA4
:101D60001C4125EA074C02FB07F506FB07F70CFBB5
:101D700006F602FB0CFC16EB074645EB174516EB87
:101D80000C4645EB1C42121951F1000148BF704747
:101D9000B619524141EB0101A3F1010370474FEA2B
:101DA00014454FEA114724EA054621EA074C05FB92
:101DB00007F106FB07F70CFB06F24FF0000605FBE8
:101DC0000CFC12EB074241EB174112EB0C4251EBBA
:101DD0001C4148BF7047921841EB0101A3F1010378
:101DE0007047000010B54E220849A1F14E0002F0E4
:101DF00039FCDFED070AB0EE000A064A002106486A
:101E000001F0AEFE054802F07BFC10BD6604002028
:101E1000CDCC4C3E1C490008D00300200C03002010
:101E200000BFFEE710B5024800F0D2F910BD000077
:101E30008401002010B5024800F0CAF910BD00006E
:101E4000C400002010B5024800F0C2F910BD000027
:101E5000E401002010B5024800F0BAF910BD0000FE
:101E6000240100200146087810381823B0FBF3F253
:101E70000848805CC865032A05D908686FF3090023
:101E8000001D886503E008686FF309008865886DA8
:101E900070470000FC480008014600208A6A8B69F0
:101EA000CBB932B1012A0DD0022A03D0032A10D1B6
:101EB0000EE000BFCB6A03F08073B3F1807F00D1E6
:101EC000012007E0CB6AB3F1C07F00D1012001E01F
:101ED00000E000BF34E08B69B3F5005F1AD132B186
:101EE000012A07D0022A03D0032A11D10AE000BF39
:101EF00001200EE0CB6A03F08073B3F1807F00D144
:101F0000012006E0CB6AB3F1C07F00D1012000E0E0
:101F100000BF15E032B1012A05D0022A04D0032AFD
:101F20000CD103E000BF00BF012008E0CB6A03F042
:101F30008073B3F1807F00D1012000E000BF00BFBB
:101F4000704730B50468246824F4802405682C6048
:101F5000046863608468402C04D10468A26004684B
:101F6000E16003E00468A1600468E26030BD70478E
:101F700072B600BFFEE700008A78513000F8032CEB
:101F80000A7900F8022C91F9062040F8012CCA7950
:101F9000C270B1F90C2000EE102AF8EEC00A9FEDD5
:101FA000501A80EE810A10EE102A4260B1F90E201C
:101FB00000EE102AB8EEC00A9FED4A1AC0EE010AE0
:101FC0009FED491A80EE810A10EE102A82600A699C
:101FD00000EE102A9FED441AC0EE010A10EE902A7E
:101FE000C260B1F91A2000EE102AB8EEC00A9FEDC7
:101FF0003D1AC0EE010A9FED3C1A80EE810A10EEF8
:10200000102A0261D1F81E2000EE102AF8EEC00A54
:102010009FED351A80EE810A9FED341AC0EE010A59
:10202000B0EE000A20EE800ADFED310A20EE200A31
:1020300010EE102A4261B1F9262000EE102AB8EE07
:10204000C00ADFED2C0A20EE200A10EE102A826171
:102050005138B1F9282000EE102AB8EEC00ADFEDA1
:10206000250A20EE200A10EE102AC0F86D20B1F9E2
:102070002A2000EE102AB8EEC00ADFED1E0A20EE7C
:10208000200A10EE102AC0F87120B1F92C2000EEC1
:10209000102AB8EEC00ADFED180A20EE200A10EE72
:1020A000102AC0F87520B1F92E2000EE102AB8EEE3
:1020B000C00ADFED110A20EE200A10EE102AC0F847
:1020C0007920B1F9302000EE102AB8EEC00ADFED19
:1020D0000A0A20EE200A10EE102AC0F87D20704770
:1020E00000008043000000439A991141000080469F
:1020F000DA0F49407F8C8D3A39B41C3B70B50446E9
:10210000A56D00F059FB064694F83500022808D06A
:102110008020606500BF002084F8340000BF0120EB
:1021200070BD2068006820F01600216808602068F3
:10213000406920F0800021684861206C08B9A06CDB
:1021400028B12068006820F0080021680860206835
:10215000006820F001002168086010E000F02CFB0E
:10216000801B05280BD920206065032084F83500EA
:1021700000BF002084F8340000BF0320D0E72068AF
:10218000006800F001000028E8D194F85C103F20BE
:102190008840A860012084F8350000BF002084F842
:1021A000340000BF00BFBBE7014691F835000228AC
:1021B00003D08020486501207047052081F8350054
:1021C0000868006820F001000A6810600020F3E74A
:1021D000F8B50446002000908C4800684FF4165172
:1021E000B0FBF1F7A56D2E6894F85C1008208840CC
:1021F000304098B12068006800F0040070B1206899
:10220000006820F004002168086094F85C10082041
:102210008840A860606D40F00100606594F85C1033
:1022200001208840304068B12068406900F080009B
:1022300040B194F85C1001208840A860606D40F0C7
:102240000200606594F85C1004208840304068B15A
:102250002068006800F0020040B194F85C1004208F
:102260008840A860606D40F00400606594F85C10E0
:1022700010208840304078B32068006800F00800E3
:1022800050B394F85C1010208840A8602068006863
:1022900000F4802080B12068006800F4002028B994
:1022A000206CC8B12046216C884715E0A06C98B11D
:1022B0002046A16C88470FE02068006800F4807019
:1022C00028B92068006820F0080021680860206CA8
:1022D00010B12046216C884794F85C10202088407B
:1022E0003040002865D02068006800F01000002809
:1022F0005FD094F85C1020208840A86094F83500E6
:10230000052828D12068006820F0160021680860A0
:102310002068406920F0800021684861206C08B97D
:10232000A06C28B12068006820F0080021680860CF
:1023300094F85C103F208840A860012084F83500A4
:1023400000BF002084F8340000BF206D10B120468B
:10235000216D8847F8BD2068006800F4802080B1B6
:102360002068006800F4002028B9606C10B1204695
:10237000616C88471DE0E06BD8B12046E16B88476F
:1023800017E02068006800F4807068B92068006871
:1023900020F0100021680860012084F8350000BF9B
:1023A000002084F8340000BFE06B10B12046E16BE0
:1023B0008847606D38B3606D00F00100F0B1052012
:1023C00084F835002068006820F00100216808606A
:1023D00000BF0098401C0090B84200D905E020687A
:1023E000006800F001000028F3D100BF012084F84C
:1023F000350000BF002084F8340000BFE06C10B14D
:102400002046E16C884700BFA4E7000024000020BC
:102410002DE9F0410446002500F0CEF9074614B935
:102420000120BDE8F081606A00B100BF022084F89D
:10243000350000BF002084F8340000BF2068006829
:1024400020F00100216808600AE000F0B5F9C01B27
:10245000052805D920206065032084F83500E0E7D1
:102460002068006800F001000028EED120680568AF
:1024700021480540D4E901010843E1680843216986
:10248000084361690843A1690843E1690843216A77
:1024900008430543606A042803D1D4E90B010843CB
:1024A0000543206805602068456925F00705606AD6
:1024B0000543606A04280DD1A06A0543E06A48B16B
:1024C0002046FFF7E9FC28B140206065012084F830
:1024D0003500A6E7206845612046FFF7C3FC0646A5
:1024E00094F85C103F208840B060002060650120B7
:1024F00084F83500002094E73F8010F02DE9F04784
:1025000004460D4616461F464FF00008D4F8589072
:1025100000BF94F83400012802D10220BDE8F08702
:10252000012084F8340000BF94F83500012825D13B
:10253000022084F83500002060653B46324629467B
:102540002046FFF7FEFC94F85C103F208840C9F855
:1025500008002068006840F0160021680860206CC0
:1025600028B12068006840F00800216808602068F1
:10257000006840F001002168086006E000BF00200C
:1025800084F8340000BF4FF002084046C6E7000060
:1025900070B5044600F010F906462546681C10B1D7
:1025A00004480078054400BF00F006F9801BA842EB
:1025B000FAD370BD20000020F8B502460B46002576
:1025C000002400200021D6E0012606FA01F51E684D
:1025D00006EA0504AC4274D11E7906F00306012E0A
:1025E00004D01E7906F00306022E13D190684F0026
:1025F0000326BE40B0434F00DE68BE4030439060CB
:10260000506801268E40B0431E79C6F300168E40F6
:10261000304350601E7906F00306032E09D0D068BF
:102620004F000326BE40B0434F009E68BE4030437B
:10263000D0601E7906F00306022E13D1CF0802F1F6
:10264000200656F827004E07F70E0F26BE40B0436F
:102650004F07FF0E1E69BE403043CF0802F120062F
:1026600046F8270010684F000326BE40B0431E798D
:1026700006F003064F00BE40304310605E6806F46B
:102680004036002E76D000BF002600963C4E3668BD
:1026900046F480463A4F3E603E46366806F4804631
:1026A000009600BF00BF374E8F0856F827008E07F0
:1026B000370F0F26BE40B043334EB24202D1002640
:1026C00024E057E0314EB24201D101261EE0304EE7
:1026D000B24201D1022619E02E4EB24201D10326A8
:1026E00014E02D4EB24201D104260FE02B4EB2422F
:1026F00001D105260AE02A4EB24201D1062605E0A4
:10270000284EB24201D1072600E008268F073F0F6E
:10271000BE4030431B4E8F0846F82700224E3068DB
:10272000A0435E6806F4801606B120431E4E30605A
:10273000361D3068A0435E6806F4001606B12043DB
:10274000194E361D3060184E361F3068A0435E6843
:1027500006F4003606B12043134E361F3060361F94
:102760003068A0435E6806F4803606B120430E4E02
:10277000083E3060491C1029FFF426AFF8BD000068
:102780004438024008380140000002400004024082
:1027900000080240000C02400010024000140240F9
:1027A00000180240001C0240083C01400AB181614F
:1027B00001E00B0483617047014800687047000026
:1027C00018000020034800680349097808440149BB
:1027D00008607047180000202000002010B50D4848
:1027E000006840F400700B4908600846006840F437
:1027F000806008600846006840F48070086003202C
:1028000000F0A6F80F2000F007F800F02BF80020E9
:1028100010BD0000003C024070B504460E48007830
:102820004FF47A71B1FBF0F00C490968B1FBF0F597
:10283000284600F02FFC08B1012070BD102C07D2F3
:1028400000222146501E00F045F80548046001E0D2
:102850000120F2E70020F0E7200000202400002003
:102860001C00002008B500BF002000900E48006842
:1028700040F480400C4908600846006800F480403D
:10288000009000BF00BF00BF00200090081F00683C
:1028900040F08050091F08600846006800F0805032
:1028A000009000BF00BF08BD443802400146084602
:1028B00000280DDB00BF00BF00F01F0301229A407B
:1028C00043099B0003F1E023C3F8002100BF00BFD0
:1028D00000BF70472DE9F05F80460D461646002781
:1028E00001F0B6FD074639462A46334601F0070097
:1028F000C0F1070ABAF1040F02D94FF0040A01E04F
:10290000C0F1070AD14600F1040ABAF1070F02D25A
:102910004FF0000A01E0A0F1030AD4464FF0010A8B
:102920000AFA09FAAAF1010A0AEA020A0AFA0CFAF0
:102930004FF0010B0BFA0CFBABF1010B0BEA030B95
:102940004AEA0B042146404601F08AFDBDE8F09FAB
:1029500000BF00F00702064B19684FF6FF0319404D
:10296000044B0B4343EA0221014B196000BF70473F
:102970000CED00E00000FA0570B504460D460CB9F8
:10298000012070BD5848006800F00700A84209D235
:1029900055490D700846006800F00700A84201D0B4
:1029A0000120EEE7207800F0020002281DD12078F7
:1029B00000F00400042805D14C48006840F4E050C1
:1029C0004A490860207800F00800082805D14748E7
:1029D000006840F46040454908604448006820F0C1
:1029E000F000A168084341490860207800F0010028
:1029F000A8B36068012807D13C4808380068C0F3D4
:102A00004040B8B90120BCE76068022802D0606885
:102A1000032807D1354808380068C0F3406048B93A
:102A20000120AEE7314808380068C0F3400008B91B
:102A30000120A6E72D48006820F0030061680843E4
:102A40002A490860FFF7B8FE064609E0FFF7B4FE22
:102A5000801B41F28831884202D9032091E707E0C8
:102A60002248006800F00C006168B0EB810FEDD1E6
:102A70001D48006800F00700A84209D91A490D70E6
:102A80000846006800F00700A84201D0012078E75E
:102A9000207800F00400042807D11448006820F4CE
:102AA000E050E168084311490860207800F0080010
:102AB000082808D10D48006820F46040216940EAE8
:102AC000C1000A49086000F03FF808490968C1F3ED
:102AD0000311074A515CC84006490860064800686F
:102AE000FFF79AFE00204CE7003C02400838024005
:102AF00004490008240000201C0000200148006850
:102B0000704700002400002000B5FFF7F7FF0449DC
:102B10000968C1F38221034A515CC84000BD00002E
:102B2000083802401449000800B5FFF7E7FF0449E0
:102B30000968C1F34231034A515CC84000BD00003E
:102B400008380240144900082DE9F0470024002508
:102B50000026A1462548006800F00C0020B104289A
:102B600005D008283AD105E0DFF8849039E0DFF895
:102B7000849036E01D48001F006800F03F041B48A9
:102B8000001F006800F4800078B11A481749091F37
:102B90000968C1F38811A0FB017001462246002399
:102BA0003846FDF7B7FB05460EE011480F49091FEF
:102BB0000968C1F38811A0FB017001462246002379
:102BC0003846FDF7A7FB05460848001F0068C0F31C
:102BD0000140401C4600B5FBF6F902E0DFF810901A
:102BE00000BF00BF4846BDE8F0870000083802403B
:102BF0000024F400001BB700F8B504460CB901200E
:102C0000F8BD207800F00100002874D0F948006871
:102C100000F00C0004280DD0F648006800F00C000D
:102C2000082813D1F348001F006800F48000B0F5B5
:102C3000800F0BD1EF4808380068C0F340400028EF
:102C400059D06068002856D10120D9E700BF6068DC
:102C5000B0F5803F08D1E7480838006840F480307C
:102C6000E449083908601EE06068B0F5A02F0DD176
:102C7000E0480838006840F48020DE4908390860E0
:102C80000846006840F4803008600CE0D9480838F5
:102C9000006820F48030D749083908600846006889
:102CA00020F48020086000BF606890B1FFF784FDC9
:102CB000054606E0FFF780FD401B642801D903208C
:102CC0009EE7CC4808380068C0F340400028F1D0A7
:102CD00011E0FFF771FD054606E0FFF76DFD401BB3
:102CE000642801D903208BE7C24808380068C0F384
:102CF00040400028F1D1207800F0020002285FD186
:102D0000BC48006800F00C0058B1BA48006800F0F8
:102D10000C0008281CD1B748001F006800F4800090
:102D2000B0B9B44808380068C0F3400020B1E0688A
:102D3000012801D0012063E7AE480838006820F080
:102D4000F800216940EAC100AA490839086037E063
:102D5000E06800B30120A8490860FFF72DFD054693
:102D600006E0FFF729FD401B022801D9032047E7B1
:102D7000A04808380068C0F340000028F1D09D4802
:102D80000838006820F0F800216940EAC10099493C
:102D90000839086014E0002097490860FFF70CFD2F
:102DA000054606E0FFF708FD401B022801D9032075
:102DB00026E7904808380068C0F340000028F1D1A9
:102DC000207800F0080008282CD16069A8B1012003
:102DD0008A490860FFF7F0FC054606E0FFF7ECFCC7
:102DE000401B022801D903200AE782486C300068A2
:102DF000C0F340000028F1D014E000207F490860B3
:102E0000FFF7DAFC054606E0FFF7D6FC401B022878
:102E100001D90320F4E677486C300068C0F3400025
:102E20000028F1D1207800F00400042870D1002798
:102E300070483830006800F0805090B900BF002022
:102E400000906C483830006840F080506949383153
:102E500008600846006800F08050009000BF00BF86
:102E600001276748006800F48070B0B964480068C2
:102E700040F4807062490860FFF79EFC054606E05A
:102E8000FFF79AFC401B022801D90320B8E65C48F2
:102E9000006800F480700028F2D000BFA06801280C
:102EA00008D154486830006840F001005149683149
:102EB00008601DE0A06805280DD14E486830006804
:102EC00040F004004B49683108600846006840F053
:102ED000010008600CE047486830006820F00100FD
:102EE0004449683108600846006820F00400086022
:102EF00000BFA068A8B1FFF75FFC054609E0FFF737
:102F00005BFC401B41F28831884202D9032077E6FE
:102F100026E0384868300068C0F340000028EED052
:102F200013E0FFF749FC054608E0FFF745FC401BAE
:102F300041F28831884201D9032061E62D4868308A
:102F40000068C0F340000028EFD1012F07D12948C5
:102F50003830006820F0805026493831086000BFC2
:102F6000A069002845D02348006800F00C0008281C
:102F70005DD0A069022845D100201F490866FFF7EF
:102F80001BFC054606E0FFF717FC401B022801D991
:102F9000032035E6174808380068C0F34060002871
:102FA000F1D1D4E907010843616A40EA81110122A5
:102FB000A06AC2EB500041EA00412C20005D41EACA
:102FC00000600C49091F086001200B490866FFF7E3
:102FD000F3FB054606E0FFF7EFFB401B022801D993
:102FE00003200DE6034808380068C0F3406000285D
:102FF000F1D049E00838024000004742800E4742C5
:1030000000700040002021490866FFF7D5FB054607
:1030100006E0FFF7D1FB401B022801D90320EFE5B2
:103020001B480068C0F340600028F2D12CE0A06982
:10303000012800D1E4E51648001D0668A0690128B2
:1030400020D006F48001E06981421BD106F03F01E7
:10305000206A814216D147F6C0703040616AB0EBF9
:10306000811F0FD106F440310122A06AC2EB50004B
:10307000B1EB004F06D106F070612C20005DB1EB82
:10308000006F01D00120BBE50020B9E500004742F8
:103090000038024070B504462546681EB0F1807FB6
:1030A00001D301200FE0681E4FF0E02148610F219D
:1030B0004FF0FF3001F0D4F900204FF0E02188619B
:1030C00007200861002070BD704770472DE9F84F58
:1030D0000446206805682068C668206847694FF084
:1030E0000009CA4605F00F09B9F1000F0AD105F031
:1030F000200038B106F0200020B1204600F088FE04
:10310000BDE8F88FB9F1000F7CD007F0010018B9C5
:1031100006F49070002875D005F0010030B106F477
:10312000807018B1606C40F00100606405F004002C
:1031300030B107F0010018B1606C40F0020060642B
:1031400005F0020030B107F0010018B1606C40F0EA
:103150000400606405F0080048B106F0200010B9D2
:1031600007F0010018B1606C40F008006064606C0A
:10317000002846D005F0200028B106F0200010B14C
:10318000204600F045FE20684069C0F3801A606C5C
:1031900000F0080010B9BAF1000F2DD0204600F061
:1031A000DEFD2068406900F04000402820D100BFCB
:1031B00000BF2168143151E8001F21F04000216850
:1031C000143141E80002002AF3D100BFE06B50B196
:1031D0007748E16B0865E06BFEF7E6FF88B1E06BCE
:1031E000016D88470DE02046FFF76FFF09E009E019
:1031F0002046FFF76AFF04E02046FFF766FF002045
:1032000060647DE7206B012878D105F0100000286C
:1032100074D006F010000028FAD000BF0020009003
:1032200020680068009020684068009000BF00BFE0
:103230002068406900F04000402860D1E06B0068E1
:1032400040681FFA80F8B8F1000F56D0A08D4045B5
:1032500053DDA4F82E80E06BC069B0F5807F43D0C9
:1032600000BF00BF21680C3151E8001F21F48070BD
:1032700021680C3141E80002002AF3D100BF00BFF1
:1032800000BF2168143151E8001F21F001002168BE
:10329000143141E80002002AF3D100BF00BF00BF93
:1032A0002168143151E8001F21F0400021681431D9
:1032B00041E80002002AF3D100BF202084F8420038
:1032C0000020206300BF00BF21680C3151E8001FBF
:1032D00021F0100021680C3141E80002002AF3D1EE
:1032E00000BFE06BFEF70AFF02206063A08DE28D55
:1032F000801A81B22046FFF7E7FE01E742E0A08D89
:10330000E18D401A1FFA80F8E08DD0B3B8F1000FBC
:1033100037D000BF00BF21680C3151E8001F21F4F5
:10332000907021680C3141E80002002AF3D100BFFF
:1033300000BF00BF2168143151E8001F21F00100D7
:103340002168143141E80002002AF3D100BF202097
:1033500084F842000020206300BF00BF21680C31C8
:1033600051E8001F21F0100021680C3141E80002F3
:10337000002AF3D100BF0220606341462046FFF7D8
:10338000A3FEBDE605F0800030B106F0800018B164
:10339000204600F0D1FEB3E605F0400030B106F063
:1033A000400018B1204600F010FDA9E600BFA7E6D6
:1033B000953C000810B504460CB9012010BDA06969
:1033C00000B100E000BF94F8410028B9002084F863
:1033D0004000204600F02AF8242084F841002068AC
:1033E000C06820F400502168C860204600F08EFDBF
:1033F0002068006920F490402168086120684069D5
:1034000020F02A00216848612068C06840F400501C
:103410002168C86000206064202084F8410084F89E
:1034200042000020606300BFC8E7000010B586B00E
:103430000446142101A8FDF744F88E49206888420B
:103440007ED100BF002000908B48006840F0100043
:10345000894908600846006800F01000009000BF2D
:1034600000BF00BF0020009083481438006840F07F
:1034700002008149143908600846006800F0020023
:10348000009000BF00BF00BF002000900846006809
:1034900040F0010008600846006800F0010000905C
:1034A00000BF00BF80200190022002900020039006
:1034B000032004900720059001A97048FFF77CF8CD
:1034C0004FF400700190022002900020039003202E
:1034D00004900720059001A96948FFF76DF8694835
:1034E000694908604FF000604860002166488160CB
:1034F000C1604FF480610161002141618161C1615E
:1035000001624162FEF784FF08B1FEF731FD00BFA2
:103510005D48E063846300BF5A4878305B490860C7
:103520004FF0006048604021584881600021C16030
:103530004FF480610161002141618161C16100E05E
:1035400014E001624162FEF763FF08B1FEF710FD6F
:1035500000BF4E48A063846300BF002211462520AF
:10356000FFF7B8F92520FFF7A1F980E04849206866
:1035700088427CD100BF002000903F48006840F0A6
:1035800020003D4908600846006800F020000090D7
:1035900000BF00BF00BF002000903748143800680B
:1035A00040F040003449143908600846006800F0D3
:1035B0004000009000BF00BF4FF484400190022003
:1035C000029000200390032004900820059001A998
:1035D0003048FEF7F1FF2B4818382F490860800566
:1035E000486000212C488160C1604FF48061016116
:1035F0000021416181614FF48071C1614FF440311C
:10360000016200214162FEF703FF08B1FEF7B0FC42
:1036100000BF2148E063846300BF1A4860301F493F
:1036200008604FF02060486040211C488160002104
:10363000C1604FF4806101610021416181614FF4FB
:103640008071C161002101624162FEF7E1FE08B1B3
:10365000FEF78EFC00BF1148A063846300BF002208
:1036600011464720FFF736F94720FFF71FF906B04C
:1036700010BD000000100140443802400004024028
:103680000000024040640240C400002024010020E9
:10369000001401400018024084010020E4010020D1
:1036A00070470000F7B50446154694F841002028FD
:1036B00036D1019800B10DB90120FEBD01982062FC
:1036C000A584E58400206064212084F84100154829
:1036D000A16BC8631448A16B08641448A16BC8644B
:1036E0000020A16B086501AE23681A1D31682B46C6
:1036F000A06BFEF703FF6FF040002168086000BF79
:1037000000BF2168143151E8001F41F0800021689A
:10371000143141E80002002AF3D100BF0020CCE7B9
:103720000220CAE7F93C0008513D0008A93C000806
:1037300010B5034693F84100202813D101B10AB90E
:10374000012010BD19629A84DA8400205864212077
:1037500083F841001868C06840F080001C68E06091
:103760000020EEE70220ECE710B504460D49206882
:1037700088420ED1002240210B48FFF717F80022A3
:1037800080210948FFF712F808480068401C0749E3
:10379000086007492068884202D101200549087065
:1037A00010BD000000140140002002403000002045
:1037B0000010014028000020704700BFFEE7000015
:1037C00008B500BF002000901648006840F4800053
:1037D000144908600846006800F48000009000BFAB
:1037E00000BF002211463920FFF774F83920FFF797
:1037F0005DF8002211463A20FFF76CF83A20FFF7F7
:1038000055F8002211464520FFF764F84520FFF7E0
:103810004DF8002211464620FFF75CF84620FFF7DE
:1038200045F808BD3038024000B587B0142102A821
:10383000FCF747FE00BF002001902D48006840F0D3
:1038400040002B4908600846006800F040000190E5
:1038500000BF00BF00BF002001900846006840F094
:10386000010008600846006800F00100019000BFF8
:1038700000BF00BF002001900846006840F0020031
:1038800008600846006800F00200019000BF00BF19
:1038900000BF002001900846006840F48070086076
:1038A0000846006800F48070019000BF00BF00BFB0
:1038B000002001900846006840F08000086008463B
:1038C000006800F08000019000BF00BF0022C0210E
:1038D0000848FEF76BFFC0200290012003900020F3
:1038E0000490059002A90348FEF766FE07B000BDEC
:1038F000303802400020024010B50B480B490860E8
:103900004FF4E1304860002108488160C1600161E6
:103910000C21416100218161C161FFF74BFD08B1BC
:10392000FEF726FB10BD000000100140340000200F
:1039300010B50A480A4908600A484860002108484A
:103940008160C16001610C21416100218161C1611F
:10395000FFF730FD08B1FEF70BFB10BD001401406E
:103960007C000020003E490000BFFEE700BFFEE7EC
:10397000B0EE401A10B99FED790A704790ED100A29
:1039800080ED110A90ED0F0A80ED100AC0ED060AD5
:1039900080ED071A30EEC10A80ED0F0A0178002988
:1039A00075D190ED010AD0ED0F1A20EE210A80EDBD
:1039B000090A90ED0A0AD0ED021A90ED0F2A01EEE5
:1039C000820A80ED0A0A90ED0D0A80ED0E0A90ED54
:1039D0000C0A80ED0D0A90ED0F0AD0ED101A30EEB2
:1039E000610A80ED0C0A90ED030AD0ED0C1A20EE6E
:1039F000210A80ED0B0A90ED0A0AD0ED051AB4EE0B
:103A0000E10AF1EE10FA04DD90ED050A80ED0A0AF4
:103A100010E090ED0A0AD0ED051AF1EE611AB4EE4D
:103A2000E10AF1EE10FA05D290ED050AB1EE400A76
:103A300080ED0A0A90ED090AD0ED0A1A30EE210A4B
:103A4000D0ED0B1A30EE210A80ED080A90ED080A3D
:103A5000D0ED041AB4EEE10AF1EE10FA04DD90EDB7
:103A6000040A80ED080A76E090ED080AD0ED041A09
:103A7000F1EE611AB4EEE10AF1EE10FA6BD290EDBC
:103A8000040AB1EE400A80ED080A64E0FFE701781D
:103A9000012960D190ED0F0AD0ED101A30EE610AC5
:103AA000D0ED011A20EE210A80ED090A90ED020AFC
:103AB000D0ED0F1A20EE210A80ED0A0A90ED0D0AD2
:103AC00080ED0E0A90ED0C0A80ED0D0A90ED0F0AC4
:103AD000D0ED101AB0EE002A02EE610AD0ED111AF4
:103AE00030EE210A80ED0C0A90ED030AD0ED0C1A9D
:103AF00020EE210A80ED0B0A90ED090AD0ED0A1A9A
:103B000030EE210AD0ED0B1A30EE210AD0ED081A62
:103B100030EE210A80ED080A90ED080AD0ED041A73
:103B2000B4EEE10AF1EE10FA04DD90ED040A80ED46
:103B3000080A10E090ED080AD0ED041AF1EE611ABF
:103B4000B4EEE10AF1EE10FA05D290ED040AB1EEFE
:103B5000400A80ED080A90ED080A0EE70000000018
:103B600000B102B97047017092ED001A80ED011AA0
:103B700092ED011A80ED021A92ED021A80ED031AFD
:103B800080ED040AC0ED050A9FED0C1A80ED0E1AB7
:103B900080ED0D1A80ED0C1A9FED081A80ED081AC1
:103BA00080ED0B1A80ED0A1A80ED091A80ED111ACA
:103BB00080ED101A80ED0F1A00BFD3E7000000005F
:103BC0007047704710B5FEF7FDFD10BD00B593B00E
:103BD000302107A8FCF775FC142102A8FCF771FC42
:103BE00000BF002001902448006840F08050224926
:103BF00008600846006800F08050019000BF00BFD8
:103C000000BF002001901D48006840F480401B491F
:103C100008600846006800F48040019000BF00BFC3
:103C2000012007900004089002200D9041050E919C
:103C300006210F91A82110910221119104211291C6
:103C400007A8FEF7D9FF08B1FEF792F90F200290FE
:103C500002200390002004904FF4A05005904FF4F0
:103C600080500690052102A8FEF786FE08B1FEF7F7
:103C70007FF913B000BD00004038024000700040E2
:103C80000348006840F47000014908607047000074
:103C900088ED00E070B50546AC6B0020E085E0845F
:103CA0002046FFF712FA70BD70B506460025B46BCA
:103CB00020684069C0F3C01594F84100212805D15F
:103CC00025B10020E084204600F08FF8206840698C
:103CD000C0F3801594F84200222805D125B10020B8
:103CE000E085204600F03BF8606C40F01000606416
:103CF0002046FFF7EAF970BD70B50546AC6B286841
:103D0000006800F48070F8B90020E08400BF00BFB4
:103D10002168143151E8001F21F08000216814311E
:103D200041E80002002AF3D100BF00BF00BF2168B4
:103D30000C3151E8001F41F0400021680C3141E88E
:103D40000002002AF3D102E02046FFF70DFD70BD0E
:103D500070B50446A56B2846FFF72EFD70BD00BF69
:103D600000BF02680C3252E8002F22F49071026802
:103D70000C3242E80013002BF3D100BF00BF00BF9C
:103D80000268143252E8002F22F001010268143256
:103D900042E80013002BF3D100BF016B01290ED1C3
:103DA00000BF00BF02680C3252E8002F22F0100161
:103DB00002680C3242E80013002BF3D100BF20212F
:103DC00080F8421000210163704710B50446206856
:103DD000C06820F040002168C860202084F84100BD
:103DE0002046FFF7C1FC002010BD00BF00BF0268E5
:103DF0000C3252E8002F22F0C00102680C3242E877
:103E00000013002BF3D100BF202180F84110704730
:103E1000F8B5044694F84200222875D1A068B0F5A0
:103E2000805F0CD1206950B90025A66A20684068DF
:103E3000C0F308003080A06A801CA06215E0A56A6B
:103E40000026A068B0F5805F03D0A06828B920697B
:103E500018B920684068287004E02068406800F0C5
:103E60007F002870A06A401CA062E08D401E80B2D6
:103E7000E085002846D12068C06820F02000216835
:103E8000C8602068C06820F480702168C86020681D
:103E9000406920F0010021684861202084F8420038
:103EA00000206063206B012826D10020206300BF22
:103EB00000BF21680C3151E8001F21F0100021687B
:103EC0000C3141E80002002AF3D100BF20680068ED
:103ED00000F0100010280AD100BF002000902068D8
:103EE0000068009020684068009000BF00BFA18D6E
:103EF0002046FFF7E9F802E02046FFF7D1FB00205B
:103F0000F8BD01E00020FBE70220F9E72DE9F84FBA
:103F100004462068006920F44050E16808432168A5
:103F200008612169A068084361690843E1690843A1
:103F300000902068C06849F20C61884300990843EA
:103F40002168C8602068406920F44070A169084376
:103F50002168486176492068884203D07549206805
:103F6000884203D1FEF7E0FD814602E0FEF7CCFD7A
:103F70008146E069B0F5004F6CD102206168A0FB7A
:103F8000015003461920A9FB007001462A46384615
:103F9000FCF7C0F96421B0FBF1F04FEA001A0220EF
:103FA0006168A0FB01510B461920A9FB00712A464C
:103FB0003846FCF7AFF9834602206168A0FB015048
:103FC00003461920A9FB00712A463846FCF7A2F9DE
:103FD0006421B0FBF1F000EBC00101EB0010ABEB92
:103FE0008000322101EBC0006421B0FBF1F000F051
:103FF000F8000AEB400A02206168A0FB015003466A
:104000001920A9FB007001462A463846FCF782F9C0
:10401000834602206168A0FB015003461920A9FBDA
:1040200000712A463846FCF775F96421B0FBF1F0BF
:1040300000EBC00101EB0010ABEB8000322101EB83
:10404000C0006421B0FBF1F000F00700504421688B
:1040500088606AE004206168A0FB015003461920D3
:10406000A9FB007001462A463846FCF753F9824600
:1040700004206168A0FB015003461920A9FB0070D1
:1040800001462A463846FCF745F96421B0FBF1F0B9
:1040900000EBC00101EB0010AAEB8000322101EB24
:1040A00000106421B0FBF1F000F0F00A0420616818
:1040B000A0FB017003461920A9FB00513A4628468F
:1040C000FCF728F96421B0FBF1F00AEB001A042098
:1040D0006168A0FB01510B461920A9FB00712A461B
:1040E0003846FCF717F9834604206168A0FB0150AD
:1040F00003461920A9FB007001462A463846FCF702
:1041000009F96421B0FBF1F000EBC00101EB0010F4
:10411000ABEB8000322101EB00106421B0FBF1F029
:1041200000F00F00504421688860BDE8F88F00005F
:104130000010014000140140014691F8410021287F
:1041400028D18868B0F5805F0BD1086948B90A6A40
:104150001088C0F308000B685860086A801C086269
:1041600005E00B6A581C086218780B685860C88C08
:10417000401E80B2C88458B90868C06820F080002A
:104180000B68D8600868C06840F040000B68D860D1
:10419000002070470220FCE710B50248FEF796FFAA
:1041A00010BD00003400002010B50348FEF78EFF5C
:1041B00000F070F810BD00007C00002010B504462F
:1041C0002E48844259D12E480068006800F400202F
:1041D00048BB2B480068006820F0010028490968A6
:1041E0000860274800684068C0F19C0025490880A5
:1041F0009C202349096848602348006840F4002057
:10420000214908601E480068006840F001001C4910
:10421000096808601B4800884E282ED11B491C489D
:1042200000F068F929E016480068006820F00100F5
:10423000134909680860124800684068C0F19C0092
:10424000104908809C200E49096848600E480068A3
:1042500020F400200C49086009480068006840F01C
:104260000100074909680860064800884E2804D103
:1042700006494E31064800F03DF910BD7C00002093
:10428000840100202C000020286402401804002033
:10429000B404002008B514480068006800F020004D
:1042A00060B100BF002000900F48006800680090D7
:1042B0000D4800684068009000BF14E00B4800689B
:1042C00000F0100078B100BF0020009006480068A0
:1042D00000680090044800684068009000BF00BF7C
:1042E0000148FFF76BFF08BD7C000020001401406F
:1042F00010B50446012240210848FEF757FA012272
:1043000080210648FEF752FA00BF222221460448C7
:10431000FFF70EFA0028F8D110BD0000002002407F
:104320007C00002000BFFEE710B50446FE20207090
:10433000EE20607094F82200A0700020E07094F8E5
:1043400024002071FF2161710021A171E171A16040
:10435000D4F8260000EE100ADFED2B0A20EE200A2A
:10436000BDEEC00A10EE100A01B2201DA181D4F8E2
:104370002A0000EE100ADFED250A20EE200ABDEE2D
:10438000C00A10EE100A01B2201DE181D4F82E00FF
:1043900000EE100A9FED1E1AC0EE010A9FED1D0AE5
:1043A00020EE800ABDEEC00A10EE100A2061D4F89B
:1043B000320000EE100ADFED180A20EE200ABDEEF2
:1043C000C00A10EE100A01B2201DA182D4F83600F6
:1043D00000EE100ADFED110A20EE200ABDEEC00A41
:1043E00010EE100A01B2201DE182002121766176D3
:1043F000D4F83A10C4F81A100721204600F04CF8FF
:10440000C4F81E0010BD00000000804300000043FF
:10441000F90FC940000080460000004500008044BC
:1044200003B401984100009850EAC12018BF04204D
:104430004A0D18BF40F0010040F2FF72B2EB515F2D
:1044400008BF40F00200012808BF052002B07047F5
:1044500002480068C0F30220704700000CED00E045
:1044600010B5002804DB0A07130E054A135406E0B2
:104470000A07140E034A00F00F031B1FD45410BD8B
:1044800000E400E018ED00E030380A2801D20120F5
:104490007047002070470000F0B502460B4600242C
:1044A0000026601E124F00211FE04FF0004452F81A
:1044B0002160002516E000F0004CBCF1000F05D093
:1044C0004000DFF82CC080EA0C0000E0400006EA63
:1044D000040CBCF1000F03D0DFF814C080EA0C001C
:1044E00064086D1C202DE6D3491C9942DDD3F0BD34
:1044F000B71DC10470B505460C46D4F84A601221B8
:104500002046FFF7C9FFB04204D14E22214628467B
:10451000FBF792FF70BD00002DED048B82B0FEF71B
:104520005DF9FFF753FBFFF77FF9FFF749F9FFF755
:10453000FFF9FFF7E1F9FDF755FC26E0134890ED90
:10454000000A00F0F3F81248D0F8A70000EE100AB5
:104550000F48D0ED000A30EE600A0E4880ED000AE8
:10456000006800F051F941EC190B0848006800F0B0
:104570004BF941EC180B8DED009B53EC182B06A06A
:1045800000F04CF80A20FEF703F8D7E710000020EF
:104590000C0300201400002025662C25660A00006C
:1045A00030B504460D46F0EE401AB0EE000AF4EEC7
:1045B000C01AF1EE10FA04DBB0EE000AF0EE401A79
:1045C0000AE0B8EE000AF4EEC01AF1EE10FA03D8D1
:1045D000B8EE000AF0EE401A24F8225F0A2060804C
:1045E0009FED0D0A10EE100AE0609FED0B0A10EE31
:1045F000100AA06011EE900A60609FED070A10EEAD
:10460000100A20619FED040A10EE100A6061223C3E
:104610002046FFF789FE30BD000000000FB438B51A
:1046200000BF0D4800780028FBD005A80090C921E4
:104630000A48009B049AFBF7E5FE04460020009020
:10464000A2B206490648FFF72DF80020024908707B
:10465000204638BC5DF814FB2800002044020020EE
:104660003400002010B5234B1B685B6943F0400306
:10467000204C246863611F4B1B68DB6843F0100308
:104680001C4C2468E3601C4B1B681B6823F001036F
:10469000194C2468236007E0174B1B681B6823F044
:1046A0000103154C24682360134B1B681B6803F03F
:1046B0000103002BF0D1114B0F4C2468A3600E4B6B
:1046C0001B68D8600C4B1B68196153000A4C2468A6
:1046D0006360094B1B681B6843F48023064C246805
:1046E0002360054B1B681B6843F00103024C2468E0
:1046F000236010BD7C0000208401002004140140D0
:1047000010B504469FED080A204600F031F80A2053
:10471000FDF73EFF9FED040A204600F029F8D4F88B
:10472000A700206010BD00000000000010B52DEDB6
:10473000028BB0EE408A0C48D0F8A70000EE900A39
:10474000094890ED001A70EEC10AB0EE600AF0EE72
:10475000480A0648FFF70CF9F0EE408A024800F0DC
:1047600007F8BDEC028B10BD0C030020D003002025
:1047700010B52DED028B0446B0EE408AB0EE480A2B
:104780000021201DFFF70CFF201DFFF7B1FD04499C
:1047900004F14200FDF7F0FBBDEC028B10BD000000
:1047A000B404002010B500290AD00878002807D0EA
:1047B00005487844FCF706FF002801D0002010BD12
:1047C0000248784410BD0000920200008A020000F6
:1047D00010B500290AD00878002807D00548784489
:1047E000FCF7F0FE002801D0002010BD02487844FC
:1047F00010BD0000820200007A0200000808A0F547
:1048000000114FEA3101704743004FEAD30C4FEAE1
:104810003C0C43401FBF40070CF1605113F0FE4FAA
:1048200070471CF0006F03D100200CF0004170476E
:104830000CF0004343EA507010B540EACC0000F0A1
:104840000EF800BF000000924FEA0001FFF7D6BF4C
:104850004FF000414FF00000A1F5002170470EF12C
:10486000020E2EF0030E5EF8044B244204D44FEAED
:104870004102B2F17F4F11D84FEA4003B3F17F4FAD
:104880000CD80ED14FEAD07CB2F17F4F0CEB4C0C20
:104890000CF1020C08BF4CEBD17C04E04FF0080C8B
:1048A00001E04FEAD17C0CEB4C0324FA03F404F052
:1048B0000704B4F1040C06D20EEB840CBDE81040E2
:1048C0004CF0010C6047DFE80CF0070802024FF0E3
:1048D0000040A0F5800010BD0846420018BFD2F18C
:1048E000807288BF00F0004010BD4FF04070E1EED4
:1048F000100A7047FCF773BAFCF7A8BB0006101645
:104900000006101600000000000000000102030471
:10491000060708090000000001020304000000006F
:104920000000000000000000000000000000000087
:1049300030313233343536373839414243444546D5
:1049400040305800303132333435363738396162CF
:1049500063646566403078000400000800000000D1
:1049600000000002000100001030313233343536CF
:10497000373839616263646566787000303132338C
:1049800034353637383941424344454658500000A3
:1049900002400000000000A00000000005400000F0
:1049A000000000C8000000000C4000000000409C17
:1049B00000000000194000000020BCBE0000000004
:1049C00034400000BFC91B8E00000004B540000049
:1049D000504BCFD06607E2CF010000006C410000D1
:1049E0003E8251AADFEEA73401000000D942000048
:1049F000DCB5A0E23A301F97FFFFFFFFB44500008F
:104A0000FD25A0C8E9A3C14FFFFFFFFFFF3F000046
:104A10000000008000000000FF3F00000000008058
:104A200000000000704B000800000020340000006F
:104A3000C4010008A44B000834000020340B00001F
:104A4000E00100081C00000043000000F8FFFFFF29
:104A50000C0000000E0000000F0000002E000000FF
:104A60001001000043000000F8FFFFFF004040403D
:104A70004040404040404141414141404040404031
:104A800040404040404040404040404040050202DD
:104A9000020202020202020202020202022020209C
:104AA00020202020202020020202020202029090F8
:104AB00090909090101010101010101010101010F6
:104AC000101010101010101002020202020288884A
:104AD0008888888808080808080808080808080856
:104AE000080808080808080802020202400000003E
:104AF00000000000000000000000000000000000B6
:104B000000000000000000000000000000000000A5
:104B10000000000000000000000000000000000095
:104B20000000000000000000000000000000000085
:104B30000000000000000000000000000000000075
:104B40000000000000000000000000000000000065
:104B50000000000000000000000000000000000055
:104B60000000000000000000000000000000000045
:104B700000000000295C8F3D0000000000000000E4
:104B80000000000000000000000000001000000015
:104B9000010000000024F4000100000000000000FB
:044BA0000000000011
:040000050800018965
:00000001FF
