:020000040800F2
:1000000020090020290200088D1E0008E11B0008BD
:10001000551D00080B050008B12500080000000070
:10002000000000000000000000000000931E000817
:100030000F06000800000000911E0008951E000831
:10004000430200084302000843020008430200087C
:10005000430200084302000843020008430200086C
:10006000430200084302000843020008430200085C
:10007000430200084302000843020008430200084C
:10008000430200084302000843020008430200083C
:10009000430200084302000843020008430200082C
:1000A000430200084302000843020008430200081C
:1000B000430200084302000843020008430200080C
:1000C00043020008430200084302000843020008FC
:1000D00043020008430200084302000843020008EC
:1000E00043020008430200084302000843020008DC
:1000F00043020008430200084302000843020008CC
:1001000043020008430200084302000843020008BB
:1001100043020008430200084302000843020008AB
:1001200043020008110500084302000843020008CA
:10013000430200084302000843020008430200088B
:10014000430200084302000843020008430200087B
:100150004302000821050008430200088D2300081F
:10016000430200084302000843020008430200085B
:100170004302000843020008430200080000000098
:10018000430200084302000800F002F800F03CF8C7
:100190000AA090E8000C82448344AAF10107DA45E2
:1001A00001D100F031F8AFF2090EBAE80F0013F0F8
:1001B000010F18BFFB1A43F0010318476425000024
:1001C00084250000103A24BF78C878C1FAD85207B5
:1001D00024BF30C830C144BF04680C6070470000C1
:1001E0000023002400250026103A28BF78C1FBD840
:1001F000520728BF30C148BF0B6070471FB502F0DF
:1002000079FA1FBD10B510BD00F046F91146FFF791
:10021000F5FF02F02BFA00F064F903B4FFF7F2FFE8
:1002200003BC00F06BF9000009488047094800470B
:10023000FEE7FEE7FEE7FEE7FEE7FEE7FEE7FEE796
:10024000FEE7FEE704480549054A064B70470000F3
:10025000511F000889010008200300202009002008
:10026000200500202005002053EA020C00F06980E0
:100270002DE9F04B4FF00006002B1FBFB3FA83F5BA
:1002800003FA05F424FA05F65E4012BF1643B2FAEB
:1002900082F502FA05F4C5F120051EBF22FA05FC1D
:1002A00044EA0C04203556EA044C4FEA144418BFC3
:1002B000641C4FF000084FF00009904271EB030CF2
:1002C00039D3002919BFB1FA81F701FA07F6B0FA5C
:1002D00080F700FA07F6C7F120071EBF20FA07FCD7
:1002E00046EA0C062037B6FBF4FCA7EB0507103FE7
:1002F00007F01F0BCBF120060CFA0BFB2CFA06F6CD
:1003000044BFB3460026202FA4BF5E464FF0000B2B
:100310005BEA060C08BF4FF0010B19EB0B09ABFBB6
:10032000027C48EB0608C01B06FB02CC0BFB03CC8F
:1003300071EB0C01C1E70B46024641464846BDE859
:10034000F08B13B54FF000004FF00001AFF30080C9
:10035000BDE81C407047032A40F2308010F0030CC7
:1003600000F0158011F8013BBCF1020F624498BF08
:1003700011F801CB00F8013B38BF11F8013BA2F1A5
:10038000040298BF00F801CB38BF00F8013B11F020
:10039000030300F04F80083AC0F0088051F8043B96
:1003A000083A51F804CBA0E80810F5E7121D5CBF2D
:1003B00051F8043B40F8043BAFF30080D20724BF60
:1003C00011F8013B11F801CB48BF11F8012B24BFF4
:1003D00000F8013B00F801CB48BF00F8012B704743
:1003E0004FF0000200B5134694469646203922BFCE
:1003F000A0E80C50A0E80C50B1F12001BFF4F7AF19
:10040000090728BFA0E80C5048BF0CC05DF804EBFA
:10041000890028BF40F8042B08BF704748BF20F868
:10042000022B11F0804F18BF00F8012B7047704766
:100430007047704710B5203AC0F00B80B1E81850F3
:10044000203AA0E81850B1E81850A0E81850BFF4BE
:10045000F5AF5FEA027C24BFB1E81850A0E818505D
:1004600044BF18C918C0BDE810405FEA827C24BFB1
:1004700051F8043B40F8043B08BF7047D20728BF3F
:1004800031F8023B48BF11F8012B28BF20F8023B8E
:1004900048BF00F8012B7047754600F02BF8AE46B8
:1004A00005006946534620F00700854618B020B580
:1004B000FFF7C8FEBDE820404FF000064FF00007F0
:1004C0004FF000084FF0000B21F00701AC46ACE8FC
:1004D000C009ACE8C009ACE8C009ACE8C0098D4669
:1004E000704710B50446AFF300802046BDE81040C9
:1004F000FFF793BE00487047C00200200149182052
:10050000ABBEFEE726000200704700BFFEE700001A
:1005100010B5024800F0B8F910BD000074000020CA
:1005200010B5024800F0B0F910BD0000D400002062
:100530000146087810381823B0FBF3F20848805CB5
:10054000C865032A05D908686FF30900001D88658E
:1005500003E008686FF309008865886D7047000044
:10056000FE260008014600208A6A8B69CBB932B1A9
:10057000012A0DD0022A03D0032A10D10EE000BFB9
:10058000CB6A03F08073B3F1807F00D1012007E0D4
:10059000CB6AB3F1C07F00D1012001E000E000BFD1
:1005A00034E08B69B3F5005F1AD132B1012A07D06C
:1005B000022A03D0032A11D10AE000BF01200EE075
:1005C000CB6A03F08073B3F1807F00D1012006E095
:1005D000CB6AB3F1C07F00D1012000E000BF15E07D
:1005E00032B1012A05D0022A04D0032A0CD103E03B
:1005F00000BF00BF012008E0CB6A03F08073B3F1B5
:10060000807F00D1012000E000BF00BF704770472D
:1006100072B600BFFEE700008A7802B900BF8A7890
:10062000012A00D133308A78022A00D166308A78D4
:10063000C01C00F8032C0A7900F8022C91F906205E
:1006400040F8012CCA79C270B1F90C2000EE102AD2
:10065000F8EEC00A9FED501A80EE810ADFED4F0AD6
:1006600020EE200A10EE102A4260B1F90E2000EEB2
:10067000102AB8EEC00A9FED4A1AC0EE010A9FED9B
:10068000471A80EE810A10EE102A82600A6900EE95
:10069000102A9FED421AC0EE010A10EE902AC260A5
:1006A000B1F91A2000EE102AB8EEC00A9FED3C1AEC
:1006B000C0EE010A9FED391A80EE810A10EE102A71
:1006C0000261D1F81E2000EE102AB8EEC00ADFED5C
:1006D000350A20EE200A9FED341AC0EE010A9FED84
:1006E0002F1A80EE810A10EE102A4261B1F92620FD
:1006F00000EE102AB8EEC00ADFED2C0A20EE200A28
:1007000010EE102A8261C01EB1F9282000EE102AD6
:10071000B8EEC00ADFED250A20EE200A10EE102AFE
:10072000C0F81F20B1F92A2000EE102AB8EEC00A46
:10073000DFED1E0A20EE200A10EE102AC0F823205A
:10074000B1F92C2000EE102AB8EEC00ADFED180A2D
:1007500020EE200A10EE102AC0F82720B1F92E2032
:1007600000EE102AB8EEC00ADFED110A20EE200AD2
:1007700010EE102AC0F82B20B1F9302000EE102A1C
:10078000B8EEC00ADFED0A0A20EE200A10EE102AA9
:10079000C0F82F2070470000000080439A99114153
:1007A00000000043F90FC940000080467F8C8D3A5D
:1007B00039B41C3B70B50446A56D00F00FFB06462E
:1007C00094F83500022808D08020606500BF002022
:1007D00084F8340000BF012070BD2068006820F05C
:1007E0001600216808602068406920F080002168B8
:1007F0004861206C08B9A06C28B12068006820F01E
:100800000800216808602068006820F00100216865
:10081000086010E000F0E2FA801B05280BD92020C8
:100820006065032084F8350000BF002084F83400A0
:1008300000BF0320D0E72068006800F00100002816
:10084000E8D194F85C103F208840A860012084F82B
:10085000350000BF002084F8340000BF00BFBBE7B4
:10086000014691F83500022803D080204865012018
:100870007047052081F835000868006820F0010005
:100880000A6810600020F3E7F8B5044600200090E5
:100890008C4800684FF41651B0FBF1F7A56D2E6837
:1008A00094F85C1008208840304098B120680068B7
:1008B00000F0040070B12068006820F00400216896
:1008C000086094F85C1008208840A860606D40F0D3
:1008D0000100606594F85C1001208840304068B1E8
:1008E0002068406900F0800040B194F85C1001205D
:1008F0008840A860606D40F00200606594F85C106C
:1009000004208840304068B12068006800F0020090
:1009100040B194F85C1004208840A860606D40F0FD
:100920000400606594F85C1010208840304078B373
:100930002068006800F0080050B394F85C101020A4
:100940008840A8602068006800F4802080B120689A
:10095000006800F4002028B9206CC8B12046216C42
:10096000884715E0A06C98B12046A16C88470FE03D
:100970002068006800F4807028B92068006820F0C2
:10098000080021680860206C10B12046216C88475F
:1009900094F85C10202088403040002865D0206802
:1009A000006800F0100000285FD094F85C10202050
:1009B0008840A86094F83500052828D12068006890
:1009C00020F01600216808602068406920F080004F
:1009D00021684861206C08B9A06C28B120680068C3
:1009E00020F008002168086094F85C103F208840DF
:1009F000A860012084F8350000BF002084F834008E
:100A000000BF206D10B12046216D8847F8BD2068D9
:100A1000006800F4802080B12068006800F40020A5
:100A200028B9606C10B12046616C88471DE0E06B0E
:100A3000D8B12046E16B884717E02068006800F4D1
:100A4000807068B92068006820F010002168086094
:100A5000012084F8350000BF002084F8340000BF76
:100A6000E06B10B12046E16B8847606D38B3606D74
:100A700000F00100F0B1052084F83500206800681E
:100A800020F001002168086000BF0098401C009021
:100A9000B84200D905E02068006800F00100002895
:100AA000F3D100BF012084F8350000BF002084F896
:100AB000340000BFE06C10B12046E16C884700BFF5
:100AC000A4E70000200000202DE9F04104460025A5
:100AD00000F084F9074614B90120BDE8F081606A8E
:100AE00000B100BF022084F8350000BF002084F868
:100AF000340000BF2068006820F001002168086011
:100B00000AE000F06BF9C01B052805D920206065BC
:100B1000032084F83500E0E72068006800F0010059
:100B20000028EED12068056821480540D4E901017C
:100B30000843E16808432169084361690843A169E2
:100B40000843E1690843216A08430543606A0428B1
:100B500003D1D4E90B0108430543206805602068F0
:100B6000456925F00705606A0543606A04280DD1D0
:100B7000A06A0543E06A48B12046FFF7F3FC28B1BC
:100B800040206065012084F83500A6E720684561B3
:100B90002046FFF7CDFC064694F85C103F208840C5
:100BA000B06000206065012084F83500002094E7E3
:100BB0003F8010F070B5044600F010F90646254657
:100BC000681C10B104480078054400BF00F006F925
:100BD000801BA842FAD370BD1C000020F8B5024665
:100BE0000B460025002400200021D6E0012606FA4D
:100BF00001F51E6806EA0504AC4274D11E7906F0C0
:100C00000306012E04D01E7906F00306022E13D12E
:100C100090684F000326BE40B0434F00DE68BE40E0
:100C200030439060506801268E40B0431E79C6F371
:100C300000168E40304350601E7906F00306032EE6
:100C400009D0D0684F000326BE40B0434F009E68D5
:100C5000BE403043D0601E7906F00306022E13D149
:100C6000CF0802F1200656F827004E07F70E0F2690
:100C7000BE40B0434F07FF0E1E69BE403043CF0851
:100C800002F1200646F8270010684F000326BE40F8
:100C9000B0431E7906F003064F00BE40304310609B
:100CA0005E6806F44036002E76D000BF002600961F
:100CB0003C4E366846F480463A4F3E603E463668C3
:100CC00006F48046009600BF00BF374E8F0856F8E6
:100CD00027008E07370F0F26BE40B043334EB24277
:100CE00002D1002624E057E0314EB24201D1012664
:100CF0001EE0304EB24201D1022619E02E4EB24221
:100D000001D1032614E02D4EB24201D104260FE09A
:100D10002B4EB24201D105260AE02A4EB24201D141
:100D2000062605E0284EB24201D1072600E008263B
:100D30008F073F0FBE4030431B4E8F0846F82700F9
:100D4000224E3068A0435E6806F4801606B1204348
:100D50001E4E3060361D3068A0435E6806F40016F3
:100D600006B12043194E361D3060184E361F3068CC
:100D7000A0435E6806F4003606B12043134E361FCA
:100D80003060361F3068A0435E6806F4803606B1D6
:100D900020430E4E083E3060491C1029FFF426AF58
:100DA000F8BD00004438024008380140000002400D
:100DB0000004024000080240000C02400010024003
:100DC0000014024000180240001C0240083C014090
:100DD0000AB1816101E00B0483617047014800683A
:100DE0007047000014000020034800680349097898
:100DF0000844014908607047140000201C000020CE
:100E000010B50D48006840F400700B4908600846B2
:100E1000006840F4806008600846006840F4807014
:100E20000860032000F0A6F80F2000F007F800F09B
:100E30002BF8002010BD0000003C024070B50446B5
:100E40000E4800784FF47A71B1FBF0F00C49096854
:100E5000B1FBF0F5284600F02FFC08B1012070BD71
:100E6000102C07D200222146501E00F045F80548FC
:100E7000046001E00120F2E70020F0E71C00002000
:100E8000200000201800002008B500BF00200090BE
:100E90000E48006840F480400C490860084600682D
:100EA00000F48040009000BF00BF00BF0020009011
:100EB000081F006840F08050091F0860084600685D
:100EC00000F08050009000BF00BF08BD44380240D1
:100ED0000146084600280DDB00BF00BF00F01F03DD
:100EE00001229A4043099B0003F1E023C3F800214B
:100EF00000BF00BF00BF70472DE9F05F80460D4680
:100F00001646002701F056FB074639462A46334667
:100F100001F00700C0F1070ABAF1040F02D94FF03F
:100F2000040A01E0C0F1070AD14600F1040ABAF14F
:100F3000070F02D24FF0000A01E0A0F1030AD446E5
:100F40004FF0010A0AFA09FAAAF1010A0AEA020AAA
:100F50000AFA0CFA4FF0010B0BFA0CFBABF1010B88
:100F60000BEA030B4AEA0B042146404601F02AFB38
:100F7000BDE8F09F00BF00F00702064B19684FF66E
:100F8000FF031940044B0B4343EA0221014B196054
:100F900000BF70470CED00E00000FA0570B5044694
:100FA0000D460CB9012070BD5848006800F00700DC
:100FB000A84209D255490D700846006800F00700A4
:100FC000A84201D00120EEE7207800F002000228BC
:100FD0001DD1207800F00400042805D14C48006899
:100FE00040F4E0504A490860207800F008000828E2
:100FF00005D14748006840F46040454908604448CE
:10100000006820F0F000A16808434149086020789A
:1010100000F00100A8B36068012807D13C480838F7
:101020000068C0F34040B8B90120BCE760680228FE
:1010300002D06068032807D1354808380068C0F33B
:10104000406048B90120AEE7314808380068C0F375
:10105000400008B90120A6E72D48006820F00300F1
:10106000616808432A490860FFF7B8FE064609E0B0
:10107000FFF7B4FE801B41F28831884202D9032079
:1010800091E707E02248006800F00C006168B0EBCF
:10109000810FEDD11D48006800F00700A84209D972
:1010A0001A490D700846006800F00700A84201D0F8
:1010B000012078E7207800F00400042807D11448C4
:1010C000006820F4E050E168084311490860207886
:1010D00000F00800082808D10D48006820F460409E
:1010E000216940EAC1000A49086000F03FF8084958
:1010F0000968C1F30311074A515CC84006490860FA
:1011000006480068FFF79AFE00204CE7003C0240CA
:1011100008380240062700082000002018000020A0
:1011200001480068704700002000002000B5FFF76C
:10113000F7FF04490968C1F38221034A515CC840A2
:1011400000BD0000083802401627000800B5FFF770
:10115000E7FF04490968C1F34231034A515CC840C2
:1011600000BD000008380240162700082DE9F047AE
:10117000002400250026A1462548006800F00C0048
:1011800020B1042805D008283AD105E0DFF8849082
:1011900039E0DFF8849036E01D48001F006800F059
:1011A0003F041B48001F006800F4800078B11A4813
:1011B0001749091F0968C1F38811A0FB0170014696
:1011C000224600233846FFF74FF805460EE0114847
:1011D0000F49091F0968C1F38811A0FB017001467E
:1011E000224600233846FFF73FF805460848001F0F
:1011F0000068C0F30140401C4600B5FBF6F902E070
:10120000DFF8109000BF00BF4846BDE8F08700003F
:10121000083802400024F400001BB700F8B504466B
:101220000CB90120F8BD207800F00100002874D02E
:10123000F948006800F00C0004280DD0F64800685A
:1012400000F00C00082813D1F348001F006800F4D8
:101250008000B0F5800F0BD1EF4808380068C0F36C
:101260004040002859D06068002856D10120D9E7B5
:1012700000BF6068B0F5803F08D1E74808380068D3
:1012800040F48030E449083908601EE06068B0F539
:10129000A02F0DD1E0480838006840F48020DE49D6
:1012A000083908600846006840F4803008600CE0A7
:1012B000D9480838006820F48030D74908390860D8
:1012C0000846006820F48020086000BF606890B184
:1012D000FFF784FD054606E0FFF780FD401B64280C
:1012E00001D903209EE7CC4808380068C0F340408D
:1012F0000028F1D011E0FFF771FD054606E0FFF789
:101300006DFD401B642801D903208BE7C2480838D3
:101310000068C0F340400028F1D1207800F00200BE
:1013200002285FD1BC48006800F00C0058B1BA48F0
:10133000006800F00C0008281CD1B748001F0068A6
:1013400000F48000B0B9B44808380068C0F3400029
:1013500020B1E068012801D0012063E7AE480838D9
:10136000006820F0F800216940EAC100AA49083964
:10137000086037E0E06800B30120A8490860FFF783
:101380002DFD054606E0FFF729FD401B022801D987
:10139000032047E7A04808380068C0F34000002851
:1013A000F1D09D480838006820F0F800216940EA33
:1013B000C10099490839086014E000209749086085
:1013C000FFF70CFD054606E0FFF708FD401B02286D
:1013D00001D9032026E7904808380068C0F3400090
:1013E0000028F1D1207800F0080008282CD160698D
:1013F000A8B101208A490860FFF7F0FC054606E025
:10140000FFF7ECFC401B022801D903200AE78248C1
:101410006C300068C0F340000028F1D014E00020D8
:101420007F490860FFF7DAFC054606E0FFF7D6FCC7
:10143000401B022801D90320F4E677486C3000688D
:10144000C0F340000028F1D1207800F00400042807
:1014500070D1002770483830006800F0805090B993
:1014600000BF002000906C483830006840F0805089
:101470006949383108600846006800F080500090E3
:1014800000BF00BF01276748006800F48070B0B952
:101490006448006840F4807062490860FFF79EFC71
:1014A000054606E0FFF79AFC401B022801D90320FD
:1014B000B8E65C48006800F480700028F2D000BFF5
:1014C000A068012808D154486830006840F0010045
:1014D0005149683108601DE0A06805280DD14E48CB
:1014E0006830006840F004004B49683108600846E5
:1014F000006840F0010008600CE047486830006870
:1015000020F001004449683108600846006820F076
:101510000400086000BFA068A8B1FFF75FFC0546A3
:1015200009E0FFF75BFC401B41F28831884202D999
:10153000032077E626E0384868300068C0F34000B2
:101540000028EED013E0FFF749FC054608E0FFF75E
:1015500045FC401B41F28831884201D9032061E6F5
:101560002D4868300068C0F340000028EFD1012FFB
:1015700007D129483830006820F08050264938319A
:10158000086000BFA069002845D02348006800F02B
:101590000C0008285DD0A069022845D100201F4911
:1015A0000866FFF71BFC054606E0FFF717FC401B2B
:1015B000022801D9032035E6174808380068C0F32F
:1015C00040600028F1D1D4E907010843616A40EA8C
:1015D00081110122A06AC2EB500041EA00412C2097
:1015E000005D41EA00600C49091F086001200B49B9
:1015F0000866FFF7F3FB054606E0FFF7EFFB401B2D
:10160000022801D903200DE6034808380068C0F31A
:1016100040600028F1D049E008380240000047420D
:10162000800E474200700040002021490866FFF705
:10163000D5FB054606E0FFF7D1FB401B022801D988
:101640000320EFE51B480068C0F340600028F2D19A
:101650002CE0A069012800D1E4E51648001D0668C9
:10166000A069012820D006F48001E06981421BD1E5
:1016700006F03F01206A814216D147F6C070304023
:10168000616AB0EB811F0FD106F440310122A06ADC
:10169000C2EB5000B1EB004F06D106F070612C2078
:1016A000005DB1EB006F01D00120BBE50020B9E582
:1016B000000047420038024070B504462546681EC7
:1016C000B0F1807F01D301200FE0681E4FF0E021D0
:1016D00048610F214FF0FF3000F074FF00204FF001
:1016E000E021886107200861002070BD70477047C5
:1016F0002DE9F84F0446206805682068C668206810
:1017000047694FF00009CA4605F00F09B9F1000F0B
:101710000AD105F0200038B106F0200020B12046A3
:1017200000F070FCBDE8F88FB9F1000F7CD007F035
:10173000010018B906F49070002875D005F001007A
:1017400030B106F4807018B1606C40F00100606444
:1017500005F0040030B107F0010018B1606C40F0F2
:101760000200606405F0020030B107F0010018B11A
:10177000606C40F00400606405F0080048B106F0B9
:10178000200010B907F0010018B1606C40F00800AB
:101790006064606C002846D005F0200028B106F097
:1017A000200010B1204600F02DFC20684069C0F3F5
:1017B000801A606C00F0080010B9BAF1000F2DD04B
:1017C000204600F0D9FB2068406900F04000402826
:1017D00020D100BF00BF2168143151E8001F21F063
:1017E00040002168143141E80002002AF3D100BF13
:1017F000E06B50B17748E16B0865E06BFFF730F8BC
:1018000088B1E06B016D88470DE02046FFF76FFF60
:1018100009E009E02046FFF76AFF04E02046FFF7F1
:1018200066FF002060647DE7206B012878D105F019
:101830001000002874D006F010000028FAD000BF75
:1018400000200090206800680090206840680090A8
:1018500000BF00BF2068406900F04000402860D110
:10186000E06B006840681FFA80F8B8F1000F56D0AE
:10187000A08D404553DDA4F82E80E06BC069B0F523
:10188000807F43D000BF00BF21680C3151E8001FAA
:1018900021F4807021680C3141E80002002AF3D164
:1018A00000BF00BF00BF2168143151E8001F21F0C4
:1018B00001002168143141E80002002AF3D100BF81
:1018C00000BF00BF2168143151E8001F21F0400023
:1018D0002168143141E80002002AF3D100BF202022
:1018E00084F842000020206300BF00BF21680C3153
:1018F00051E8001F21F0100021680C3141E800027E
:10190000002AF3D100BFE06BFEF754FF02206063B2
:10191000A08DE28D801A81B22046FFF7E7FE01E735
:1019200042E0A08DE18D401A1FFA80F8E08DD0B31F
:10193000B8F1000F37D000BF00BF21680C3151E86B
:10194000001F21F4907021680C3141E80002002A48
:10195000F3D100BF00BF00BF2168143151E8001F60
:1019600021F001002168143141E80002002AF3D17E
:1019700000BF202084F842000020206300BF00BF89
:1019800021680C3151E8001F21F0100021680C3152
:1019900041E80002002AF3D100BF02206063414603
:1019A0002046FFF7A3FEBDE605F0800030B106F04B
:1019B000800018B1204600F0B9FCB3E605F0400005
:1019C00030B106F0400018B1204600F00BFBA9E64C
:1019D00000BFA7E6651F000810B504460CB901203A
:1019E00010BDA06900B100E000BF94F8410028B923
:1019F000002084F84000204600F02AF8242084F8D3
:101A000041002068C06820F400502168C86020466A
:101A100000F076FB2068006920F49040216808619E
:101A20002068406920F02A00216848612068C06869
:101A300040F400502168C86000206064202084F8D1
:101A4000410084F842000020606300BFC8E7000046
:101A500010B586B00446142101A8FEF7C1FC404928
:101A6000206888427AD100BF002000903D4800687D
:101A700040F020003B4908600846006800F0200064
:101A8000009000BF00BF00BF002000903548143810
:101A9000006840F040003349143908600846006887
:101AA00000F04000009000BF00BF4FF48440019060
:101AB000022002900020039003200490082005904B
:101AC00001A92948FFF78AF82848294908608005B4
:101AD0004860002126488160C1604FF48061016147
:101AE0000021416181614FF48071C161490201624D
:101AF00000214162FEF7E8FF08B1FEF789FD00BF53
:101B00001B48E063846300BF1848783019490860B7
:101B10004FF0206048604021164881600021C1607C
:101B20004FF4806101610021416181614FF4807156
:101B3000C161002101624162FEF7C6FF08B1FEF7F4
:101B400067FD00BF0B48A063846300BF00221146FD
:101B50004720FFF7D1F94720FFF7BAF906B010BDCB
:101B6000001401404438024000180240286402403A
:101B700074000020D4000020704710B5034693F88D
:101B80004100202813D101B10AB9012010BD19620A
:101B90009A84DA8400205864212083F84100186870
:101BA000C06840F080001C68E0600020EEE7022082
:101BB000ECE7000010B50446002240210648FFF77C
:101BC00007F9002280210448FFF702F90348006862
:101BD000401C0249086010BD002002402400002083
:101BE00000BFFEE708B500BF002000900E48006867
:101BF00040F480000C4908600846006800F480004A
:101C0000009000BF00BF002211463920FFF774F991
:101C10003920FFF75DF9002211464520FFF76CF9E6
:101C20004520FFF755F908BD3038024000B587B0B0
:101C3000142102A8FEF7D4FB00BF00200190354814
:101C4000006840F04000334908600846006800F032
:101C50004000019000BF00BF00BF00200190084677
:101C6000006840F0010008600846006800F00100CC
:101C7000019000BF00BF00BF00200190084600682F
:101C800040F0040008600846006800F0040001907D
:101C900000BF00BF00BF002001900846006840F46C
:101CA000807008600846006800F48070019000BFF2
:101CB00000BF00BF002001900846006840F080008F
:101CC00008600846006800F08000019000BF00BF77
:101CD000002240211048FFF77BF8002280210E48A7
:101CE000FFF776F840200290012003900020049036
:101CF000059002A90848FEF771FF8020029001209C
:101D0000039000200490059002A90348FEF766FFA7
:101D100007B000BD303802400020024010B50A482C
:101D20000A4908600A484860002108488160C1608B
:101D300001610C21416100218161C161FFF74CFE0D
:101D400008B1FEF765FC10BD001401402C00002016
:101D5000003E490000BFFEE770B504460D4616463A
:101D6000A41C2584668410EE100A6062DFED3F2A11
:101D700060EEA22A12EE900AA062DFED3D2A61EE2B
:101D8000222A12EE900AE06211EE900A206312EE0F
:101D9000100A6063FE2004F8020CEE2004F8010C27
:101DA00094F8200020700020607094F82200A07049
:101DB000A41EFF2161710021A171E171A160D4F81D
:101DC000260002EE900A9FED2B3A62EE832AFDEE8A
:101DD000E22A12EE900A01B2201DA181D4F82A0055
:101DE00002EE900A9FED243A62EE832AFDEEE22A8B
:101DF00012EE900A01B2201DE181D4F82E0002EE0D
:101E0000900ADFED1E3A82EEA33ADFED1D2A63EE63
:101E1000222AFDEEE22A12EE900A2061D4F8320066
:101E200002EE900A9FED173A62EE832AFDEEE22A57
:101E300012EE900A01B2201DA182D4F8360002EE03
:101E4000900A9FED113A62EE832AFDEEE22A12EE2D
:101E5000900A01B2201DE1820021217661760721DE
:101E6000204600F0C3FBC4F81E0070BD9A991141D2
:101E700003A3223E0000804300000043F90FC94045
:101E800000008046000000450000804400BFFEE7DF
:101E90007047704710B5FEF7A7FF10BD00B593B0AF
:101EA000302107A8FEF79CFA142102A8FEF798FA41
:101EB00000BF002001902448006840F08050224973
:101EC00008600846006800F08050019000BF00BF25
:101ED00000BF002001901D48006840F480401B496D
:101EE00008600846006800F48040019000BF00BF11
:101EF000012007900004089002200D9041050E91EA
:101F000006210F91A8211091022111910421129113
:101F100007A8FFF783F908B1FEF77AFB0F200290BC
:101F200002200390002004904FF4A05005904FF43D
:101F300080500690052102A8FFF730F808B1FEF79F
:101F400067FB13B000BD0000403802400070004045
:101F50000348006840F470000149086070470000C1
:101F600088ED00E070B50546AC6B0020E085E084AC
:101F70002046FFF7BCFB70BD00BF00BF02680C32FB
:101F800052E8002F22F4907102680C3242E80013EC
:101F9000002BF3D100BF00BF00BF0268143252E82B
:101FA000002F22F001010268143242E80013002BD6
:101FB000F3D100BF016B01290ED100BF00BF026841
:101FC0000C3252E8002F22F0100102680C3242E875
:101FD0000013002BF3D100BF202180F84210002114
:101FE0000163704710B504462068C06820F04000C7
:101FF0002168C860202084F841002046FFF7DAFD00
:10200000002010BDF8B5044694F84200222875D18E
:10201000A068B0F5805F0CD1206950B90025A66A90
:1020200020684068C0F308003080A06A801CA0626D
:1020300015E0A56A0026A068B0F5805F03D0A0680F
:1020400028B9206918B920684068287004E0206821
:10205000406800F07F002870A06A401CA062E08DFC
:10206000401E80B2E085002846D12068C06820F07C
:1020700020002168C8602068C06820F48070216852
:10208000C8602068406920F0010021684861202074
:1020900084F8420000206063206B012826D10020D4
:1020A000206300BF00BF21680C3151E8001F21F000
:1020B000100021680C3141E80002002AF3D100BF72
:1020C0002068006800F0100010280AD100BF00202E
:1020D000009020680068009020684068009000BF71
:1020E00000BFA18D2046FFF701FB02E02046FFF76D
:1020F00043FD0020F8BD01E00020FBE70220F9E7E6
:102100002DE9F84F04462068006920F44050E1684A
:102110000843216808612169A06808436169084390
:10212000E169084300902068C06849F20C61884367
:10213000009908432168C8602068406920F4407015
:10214000A16908432168486176492068884203D024
:1021500075492068884203D1FEF7F8FF814602E006
:10216000FEF7E4FF8146E069B0F5004F6CD1022034
:102170006168A0FB015003461920A9FB00700146CD
:102180002A463846FEF770F86421B0FBF1F04FEABA
:10219000001A02206168A0FB01510B461920A9FB1F
:1021A00000712A463846FEF75FF8834602206168D0
:1021B000A0FB015003461920A9FB00712A463846AE
:1021C000FEF752F86421B0FBF1F000EBC00101EB27
:1021D0000010ABEB8000322101EBC0006421B0FBAA
:1021E000F1F000F0F8000AEB400A02206168A0FB61
:1021F000015003461920A9FB007001462A463846C3
:10220000FEF732F8834602206168A0FB01500346C6
:102210001920A9FB00712A463846FEF725F86421EB
:10222000B0FBF1F000EBC00101EB0010ABEB800064
:10223000322101EBC0006421B0FBF1F000F0070097
:102240005044216888606AE004206168A0FB015066
:1022500003461920A9FB007001462A463846FEF7BE
:1022600003F8824604206168A0FB01500346192050
:10227000A9FB007001462A463846FDF7F5FF6421A8
:10228000B0FBF1F000EBC00101EB0010AAEB800005
:10229000322101EB00106421B0FBF1F000F0F00AF4
:1022A00004206168A0FB017003461920A9FB0051BE
:1022B0003A462846FDF7D8FF6421B0FBF1F00AEB5F
:1022C000001A04206168A0FB01510B461920A9FBEC
:1022D00000712A463846FDF7C7FF8346042061682F
:1022E000A0FB015003461920A9FB007001462A46B5
:1022F0003846FDF7B9FF6421B0FBF1F000EBC001F7
:1023000001EB0010ABEB8000322101EB00106421E7
:10231000B0FBF1F000F00F00504421688860BDE888
:10232000F88F00000010014000140140014691F8B0
:102330004100212828D18868B0F5805F0BD1086959
:1023400048B90A6A1088C0F308000B685860086A28
:10235000801C086205E00B6A581C086218780B683C
:102360005860C88C401E80B2C88458B90868C068DC
:1023700020F080000B68D8600868C06840F040001A
:102380000B68D860002070470220FCE710B50348B6
:10239000FFF7AEF900F070F810BD00002C0000202F
:1023A00010B504462E48844259D12E480068006872
:1023B00000F4002048BB2B480068006820F00100B2
:1023C000284909680860274800684068C0F19C00F7
:1023D000254908809C2023490968486023480068F3
:1023E00040F40020214908601E480068006840F061
:1023F00001001C49096808601B4800884E282ED13E
:102400001B491C4800F020F929E0164800680068C4
:1024100020F001001349096808601248006840680C
:10242000C0F19C00104908809C200E490968486052
:102430000E48006820F400200C4908600948006834
:10244000006840F0010007490968086006480088F4
:102450004E2804D106494E31064800F0F5F810BD6B
:102460002C00002074000020280000202864024076
:10247000D60100207202002008B5144800680068E8
:1024800000F0200060B100BF002000900F480068FD
:10249000006800900D4800684068009000BF14E09C
:1024A0000B48006800F0100078B100BF00200090D9
:1024B0000648006800680090044800684068009082
:1024C00000BF00BF0148FFF76BFF08BD2C000020D4
:1024D0000014014010B50446012240210B48FEF7CC
:1024E00077FC012280210948FEF772FC0120FEF7EB
:1024F00061FB00BF222221460548FFF73EFB002872
:10250000F8D10120FEF756FB10BD0000002002406C
:102510002C00002010B5234B1B685B6943F040037F
:10252000204C246863611F4B1B68DB6843F0100379
:102530001C4C2468E3601C4B1B681B6823F00103E0
:10254000194C2468236007E0174B1B681B6823F0B5
:102550000103154C24682360134B1B681B6803F0B0
:102560000103002BF0D1114B0F4C2468A3600E4BDC
:102570001B68D8600C4B1B68196153000A4C246817
:102580006360094B1B681B6843F48023064C246876
:102590002360054B1B681B6843F00103024C246851
:1025A000236010BD2C0000207400002004140140A2
:1025B00000BFFEE702480068C0F302207047000039
:1025C0000CED00E010B5002804DB0A07130E054AE5
:1025D000135406E00A07140E034A00F00F031B1FF2
:1025E000D45410BD00E400E018ED00E0F0B5024660
:1025F0000B4600240026601E124F00211FE04FF002
:10260000004452F82160002516E000F0004CBCF1B7
:10261000000F05D04000DFF82CC080EA0C0000E07D
:10262000400006EA040CBCF1000F03D0DFF814C030
:1026300080EA0C0064086D1C202DE6D3491C9942E9
:10264000DDD3F0BDB71DC10470B505460C46D4F806
:102650004A6012212046FFF7C9FFB04204D14E2242
:1026600021462846FDF777FE70BD0000FEF7C8FB47
:10267000FFF714FCFFF7DAFAFFF7B4FAFFF74EFBA7
:102680004E221349A1F14E00FFF744FF1FE011480D
:1026900090ED002A1048D0ED001A104890ED001A75
:1026A000DFED0F0A0F4890ED000A0A220E4801786C
:1026B0000E48FFF751FB0D48FFF70CFF0C490B4884
:1026C0003338FDF7A9FF4FF47A70FEF773FADEE7AF
:1026D000240200200C000020080000201000002030
:1026E0000000000004000020000000208301002002
:1026F000720200204FF04070E1EE100A70470006B1
:102700001016000610160000000000000000010274
:10271000030406070809000000000102030400008A
:1027200040270008000000202C000000C401000821
:102730006C2700082C000020F4080000E0010008CD
:1027400000000000295C8F3D000000000000000038
:102750000000000000000000100000000100000068
:0C2760000024F400000000000000000055
:040000050800018965
:00000001FF
