:020000040800F2
:10000000889B002029030008FD93000893720008D4
:10001000F993000839140008990101080000000054
:10002000000000000000000000000000690200085D
:10003000D720000800000000C50200082DCB0008F2
:100040004303000843030008430300084303000878
:100050004303000843030008D920000843030008B5
:1000600043030008E3200008ED20000843030008D4
:100070004303000843030008430300084303000848
:100080004303000843030008430300084303000838
:100090003D1400084303000843030008F72000084C
:1000A0004303000843030008430300084303000818
:1000B00029CC000843030008430300084303000859
:1000C0004303000899720008430300084303000833
:1000D0004303000829D6000843030008430300082F
:1000E00043030008430300084303000843030008D8
:1000F000430300084303000843030008D516000823
:1001000043030008430300084303000843030008B7
:10011000430300084303000839CC000843030008E8
:1001200043030008E5160008F51600088D1F0008B7
:100130004303000843030008430300084303000887
:10014000430300084303000843030008F598000830
:100150009D1F0008AD1F0008BD1F00083DD6000808
:100160004303000843030008430300084303000857
:100170004303000843030008430300080000000095
:10018000430300084303000800F002F800F05CF8A5
:100190000AA090E8000C82448344AAF10107DA45E2
:1001A00001D100F051F8AFF2090EBAE80F0013F0D8
:1001B000010F18BFFB1A43F001031847F0D30100E9
:1001C00010D401000A444FF0000C10F8013B13F06A
:1001D000070408BF10F8014B1D1108BF10F8015BA0
:1001E000641E05D010F8016B641E01F8016BF9D193
:1001F00013F0080F1EBF10F8014BAD1C0C1B09D1EA
:100200006D1E58BF01F801CBFAD505E014F8016B5B
:1002100001F8016B6D1EF9D59142D6D370470000ED
:100220000023002400250026103A28BF78C1FBD8FF
:10023000520728BF30C148BF0B6070471FB51BF085
:1002400049FE1FBD10B510BD00F090FA1146FFF732
:10025000F5FF17F075FB00F0AEFA03B4FFF7F2FFFD
:1002600003BC00F013FB00002C4B19680868B0E8D1
:10027000F04F80F30988BFF36F8F4FF0000080F3D9
:10028000118870470000000008480068006880F38B
:1002900008884FF0000080F3148862B661B6BFF39F
:1002A0004F8FBFF36F8F00DF00BF00BF08ED00E08E
:1002B000DFF80C00016841F470010160704700BF75
:1002C00088ED00E0EFF30980BFF36F8F134B1A68DE
:1002D0001EF0100F08BF20ED108A20E9F04F1060CB
:1002E00009B44FF0500080F31188BFF34F8FBFF374
:1002F0006F8F19F04BFA4FF0000080F3118809BCA2
:1003000019680868B0E8F04F1EF0100F08BFB0EC95
:10031000108A80F30988BFF36F8F7047AC0000200C
:10032000EFF30580704700000948804709480047FF
:10033000FEE7FEE7FEE7FEE7FEE7FEE7FEE7FEE795
:10034000FEE7FEE704480549054A064B70470000F2
:1003500015CC00088901000888870020889B0020B0
:1003600088970020889700209FED1A1AF5EE000A62
:1003700040EE010ABDEEE00AF5EEC00A10EE100AEA
:10038000F1EE10FA38BF401E00EE100A1349F7EEE6
:10039000001AB8EEC00A30EEC00ADFED0F0A20EEF8
:1003A000200AFCEEC00A10EE900AC0F3080000EE2E
:1003B000900A01EB8000F8EE600A90ED011A70EEF1
:1003C000600A90ED000A71EEE01A21EE800A00EE5C
:1003D000810A704783F9223E0000004488CC01085E
:1003E000DFED190AB5EEC00A60EE200ABDEEE01A94
:1003F00011EE100AF1EE10FA38BF401E00EE100A9E
:100400001349F7EE001AB8EEC00A30EEC00ADFED6D
:100410000F0A60EE200ABCEEE00A10EE100AC0F3EC
:10042000080000EE100A01EB8000B8EE400A90EDE3
:10043000011A70EEC00A90ED000A71EEE01A21EE8A
:10044000800A00EE810A704783F9223E00000044D2
:1004500088CC010853EA020C00F069802DE9F04BCA
:100460004FF00006002B1FBFB3FA83F503FA05F423
:1004700024FA05F65E4012BF1643B2FA82F502FA7C
:1004800005F4C5F120051EBF22FA05FC44EA0C0460
:10049000203556EA044C4FEA144418BF641C4FF050
:1004A00000084FF00009904271EB030C39D300298A
:1004B00019BFB1FA81F701FA07F6B0FA80F700FA2E
:1004C00007F6C7F120071EBF20FA07FC46EA0C0614
:1004D0002037B6FBF4FCA7EB0507103F07F01F0B16
:1004E000CBF120060CFA0BFB2CFA06F644BFB34600
:1004F0000026202FA4BF5E464FF0000B5BEA060CDF
:1005000008BF4FF0010B19EB0B09ABFB027C48EB6A
:100510000608C01B06FB02CC0BFB03CC71EB0C01E5
:10052000C1E70B46024641464846BDE8F08B13B58D
:100530004FF000004FF00001AFF30080BDE81C4019
:10054000704710B5431C02E010F8011B71B1810720
:10055000FAD14FF0013202C88C1A8C4314EAC2114E
:10056000F9D0C01A0A0603D0C01E10BDC01A10BDB3
:100570000A0401D0801E10BD0902FCD0401E10BD2F
:10058000032A40F2308010F0030C00F0158011F8BF
:10059000013BBCF1020F624498BF11F801CB00F897
:1005A000013B38BF11F8013BA2F1040298BF00F8EB
:1005B00001CB38BF00F8013B11F0030300F02580A8
:1005C000083AC0F0088051F8043B083A51F804CBCF
:1005D000A0E80810F5E7121D5CBF51F8043B40F895
:1005E000043BAFF30080D20724BF11F8013B11F8A0
:1005F00001CB48BF11F8012B24BF00F8013B00F8E4
:1006000001CB48BF00F8012B704710B5203AC0F06D
:100610000B80B1E81850203AA0E81850B1E8185003
:10062000A0E81850BFF4F5AF5FEA027C24BFB1E840
:100630001850A0E8185044BF18C918C0BDE81040B1
:100640005FEA827C24BF51F8043B40F8043B08BFBA
:100650007047D20728BF31F8023B48BF11F8012B81
:1006600028BF20F8023B48BF00F8012B704702F07A
:10067000FF0343EA032242EA024200F002B84FF0CD
:1006800000020429C0F0128010F0030C00F01B805F
:10069000CCF1040CBCF1020F18BF00F8012BA8BF6D
:1006A00020F8022BA1EB0C0100F00DB85FEAC17C31
:1006B00024BF00F8012B00F8012B48BF00F8012BE4
:1006C00070474FF0000200B5134694469646203915
:1006D00022BFA0E80C50A0E80C50B1F12001BFF4FB
:1006E000F7AF090728BFA0E80C5048BF0CC05DF861
:1006F00004EB890028BF40F8042B08BF704748BFAF
:1007000020F8022B11F0804F18BF00F8012B704722
:1007100070477047704710B500F008F8006810BDCA
:1007200010B5044600F002F8046010BD00487047A0
:10073000248700201FB584B000200A9C06AB04AAC1
:1007400002A90094AFF3008018B1DDE9020108B0FE
:1007500010BD0348204000F037F800200146F6E7BE
:100760000000207C00487047248700207546FFF772
:10077000F9FFAE4605006946534620F0070085465E
:1007800018B020B5FFF7DEFDBDE820404FF00006B1
:100790004FF000074FF000084FF0000B21F0070169
:1007A000AC46ACE8C009ACE8C009ACE8C009ACE8AC
:1007B000C0098D46704710B50446AFF3008020464F
:1007C000BDE81040FFF749BD10B500F009F8BDE8DD
:1007D0001040AFF30080002801D000F057B87047F8
:1007E00010B5022803D0410103D50DA112E000206D
:1007F00010BD010101D50FA10CE0C10001D511A16F
:1008000008E0810001D512A104E0400001D513A148
:1008100000E0002115A000F03FF8012010BD00000D
:10082000496E76616C6964204F7065726174696F9E
:100830006E000000446976696465204279205A653B
:10084000726F00004F766572666C6F770000000073
:10085000556E646572666C6F77000000496E65784E
:1008600061637420526573756C7400005349474688
:1008700050453A2041726974686D657469632065FA
:100880007863657074696F6E3A2000000149182022
:10089000ABBEFEE72600020070B505460C460A20F6
:1008A00000E06D1C00F011F835B128780028F8D16F
:1008B00002E0641C00F009F814B120780028F8D197
:1008C000BDE870400A20AFF3008008B569468DF896
:1008D00000000320ABBE08BD704710B52DED028BA4
:1008E000B0EE408AB0EE480A0FF0AEFDBDEC028BD0
:1008F00010BD10B52DED028BB0EE408AF0EE608A8F
:10090000F0EE680AB0EE480A0FF034FEBDEC028B40
:1009100010BD10B52DED028BB0EE408AB0EE480A46
:10092000FFF722FDBDEC028B10BDF0EE400AF5EEA4
:10093000C00AF1EE10FA02DDB0EE600A7047B1EEC7
:10094000600AFBE718B19FED020A80ED000A7047CC
:100950000000000018B1B3EE060A80ED000A7047EF
:1009600070B52DED0C8B84B006460C4615469FEDF8
:10097000990AF0EE408A9FED970AB0EE409A9FEDFB
:10098000950AF0EE40BA9FED930AF0EE409A9FED83
:10099000910AB0EE40AA0EB104B11DB904B0BDEC8D
:1009A0000C8B70BD8C48FFF7CDFF8C48FFF7D2FF52
:1009B0008A48D0ED000A9FED8A1A60EE810AB0EEF7
:1009C000600A00F02DF9F0EE408A28EEA80AF0EE59
:1009D000408A8248D0ED000AB0EE001A60EE810A2B
:1009E0009FED7F1A60EE810AB0EE600A00F018F900
:1009F000B0EE409A29EE090AB0EE409ADFED790A8E
:100A0000B7EE000A00EEA80ADFED770A00EEC90A89
:100A1000DFED760A20EE200A754880ED000A6E4868
:100A200090ED000ADFED730A80EE201AB7EE000A9F
:100A300031EE000A20EE000A6D48D0ED000A80EE8B
:100A4000801A6D4880ED001A94ED000AB5EEC00AD8
:100A5000F1EE10FA0DD194ED010AB5EEC00AF1EEF7
:100A600010FA06D194ED020AB5EEC00AF1EE10FAC2
:100A700046D09FED580AB0EE408A002001900290C7
:100A80000390D4ED000A60EEA00A94ED011AD4EDB3
:100A9000011A41EE210A94ED021AD4ED021A41EE38
:100AA000210AB0EE600A00F0A9F8B0EE408A94ED99
:100AB000000A20EE080A8DED010A94ED010A20EEED
:100AC000080A8DED020A94ED020A20EE080A8DED67
:100AD000030ADDED010AF1EE600AB0EE600AFFF7ED
:100AE000FCFEF0EE409A9DED031AF0EE410A9DEDFA
:100AF000021AB0EE410AFFF7FCFEB0EE40AA07E092
:100B00009FED340AF0EE409A9FED320AB0EE40AA13
:100B100095ED000AB5EEC00AF1EE10FA0DD195ED93
:100B2000010AB5EEC00AF1EE10FA06D195ED020AFF
:100B3000B5EEC00AF1EE10FA3CD0B0EE690A00F052
:100B40006FF8B0EE408AB0EE690AFFF7E2FEB0EE51
:100B500040DAB0EE4A0A00F063F8F0EE40AAB0EED8
:100B60004A0AFFF7D6FEB0EE40BA28EE2A0AD5EDC3
:100B7000010A20EE200AD5ED000A0DEE200A68EEEB
:100B80000B0A95ED021A00EE810AB0EE40CA95ED0F
:100B9000010A20EE0B0AD5ED020A0AEEE00AF0EE99
:100BA00040CAF0EE6C0AB0EE4C0AFFF7A2FEF0EE7F
:100BB00040BA03E09FED070AF0EE40BAB0EE4A1AE1
:100BC000F0EE690AB0EE6B0A304611F0E7F900BFAB
:100BD000E4E6000000000000600D0020640D00202D
:100BE00035FA8E3CC1BFAD3B9DF8C5362F7C1C410C
:100BF000680D0020506CC24A6C0D002010B52DED20
:100C0000028BB0EE408AB0EE480A10F06AFEB7EEF2
:100C1000001AC1EE000AB0EE600ABDEC028B10BDF6
:100C200010B52DED028BB0EE408AB0EE480AFFF70A
:100C3000D7FBBDEC028B10BD2DE9F0412DED028BF1
:100C40009AB00546B0EE408A0E46174698460020F8
:100C50001790189019901490159016904DB146B1B8
:100C60003FB1B8F1000F04D0B5EEC08AF1EE10FA32
:100C700005D100201AB0BDEC028BBDE8F08196EDE5
:100C8000000A8DED170A96ED010A8DED180A96ED12
:100C9000020A8DED190A97ED000A8DED140A97ED01
:100CA000010A8DED150A97ED020A8DED160A17AAB5
:100CB00014A9284610F0C4FF402104A8FFF701FD45
:100CC00000200090019002900390002417A904A82E
:100CD00018F0B0F900BF30E004A800EB041090ED6C
:100CE000000AD5ED000A20EE200A04A800EB04104B
:100CF000D0ED010A95ED011A00EE810A04A800EB7F
:100D00000410D0ED020A95ED021A00EE810A04A843
:100D100000EB0410D0ED030A95ED031A00EE810AF2
:100D200020EE080AF0EE000A80EE201A684600EB7A
:100D3000840080ED001A601CC4B2042CCCDB0024BB
:100D400010E005EB840090ED000A684600EB84009B
:100D5000D0ED000A30EE200A05EB840080ED000A99
:100D6000601CC4B2042CECDB284617F01DFE0120E9
:100D700080E7000010B59FED162ADFED161A9FEDF3
:100D8000161ADFED160A9FED160A164811F0B2FB8F
:100D900017F0C4FE4FF4C870134908804E2213495F
:100DA000A1F14E0017F0EEFFDFED110AB0EE000AE0
:100DB000104A0021104808F0F3FFF6EE000AB0EEEA
:100DC000000A0E4A00210E4808F0EAFF10BD00009C
:100DD000852B3C4300001643A410B3433D0AC34196
:100DE00000000C4324760020087600205277002073
:100DF000CDCC4C3EA8C3010878750020B4C30108CF
:100E0000C075002010B501221021024802F0C0FD7B
:100E100010BD00000000024010B500221021024861
:100E200002F0B6FD10BD0000000002407047000057
:100E300010B501221146024802F0AAFD10BD0000C3
:100E40000004024010B500220121024802F0A0FD7A
:100E500010BD00000004024010B543781B021BB215
:100E60000478234300EE103AB8EEC01A1C4BD3EDC1
:100E7000001A21EE211A81ED001AC3781B021BB261
:100E80008478234300EE103AB8EEC01A144BD3ED29
:100E9000001A21EE211A81ED011A43791B021BB2BF
:100EA0000479234300EE103AB8EEC01A0C4BD3ED90
:100EB000001A21EE211A81ED021A037A1B04C4796B
:100EC00043EA04238479234300EE903AB8EE601A93
:100ED000DFED041A21EE211A82ED001A10BD000088
:100EE000B801002000401C42704710B5044620465F
:100EF00016F0BEFE10BD10B50446204613F07AFA77
:100F000010BD00004278120212B203781A4300EEBC
:100F1000102AF8EEC00A144A92ED001A60EE810A17
:100F2000C1ED000AC278120212B283781A4300EEB1
:100F3000102AF8EEC00A0C4A92ED001A60EE810AFF
:100F4000C1ED010A4279120212B203791A4300EE8E
:100F5000102AF8EEC00A044A92ED001A60EE810AE7
:100F6000C1ED020A70470000BC01002010B500244A
:100F7000FFF75CFFFFF7B8FF11F088FC10B144F0F9
:100F8000800402E011F0E8FB044311F077FE10B199
:100F900044F0400402E011F0F7FD0443204610BD88
:100FA0002DE9FC4105460E461746002000900190B1
:100FB000FFF732FF922000F0D1F806226946122096
:100FC00000F0ACF8FFF71EFF9DF80100000200B230
:100FD0009DF8001040EA010400EE104AB8EEC00A85
:100FE0004C48D0ED000A20EE200A86ED000A9DF85C
:100FF0000300000200B29DF8021040EA010400EE76
:10100000104AB8EEC00A4348D0ED000A20EE200A8C
:1010100086ED010A9DF80500000200B29DF804105B
:1010200040EA010400EE104AB8EEC00A3948D0ED9B
:10103000000A20EE200A86ED020AFFF703FF0822CD
:101040006946002000F06AF8FFF7F2FE9DF8000004
:101050000F2838D19DF80300000200B29DF802105D
:1010600040EA010400EE104AB8EEC00A2A48D0ED6A
:10107000000A20EE200A85ED000A9DF80500000216
:1010800000B29DF8041040EA010400EE104AB8EEE8
:10109000C00A2148D0ED000A20EE200A85ED010AA1
:1010A0009DF80700000200B29DF8061040EA010416
:1010B00000EE104AB8EEC00A1748D0ED000A20EE44
:1010C000200A85ED020AFFF7A7FEA22000F046F8ED
:1010D00002226946222000F021F8FFF793FE9DF8D6
:1010E0000000C0009DF8011040EA6114B4F5806F63
:1010F00002DBA4F5006004B200EE104AF8EEC00A6C
:10110000B4EE001AB3EE070A00EE810A87ED000A7A
:10111000BDE8FC81B8010020BC01002070B5064686
:101120000C46154646F0800000F018F806E0552001
:1011300000F014F82070641C681EC5B2002DF6D1B2
:1011400070BD70B504460D4644F0800000F006F80E
:10115000552000F003F8287070BD000001B582B082
:101160004FF47A70012301AA02A90090024804F00A
:10117000BBFE9DF804000EBD4815002010B50246C8
:101180001378DB00547843EA6410B0F5806F02DB1B
:10119000A0F5006318B200EE100AF8EEC00AB4EE33
:1011A000001AB3EE070A00EE810A81ED000A10BDB5
:1011B00070B505460C462846FFF7D0FF2046FFF7DE
:1011C000CDFF70BD40F2651018F00EF940F26510C9
:1011D00018F00AF940F2651018F006F911F066FEF1
:1011E00003E18248007830B10121084611F08EFEFB
:1011F00000207E4908707E480078012846D10020F2
:101200007B4908700A2434E07948007860B90020EE
:1012100078490870784908710120754908709FED78
:10122000770A774880ED020A764800787649087098
:101230000121084611F06AFE4FF4FA6016F018FD1D
:10124000704800787049097888420CD06D48007861
:1012500048B16E496B48007807F076FA6948007823
:101260006949087004E069496948007807F06CFA38
:10127000641E002CC8DC00205D4908709FED650AE3
:101280005F4880ED020A01206349087062480078D7
:10129000012840D10020604908700A2431E05E48EE
:1012A000007860B900205349087053490871012043
:1012B000594908709FED510A514880ED020A514882
:1012C0000078514908700121084611F01FFE4FF4C3
:1012D000FA6016F0CDFC4B4800784B4909788842FB
:1012E00009D04E494748007807F02EFA4548007863
:1012F0004549087004E049494548007807F024FA58
:10130000641E002CCBDC0020434908709FED410A8D
:101310003B4880ED020A3D480078002842D03F4813
:101320000078E8B33E480078D0BB0020314908700F
:101330003149087101203A49087000242EE03348F1
:10134000005D3649095D884206D13049085D2A4969
:10135000491D07F0F9F920E02C48005D2F49095D8F
:1013600088420AD02948005DFF2806D12B49085D34
:101370002149491D07F0E8F90FE02448005D27499D
:10138000095D884209D02548005DFF2805D11F4925
:10139000085D1949491D07F0D7F9641C0A2C00E0C3
:1013A00000E0CCDB1F480078E0B901211E4802F0C4
:1013B000E7FAB8B90122D1021C4802F0E9FA00208C
:1013C0001B49087040F6C41016F052FC00224FF47E
:1013D0000061164802F0DCFA00201649087001206E
:1013E00010490870052016F043FCFAE6E2020020DE
:1013F000E5020020E10200208C780020CDCCCC3D1D
:101400007081002003000020E902002048820020B3
:10141000E302002000000000E602002052820020CB
:10142000E8020020E402002000000240001C02400C
:10143000D9020020EC02002000BFFEE710B50248F0
:1014400001F0A7FA10BD000018140020F8B50746F7
:101450000C4615461E464FF400700D4908600020EA
:101460008860C86008200861380A0A4908704F700F
:10147000200A8870CC70280A08714D71300A887172
:10148000CE716B460A460249034801F080F8F8BD68
:10149000347900204E0200201814002038B504468C
:1014A00040F2FF100849086000208860C8600820EA
:1014B0000861200A054908704C706B460A460249CB
:1014C000034801F064F838BD4C7900205602002032
:1014D000181400200346042B15D007DC7BB1012B28
:1014E0000ED0022B0DD0032B12D10BE0202B0BD0F2
:1014F000212B0AD0222B09D0232B09D107E008E0A9
:1015000007E006E005E004E003E002E001E000E0BF
:1015100000BF00BF002070470020704710B50022B8
:10152000044905480CF02FFB044903480CF01CFB50
:10153000002010BD48270020201A0020481F00204E
:1015400070B504460D4621464E480CF00DFB4D4843
:101550000CF0D6FA2078FF2873D194F82500FE28E5
:10156000FAD1002004E0411C615C474A1154401C40
:101570000428F8DB444890ED000A444880ED000A56
:10158000002004E0411D615C3F4A1154401C0428C6
:10159000F8DB3D4890ED000A3C4880ED010A002050
:1015A00005E000F10901615C374A1154401C042830
:1015B000F7DB354890ED000A344880ED020A002040
:1015C00005E000F10D01615C2F4A1154401C042814
:1015D000F7DB2D4890ED000A2C4880ED030A00202F
:1015E00005E000F11101615C274A1154401C0428F8
:1015F000F7DB254890ED000A244880ED040A00201E
:1016000005E000F11501615C1F4A1154401C0428DB
:10161000F7DB1D4890ED000A1C4880ED050A00200C
:1016200005E000F11901615C174A1154401C0428BF
:10163000F7DB154890ED000A144880ED060A0020FB
:1016400006E01DE000F11D01615C0F4A1154401CD1
:101650000428F7DB0C4890ED000A0C4880ED070ADF
:10166000002005E000F12101615C074A1154401C93
:101670000428F7DB044890ED000A044880ED080ACE
:10168000002070BD201A002084000020241F0020AC
:1016900010B503460C460021084610BD2DE9F04167
:1016A00004460D4600260A48D0F8BC72D7F814024A
:1016B00010B10120BDE8F0812A46214604480CF013
:1016C00062FA03480CF012FB06463046F2E70000CF
:1016D000201A002010B5024801F03CFD10BD0000AA
:1016E000E814002010B5024801F034FD10BD0000E0
:1016F0001819002010B5FE48C06C0068FD498842EA
:1017000076D9FC4854380068F949C96C0968FA4A26
:10171000914201D1202169E0F549C96C0968F54A77
:10172000483A914201D1202160E0F149C96C096831
:10173000F14A6032914201D1202157E0EC49C96C55
:101740000968EC4A1832914201D120214EE0E84963
:10175000C96C0968E84A1832914201D1C91445E0C0
:10176000E349C96C0968E34A303A914201D1C9148E
:101770003CE0DF49C96C0968DF4A7832914201D107
:10178000C91433E0DA49C96C0968DA4A3032914247
:1017900001D1C9142AE0D649C96C0968D64A303249
:1017A000914202D14FF4001120E0D149C96C09687F
:1017B000D04A183A914202D14FF4001116E0CC49B8
:1017C000C96C0968CC4A9032914202D14FF40011A1
:1017D0000CE0C749C96C0968C64A4832914203D136
:1017E0004FF4001102E003E04FF00061084070E1A7
:1017F000BF48C06C0068C049A831884276D9BD484E
:1018000058380068BA49C96C0968BB4A914201D18D
:10181000202169E0B649C96C0968B64A483A914244
:1018200001D1202160E0B249C96C0968B24A603236
:10183000914201D1202157E0AD49C96C0968AD4AF8
:101840001832914201D120214EE0A949C96C0968A2
:10185000A94A1832914201D1C91445E0A449C96C82
:101860000968A44A303A914201D1C9143CE0A04928
:10187000C96C0968A04A7832914201D1C91433E099
:101880009B49C96C09689B4A3032914201D1C91405
:101890002AE09749C96C0968974A3032914202D1CF
:1018A0004FF4001120E09249C96C0968914A183A36
:1018B000914202D14FF4001116E08D49C96C0968BC
:1018C0008D4A9032914202D14FF400110CE08849C8
:1018D000C96C0968874A4832914203D14FF400111C
:1018E00002E003E04FF000610840F2E08048C06C85
:1018F000006881494831884276D97F48103840686D
:101900007B49C96C09687C4A914201D1202169E078
:101910007749C96C0968774A483A914201D1202138
:1019200060E07349C96C0968734A6032914201D121
:10193000202157E06E49C96C09686E4A18329142FD
:1019400001D120214EE06A49C96C09686A4A1832FF
:10195000914201D1C91445E06549C96C0968654ADD
:10196000303A914201D1C9143CE06149C96C09681F
:10197000614A7832914201D1C91433E05C49C96CA3
:1019800009685C4A3032914201D1C9142AE05849B1
:10199000C96C0968584A3032914202D14FF40011A3
:1019A00020E05349C96C0968524A183A914202D161
:1019B0004FF4001116E04E49C96C09684E4A903246
:1019C000914202D14FF400110CE04949C96C0968F9
:1019D000484A4832914203D14FF4001102E003E03B
:1019E0004FF00061084074E04348103800684049F7
:1019F000C96C0968404A914201D1202168E03C4904
:101A0000C96C09683B4A483A914201D120215FE004
:101A10003749C96C0968384A6032914201D12021A6
:101A200056E03349C96C0968324A1832914201D1F3
:101A300020214DE02E49C96C09682F4A1832914285
:101A400001D1C91444E02A49C96C0968294A303ACD
:101A5000914201D1C9143BE02549C96C0968264A65
:101A60007832914201D1C91432E02149C96C096828
:101A7000204A3032914201D1C91429E01C49C96C75
:101A800009681D4A3032914202D14FF400111FE023
:101A90001749C96C0968174A183A914202D14FF4A4
:101AA000001115E01249C96C0968134A903291423D
:101AB00002D14FF400110BE00D49C96C09680D4AC1
:101AC0004832914202D14FF4001101E04FF0006121
:101AD000084000286FD00648C06C0068054988425D
:101AE0007BD90348C06C00680349884208D105E0EF
:101AF000481500205864024010600240202068E031
:101B0000FE48C06C0068FE49884201D1202060E098
:101B1000FA48C06C0068FB49884201D1202058E097
:101B2000F648C06C0068F6496031884201D1202037
:101B30004FE0F248C06C0068F2494839884201D150
:101B4000C01446E0ED48C06C0068ED491831884289
:101B500001D1C0143DE0E948C06C0068E949183182
:101B6000884201D1C01434E0E448C06C0068E44904
:101B70007831884201D1C0142BE0E048C06C006885
:101B8000E0493039884202D14FF4001021E0DB48AF
:101B9000C06C0068DA493031884202D14FF400103D
:101BA00017E0D648C06C0068D6493031884204D16D
:101BB0004FF400100DE0DFE10FE0D048C06C00688A
:101BC000CF499031884202D14FF4001001E04FF02C
:101BD0000060CB49091F08606AE1C848C06C006812
:101BE000C8494831884274D9C448C06C0068C549A6
:101BF0006039884201D1202066E0C048C06C00688E
:101C0000BF49884201D120205EE0BC48C06C00681A
:101C1000BC49884201D1202056E0B848C06C006819
:101C2000B7496031884201D120204DE0B348C06CF3
:101C30000068B4494839884201D1C01444E0AF4833
:101C4000C06C0068AE491831884201D1C0143BE035
:101C5000AA48C06C0068AB491831884201D1C01451
:101C600032E0A648C06C0068A5497831884201D1AD
:101C7000C01429E0A148C06C0068A24930398842EC
:101C800002D14FF400101FE09C48C06C00689C49D2
:101C90003031884202D14FF4001015E09748C06CF3
:101CA000006898493031884202D14FF400100BE0AF
:101CB0009248C06C006892499031884202D14FF43A
:101CC000001001E04FF000608D4908390860EFE036
:101CD000FFE78A48C06C00688A491839884274D97D
:101CE0008648C06C006887496039884201D120204D
:101CF00066E08248C06C00688149884201D120209A
:101D00005EE07E48C06C00687E49884201D1202098
:101D100056E07A48C06C006879496031884201D148
:101D200020204DE07548C06C0068764948398842EB
:101D300001D1C01444E07148C06C0068704918318A
:101D4000884201D1C0143BE06C48C06C00686D490A
:101D50001831884201D1C01432E06848C06C006874
:101D600067497831884201D1C01429E06348C06CCA
:101D7000006864493039884202D14FF400101FE0F6
:101D80005E48C06C00685E493031884202D14FF431
:101D9000001015E05948C06C00685A49303188423B
:101DA00002D14FF400100BE05448C06C0068544955
:101DB0009031884202D14FF4001001E04FF00060F2
:101DC00050497039C86073E0FFE74C48C06C006848
:101DD0004C496039884201D1202066E04748C06CF8
:101DE00000684749884201D120205EE04348C06C2A
:101DF00000684449884201D1202056E03F48C06C29
:101E000000683F496031884201D120204DE03B48C5
:101E1000C06C00683B494839884201D1C01444E095
:101E20003648C06C006836491831884201D1C01468
:101E30003BE03248C06C006832491831884201D119
:101E4000C01432E02D48C06C00682D4978318842BA
:101E500001D1C01429E02948C06C006829493039F3
:101E6000884202D14FF400101FE02448C06C006883
:101E700023493031884202D14FF4001015E01F4849
:101E8000C06C00681F493031884202D14FF4001005
:101E90000BE01A48C06C006819499031884202D1A1
:101EA0004FF4001001E04FF000601649703988606F
:101EB0001548007800F0020078B11348007820F04F
:101EC0000200114908700846007840F004000870CC
:101ED000012211460D4801F05BFD0D48007800F02D
:101EE0000200E0B10A48007820F0020008490870BA
:101EF0000846007840F0040008700BE04815002008
:101F000010640240706002407D0C0020000402401A
:101F10007E0C002001221021184801F039FD1848DC
:101F2000007800F0020078B11548007820F0020037
:101F3000134908700846007840F004000870012238
:101F400010210E4801F024FD14F0B0FC0D4800787B
:101F500000F0040080B10B48007820F0040009492B
:101F600008700846007840F00800087006480068CD
:101F700040F001000449086010BD0000000002406C
:101F80007F0C00207D0C0020103C014010B5024861
:101F900001F0E0F810BD00000016002010B5024866
:101FA00001F0D8F810BD0000B818002010B50248A4
:101FB00001F0D0F810BD00007819002010B50248DB
:101FC00001F0C8F810BD000058180020014608783C
:101FD00010381823B0FBF3F20848805CC865032A68
:101FE00005D908686FF30900001D886503E00868DB
:101FF0006FF309008865886D7047000068C30108A9
:10200000014600208A6A8B69CBB932B1012A0DD012
:10201000022A03D0032A10D10EE000BFCB6A03F0DE
:102020008073B3F1807F00D1012007E0CB6AB3F168
:10203000C07F00D1012001E000E000BF34E08B69E7
:10204000B3F5005F1AD132B1012A07D0022A03D0BA
:10205000032A11D10AE000BF01200EE0CB6A03F091
:102060008073B3F1807F00D1012006E0CB6AB3F129
:10207000C07F00D1012000E000BF15E032B1012A8D
:1020800005D0022A04D0032A0CD103E000BF00BF10
:10209000012008E0CB6A03F08073B3F1807F00D1A8
:1020A000012000E000BF00BF704730B5046824681D
:1020B00024F4802405682C60046863608468402CE4
:1020C00004D10468A2600468E16003E00468A160D0
:1020D0000468E26030BD704710B5012001F048FB94
:1020E00010BD10B5082001F043FB10BD10B5102045
:1020F00001F03EFB10BD10B5202001F039FB10BDF2
:1021000072B600BFFEE700008A78513000F8032C59
:102110000A7900F8022C91F9062040F8012CCA79BE
:10212000C270B1F90C2000EE102AF8EEC00A9FED43
:10213000501A80EE810A10EE102A4260B1F90E208A
:1021400000EE102AB8EEC00A9FED4A1AC0EE010A4E
:102150009FED491A80EE810A10EE102A82600A690A
:1021600000EE102A9FED441AC0EE010A10EE902AEC
:10217000C260B1F91A2000EE102AB8EEC00A9FED35
:102180003D1AC0EE010A9FED3C1A80EE810A10EE66
:10219000102A0261D1F81E2000EE102AF8EEC00AC3
:1021A0009FED351A80EE810A9FED341AC0EE010AC8
:1021B000B0EE000A20EE800ADFED310A20EE200AA0
:1021C00010EE102A4261B1F9262000EE102AB8EE76
:1021D000C00ADFED2C0A20EE200A10EE102A8261E0
:1021E0005138B1F9282000EE102AB8EEC00ADFED10
:1021F000250A20EE200A10EE102AC0F86D20B1F951
:102200002A2000EE102AB8EEC00ADFED1E0A20EEEA
:10221000200A10EE102AC0F87120B1F92C2000EE2F
:10222000102AB8EEC00ADFED180A20EE200A10EEE0
:10223000102AC0F87520B1F92E2000EE102AB8EE51
:10224000C00ADFED110A20EE200A10EE102AC0F8B5
:102250007920B1F9302000EE102AB8EEC00ADFED87
:102260000A0A20EE200A10EE102AC0F87D207047DE
:1022700000008043000000439A991141000080460D
:10228000DA0F49407F8C8D3A39B41C3B10B50022DF
:1022900001B909E0012901D10A0205E0022901D1B1
:1022A0000A0201E04FF440720E4B1B6823F44073A6
:1022B0000C4C236023461B681343236023461B6892
:1022C00023F0F803236023461B68022444EAC00479
:1022D0002343044C236023461B6843F4803323606C
:1022E00010BD0000103C02401C48006800F4007063
:1022F000B0B11A48006820F400701849086000BFA7
:102300000846006840F4006008600846006820F451
:102310000060086000BF0846006840F40070086074
:102320000E48006800F48060B0B10C48006820F4EA
:1023300080600A49086000BF0846006840F4805089
:1023400008600846006820F48050086000BF084616
:10235000006840F48060086070470000003C024064
:102360000A4A126822F44072084B1A601A46126830
:1023700042F004021A601A4612684FF4803343EAAE
:1023800000231A43014B1A6070470000103C0240C2
:10239000074A126822F44072054B1A601A46126806
:1023A0001A601A46126842F001021A600170704702
:1023B000103C024010B50A49096821F44071084CEC
:1023C00021602146096841F4407121602146096875
:1023D00041F0010121600260BFF36F8F436010BDC7
:1023E000103C0240084A126822F44072064B1A6000
:1023F0001A46126842F480721A601A46126842F055
:1024000001021A6001807047103C0240084A1268BD
:1024100022F44072064B1A601A46126842F40072A7
:102420001A601A46126842F001021A600160704791
:10243000103C02402348006800F0100040B12248E0
:10244000C06940F010002049C86110201D49086093
:102450001C48006800F0200040B11B48C06940F0F3
:1024600008001949C861202016490860154800680D
:1024700000F0400040B11448C06940F00400124927
:10248000C86140200F4908600E48006800F08000D5
:1024900040B10D48C06940F002000B49C86180207E
:1024A000084908600748006800F0020040B106488B
:1024B000C06940F020000449C86102200149086059
:1024C000704700000C3C02404C36002070B50446BA
:1024D000002500201449C86101F060FA054609E0B2
:1024E000601C38B124B101F059FA401BA04201D957
:1024F000032070BD0D48006800F480300028EFD143
:102500000A48006800F0010010B101200749086086
:102510000648006800F0F20018B1FFF78BFF0120B9
:10252000E7E70020E5E700004C3600200C3C0240C5
:1025300070B50A480468001D0568001D066834442B
:1025400054B108220649204606F020FB0422044923
:102550001031284606F01AFB70BD0000107AFF1FEC
:102560006600002010B5024692F82030012B01D001
:10257000022B06D11068406908431468606100208E
:1025800010BD506A40F4802050620120F8E7F0B599
:1025900004460D461E4694F8207020688368A8689B
:1025A00000B900E000BF012F01D0022F7DD103F060
:1025B000806030B903F0006018B903F08050002843
:1025C0007ED0C3F30161012088403060A86860B903
:1025D000B5F800C0E86840EA4C5C206800F5C070BF
:1025E00000EB0110C0F800C00FE0D5E901C040EADF
:1025F000CC00D5F80CC040EA0C00D4F800C00CF5B3
:10260000C07C0CEB011CCCF80000D5F810C0206891
:1026100000F5C07000EB0110C0F804C0287D01284F
:102620000ED1206800F5C07000EB0110406840F446
:10263000807C206800F5C07000EB0110C0F804C079
:10264000D079000692F806C040EA0C4092F805C026
:1026500040EA0C2092F804C040EA0C00D4F800C014
:102660000CF5C07C0CEB011CCCF80C00D0780006FB
:1026700092F802C040EA0C4092F801C040EA0C20F7
:1026800092F800C040EA0C00D4F800C00CF5C07C01
:102690000CEB011CCCF80800206800F5C07000EBC2
:1026A0000110006840F0010C01E00FE008E0206834
:1026B00000F5C07000EB0110C0F800C00020F0BDB4
:1026C000606A40F4001060620120F8E7606A40F43C
:1026D000802060620120F2E7F0B504460A462168D6
:1026E00094F82050012D01D0022D7ED1424901F5F0
:1026F0000071086840F001000860086820F47C5010
:1027000008600868566A40EA06200860107D00F0FC
:102710001F06012000FA06F3C8699843C861A1F5B5
:102720000071D069C8B9D1F80C029843C1F80C0205
:10273000908880B2968940EA064601F51070576984
:1027400040F83760108880B2168940EA064601F5E5
:102750001070576900EBC7004660D069012819D195
:10276000D1F80C021843C1F80C02908880B2168888
:1027700040EA064601F51070576940F837609089C5
:1027800080B2168940EA064601F51070576900EBE1
:10279000C7004660906928B9D1F804029843C1F88F
:1027A000040204E0D1F804021843C1F804021069DD
:1027B00028B9D1F814029843C1F8140204E0D1F802
:1027C00014021843C1F81402106A012804D1D1F888
:1027D0001C021843C1F81C02D1F8000220F00100CD
:1027E000C1F800020020F0BDFFE7606A40F48020DD
:1027F00060620120F7E7000000640040704770B598
:10280000044694F82050012D01D0022D7DD151B9FC
:102810002068C06800F0030080B9606A40F40010CE
:102820006062012070BD2068006900F0030028B9D3
:10283000606A40F4001060620120F3E7206800F550
:10284000D87000EB0110006800F004009060906800
:1028500040B9206800F5D87000EB01100068400D09
:10286000106007E0206800F5D87000EB01100068E8
:10287000C0085060206800F5D87000EB01100068B7
:1028800000F00200D060206800F5D87000EB011065
:10289000406800F00F00082802D30820106108E00B
:1028A000206800F5D87000EB0110406800F00F00C0
:1028B0001061206800F5D87000EB0110406800F44A
:1028C0007F40000A9061206800F5D87000EB01108D
:1028D0004068000C5061206800F5D87000EB0110D2
:1028E00080681870206800F5D87000EB01108068CF
:1028F00000F47F40000A5870206800F5D87000EBA3
:102900000110806800F47F0000E03CE0000C98704B
:10291000206800F5D87000EB01108068000ED870B8
:10292000206800F5D87000EB0110C06818712068AD
:1029300000F5D87000EB0110C06800F47F40000A79
:102940005871206800F5D87000EB0110C06800F4E1
:102950007F00000C9871206800F5D87000EB011022
:10296000C068000ED87131B92068C06840F02000FE
:102970002668F06005E02068006940F020002668C5
:10298000306100204EE7606A40F4802060620120E0
:1029900048E72DE9F05F0446002520684669206875
:1029A000D0F80490206887682068D0F80CA02068D0
:1029B000D0F810B02068D0F8188006F00100002888
:1029C00055D007F00100C0B101202168886007F0F0
:1029D000020018B1204600F046FB0EE007F00400AC
:1029E00010B145F4006508E007F0080010B145F4A7
:1029F000805502E0204600F035FB07F48070C8B136
:102A00004FF480702168886007F4007018B1204688
:102A100000F02BFB0EE007F4806010B145F4005588
:102A200008E007F4006010B145F4804502E020465C
:102A300000F01AFB07F48030C8B14FF480302168F1
:102A4000886007F4003018B1204600F010FB0EE05B
:102A500007F4802010B145F4004508E007F4002099
:102A600010B145F4803502E0204600F0FFFA06F090
:102A7000080038B10AF0100020B145F400751020AC
:102A80002168C86006F0040040B10AF0080028B1CF
:102A900008202168C860204600F0A8F906F002006E
:102AA00038B12068C06800F0030010B1204600F083
:102AB0009FF906F0400038B10BF0100020B145F44A
:102AC000806510202168086106F0200040B10BF0FD
:102AD000080028B1082021680861204600F090FA1B
:102AE00006F0100038B12068006900F0030010B152
:102AF000204600F086FA06F4003040B109F01000DC
:102B000028B1102021684860204600F07BFA06F4C6
:102B1000803040B109F0080028B1082021684860E1
:102B2000204600F0A5FA06F4004088B309F004003E
:102B300078B306F4807020B108F0010008B145F0C8
:102B4000010506F4007020B108F0020008B145F05C
:102B5000020506F4806020B108F0040008B145F0D9
:102B6000040506F40060A0B108F0700088B108F018
:102B70007000402817D006DC10280BD020280CD07D
:102B8000302819D10CE0502810D0602814D110E062
:102B90001DE019E045F008050FE045F010050CE0D8
:102BA00045F0200509E045F0400506E045F08005C8
:102BB00003E045F4807500E000BF00BF2068806935
:102BC00020F07000216888610420216848602DB1E0
:102BD000606A284360622046FFF710FEBDE8F09F60
:102BE00070B504460CB9012070BD94F8200010B9EE
:102BF000204600F0AFF82068006840F0010021682E
:102C0000086000F0CBFE05460DE000F0C7FE401B5B
:102C10000A2808D9606A40F400306062052084F810
:102C200020000120E0E72068406800F00100002853
:102C3000EBD02068006820F002002168086000F0F6
:102C4000ADFE05460DE000F0A9FE401B0A2808D99C
:102C5000606A40F400306062052084F820000120A2
:102C6000C2E72068406800F002000028EBD1207E17
:102C7000012806D12068006840F0800021680860C3
:102C800005E02068006820F0800021680860607E10
:102C9000012806D12068006840F0400021680860E3
:102CA00005E02068006820F0400021680860A07EF0
:102CB000012806D12068006840F0200021680860E3
:102CC00005E02068006820F0200021680860E07EB0
:102CD000012806D12068006820F0100021680860F3
:102CE00005E02068006840F0100021680860207F3F
:102CF000012806D12068006840F0080021680860BB
:102D000005E02068006820F0080021680860607F06
:102D1000012806D12068006840F00400216808609E
:102D200005E02068006820F0040021680860D4E90C
:102D30000201084321690843616908436168491E2B
:102D400008432168C86100206062012084F82000E7
:102D5000002049E710B586B00446142101A8FDF70C
:102D6000B0FC1F492068884237D100BF0020009086
:102D70001C48006840F000701A4908600846006866
:102D800000F00070009000BF00BF00BF0020009066
:102D900014481038006840F00800124910390860E3
:102DA0000846006800F00800009000BF00BF032044
:102DB000019002200290002003900320049009203B
:102DC000059001A9084800F0E1FC0022062114202A
:102DD00001F0A6FC142001F08FFC06B010BD00002D
:102DE0000064004040380240000C02407047000080
:102DF00010B58AB0044601AB03AA00212046FFF7B4
:102E0000FEFC0398A0F20120052877D2DFE800F04D
:102E100003040506070000BF00BF00BF00BF039802
:102E2000401E734908700846007800EB4000714965
:102E300031F8300000B26E49097801EB41016D4A6A
:102E400002EBC10108819DF805009DF8041040EADD
:102E500001206749097801EB410122F831009DF812
:102E600007009DF8061040EA012000B26049097889
:102E700001EB410102EBC10148809DF809009DF87A
:102E8000081040EA012000B25949097801EB4101DC
:102E900002EBC10188809DF80A005549097801EBD1
:102EA000410102EBC1018871534851490978405CE6
:102EB000002870D04E48007800EB4000114631F8F1
:102EC00030004B49097801EB410102EBC101B1F936
:102ED0000810401AB0F5805F11DD4548007800EB1E
:102EE0004000114601EBC0004069401E404909788E
:102EF00001EB410102EBC101486124E073E03C4871
:102F0000007800EB40003B4931F83000384909783F
:102F100001EB4101374A02EBC101B1F90810401A37
:102F200010F5805F0FDA3248007800EB4000114660
:102F300001EBC0004069401C2D49097801EB4101BB
:102F400002EBC10148612A48007800EB40002949A2
:102F500031F830102648007800EB4000254A02EB9B
:102F6000C000406901EB40302149097801EB410183
:102F700002EBC101098A401A00EE100AB8EEC00A3D
:102F80001B48007800EB4000114601EBC00080EDCB
:102F9000030A27E0FFE701201749154A12788854F1
:102FA0009FED160A1248007800EB4000114901EB32
:102FB000C00080ED030A00200D49097801EB4101B2
:102FC0000C4A02EBC10148610948007800EB40005F
:102FD000114631F830000649097801EB410102EB56
:102FE000C101088200E000BF00BF0AB010BD0000B0
:102FF00058020020BC78002044020020000000009D
:1030000070477047704770B5044694F82000012857
:1030100022D1022084F820002068006820F00100FE
:103020002168086000F0BAFC05460DE000F0B6FC2F
:10303000401B0A2808D9606A40F40030606205200D
:1030400084F82000012070BD2068406800F0010075
:103050000028EBD16062F6E7606A40F4002060620D
:103060000120F0E77047704770477047704770471E
:10307000704770B50446A56D00F090FC064694F8C4
:103080003500022808D08020606500BF002084F849
:10309000340000BF012070BD2068006820F01600D9
:1030A000216808602068406920F08000216848613C
:1030B000206C08B9A06C28B12068006820F00800D6
:1030C000216808602068006820F00100216808601D
:1030D00010E000F063FC801B05280BD92020606500
:1030E000032084F8350000BF002084F8340000BFBE
:1030F0000320D0E72068006800F001000028E8D134
:1031000094F85C103F208840A860012084F83500C6
:1031100000BF002084F8340000BF00BFBBE70146B9
:1031200091F83500022803D08020486501207047BF
:10313000052081F835000868006820F001000A6861
:1031400010600020F3E70146486D7047014691F892
:1031500035007047F8B50446002000908C480068A0
:103160004FF41651B0FBF1F7A56D2E6894F85C1082
:1031700008208840304098B12068006800F00400C2
:1031800070B12068006820F004002168086094F89D
:103190005C1008208840A860606D40F00100606508
:1031A00094F85C1001208840304068B12068406984
:1031B00000F0800040B194F85C1001208840A860C5
:1031C000606D40F00200606594F85C100420884057
:1031D000304068B12068006800F0020040B194F807
:1031E0005C1004208840A860606D40F004006065B9
:1031F00094F85C1010208840304078B32068006854
:1032000000F0080050B394F85C1010208840A860CB
:103210002068006800F4802080B12068006800F415
:10322000002028B9206CC8B12046216C884715E0E1
:10323000A06C98B12046A16C88470FE02068006818
:1032400000F4807028B92068006820F00800216828
:103250000860206C10B12046216C884794F85C10FF
:10326000202088403040002865D02068006800F0A9
:10327000100000285FD094F85C1020208840A860DF
:1032800094F83500052828D12068006820F0160041
:10329000216808602068406920F08000216848614A
:1032A000206C08B9A06C28B12068006820F00800E4
:1032B0002168086094F85C103F208840A8600120D5
:1032C00084F8350000BF002084F8340000BF206D72
:1032D00010B12046216D8847F8BD2068006800F4D1
:1032E000802080B12068006800F4002028B9606C5C
:1032F00010B12046616C88471DE0E06BD8B12046D4
:10330000E16B884717E02068006800F4807068B9B6
:103310002068006820F0100021680860012084F80F
:10332000350000BF002084F8340000BFE06B10B10E
:103330002046E16B8847606D38B3606D00F0010096
:10334000F0B1052084F835002068006820F0010005
:103350002168086000BF0098401C0090B84200D966
:1033600005E02068006800F001000028F3D100BFEC
:10337000012084F8350000BF002084F8340000BF2D
:10338000E06C10B12046E16C884700BFA4E7000064
:10339000A80000202DE9F0410446002500F0FEFAC7
:1033A000074614B90120BDE8F081606A00B100BF92
:1033B000022084F8350000BF002084F8340000BFEC
:1033C0002068006820F00100216808600AE000F031
:1033D000E5FAC01B052805D920206065032084F884
:1033E0003500E0E72068006800F001000028EED119
:1033F0002068056821480540D4E901010843E168D7
:1034000008432169084361690843A1690843E169E8
:103410000843216A08430543606A042803D1D4E9BC
:103420000B0108430543206805602068456925F0C5
:103430000705606A0543606A04280DD1A06A054348
:10344000E06A48B12046FEF7DBFD28B14020606508
:10345000012084F83500A6E7206845612046FEF784
:10346000B5FD064694F85C103F208840B06000200F
:103470006065012084F83500002094E73F8010F05B
:103480002DE9F04704460D4616461F464FF000084A
:10349000D4F8589000BF94F83400012802D10220DB
:1034A000BDE8F087012084F8340000BF94F83500AF
:1034B000012825D1022084F83500002060653B46B4
:1034C000324629462046FEF7F0FD94F85C103F2076
:1034D0008840C9F808002068006840F0160021689C
:1034E0000860206C28B12068006840F0080021685E
:1034F00008602068006840F001002168086006E06C
:1035000000BF002084F8340000BF4FF0020840469E
:10351000C6E7000070B5044600F040FA06462546AE
:10352000681C10B104480078054400BF00F036FA6A
:10353000801BA842FAD370BDA40000202DE9F04101
:1035400004460E460127002500BF2548007E0128BD
:1035500002D10220BDE8F08101202149087600BF98
:103560004CF25030FEF7B2FF0746002F31D1401E1B
:103570003060206801280FD1207C6168FEF7F0FEE2
:103580004CF25030FEF7A2FF07461648006820F0C4
:103590000400144908601AE0A56812E0217C28465E
:1035A000FEF774FE4CF25030FEF790FF07460D48D0
:1035B000006820F0FA000B4908600FB1356005E0A3
:1035C0006D1CD4E902100844A842E7D800BFFEF7FA
:1035D0008BFE00BF00200249087600BF3846B9E7DD
:1035E0004C360020103C02400348006840F0004088
:1035F0000149086000207047103C02402DE9F0416D
:1036000006460F4614461D464FF0010800BF1F48EE
:10361000007E012802D10220BDE8F08101201B4973
:10362000087600BF4CF25030FEF750FF8046B8F1EC
:10363000000F23D126B9E1B23846FEF7A9FE12E009
:10364000012E04D1A1B23846FEF7CCFE0BE0022ECB
:1036500004D121463846FEF7D9FE04E022462B4627
:103660003846FEF7A7FE4CF25030FEF72FFF80469B
:103670000748006820F001000549086000BF0020ED
:103680000249087600BF4046C6E700004C360020DD
:10369000103C024000200949096801F0004159B17D
:1036A0000749064A0C3A1160064911600349096846
:1036B00001F0004101B1012070470000103C0240C0
:1036C00023016745AB89EFCD10B50446102C11D10D
:1036D0001F48007840F001001D4908701D4800781F
:1036E00040F001001B4908701B48007870B313F0CC
:1036F000DDF82BE0202C0BD11848007840F00100B9
:10370000164908701448007800B313F0CFF81DE094
:10371000082C06D11248007840F0010010490870CA
:1037200014E0012C12D116F023FD01280ED00D4912
:103730000D48006815F012FF0A48006830B12007F4
:103740000A490860BFF34F8FBFF36F8F10BD0000B1
:103750007E0C00207F0C0020810C00207D0C0020BE
:10376000800C00200C0D0020580C002004ED00E01F
:1037700010B5044604480068204020B102480460A7
:103780002046FFF7A1FF10BD143C0140F8B50246EA
:103790000B460025002400200021D6E0012606FA71
:1037A00001F51E6806EA0504AC4274D11E7906F0E4
:1037B0000306012E04D01E7906F00306022E13D153
:1037C00090684F000326BE40B0434F00DE68BE4005
:1037D00030439060506801268E40B0431E79C6F396
:1037E00000168E40304350601E7906F00306032E0B
:1037F00009D0D0684F000326BE40B0434F009E68FA
:10380000BE403043D0601E7906F00306022E13D16D
:10381000CF0802F1200656F827004E07F70E0F26B4
:10382000BE40B0434F07FF0E1E69BE403043CF0875
:1038300002F1200646F8270010684F000326BE401C
:10384000B0431E7906F003064F00BE4030431060BF
:103850005E6806F44036002E76D000BF0026009643
:103860003C4E366846F480463A4F3E603E463668E7
:1038700006F48046009600BF00BF374E8F0856F80A
:1038800027008E07370F0F26BE40B043334EB2429B
:1038900002D1002624E057E0314EB24201D1012688
:1038A0001EE0304EB24201D1022619E02E4EB24245
:1038B00001D1032614E02D4EB24201D104260FE0BF
:1038C0002B4EB24201D105260AE02A4EB24201D166
:1038D000062605E0284EB24201D1072600E0082660
:1038E0008F073F0FBE4030431B4E8F0846F827001E
:1038F000224E3068A0435E6806F4801606B120436D
:103900001E4E3060361D3068A0435E6806F4001617
:1039100006B12043194E361D3060184E361F3068F0
:10392000A0435E6806F4003606B12043134E361FEE
:103930003060361F3068A0435E6806F4803606B1FA
:1039400020430E4E083E3060491C1029FFF426AF7C
:10395000F8BD000044380240083801400000024031
:103960000004024000080240000C02400010024027
:103970000014024000180240001C0240083C0140B4
:10398000024613690B400BB1012000E00020704794
:103990000AB1816101E00B0483617047014800684E
:1039A000704700009C000020704770472DE9F047E9
:1039B00005464FF0000928684668D5F82CA095F810
:1039C0003E7095F83D80102F01D0402F75D12868AA
:1039D000D0F818902868446904F0010060B9BAF57D
:1039E0002A0F02D0BAF12A4F01D1012000E00020B5
:1039F000012801D1BDE8F08704F0010048B1C6F309
:103A0000402030B1284603F04FFC284604F0BCF9B2
:103A1000B7E0C4F3C00030B1C6F3402018B1284667
:103A200004F069F8ADE0C4F3400030B1C6F34020C3
:103A300018B1284604F074F8A3E0C9F3800040B33D
:103A40002868406800F40060B0F5006FE0D0C4F36F
:103A5000C01048B1C6F3802030B1C4F3800018B95B
:103A6000284603F0DCFF8CE0C4F380000028CFD0B0
:103A7000C6F340200028CBD0B8F1210F03D128464F
:103A800003F07DFF7DE0402F7BD1284604F0CBF989
:103A900077E02868406800F40060B0F5006F70D0EF
:103AA000C4F3801050B1C6F3802038B1C4F3800055
:103AB00020B9284603F0E1FE63E00BE0C4F3800088
:103AC00000285ED0C6F3402000285AD0284603F0D4
:103AD0003AFE56E0286C10B12868446904E0286872
:103AE000D0F8189028684469C4F3400060B1C6F368
:103AF000402048B1286C10B12868D0F81890494689
:103B0000284604F073FB3CE0C4F3001030B1C6F368
:103B1000402018B1284604F0A1FB32E0B8F1210F93
:103B200002D0B8F1290F16D1C4F3C01048B1C6F3C2
:103B3000802030B1C4F3800018B9284604F033FB6C
:103B40001FE0C4F38000E0B1C6F34020C8B12846AE
:103B500004F01CFB15E0C4F3801048B1C6F38020CC
:103B600030B1C4F3800018B9284604F0ECFA08E03C
:103B7000C4F3800028B1C6F3402010B1284604F0F9
:103B8000D5FA00BF36E7704770B504460CB901207E
:103B900070BD94F83D0028B9002084F83C00204610
:103BA00000F034FC242084F83D002068006820F0F8
:103BB0000100216808602068006840F40040216826
:103BC00008602068006820F400402168086001F067
:103BD000B5FD05465C496068884206D85B48854269
:103BE00001D2012007E0002005E05948854201D2BA
:103BF000012000E00020012800D1C9E75548B5FBAD
:103C0000F0F62068406820F03F00304321684860AB
:103C10004D496068884201D8701C07E04FF49670E7
:103C200070434FF47A71B0FBF1F0401C2168096ACF
:103C300021F03F01084321680862434960688842D7
:103C400014D8681E61684900B0FBF1F0401CC0F355
:103C50000B00042801D204203DE0681E6168490081
:103C6000B0FBF1F0401CC0F30B0034E0A06838B9A1
:103C7000681E616801EB4101B0FBF1F0401C0AE0F5
:103C8000681E616801EBC10202EB0111B0FBF1F0AB
:103C9000401C40F48040C0F30B0008B901201AE03A
:103CA000A06848B9681E616801EB4101B0FBF1F002
:103CB000401CC0F30B000CE0681E616801EBC10200
:103CC00002EB0111B0FBF1F0401CC0F30B0040F41B
:103CD000804040F400402168C9694CF6FF7291436E
:103CE00008432168C861D4E90701084321680968CD
:103CF00021F0C001084321680860D4E9031008439B
:103D00002168896848F2FF3291430843216888603E
:103D1000D4E9050108432168C96821F0FF0108437F
:103D20002168C8602068006840F0010021680860D0
:103D300000202064202084F83D000020206384F8C7
:103D40003E0000BF24E70000A086010080841E0022
:103D500000093D0040420F007047704770477047B0
:103D60001CB504464FF48060044901234022CDE98C
:103D700000107821024800F03BFA1CBD647D002051
:103D8000401400202DE9FC5F04460F4690469946FA
:103D9000DDE90CAB0E9EFFF701FE054694F83D00F1
:103DA000202870D119230122B5492046009504F03E
:103DB0004EFB10B10220BDE8FC9F00BF94F83C0010
:103DC000012801D10220F6E7012084F83C0000BF61
:103DD0002068006800F0010028B92068006840F001
:103DE0000100216808602068006820F400602168F4
:103DF0000860222084F83D00402084F83E00002026
:103E00002064C4F824A0A4F82AB0608D20859D48C1
:103E1000E0624B46424639462046CDE9006504F053
:103E200065F808B10120C6E7208D88B900BF0020E1
:103E3000019020684069019020688069019000BF6E
:103E400000BF2068006840F400702168086040E00E
:103E5000208D012818D12068006820F48060216836
:103E6000086000BF00200190206840690190206830
:103E70008069019000BF00BF2068006840F40070B6
:103E80002168086025E0F8E0208D022816D120681E
:103E9000006820F48060216808602068006840F4B1
:103EA00000602168086000BF002001902068406920
:103EB000019020688069019000BF0AE000BF0020E7
:103EC000019020684069019020688069019000BFDE
:103ED00000BFC3E0208D03287ED8208D012815D196
:103EE0002A463146204604F08EFB08B1012062E7E5
:103EF00020680069616A0870606A401C6062208DF9
:103F0000401E2085608D401E6085A7E0208D022820
:103F10002AD1334600225C492046009504F097FAE6
:103F200008B1012047E72068006840F4007021686C
:103F3000086020680069616A0870606A401C6062FD
:103F4000208D401E2085608D401E608520680069A0
:103F5000616A0870606A401C6062208D401E208586
:103F6000608D401E608579E0334600224649204638
:103F7000009504F06CFA08B101201CE72068006885
:103F800020F480602168086020680069616A087018
:103F9000606A401C6062208D401E2085608D401E3E
:103FA00060853346002238492046009504F04FFAD8
:103FB00008B10120FFE62068006840F40070216825
:103FC000086020680069616A0870606A401C60626D
:103FD000208D401E208500E010E0608D401E608531
:103FE00020680069616A0870606A401C6062208D08
:103FF000401E2085608D401E60852FE02A46314698
:10400000204604F000FB08B10120D4E620680069D6
:10401000616A0870606A401C6062208D401E2085C5
:10402000608D401E608520684069C0F38000A8B1A3
:10403000208D032805D12068006820F48060216865
:10404000086020680069616A0870606A401C6062EC
:10405000208D401E2085608D401E6085208D0028AB
:104060007FF438AF202084F83D00002084F83E0023
:1040700000BF84F83C0000BF9DE602209BE60000E4
:10408000020010000000FFFF040001002DE9FC5FAA
:1040900004460F4690469946DDE90CAB0E9EFFF7AD
:1040A0007DFC054694F83D0020287DD1192301228E
:1040B0004D492046009504F0CAF910B10220BDE830
:1040C000FC9F00BF94F83C00012801D10220F6E7D4
:1040D000012084F83C0000BF2068006800F0010067
:1040E00028B92068006840F0010021680860206855
:1040F000006820F4006021680860212084F83D00F9
:10410000402084F83E0000202064C4F824A0A4F8D5
:104110002AB0608D20853548E0624B4642463946DC
:104120002046CDE9006503F091FF08B10120C6E704
:1041300031E02A463146204604F0D2FA50B1206CD4
:10414000042805D12068006840F4007021680860E8
:104150000120B4E7606A007821680861606A401C49
:104160006062208D401E2085608D401E6085206825
:104170004069C0F3800070B1208D60B1606A007842
:1041800021680861606A401C6062208D401E2085A5
:10419000608D401E6085208D0028CAD12A46314698
:1041A000204604F021F900E01CE050B1206C042806
:1041B00005D12068006840F4007021680860012083
:1041C0007DE72068006840F40070216808602020C6
:1041D00084F83D00002084F83E0000BF84F83C00D5
:1041E00000BF6CE702206AE7020010000000FFFF3A
:1041F0002DE9FE4F04460E4617469846DDE90C9A17
:1042000000200290FFF7CAFB834694F83D00202867
:1042100079D17A4800681921B0FBF1F04FF47A7136
:10422000B0FBF1F000EBC00101EB0010029000BF09
:104230000298401E0290029870B90020206320204E
:1042400084F83D00002084F83E00206C40F02000FF
:1042500020640220BDE8FE8F20688069C0F3400022
:104260000028E5D100BF94F83C00012801D10220CC
:10427000F0E7012084F83C0000BF2068006800F0EF
:10428000010028B92068006840F00100216808603A
:104290002068006820F4006021680860212084F80C
:1042A0003D00402084F83E0000202064C4F82490A3
:1042B000A4F82AA0608D20855148E0626664A76456
:1042C000C4F84C8000202065208D00286DD0606BE4
:1042D000D0B14C48616BC8634B48616BC864002027
:1042E000616B0864616B4864616B8864616B08652D
:1042F000238DD4F800C00CF11002616A606BFFF7E7
:10430000BFF8054611E076E0202084F83D0000204B
:1043100084F83E00206C40F08000206400BF002044
:1043200084F83C0000BF012094E7EDBB2320434606
:104330003A463146CDE9000B204603F087FEB8B17E
:10434000606BFEF7ECFE05460020616BC8632068D9
:10435000006820F480602168086000202085608566
:104360002068006820F0010021680860012071E7E2
:1043700000BF00200190206840690190206880699A
:10438000019000BF00BF00BF002084F83C0000BFC8
:104390002068406840F48070216848602068406868
:1043A00040F40060216801E003E013E04860002071
:1043B00050E7202084F83D00002084F83E00206C67
:1043C00040F01000206400BF002084F83C0000BFD3
:1043D00001203FE7202084F83D00002084F83E00C3
:1043E000206C40F04000206400BF002084F83C00B6
:1043F00000BF01202EE702202CE70000A8000020CB
:104400000000FFFF0D740008BD73000810B586B0F2
:104410000446142101A8FCF754F957492068884242
:1044200056D100BF002000905448006840F02000A2
:10443000524908600846006800F02000009000BF64
:1044400000BF032001901220029000200390022060
:1044500004900420059001A94948FFF797F900BF8F
:104460000020009045481030006840F48000434927
:10447000103108600846006800F48000009000BF1A
:1044800000BF4048404908604FF0606048604021EC
:104490003D4881600021C1604FF4806101610021CD
:1044A00041618161C16101624162FEF773FF08B140
:1044B000FDF726FE00BF34486063846300BF00221E
:1044C0000521212000F02CF9212000F015F951E000
:1044D0002E49206888424DD100BF00200090274817
:1044E000006840F00400254908600846006800F0B4
:1044F0000400009000BF00BF00BF002000900846ED
:10450000006840F0010008600846006800F0010003
:10451000009000BF00BF48150190122002900120BA
:104520000390032004900420059001A91848FFF788
:104530002DF94FF480700190122002900120039019
:10454000032004900420059001A91248FFF71EF9EA
:1045500000BF0020009009481030006840F40000BF
:104560000649103108600846006800F40000009019
:1045700000BF00BF06B010BD0058004030380240F8
:1045800000140240B8600240E8140020005C0040C3
:10459000000802400000024070477047034800686E
:1045A0000349097808440149086070479C000020CD
:1045B000A400002010B50D48006840F400700B49BD
:1045C00008600846006840F480600860084600689B
:1045D00040F480700860032000F0E0F80F2000F045
:1045E00007F800F05FF8002010BD0000003C02401A
:1045F0002DE9F04188B004460027B84600BF0020EE
:1046000001902348006840F01000214908600846E6
:10461000006800F01000019000BF00BF02A903A8CD
:1046200001F064F8069F1FB901F088F8054602E022
:1046300001F084F845001748B5FBF0F0A0F101083F
:1046400015481649086040F2E7311448C160C0F8C7
:104650000480002101618160816101F0FFFD064657
:1046600096B90E4801F0FCFE06466EB9362000F001
:1046700043F8102C07D200222146362000F050F8D3
:104680000748046000E00126304608B0BDE8F0812C
:104690004038024040420F0000100040D81900206E
:1046A000A000002008B500BF00200090114800685D
:1046B00040F480400F4908600846006800F48040DC
:1046C000009000BF00BF00BF00200090081F0068DE
:1046D00040F08050091F08600846006800F08050D4
:1046E000009000BF00BF00220F21901E00F018F8BC
:1046F00008BD0000443802400146084600280DDB92
:1047000000BF00BF00F01F0301229A4043099B0035
:1047100003F1E023C3F8002100BF00BF00BF7047D2
:104720002DE9F05F80460D46164600270BF0E4FDAC
:10473000074639462A46334601F00700C0F1070A0A
:10474000BAF1040F02D94FF0040A01E0C0F1070AE0
:10475000D14600F1040ABAF1070F02D24FF0000A65
:1047600001E0A0F1030AD4464FF0010A0AFA09FA5F
:10477000AAF1010A0AEA020A0AFA0CFA4FF0010B3E
:104780000BFA0CFBABF1010B0BEA030B4AEA0B042F
:10479000214640460BF0B8FDBDE8F09F00BF00F099
:1047A0000702064B19684FF6FF031940044B0B43F1
:1047B00043EA0221014B196000BF70470CED00E095
:1047C0000000FA05704702461068416200207047F9
:1047D000F0B5034615461868446A21B944EA054015
:1047E0001E68B06219E01868806A04EB1044002269
:1047F00008E0186800F5827050F8220004EB1044BD
:10480000501CC2B2481E9042F3D844EA05471868CB
:1048100000F582704E1E40F826700020F0BD10B5E5
:104820000446D4F8E00409F0D2FE10BD70B5044689
:104830000D4605EBC50304F1140101EB8301CA68C1
:104840002946D4F8E00409F0BDFD70BD70B50446FA
:104850000D4605EBC50304F5157101EB8301CA682C
:104860002946D4F8E00409F031FE70BD10B50446C5
:10487000D4F8E00409F0AEFE10BD2DE9F041044685
:104880000D4605F08000802808D105F00F0000EBF0
:10489000C00104F1140000EB810607E005F00F00F1
:1048A00000EBC00104F5157000EB8106314620686D
:1048B0000BF0DAF807463846BDE8F08170B50446DB
:1048C0000E4606F0800080280AD106F00F0000EBAB
:1048D000C00104F1140000EB81050120687009E0BB
:1048E00006F00F0000EBC00104F5157000EB810528
:1048F0000020687006F00F00287000BF94F8940440
:10490000012801D1022070BD012084F8940400BF69
:10491000294620680AF036FC00BF002084F8940481
:1049200000BF00BFEFE770B504460E4606F00F006B
:104930002179884201D9012070BD06F080008028CD
:104940000AD106F00F0000EBC00104F1140000EBE7
:1049500081050120687009E006F00F0000EBC0013E
:1049600004F5157000EB8105002068700020A87028
:1049700006F00F00287000BF94F89404012801D1BC
:104980000220D9E7012084F8940400BF294620685A
:104990000AF0F6FD00BF002084F8940400BF00BFB9
:1049A000CAE7024601F00F0000EBC00302F51570E4
:1049B00000EB8300406970472DE9F04705460E463D
:1049C00090461F464FF0000906F0800080280AD16B
:1049D00006F00F0000EBC00105F1140000EB8104AC
:1049E0000120607009E006F00F0000EBC00105F542
:1049F000157000EB81040020607006F00F0020703D
:104A0000C8F30A00A0602771607808B1207860833D
:104A1000022F01D10020607100BF95F89404012895
:104A200002D10220BDE8F087012085F8940400BF80
:104A3000214628680AF0BAFA00BF002085F89404DD
:104A400000BF4846EEE72DE9F04105460E46174601
:104A5000984606F00F0000EBC00105F5157000EB5D
:104A60008104E760C4F8108000206061607006F087
:104A70000F002070A879012800D1E761AA792146AA
:104A800028680AF011FE0020BDE8F08170B50446E8
:104A90000D4605F00F002179884201D9012070BD33
:104AA00005F0800080280AD105F00F0000EBC0015E
:104AB00004F1140000EB81060120707007E005EBA3
:104AC000C50104F5157000EB81060020707001200F
:104AD000B07005F00F00307000BF94F89404012806
:104AE00001D10220DBE7012084F8940400BF3146A5
:104AF00020680AF08CFD05F00F0028B9A17904F2B6
:104B00009C4220680AF004FD00BF002084F8940451
:104B100000BF00BFC3E72DE9F04105460E4617462A
:104B2000984606F00F0000EBC00105F1140000EB01
:104B30008104E760C4F8108000206061012060708B
:104B400006F00F002070A879012800D1E761AA794A
:104B5000214628680AF0A8FD0020BDE8F0812DE973
:104B6000FE4F0446D4F800B05E4620680BF05EF8B5
:104B7000002874D120680BF098F808B9BDE8FE8FC2
:104B800040F608008059C0F30D20C4F8D404206812
:104B90000BF08BF800F00200022805D12068406974
:104BA00000F002002168486120680BF07EF800F0F8
:104BB0001000102845D12068806920F0100021687D
:104BC0008861DBF8209009F00F0000EBC00104F5CC
:104BD000157000EB810AC9F3434002281AD147F649
:104BE000F07009EA000030B3C9F30A125846DAF847
:104BF0000C100BF05FF8C9F30A11DAF80C00084446
:104C0000CAF80C00C9F30A11DAF814000844CAF80B
:104C1000140010E0C9F3434006280CD1082204F226
:104C20009C4158460BF046F8C9F30A11DAF8140013
:104C30000844CAF814002068806940F01000216818
:104C4000886120680BF031F800F40020B0F5002FE7
:104C50007BD1002520680AF0F8FF029072E0E1E2C3
:104C6000029800F00100002868D0E9B220680BF03B
:104C70000FF8804608F0010048B1012106F53060C8
:104C800000EB451081602946204604F06DFE08F0D7
:104C90000800082809D1082106F5306000EB45100E
:104CA00081602946204604F02DFE08F010001028EF
:104CB00005D1102106F5306000EB4510816008F049
:104CC0000200022824D1DBF8140000F080008028C4
:104CD00007D140F60400805940F4806140F604009A
:104CE000815105EBC50104F5157000EB810A9AF8B6
:104CF0000300012806D100208AF80300E9B220460B
:104D000000F09BFA022106F5306000EB451081604F
:104D100008F02000202805D1202106F5306000EBA6
:104D20004510816008F40050B0F5005F06D14FF4E3
:104D3000005106F5306000EB451081606D1C029853
:104D400040080290029800288AD120680AF0ADFF3E
:104D500000F48020B0F5802F7DD120680AF06BFF31
:104D6000029000259AE0029800F00100002873D01C
:104D7000E9B220680AF073FF804608F00100F0B342
:104D800005F00F0101208840019040F63400815960
:104D9000019821EA000040F634018851012106F50E
:104DA000106000EB45108160A079012824D105EB4B
:104DB000C50104F1140000EB810005EBC502C168D8
:104DC00004F1140000EB82008068014405EBC50289
:104DD00004F1140000EB8200C1606DB905EBC50160
:104DE00004F1140000EB8100006928B904F29C4230
:104DF000012120680AF08CFBE9B2204600E001E0C6
:104E0000FFF714FD08F00800082805D1082106F571
:104E1000106000EB4510816008F01000102805D1EB
:104E2000102106F5106000EB4510816008F040008D
:104E3000402805D1402106F5106000EB4510816047
:104E400008F0020002281DD1294658460AF0B1FE9A
:104E500005EBC50101E025E01CE004F1140000EBC6
:104E6000810A9AF80300012806D100208AF803007D
:104E7000E9B2204600F0D8F9022106F5106000EBF7
:104E80004510816008F08000802803D12946204623
:104E900004F00CFE6D1C0298400802900298002855
:104EA0007FF461AF20680AF000FF00F00040B0F12D
:104EB000004F1CD140F60400805920F0010140F65B
:104EC0000400815194F8CC04012807D1002084F813
:104ED000CC0400212046FFF775FC02E0204600F0DC
:104EE000D1FA2068406900F00040216848612068DC
:104EF0000AF0DBFE00F40060B0F5006F0ED140F662
:104F00000800805900F0010010B1204600F012FBAB
:104F10002068406900F400602168486120680AF058
:104F2000C4FE00F48050B0F5805F7ED140F60400EE
:104F3000805920F0010140F60400815110212068C1
:104F40000AF037FE002732E04FF67F3106F5106099
:104F500000EB4710816006F5106000EB4710006819
:104F600020F4001106F5106000EB471001604FF6C9
:104F70007F3106F5306000EB4710816006F5306048
:104F800000EB4710006820F4001106F5306000EBDC
:104F90004710016006F5306000EB4710006840F0F4
:104FA000006106F5306000EB471001607F1C20793E
:104FB000B842C9D840F61C00805940F0011140F6B3
:104FC0001C008151E07B70B1D6F8840840F00B01E1
:104FD000C6F8841840F64400805940F00B0140F6B2
:104FE000440081510FE040F61400805942F22B0139
:104FF000084340F614018851081F805940F00B0106
:105000004FF401608151D6F8000820F4FE60C6F824
:105010000008A17904F29C4220680AF079FA20681D
:10502000406900F48050216800E000E04861206899
:105030000AF03BFE00F40050B0F5005F17D1206885
:105040000AF01CF820680AF0DEFDE07100F070FB49
:105050000090E279206800990AF0AEFE204600F048
:10506000F9F92068406900F400502168486120681F
:105070000AF01BFE00F00800082808D1204600F0C6
:1050800008FA2068406900F008002168486120683B
:105090000AF00BFE00F08000802818D1DBF8180021
:1050A00020F08000CBF8180001250DE005EBC501CC
:1050B00004F5157000EB8100C078012803D1E9B236
:1050C0002046FFF7DAFB6D1C2079A842EED8206855
:1050D0000AF0EBFD00F48010B0F5801F2DD1012502
:1050E00022E006F5106000EB4510D0F8009005EBCB
:1050F000C50104F1140000EB81000079012812D1F0
:1051000009F00040B0F1004F0DD1012105EBC502BF
:1051100004F1140000EB8200C170E8B240F080019D
:105120002046FFF7AAFB6D1C2079A842D9D8206839
:10513000406900F480102168486120680AF0B5FDDC
:1051400000F40010B0F5001F44D1012538E006F549
:10515000306000EB4510D0F8009005EBC50104F578
:10516000157000EB81000079012828D109F000407A
:10517000B0F1004F23D109F4803094F8D41401F039
:10518000010188421BD1012105EBC50204F5157010
:1051900000EB8200C170DBF8180040F08000CBF813
:1051A0001800DBF8140000F0800040B940F604005D
:1051B000805940F4007140F60400815103E06D1CF9
:1051C0002079A842C3D800BF2068406900F40010CD
:1051D0002168486120680AF068FD00F08040B0F165
:1051E000804F08D12046FFF71AFB2068406900F085
:1051F00080402168486120680AF057FD00F00400F3
:1052000004280FD12068D0F8049009F00400042885
:1052100002D12046FFF72AFB2068406840EA0900D7
:105220002168486000BFA9E470B504460D462946D0
:10523000D4F8E00409F03AFA70BD70B504460D46A2
:105240002946D4F8E00409F055FA70BDF8B50446D3
:105250000CB90120F8BD266894F8950428B90020FF
:1052600084F89404204600F0A1F8032084F8950403
:10527000B6F1A04F01D10021A17120680AF040F9D8
:10528000207C8DF8000094E80F0009F00BFF20B19E
:10529000022084F895040120DCE7002120680AF050
:1052A00039FD20B1022084F895040120D2E70025C1
:1052B00031E0012105EBC50204F1140000EB82008E
:1052C000417005EBC50104F1140000F8215005EB15
:1052D000C50100EB81004583002105EBC50204F107
:1052E000140000EB8200017105EBC50204F114000B
:1052F00000EB8200816005EBC50204F1140000EBB5
:105300008200C16005EBC50204F1140000EB8200CD
:105310000161681CC5B22079A842CADC00252AE0D8
:10532000002105EBC50204F5157000EB8200417009
:1053300005EBC50104F5157000F82150002105EBBF
:10534000C50200EB8200017105EBC50204F5157082
:1053500000EB8200816005EBC50204F5157000EBDF
:105360008200C16005EBC50204F5157000EB8200F8
:105370000161681CC5B22079A842D1DC207C8DF87F
:10538000000094E80F0009F0C7FF20B1022084F864
:10539000950401205EE700206074012084F89504E4
:1053A000206809F0A7FF002054E7000010B586B080
:1053B0000446142101A8FBF784F92068B0F1A04F3E
:1053C00042D100BF002000902048006840F001005A
:1053D0001E4908600846006800F00100009000BF08
:1053E00000BF4FF4C05001900220029000200390B3
:1053F000032004900A20059001A91548FEF7C6F97C
:1054000000BF1248001D006840F080000F49091DD0
:10541000086000BF002000900C481430006840F481
:1054200080400A49143108600846006800F4804052
:10543000009000BF00BF00BF002205214320FFF7FE
:105440006FF94320FFF758F906B010BD303802401D
:105450000000024070B504460125E07908B9002536
:1054600006E0E079022801D1012501E0FCF748FEC1
:105470002946D4F8E00409F0E6F9D4F8E00409F08C
:105480008DF970BD10B50446D4F8E00409F0BCF9FC
:1054900010BD10B50446D4F8E00409F0C0F910BD01
:1054A00070B504460D4600BF94F89404012801D15C
:1054B000022070BD012084F8940400BF6574294661
:1054C00020680AF05BFC00BF002084F8940400BF51
:1054D00000BFEEE710B5044604F29C41D4F8E004A6
:1054E00009F0C8F910BD70B50446256800BF94F8EE
:1054F0009404012801D1022070BD012084F8940495
:1055000000BFE86800F0400030B1607B012803D1A3
:10551000A86B40F48030A86320680AF01BFB206869
:1055200009F0D6FE00BF002084F8940400BF00BF3D
:10553000E2E7000010B50446D4F8E00409F0F7F9FA
:105540002068D0F8000E40F001002168C1F8000E7C
:10555000E07A28B10348006840F00600014908607D
:1055600010BD000010ED00E070B504460D460CB90A
:10557000012070BD5848006800F00700A84209D219
:1055800055490D700846006800F00700A84201D098
:105590000120EEE7207800F0020002281DD12078DB
:1055A00000F00400042805D14C48006840F4E050A5
:1055B0004A490860207800F00800082805D14748CB
:1055C000006840F46040454908604448006820F0A5
:1055D000F000A168084341490860207800F001000C
:1055E000A8B36068012807D13C4808380068C0F3B8
:1055F0004040B8B90120BCE76068022802D060686A
:10560000032807D1354808380068C0F3406048B91E
:105610000120AEE7314808380068C0F3400008B9FF
:105620000120A6E72D48006820F0030061680843C8
:105630002A490860FEF7B2F9064609E0FEF7AEF91E
:10564000801B41F28831884202D9032091E707E0AC
:105650002248006800F00C006168B0EB810FEDD1CA
:105660001D48006800F00700A84209D91A490D70CA
:105670000846006800F00700A84201D0012078E742
:10568000207800F00400042807D11448006820F4B2
:10569000E050E168084311490860207800F00800F4
:1056A000082808D10D48006820F46040216940EACC
:1056B000C1000A49086000F061F808490968C1F3AF
:1056C0000311074A515CC840064908600648006853
:1056D000FEF78EFF00204CE7003C024008380240F5
:1056E00070C30108A8000020A00000200F22026063
:1056F0000D4A126802F0030242600B4A126802F07F
:10570000F0028260084A126802F4E052C260064A5F
:10571000126802F46042D2080261044A126802F080
:1057200007020A607047000008380240003C02404F
:105730000148006870470000A800002000B5FFF78E
:10574000F7FF04490968C1F38221034A515CC8404C
:1057500000BD00000838024080C3010800B5FFF713
:10576000E7FF04490968C1F34231034A515CC8406C
:1057700000BD00000838024080C301082DE9F04751
:10578000002400250026A1462548006800F00C00F2
:1057900020B1042805D008283AD105E0DFF884902C
:1057A00039E0DFF8849036E01D48001F006800F003
:1057B0003F041B48001F006800F4800078B11A48BD
:1057C0001749091F0968C1F38811A0FB0170014640
:1057D000224600233846FAF73DFE05460EE0114802
:1057E0000F49091F0968C1F38811A0FB0170014628
:1057F000224600233846FAF72DFE05460848001FCA
:105800000068C0F30140401C4600B5FBF6F902E019
:10581000DFF8109000BF00BF4846BDE8F0870000E9
:10582000083802400024F400001BB700F8B5044615
:105830000CB90120F8BD207800F00100002874D0D8
:10584000F948006800F00C0004280DD0F648006804
:1058500000F00C00082813D1F348001F006800F482
:105860008000B0F5800F0BD1EF4808380068C0F316
:105870004040002859D06068002856D10120D9E75F
:1058800000BF6068B0F5803F08D1E748083800687D
:1058900040F48030E449083908601EE06068B0F5E3
:1058A000A02F0DD1E0480838006840F48020DE4980
:1058B000083908600846006840F4803008600CE051
:1058C000D9480838006820F48030D7490839086082
:1058D0000846006820F48020086000BF606890B12E
:1058E000FEF75CF8054606E0FEF758F8401B642812
:1058F00001D903209EE7CC4808380068C0F3404037
:105900000028F1D011E0FEF749F8054606E0FEF761
:1059100045F8401B642801D903208BE7C2480838AA
:105920000068C0F340400028F1D1207800F0020068
:1059300002285FD1BC48006800F00C0058B1BA489A
:10594000006800F00C0008281CD1B748001F006850
:1059500000F48000B0B9B44808380068C0F34000D3
:1059600020B1E068012801D0012063E7AE48083883
:10597000006820F0F800216940EAC100AA4908390E
:10598000086037E0E06800B30120A8490860FEF72E
:1059900005F8054606E0FEF701F8401B022801D98C
:1059A000032047E7A04808380068C0F340000028FB
:1059B000F1D09D480838006820F0F800216940EADD
:1059C000C10099490839086014E00020974908602F
:1059D000FDF7E4FF054606E0FDF7E0FF401B022867
:1059E00001D9032026E7904808380068C0F340003A
:1059F0000028F1D1207800F0080008282CD1606937
:105A0000A8B101208A490860FDF7C8FF054606E0F5
:105A1000FDF7C4FF401B022801D903200AE7824892
:105A20006C300068C0F340000028F1D014E0002082
:105A30007F490860FDF7B2FF054606E0FDF7AEFFBF
:105A4000401B022801D90320F4E677486C30006837
:105A5000C0F340000028F1D1207800F004000428B1
:105A600070D1002770483830006800F0805090B93D
:105A700000BF002000906C483830006840F0805033
:105A80006949383108600846006800F0805000908D
:105A900000BF00BF01276748006800F48070B0B9FC
:105AA0006448006840F4807062490860FDF776FF42
:105AB000054606E0FDF772FF401B022801D90320CE
:105AC000B8E65C48006800F480700028F2D000BF9F
:105AD000A068012808D154486830006840F00100EF
