:020000040800F2
:10000000A85C00204D030008556A0008A95A0008A2
:10001000516A00084912000889A500080000000084
:100020000000000000000000000000008D02000839
:10003000071D000800000000E9020008E59800081C
:1000400067030008670300086703000867030008E8
:1000500067030008670300086703000867030008D8
:10006000670300086703000867030008E51200083B
:10007000F51200086703000805130008670300086D
:1000800067030008151300086703000867030008EA
:100090004D1200086703000867030008091D0008E7
:1000A0006703000867030008670300086703000888
:1000B0006703000867030008670300086703000878
:1000C0006703000867030008670300086703000868
:1000D0006703000867030008670300086703000858
:1000E0006703000867030008670300086703000848
:1000F0006703000867030008670300086703000838
:100100006703000867030008670300086703000827
:100110006703000867030008E999000867030008FF
:10012000251300083513000845130008DD1B0008DF
:1001300067030008670300086703000867030008F7
:1001400067030008670300086703000867030008E7
:1001500067030008ED1B00086703000875A300088B
:1001600067030008670300086703000867030008C7
:100170006703000867030008670300080000000029
:100180006703000867030008119D0008259D00080B
:100190006703000867030008670300086703000897
:1001A00000000000000000006703000800F002F8F3
:1001B00000F05CF80AA090E8000C82448344AAF1A5
:1001C0000107DA4501D100F051F8AFF2090EBAE8A3
:1001D0000F0013F0010F18BFFB1A43F0010318477B
:1001E000FC0F01001C1001000A444FF0000C10F835
:1001F000013B13F0070408BF10F8014B1D1108BFA5
:1002000010F8015B641E05D010F8016B641E01F844
:10021000016BF9D113F0080F1EBF10F8014BAD1C94
:100220000C1B09D16D1E58BF01F801CBFAD505E0B2
:1002300014F8016B01F8016B6D1EF9D59142D6D30C
:10024000704700000023002400250026103A28BF34
:1002500078C1FBD8520728BF30C148BF0B60704738
:100260001FB510F09BF91FBD10B510BD00F090FA3E
:100270001146FFF7F5FF0CF061FF00F0AEFA03B492
:10028000FFF7F2FF03BC00F013FB00002C4B1968D2
:100290000868B0E8F04F80F30988BFF36F8F4FF024
:1002A000000080F3118870470000000008480068D3
:1002B000006880F308884FF0000080F3148862B66D
:1002C00061B6BFF34F8FBFF36F8F00DF00BF00BF7A
:1002D00008ED00E0DFF80C00016841F470010160F6
:1002E000704700BF88ED00E0EFF30980BFF36F8F28
:1002F000134B1A681EF0100F08BF20ED108A20E97A
:10030000F04F106009B44FF0500080F31188BFF334
:100310004F8FBFF36F8F0EF0DDFB4FF0000080F3C7
:10032000118809BC19680868B0E8F04F1EF0100F7A
:1003300008BFB0EC108A80F30988BFF36F8F704755
:1003400028000020EFF3058070470000094880472F
:1003500009480047FEE7FEE7FEE7FEE7FEE7FEE7A7
:10036000FEE7FEE7FEE7FEE704480549054A064BBF
:1003700070470000D5990008AD010008A85600207C
:10038000A85C0020A8580020A85800209FED1A1A49
:10039000F5EE000A40EE010ABDEEE00AF5EEC00AF5
:1003A00010EE100AF1EE10FA38BF401E00EE100AEF
:1003B0001349F7EE001AB8EEC00A30EEC00ADFEDBE
:1003C0000F0A20EE200AFCEEC00A10EE900AC0F3DD
:1003D000080000EE900A01EB8000F8EE600A90ED54
:1003E000011A70EE600A90ED000A71EEE01A21EE3B
:1003F000800A00EE810A704783F9223E0000004423
:1004000094090108DFED190AB5EEC00A60EE200A72
:10041000BDEEE01A11EE100AF1EE10FA38BF401EE0
:1004200000EE100A1349F7EE001AB8EEC00A30EEDB
:10043000C00ADFED0F0A60EE200ABCEEE00A10EE03
:10044000100AC0F3080000EE100A01EB8000B8EEBD
:10045000400A90ED011A70EEC00A90ED000A71EEAC
:10046000E01A21EE800A00EE810A704783F9223EED
:10047000000000449409010853EA020C00F069806E
:100480002DE9F04B4FF00006002B1FBFB3FA83F5A8
:1004900003FA05F424FA05F65E4012BF1643B2FAD9
:1004A00082F502FA05F4C5F120051EBF22FA05FC0B
:1004B00044EA0C04203556EA044C4FEA144418BFB1
:1004C000641C4FF000084FF00009904271EB030CE0
:1004D00039D3002919BFB1FA81F701FA07F6B0FA4A
:1004E00080F700FA07F6C7F120071EBF20FA07FCC5
:1004F00046EA0C062037B6FBF4FCA7EB0507103FD5
:1005000007F01F0BCBF120060CFA0BFB2CFA06F6BA
:1005100044BFB3460026202FA4BF5E464FF0000B19
:100520005BEA060C08BF4FF0010B19EB0B09ABFBA4
:10053000027C48EB0608C01B06FB02CC0BFB03CC7D
:1005400071EB0C01C1E70B46024641464846BDE847
:10055000F08B13B54FF000004FF00001AFF30080B7
:10056000BDE81C40704710B5431C02E010F8011BA9
:1005700071B18107FAD14FF0013202C88C1A8C4355
:1005800014EAC211F9D0C01A0A0603D0C01E10BD69
:10059000C01A10BD0A0401D0801E10BD0902FCD093
:1005A000401E10BD032A40F2308010F0030C00F012
:1005B000158011F8013BBCF1020F624498BF11F89D
:1005C00001CB00F8013B38BF11F8013BA2F1040256
:1005D00098BF00F801CB38BF00F8013B11F00303CE
:1005E00000F02580083AC0F0088051F8043B083A32
:1005F00051F804CBA0E80810F5E7121D5CBF51F8D4
:10060000043B40F8043BAFF30080D20724BF11F84D
:10061000013B11F801CB48BF11F8012B24BF00F8B2
:10062000013B00F801CB48BF00F8012B704710B523
:10063000203AC0F00B80B1E81850203AA0E81850DA
:10064000B1E81850A0E81850BFF4F5AF5FEA027C9B
:1006500024BFB1E81850A0E8185044BF18C918C00A
:10066000BDE810405FEA827C24BF51F8043B40F8AB
:10067000043B08BF7047D20728BF31F8023B48BF90
:1006800011F8012B28BF20F8023B48BF00F8012BCE
:10069000704702F0FF0343EA032242EA024200F0FD
:1006A00002B84FF000020429C0F0128010F0030CD1
:1006B00000F01B80CCF1040CBCF1020F18BF00F855
:1006C000012BA8BF20F8022BA1EB0C0100F00DB804
:1006D0005FEAC17C24BF00F8012B00F8012B48BF62
:1006E00000F8012B70474FF0000200B51346944606
:1006F0009646203922BFA0E80C50A0E80C50B1F17A
:100700002001BFF4F7AF090728BFA0E80C5048BF8D
:100710000CC05DF804EB890028BF40F8042B08BF2B
:10072000704748BF20F8022B11F0804F18BF00F827
:10073000012B704770477047704710B500F008F8FC
:10074000006810BD10B5044600F002F8046010BD4A
:1007500000487047485600201FB584B000200A9C0E
:1007600006AB04AA02A90094AFF3008018B1DDE93A
:10077000020108B010BD0348204000F037F8002007
:100780000146F6E70000207C0048704748560020EC
:100790007546FFF7F9FFAE4605006946534620F05F
:1007A0000700854618B020B5FFF7DEFDBDE8204004
:1007B0004FF000064FF000074FF000084FF0000B1D
:1007C00021F00701AC46ACE8C009ACE8C009ACE8D0
:1007D000C009ACE8C0098D46704710B50446AFF3B8
:1007E00000802046BDE81040FFF749BD10B500F07D
:1007F00009F8BDE81040AFF30080002801D000F0F8
:1008000057B8704710B5022803D0410103D50DA198
:1008100012E0002010BD010101D50FA10CE0C100C4
:1008200001D511A108E0810001D512A104E040002A
:1008300001D513A100E0002115A000F03FF8012030
:1008400010BD0000496E76616C6964204F7065725E
:100850006174696F6E0000004469766964652042C6
:1008600079205A65726F00004F766572666C6F77FB
:1008700000000000556E646572666C6F77000000C2
:10088000496E657861637420526573756C740000FD
:100890005349474650453A2041726974686D657402
:1008A000696320657863657074696F6E3A20000033
:1008B00001491820ABBEFEE72600020070B50546D0
:1008C0000C460A2000E06D1C00F011F835B12878C4
:1008D0000028F8D102E0641C00F009F814B1207877
:1008E0000028F8D1BDE870400A20AFF3008008B5B9
:1008F00069468DF800000320ABBE08BD704710B5F7
:100900002DED028BB0EE408AB0EE480A09F0EAFE07
:10091000BDEC028B10BD10B52DED028BB0EE408A00
:10092000F0EE608AF0EE680AB0EE480A09F070FF57
:10093000BDEC028B10BD10B52DED028BB0EE408AE0
:10094000B0EE480AFFF722FDBDEC028B10BDF0EEC1
:10095000400AF5EEC00AF1EE10FA02DDB0EE600AD0
:100960007047B1EE600AFBE718B19FED020A80ED17
:10097000000A70470000000018B1B3EE060A80EDCF
:10098000000A704770B52DED0C8B84B006460C46FE
:1009900015469FED990AF0EE408A9FED970AB0EE5A
:1009A000409A9FED950AF0EE40BA9FED930AF0EE63
:1009B000409A9FED910AB0EE40AA0EB104B11DB964
:1009C00004B0BDEC0C8B70BD8C48FFF7CDFF8C489C
:1009D000FFF7D2FF8A48D0ED000A9FED8A1A60EE39
:1009E000810AB0EE600A00F02DF9F0EE408A28EEA0
:1009F000A80AF0EE408A8248D0ED000AB0EE001A54
:100A000060EE810A9FED7F1A60EE810AB0EE600A07
:100A100000F018F9B0EE409A29EE090AB0EE409ABB
:100A2000DFED790AB7EE000A00EEA80ADFED770ADB
:100A300000EEC90ADFED760A20EE200A754880ED47
:100A4000000A6E4890ED000ADFED730A80EE201A6E
:100A5000B7EE000A31EE000A20EE000A6D48D0ED34
:100A6000000A80EE801A6D4880ED001A94ED000AAD
:100A7000B5EEC00AF1EE10FA0DD194ED010AB5EE13
:100A8000C00AF1EE10FA06D194ED020AB5EEC00AE2
:100A9000F1EE10FA46D09FED580AB0EE408A0020E1
:100AA000019002900390D4ED000A60EEA00A94ED4C
:100AB000011AD4ED011A41EE210A94ED021AD4ED87
:100AC000021A41EE210AB0EE600A00F0A9F8B0EE79
:100AD000408A94ED000A20EE080A8DED010A94ED9B
:100AE000010A20EE080A8DED020A94ED020A20EEBA
:100AF000080A8DED030ADDED010AF1EE600AB0EEA1
:100B0000600AFFF7FCFEF0EE409A9DED031AF0EE4E
:100B1000410A9DED021AB0EE410AFFF7FCFEB0EE6D
:100B200040AA07E09FED340AF0EE409A9FED320AAA
:100B3000B0EE40AA95ED000AB5EEC00AF1EE10FA4B
:100B40000DD195ED010AB5EEC00AF1EE10FA06D10D
:100B500095ED020AB5EEC00AF1EE10FA3CD0B0EE07
:100B6000690A00F06FF8B0EE408AB0EE690AFFF74C
:100B7000E2FEB0EE40DAB0EE4A0A00F063F8F0EEC2
:100B800040AAB0EE4A0AFFF7D6FEB0EE40BA28EE11
:100B90002A0AD5ED010A20EE200AD5ED000A0DEE55
:100BA000200A68EE0B0A95ED021A00EE810AB0EEFB
:100BB00040CA95ED010A20EE0B0AD5ED020A0AEEB5
:100BC000E00AF0EE40CAF0EE6C0AB0EE4C0AFFF715
:100BD000A2FEF0EE40BA03E09FED070AF0EE40BA45
:100BE000B0EE4A1AF0EE690AB0EE6B0A30460AF02F
:100BF00023F900BFE4E600000000000040020020EE
:100C00004402002035FA8E3CC1BFAD3B9DF8C5368D
:100C10002F7C1C4148020020506CC24A4C0200202C
:100C200010B52DED028BB0EE408AB0EE480A09F007
:100C300021FFB7EE001AC1EE000AB0EE600ABDEC6B
:100C4000028B10BD10B52DED028BB0EE408AB0EED8
:100C5000480AFFF7D7FBBDEC028B10BD2DE9F04130
:100C60002DED028B9AB00546B0EE408A0E4617462F
:100C7000984600201790189019901490159016908F
:100C80004DB146B13FB1B8F1000F04D0B5EEC08A06
:100C9000F1EE10FA05D100201AB0BDEC028BBDE8D0
:100CA000F08196ED000A8DED170A96ED010A8DEDA3
:100CB000180A96ED020A8DED190A97ED000A8DEDDE
:100CC000140A97ED010A8DED150A97ED020A8DEDD4
:100CD000160A17AA14A9284609F000FF402104A803
:100CE000FFF701FD00200090019002900390002486
:100CF00017A904A80DF0BCFB00BF30E004A800EB6E
:100D0000041090ED000AD5ED000A20EE200A04A898
:100D100000EB0410D0ED010A95ED011A00EE810AF6
:100D200004A800EB0410D0ED020A95ED021A00EEC3
:100D3000810A04A800EB0410D0ED030A95ED031A14
:100D400000EE810A20EE080AF0EE000A80EE201A7A
:100D5000684600EB840080ED001A601CC4B2042CCD
:100D6000CCDB002410E005EB840090ED000A68461F
:100D700000EB8400D0ED000A30EE200A05EB840081
:100D800080ED000A601CC4B2042CECDB28460DF098
:100D900007F9012080E7000010B50DF093F94E220D
:100DA0000D49A1F14E000DF0F3F9DFED0C0AB0EEA4
:100DB000000A0B4A00210B4805F046FFF6EE000A38
:100DC000B0EE000A084A0021084805F03DFF084837
:100DD0000DF02CFA10BD0000AC550020CDCC4C3EDF
:100DE000700901080C5400207C09010854540020AB
:100DF0004053002010B501221021024802F0F4FBFC
:100E000010BD00000000024010B500221021024871
:100E100002F0EAFB10BD0000000002407047000035
:100E200010B501221146024802F0DEFB10BD0000A1
:100E30000004024010B500220121024802F0D4FB58
:100E400010BD00000004024010B543781B021BB225
:100E50000478234300EE103AB8EEC01A1C4BD3EDD1
:100E6000001A21EE211A81ED001AC3781B021BB271
:100E70008478234300EE103AB8EEC01A144BD3ED39
:100E8000001A21EE211A81ED011A43791B021BB2CF
:100E90000479234300EE103AB8EEC01A0C4BD3EDA0
:100EA000001A21EE211A81ED021A037A1B04C4797B
:100EB00043EA04238479234300EE903AB8EE601AA3
:100EC000DFED041A21EE211A82ED001A10BD000098
:100ED000A400002000401C42704710B50446204684
:100EE0000CF0C2F910BD10B5044620460BF07CFC96
:100EF00010BD00004278120212B203781A4300EECD
:100F0000102AF8EEC00A144A92ED001A60EE810A27
:100F1000C1ED000AC278120212B283781A4300EEC1
:100F2000102AF8EEC00A0C4A92ED001A60EE810A0F
:100F3000C1ED010A4279120212B203791A4300EE9E
:100F4000102AF8EEC00A044A92ED001A60EE810AF7
:100F5000C1ED020A70470000A800002010B500246F
:100F6000FFF75CFFFFF7B8FF0AF0DEF810B144F0BE
:100F7000800402E00AF03EF804430AF0CDFA10B112
:100F800044F0400402E00AF04DFA0443204610BD4C
:100F90002DE9FC4105460E461746002000900190C1
:100FA000FFF732FF922000F0D1F8062269461220A6
:100FB00000F0ACF8FFF71EFF9DF80100000200B240
:100FC0009DF8001040EA010400EE104AB8EEC00A95
:100FD0004C48D0ED000A20EE200A86ED000A9DF86C
:100FE0000300000200B29DF8021040EA010400EE86
:100FF000104AB8EEC00A4348D0ED000A20EE200A9D
:1010000086ED010A9DF80500000200B29DF804106B
:1010100040EA010400EE104AB8EEC00A3948D0EDAB
:10102000000A20EE200A86ED020AFFF703FF0822DD
:101030006946002000F06AF8FFF7F2FE9DF8000014
:101040000F2838D19DF80300000200B29DF802106D
:1010500040EA010400EE104AB8EEC00A2A48D0ED7A
:10106000000A20EE200A85ED000A9DF80500000226
:1010700000B29DF8041040EA010400EE104AB8EEF8
:10108000C00A2148D0ED000A20EE200A85ED010AB1
:101090009DF80700000200B29DF8061040EA010426
:1010A00000EE104AB8EEC00A1748D0ED000A20EE54
:1010B000200A85ED020AFFF7A7FEA22000F046F8FD
:1010C00002226946222000F021F8FFF793FE9DF8E6
:1010D0000000C0009DF8011040EA6114B4F5806F73
:1010E00002DBA4F5006004B200EE104AF8EEC00A7C
:1010F000B4EE001AB3EE070A00EE810A87ED000A8B
:10110000BDE8FC81A4000020A800002070B50646C0
:101110000C46154646F0800000F018F806E0552011
:1011200000F014F82070641C681EC5B2002DF6D1C2
:1011300070BD70B504460D4644F0800000F006F81E
:10114000552000F003F8287070BD000001B582B092
:101150004FF47A70012301AA02A90090024803F01B
:1011600033FC9DF804000EBD7409002010B5024642
:101170001378DB00547843EA6410B0F5806F02DB2B
:10118000A0F5006318B200EE100AF8EEC00AB4EE43
:10119000001AB3EE070A00EE810A81ED000A10BDC5
:1011A00070B505460C462846FFF7D0FF2046FFF7EE
:1011B000CDFF70BD40F265100DF034FB40F26510BC
:1011C0000DF030FB40F265100DF02CFB0AF0AAFA8E
:1011D00031E01948007858B3012108460AF0D0FAE6
:1011E00032200CF041F815480078401E1449085C84
:1011F00014490978884202D01248007818B94FF48F
:101200007A700CF031F80D480078401E0C49085CEB
:101210000C490978884202D00A48007818B94FF47E
:101220007A700CF021F805F02BFE002002490870BE
:1012300005200CF019F8CCE7FD010020FC0100208E
:10124000894D0020FE01002000BFFEE710B50248D6
:1012500001F0AFF910BD0000F8080020F8B507460E
:101260000C4615461E464FF400700D4908600020DC
:101270008860C86008200861380A0A4908704F7001
:10128000200A8870CC70280A08714D71300A887164
:10129000CE716B460A460249034800F088FFF8BD4C
:1012A000544D0020F2000020F808002038B5044614
:1012B00040F2FF100849086000208860C8600820DC
:1012C0000861200A054908704C706B460A460249BD
:1012D000034800F06CFF38BD6C4D0020FA00002080
:1012E000F808002010B5024801F06CFD10BD0000A8
:1012F000140D002010B5024801F064FD10BD00007F
:10130000540C002010B5024801F05CFD10BD000037
:10131000F40B002010B5024801F054FD10BD000090
:10132000B40C002010B5024801F04CFD10BD0000C7
:10133000CC09002010B5024801F044FD10BD0000AA
:10134000740D002010B5FE48C06C0068FD4988424D
:1013500076D9FC4854380068F949C96C0968FA4ADA
:10136000914201D1202169E0F549C96C0968F54A2B
:10137000483A914201D1202160E0F149C96C0968E5
:10138000F14A6032914201D1202157E0EC49C96C09
:101390000968EC4A1832914201D120214EE0E84917
:1013A000C96C0968E84A1832914201D1C91445E074
:1013B000E349C96C0968E34A303A914201D1C91442
:1013C0003CE0DF49C96C0968DF4A7832914201D1BB
:1013D000C91433E0DA49C96C0968DA4A30329142FB
:1013E00001D1C9142AE0D649C96C0968D64A3032FD
:1013F000914202D14FF4001120E0D149C96C096833
:10140000D04A183A914202D14FF4001116E0CC496B
:10141000C96C0968CC4A9032914202D14FF4001154
:101420000CE0C749C96C0968C64A4832914203D1E9
:101430004FF4001102E003E04FF00061084070E15A
:10144000BF48C06C0068C049A831884276D9BD4801
:1014500058380068BA49C96C0968BB4A914201D141
:10146000202169E0B649C96C0968B64A483A9142F8
:1014700001D1202160E0B249C96C0968B24A6032EA
:10148000914201D1202157E0AD49C96C0968AD4AAC
:101490001832914201D120214EE0A949C96C096856
:1014A000A94A1832914201D1C91445E0A449C96C36
:1014B0000968A44A303A914201D1C9143CE0A049DC
:1014C000C96C0968A04A7832914201D1C91433E04D
:1014D0009B49C96C09689B4A3032914201D1C914B9
:1014E0002AE09749C96C0968974A3032914202D183
:1014F0004FF4001120E09249C96C0968914A183AEA
:10150000914202D14FF4001116E08D49C96C09686F
:101510008D4A9032914202D14FF400110CE088497B
:10152000C96C0968874A4832914203D14FF40011CF
:1015300002E003E04FF000610840F2E08048C06C38
:10154000006881494831884276D97F481038406820
:101550007B49C96C09687C4A914201D1202169E02C
:101560007749C96C0968774A483A914201D12021EC
:1015700060E07349C96C0968734A6032914201D1D5
:10158000202157E06E49C96C09686E4A18329142B1
:1015900001D120214EE06A49C96C09686A4A1832B3
:1015A000914201D1C91445E06549C96C0968654A91
:1015B000303A914201D1C9143CE06149C96C0968D3
:1015C000614A7832914201D1C91433E05C49C96C57
:1015D00009685C4A3032914201D1C9142AE0584965
:1015E000C96C0968584A3032914202D14FF4001157
:1015F00020E05349C96C0968524A183A914202D115
:101600004FF4001116E04E49C96C09684E4A9032F9
:10161000914202D14FF400110CE04949C96C0968AC
:10162000484A4832914203D14FF4001102E003E0EE
:101630004FF00061084074E04348103800684049AA
:10164000C96C0968404A914201D1202168E03C49B7
:10165000C96C09683B4A483A914201D120215FE0B8
:101660003749C96C0968384A6032914201D120215A
:1016700056E03349C96C0968324A1832914201D1A7
:1016800020214DE02E49C96C09682F4A1832914239
:1016900001D1C91444E02A49C96C0968294A303A81
:1016A000914201D1C9143BE02549C96C0968264A19
:1016B0007832914201D1C91432E02149C96C0968DC
:1016C000204A3032914201D1C91429E01C49C96C29
:1016D00009681D4A3032914202D14FF400111FE0D7
:1016E0001749C96C0968174A183A914202D14FF458
:1016F000001115E01249C96C0968134A90329142F1
:1017000002D14FF400110BE00D49C96C09680D4A74
:101710004832914202D14FF4001101E04FF00061D4
:10172000084000286FD00648C06C00680549884210
:101730007BD90348C06C00680349884208D105E0A2
:10174000740900205864024010600240202068E0C4
:10175000FE48C06C0068FE49884201D1202060E04C
:10176000FA48C06C0068FB49884201D1202058E04B
:10177000F648C06C0068F6496031884201D12020EB
:101780004FE0F248C06C0068F2494839884201D104
:10179000C01446E0ED48C06C0068ED49183188423D
:1017A00001D1C0143DE0E948C06C0068E949183136
:1017B000884201D1C01434E0E448C06C0068E449B8
:1017C0007831884201D1C0142BE0E048C06C006839
:1017D000E0493039884202D14FF4001021E0DB4863
:1017E000C06C0068DA493031884202D14FF40010F1
:1017F00017E0D648C06C0068D6493031884204D121
:101800004FF400100DE0DFE10FE0D048C06C00683D
:10181000CF499031884202D14FF4001001E04FF0DF
:101820000060CB49091F08606AE1C848C06C0068C5
:10183000C8494831884274D9C448C06C0068C54959
:101840006039884201D1202066E0C048C06C006841
:10185000BF49884201D120205EE0BC48C06C0068CE
:10186000BC49884201D1202056E0B848C06C0068CD
:10187000B7496031884201D120204DE0B348C06CA7
:101880000068B4494839884201D1C01444E0AF48E7
:10189000C06C0068AE491831884201D1C0143BE0E9
:1018A000AA48C06C0068AB491831884201D1C01405
:1018B00032E0A648C06C0068A5497831884201D161
:1018C000C01429E0A148C06C0068A24930398842A0
:1018D00002D14FF400101FE09C48C06C00689C4986
:1018E0003031884202D14FF4001015E09748C06CA7
:1018F000006898493031884202D14FF400100BE063
:101900009248C06C006892499031884202D14FF4ED
:10191000001001E04FF000608D4908390860EFE0E9
:10192000FFE78A48C06C00688A491839884274D930
:101930008648C06C006887496039884201D1202000
:1019400066E08248C06C00688149884201D120204D
:101950005EE07E48C06C00687E49884201D120204C
:1019600056E07A48C06C006879496031884201D1FC
:1019700020204DE07548C06C00687649483988429F
:1019800001D1C01444E07148C06C0068704918313E
:10199000884201D1C0143BE06C48C06C00686D49BE
:1019A0001831884201D1C01432E06848C06C006828
:1019B00067497831884201D1C01429E06348C06C7E
:1019C000006864493039884202D14FF400101FE0AA
:1019D0005E48C06C00685E493031884202D14FF4E5
:1019E000001015E05948C06C00685A4930318842EF
:1019F00002D14FF400100BE05448C06C0068544909
:101A00009031884202D14FF4001001E04FF00060A5
:101A100050497039C86073E0FFE74C48C06C0068FB
:101A20004C496039884201D1202066E04748C06CAB
:101A300000684749884201D120205EE04348C06CDD
:101A400000684449884201D1202056E03F48C06CDC
:101A500000683F496031884201D120204DE03B4879
:101A6000C06C00683B494839884201D1C01444E049
:101A70003648C06C006836491831884201D1C0141C
:101A80003BE03248C06C006832491831884201D1CD
:101A9000C01432E02D48C06C00682D49783188426E
:101AA00001D1C01429E02948C06C006829493039A7
:101AB000884202D14FF400101FE02448C06C006837
:101AC00023493031884202D14FF4001015E01F48FD
:101AD000C06C00681F493031884202D14FF40010B9
:101AE0000BE01A48C06C006819499031884202D155
:101AF0004FF4001001E04FF0006016497039886023
:101B00001548007800F0020078B11348007820F002
:101B10000200114908700846007840F0040008707F
:101B2000012211460D4801F05FFD0D48007800F0DC
:101B30000200E0B10A48007820F00200084908706D
:101B40000846007840F0040008700BE0740900209B
:101B5000106402407060024039010020000402401D
:101B60003A01002001221021184801F03DFD1848DB
:101B7000007800F0020078B11548007820F00200EB
:101B8000134908700846007840F0040008700122EC
:101B900010210E4801F028FD0BF00AF90D480078DD
:101BA00000F0040080B10B48007820F004000949DF
:101BB00008700846007840F0080008700648006881
:101BC00040F001000449086010BD00000000024020
:101BD0003B01002039010020103C014010B50248B3
:101BE00001F0F0F810BD00002C0A002010B50248EA
:101BF00001F0E8F810BD0000D40D0020014608787F
:101C000010381823B0FBF3F20848805CC865032A3B
:101C100005D908686FF30900001D886503E00868AE
:101C20006FF309008865886D70470000C4080108DB
:101C3000014600208A6A8B69CBB932B1012A0DD0E6
:101C4000022A03D0032A10D10EE000BFCB6A03F0B2
:101C50008073B3F1807F00D1012007E0CB6AB3F13C
:101C6000C07F00D1012001E000E000BF34E08B69BB
:101C7000B3F5005F1AD132B1012A07D0022A03D08E
:101C8000032A11D10AE000BF01200EE0CB6A03F065
:101C90008073B3F1807F00D1012006E0CB6AB3F1FD
:101CA000C07F00D1012000E000BF15E032B1012A61
:101CB00005D0022A04D0032A0CD103E000BF00BFE4
:101CC000012008E0CB6A03F08073B3F1807F00D17C
:101CD000012000E000BF00BF704730B504682468F1
:101CE00024F4802405682C60046863608468402CB8
:101CF00004D10468A2600468E16003E00468A160A4
:101D00000468E26030BD704710B5202001F056FB3A
:101D100010BD72B600BFFEE78A78513000F8032C80
:101D20000A7900F8022C91F9062040F8012CCA79B2
:101D3000C270B1F90C2000EE102AF8EEC00A9FED37
:101D4000501A80EE810A10EE102A4260B1F90E207E
:101D500000EE102AB8EEC00A9FED4A1AC0EE010A42
:101D60009FED491A80EE810A10EE102A82600A69FE
:101D700000EE102A9FED441AC0EE010A10EE902AE0
:101D8000C260B1F91A2000EE102AB8EEC00A9FED29
:101D90003D1AC0EE010A9FED3C1A80EE810A10EE5A
:101DA000102A0261D1F81E2000EE102AF8EEC00AB7
:101DB0009FED351A80EE810A9FED341AC0EE010ABC
:101DC000B0EE000A20EE800ADFED310A20EE200A94
:101DD00010EE102A4261B1F9262000EE102AB8EE6A
:101DE000C00ADFED2C0A20EE200A10EE102A8261D4
:101DF0005138B1F9282000EE102AB8EEC00ADFED04
:101E0000250A20EE200A10EE102AC0F86D20B1F944
:101E10002A2000EE102AB8EEC00ADFED1E0A20EEDE
:101E2000200A10EE102AC0F87120B1F92C2000EE23
:101E3000102AB8EEC00ADFED180A20EE200A10EED4
:101E4000102AC0F87520B1F92E2000EE102AB8EE45
:101E5000C00ADFED110A20EE200A10EE102AC0F8A9
:101E60007920B1F9302000EE102AB8EEC00ADFED7B
:101E70000A0A20EE200A10EE102AC0F87D207047D2
:101E800000008043000000439A9911410000804601
:101E9000DA0F49407F8C8D3A39B41C3B10B50022D3
:101EA00001B909E0012901D10A0205E0022901D1A5
:101EB0000A0201E04FF440720B2800D9001D0E4BBE
:101EC0001B6823F440730C4C236023461B681343A8
:101ED000236023461B6823F0F803236023461B6816
:101EE000022444EAC0042343034C236023461B68B6
:101EF00043F48033236010BD103C02401C4800684E
:101F000000F40070B0B11A48006820F4007018495D
:101F1000086000BF0846006840F40060086008469A
:101F2000006820F40060086000BF0846006840F4C4
:101F3000007008600E48006800F48060B0B10C4882
:101F4000006820F480600A49086000BF0846006805
:101F500040F4805008600846006820F48050086013
:101F600000BF0846006840F48060086070470000C9
:101F7000003C0240134A126822F44072114B1A606E
:101F8000032906D11A461268DB131A430D4B1A6057
:101F90000EE0012906D10B4A126842F00402094BF7
:101FA0001A6005E0074A126842F40042054B1A60C5
:101FB000044A12684FF4803343EA00231A43014B6A
:101FC0001A607047103C0240074A126822F44072BF
:101FD000054B1A601A4612681A601A46126842F0D7
:101FE00001021A6001707047103C024010B50A49A6
:101FF000096821F44071084C21602146096841F4C8
:10200000407121602146096841F0010121600260B0
:10201000BFF36F8F436010BD103C0240084A126846
:1020200022F44072064B1A601A46126842F480721B
:102030001A601A46126842F001021A600180704765
:10204000103C0240084A126822F44072064B1A60A3
:102050001A46126842F400721A601A46126842F078
:1020600001021A6001607047103C02402A48006873
:1020700000F0100040B12948C06940F01000274925
:10208000C8611020244908602348006800F020003F
:1020900040B12248C06940F008002049C8612020B2
:1020A0001D4908601C48006800F0400040B11B4812
:1020B000C06940F004001949C86140201649086011
:1020C0001548006800F0800040B11448C06940F035
:1020D00002001249C86180200F4908600E4800685C
:1020E00000F4807048B10D48C06940F001000B4910
:1020F000C8614FF48070084908600748006800F024
:10210000020040B10548C06940F020000349C861A1
:1021100002200149086070470C3C02407C0E002000
:1021200070B50446002500201449C86101F062FA28
:10213000054609E0601C38B124B101F05BFA401B90
:10214000A04201D9032070BD0D48006800F4803022
:102150000028EFD10A48006800F0010010B101200A
:10216000074908600648006800F4F97018B1FFF7E5
:102170007DFF0120E7E70020E5E700007C0E00205E
:102180000C3C024010B5024692F82030012B01D0E1
:10219000022B06D110684069084314686061002072
:1021A00010BD506A40F4802050620120F8E7F0B57D
:1021B00004460D461E4694F8207020688368A8687F
:1021C00000B900E000BF012F01D0022F7DD103F044
:1021D000806030B903F0006018B903F08050002827
:1021E0007ED0C3F30161012088403060A86860B9E7
:1021F000B5F800C0E86840EA4C5C206800F5C070A3
:1022000000EB0110C0F800C00FE0D5E901C040EAC2
:10221000CC00D5F80CC040EA0C00D4F800C00CF596
:10222000C07C0CEB011CCCF80000D5F810C0206875
:1022300000F5C07000EB0110C0F804C0287D012833
:102240000ED1206800F5C07000EB0110406840F42A
:10225000807C206800F5C07000EB0110C0F804C05D
:10226000D079000692F806C040EA0C4092F805C00A
:1022700040EA0C2092F804C040EA0C00D4F800C0F8
:102280000CF5C07C0CEB011CCCF80C00D0780006DF
:1022900092F802C040EA0C4092F801C040EA0C20DB
:1022A00092F800C040EA0C00D4F800C00CF5C07CE5
:1022B0000CEB011CCCF80800206800F5C07000EBA6
:1022C0000110006840F0010C01E00FE008E0206818
:1022D00000F5C07000EB0110C0F800C00020F0BD98
:1022E000606A40F4001060620120F8E7606A40F420
:1022F000802060620120F2E7F0B504460A462168BA
:1023000094F82050012D01D0022D7ED1424901F5D3
:102310000071086840F001000860086820F47C50F3
:1023200008600868566A40EA06200860107D00F0E0
:102330001F06012000FA06F3C8699843C861A1F599
:102340000071D069C8B9D1F80C029843C1F80C02E9
:10235000908880B2968940EA064601F51070576968
:1023600040F83760108880B2168940EA064601F5C9
:102370001070576900EBC7004660D069012819D179
:10238000D1F80C021843C1F80C02908880B216886C
:1023900040EA064601F51070576940F837609089A9
:1023A00080B2168940EA064601F51070576900EBC5
:1023B000C7004660906928B9D1F804029843C1F873
:1023C000040204E0D1F804021843C1F804021069C1
:1023D00028B9D1F814029843C1F8140204E0D1F8E6
:1023E00014021843C1F81402106A012804D1D1F86C
:1023F0001C021843C1F81C02D1F8000220F00100B1
:10240000C1F800020020F0BDFFE7606A40F48020C0
:1024100060620120F7E7000000640040704770B57B
:10242000044694F82050012D01D0022D7DD151B9E0
:102430002068C06800F0030080B9606A40F40010B2
:102440006062012070BD2068006900F0030028B9B7
:10245000606A40F4001060620120F3E7206800F534
:10246000D87000EB0110006800F0040090609068E4
:1024700040B9206800F5D87000EB01100068400DED
:10248000106007E0206800F5D87000EB01100068CC
:10249000C0085060206800F5D87000EB011000689B
:1024A00000F00200D060206800F5D87000EB011049
:1024B000406800F00F00082802D30820106108E0EF
:1024C000206800F5D87000EB0110406800F00F00A4
:1024D0001061206800F5D87000EB0110406800F42E
:1024E0007F40000A9061206800F5D87000EB011071
:1024F0004068000C5061206800F5D87000EB0110B6
:1025000080681870206800F5D87000EB01108068B2
:1025100000F47F40000A5870206800F5D87000EB86
:102520000110806800F47F0000E03CE0000C98702F
:10253000206800F5D87000EB01108068000ED8709C
:10254000206800F5D87000EB0110C0681871206891
:1025500000F5D87000EB0110C06800F47F40000A5D
:102560005871206800F5D87000EB0110C06800F4C5
:102570007F00000C9871206800F5D87000EB011006
:10258000C068000ED87131B92068C06840F02000E2
:102590002668F06005E02068006940F020002668A9
:1025A000306100204EE7606A40F4802060620120C4
:1025B00048E72DE9F05F0446002520684669206859
:1025C000D0F80490206887682068D0F80CA02068B4
:1025D000D0F810B02068D0F8188006F0010000286C
:1025E00055D007F00100C0B101202168886007F0D4
:1025F000020018B1204600F074FB0EE007F0040062
:1026000010B145F4006508E007F0080010B145F48A
:10261000805502E0204600F063FB07F48070C8B1EB
:102620004FF480702168886007F4007018B120466C
:1026300000F059FB0EE007F4806010B145F400553E
:1026400008E007F4006010B145F4804502E0204640
:1026500000F048FB07F48030C8B14FF480302168A7
:10266000886007F4003018B1204600F03EFB0EE011
:1026700007F4802010B145F4004508E007F400207D
:1026800010B145F4803502E0204600F02DFB06F045
:10269000080038B10AF0100020B145F40075102090
:1026A0002168C86006F0040040B10AF0080028B1B3
:1026B00008202168C860204600F0A8F906F0020052
:1026C00038B12068C06800F0030010B1204600F067
:1026D0009FF906F0400038B10BF0100020B145F42E
:1026E000806510202168086106F0200040B10BF0E1
:1026F000080028B1082021680861204600F0BEFAD1
:1027000006F0100038B12068006900F0030010B135
:10271000204600F0B4FA06F4003040B109F0100091
:1027200028B1102021684860204600F0A9FA06F47C
:10273000803040B109F0080028B1082021684860C5
:10274000204600F0D3FA06F4004088B309F00400F4
:1027500078B306F4807020B108F0010008B145F0AC
:10276000010506F4007020B108F0020008B145F040
:10277000020506F4806020B108F0040008B145F0BD
:10278000040506F40060A0B108F0700088B108F0FC
:102790007000402817D006DC10280BD020280CD061
:1027A000302819D10CE0502810D0602814D110E046
:1027B0001DE019E045F008050FE045F010050CE0BC
:1027C00045F0200509E045F0400506E045F08005AC
:1027D00003E045F4807500E000BF00BF2068806919
:1027E00020F07000216888610420216848602DB1C4
:1027F000606A284360622046FFF710FEBDE8F09F44
:1028000070B504460CB9012070BD94F8200010B9D1
:10281000204600F0AFF82068006840F00100216811
:10282000086000F0E7FE05460DE000F0E3FE401B07
:102830000A2808D9606A40F400306062052084F8F4
:1028400020000120E0E72068406800F00100002837
:10285000EBD02068006820F002002168086000F0DA
:10286000C9FE05460DE000F0C5FE401B0A2808D948
:10287000606A40F400306062052084F82000012086
:10288000C2E72068406800F002000028EBD1207EFB
:10289000012806D12068006840F0800021680860A7
:1028A00005E02068006820F0800021680860607EF4
:1028B000012806D12068006840F0400021680860C7
:1028C00005E02068006820F0400021680860A07ED4
:1028D000012806D12068006840F0200021680860C7
:1028E00005E02068006820F0200021680860E07E94
:1028F000012806D12068006820F0100021680860D7
:1029000005E02068006840F0100021680860207F22
:10291000012806D12068006840F00800216808609E
:1029200005E02068006820F0080021680860607FEA
:10293000012806D12068006840F004002168086082
:1029400005E02068006820F0040021680860D4E9F0
:102950000201084321690843616908436168491E0F
:1029600008432168C86100206062012084F82000CB
:10297000002049E710B586B00446142101A8FDF7F0
:10298000B2FE1F492068884237D100BF0020009066
:102990001C48006840F000701A490860084600684A
:1029A00000F00070009000BF00BF00BF002000904A
:1029B00014481038006840F00800124910390860C7
:1029C0000846006800F00800009000BF00BF032028
:1029D000019002200290002003900320049009201F
:1029E000059001A9084800F0F7FC002206211420F8
:1029F00001F098FA142001F081FA06B010BD000031
:102A00000064004040380240000C02407047000063
:102A100010B58AB0044601AB03AA00212046FFF797
:102A2000FEFC0398A0F20120052877D2DFE800F031
:102A300003040506070000BF00BF00BF00BF0398E6
:102A4000401E894908700846007800EB400087491D
:102A500031F8300000B28449097801EB4101834A22
:102A600002EBC10108819DF805009DF8041040EAC1
:102A700001207D49097801EB410122F831009DF8E0
:102A800007009DF8061040EA012000B27649097857
:102A900001EB410102EBC10148809DF809009DF85E
:102AA000081040EA012000B26F49097801EB4101AA
:102AB00002EBC10188809DF80A006B49097801EB9F
:102AC000410102EBC1018871694867490978405C9E
:102AD00000287CD06448007800EB4000114631F8B3
:102AE00030006149097801EB410102EBC101B1F904
:102AF0000810401AB0F5805F11DD5B48007800EBEC
:102B00004000114601EBC0004069401E564909785B
:102B100001EB410102EBC101486124E0A0E0524811
:102B2000007800EB4000514931F830004E490978F7
:102B300001EB41014D4A02EBC101B1F90810401A05
:102B400010F5805F0FDA4848007800EB400011462E
:102B500001EBC0004069401C4349097801EB410189
:102B600002EBC10148614048007800EB40003F495A
:102B700031F830103C48007800EB40003B4A02EB53
:102B8000C000406901EB40303749097801EB410151
:102B900002EBC101098A401A00EE100AB8EEC00A21
:102BA0003148007800EB4000114601EBC00080ED99
:102BB000030A30482C490978405C00284FD09FED2B
:102BC0002E0A2948007800EB4000114600E01FE083
:102BD00001EBC00080ED030A00202349097801EBD6
:102BE000410102EBC10148611F48007800EB400041
:102BF000114631F830001C49097801EB410102EB24
:102C0000C101088200201B49174A1278885426E027
:102C100001211748144A127881549FED170A12486F
:102C2000007800EB4000114901EBC00080ED030A81
:102C300000200D49097801EB41010C4A02EBC1016A
:102C400048610948007800EB4000114631F8300037
:102C50000549097801EB410102EBC101088200E05E
:102C600000BF00BF0AB010BDFC000020DC4C0020FB
:102C7000E8000020ED0000200000000070477047D1
:102C8000704770B5044694F82000012822D1022034
:102C900084F820002068006820F0010021680860A6
:102CA00000F0A8FC05460DE000F0A4FC401B0A283B
:102CB00008D9606A40F400306062052084F8200082
:102CC000012070BD2068406800F001000028EBD1B1
:102CD0006062F6E7606A40F4002060620120F0E77D
:102CE000704770477047704770477047704770B5BE
:102CF0000446A56D00F07EFC064694F835000228D7
:102D000008D08020606500BF002084F8340000BF38
:102D1000012070BD2068006820F01600216808605E
:102D20002068406920F0800021684861206C08B963
:102D3000A06C28B12068006820F0080021680860B5
:102D40002068006820F001002168086010E000F0B1
:102D500051FC801B05280BD920206065032084F8D6
:102D6000350000BF002084F8340000BF0320D0E706
:102D70002068006800F001000028E8D194F85C1099
:102D80003F208840A860012084F8350000BF002063
:102D900084F8340000BF00BFBBE7014691F835005E
:102DA000022803D08020486501207047052081F863
:102DB00035000868006820F001000A6810600020F3
:102DC000F3E70000F8B50446002000908C48006846
:102DD0004FF41651B0FBF1F7A56D2E6894F85C1016
:102DE00008208840304098B12068006800F0040056
:102DF00070B12068006820F004002168086094F831
:102E00005C1008208840A860606D40F0010060659B
:102E100094F85C1001208840304068B12068406917
:102E200000F0800040B194F85C1001208840A86058
:102E3000606D40F00200606594F85C1004208840EA
:102E4000304068B12068006800F0020040B194F89A
:102E50005C1004208840A860606D40F0040060654C
:102E600094F85C1010208840304078B320680068E7
:102E700000F0080050B394F85C1010208840A8605F
:102E80002068006800F4802080B12068006800F4A9
:102E9000002028B9206CC8B12046216C884715E075
:102EA000A06C98B12046A16C88470FE020680068AC
:102EB00000F4807028B92068006820F008002168BC
:102EC0000860206C10B12046216C884794F85C1093
:102ED000202088403040002865D02068006800F03D
:102EE000100000285FD094F85C1020208840A86073
:102EF00094F83500052828D12068006820F01600D5
:102F0000216808602068406920F0800021684861DD
:102F1000206C08B9A06C28B12068006820F0080077
:102F20002168086094F85C103F208840A860012068
:102F300084F8350000BF002084F8340000BF206D05
:102F400010B12046216D8847F8BD2068006800F464
:102F5000802080B12068006800F4002028B9606CEF
:102F600010B12046616C88471DE0E06BD8B1204667
:102F7000E16B884717E02068006800F4807068B94A
:102F80002068006820F0100021680860012084F8A3
:102F9000350000BF002084F8340000BFE06B10B1A2
:102FA0002046E16B8847606D38B3606D00F001002A
:102FB000F0B1052084F835002068006820F0010099
:102FC0002168086000BF0098401C0090B84200D9FA
:102FD00005E02068006800F001000028F3D100BF80
:102FE000012084F8350000BF002084F8340000BFC1
:102FF000E06C10B12046E16C884700BFA4E70000F8
:10300000240000202DE9F0410446002500F0F2FAEA
:10301000074614B90120BDE8F081606A00B100BF25
:10302000022084F8350000BF002084F8340000BF7F
:103030002068006820F00100216808600AE000F0C4
:10304000D9FAC01B052805D920206065032084F823
:103050003500E0E72068006800F001000028EED1AC
:103060002068056821480540D4E901010843E1686A
:1030700008432169084361690843A1690843E1697C
:103080000843216A08430543606A042803D1D4E950
:103090000B0108430543206805602068456925F059
:1030A0000705606A0543606A04280DD1A06A0543DC
:1030B000E06A48B12046FEF7BBFD28B140206065BC
:1030C000012084F83500A6E7206845612046FEF718
:1030D00095FD064694F85C103F208840B0600020C3
:1030E0006065012084F83500002094E73F8010F0EF
:1030F0002DE9F04704460D4616461F464FF00008DE
:10310000D4F8589000BF94F83400012802D102206E
:10311000BDE8F087012084F8340000BF94F8350042
:10312000012825D1022084F83500002060653B4647
:10313000324629462046FEF7D0FD94F85C103F2029
:103140008840C9F808002068006840F0160021682F
:103150000860206C28B12068006840F008002168F1
:1031600008602068006840F001002168086006E0FF
:1031700000BF002084F8340000BF4FF00208404632
:10318000C6E700002DE9F04104460E460127002560
:1031900000BF2648007E012802D10220BDE8F08150
:1031A00001202249087600BF4CF25030FEF7B8FFEC
:1031B0000746002F32D1401E30602068012810D110
:1031C000207C6168FEF7D6FE4CF25030FEF7A8FF77
:1031D00007461748006848F204018843144908600C
:1031E0001AE0A56812E0217C2846FEF757FE4CF253
:1031F0005030FEF795FF07460D48006820F0FA00B2
:103200000B4908600FB1356005E06D1CD4E9021070
:103210000844A842E7D800BFFEF770FE00BF0020B8
:103220000249087600BF3846B8E700007C0E00204F
:10323000103C02400348006840F00040014908602B
:1032400000207047103C02402DE9F04106460F4631
:1032500014461D464FF0010800BF1F48007E01289C
:1032600002D10220BDE8F08101201B49087600BF91
:103270004CF25030FEF754FF8046B8F1000F23D1D6
:1032800026B9E1B23846FEF79FFE12E0012E04D1C6
:10329000A1B23846FEF7C2FE0BE0022E04D1214651
:1032A0003846FEF7CFFE04E022462B463846FEF7AE
:1032B0009DFE4CF25030FEF733FF80460748006811
:1032C00020F001000549086000BF0020024908768F
:1032D00000BF4046C6E700007C0E0020103C0240C4
:1032E00000200949096801F0004159B10749064A1F
:1032F0000C3A1160064911600349096801F0004168
:1033000001B1012070470000103C024023016745D5
:10331000AB89EFCD10B50446102C11D11F480078B1
:1033200040F001001D4908701D48007840F0010080
:103330001B4908701B48007870B309F039FD2BE079
:10334000202C0BD11848007840F001001649087075
:103350001448007800B309F02BFD1DE0082C06D1BD
:103360001248007840F001001049087014E0012C68
:1033700012D10CF0A1F801280ED00D490D480068BB
:103380000BF090FA0A48006830B120070A4908603B
:10339000BFF34F8FBFF36F8F10BD00003A010020C5
:1033A0003B0100203D010020390100203C010020AC
:1033B000B00100201401002004ED00E010B5044627
:1033C00004480068204020B1024804602046FFF70E
:1033D000A1FF10BD143C0140F8B502460B46002584
:1033E000002400200021E0E0012606FA01F51E6815
:1033F00006EA0504AC4274D11E7906F00306012EDC
:1034000004D01E7906F00306022E13D190684F00F7
:103410000326BE40B0434F00DE68BE40304390609C
:10342000506801268E40B0431E79C6F300168E40C8
:10343000304350601E7906F00306032E09D0D06891
:103440004F000326BE40B0434F009E68BE4030434D
:10345000D0601E7906F00306022E13D1CF0802F1C8
:10346000200656F827004E07F70E0F26BE40B04341
:103470004F07FF0E1E69BE403043CF0802F1200601
:1034800046F8270010684F000326BE40B0431E795F
:1034900006F003064F00BE40304310605E6806F43D
:1034A0004036002E1DD000BF00260096414E3668E3
:1034B00046F480463F4F3E603E46366806F48046FE
:1034C000009600BF00BF3C4E8F0856F827008E07BD
:1034D000370F0F26BE40B043384EB24202D100260D
:1034E0002EE061E0364EB24201D1012628E0354E91
:1034F000B24201D1022623E0334EB24201D103266B
:103500001EE0324EB24201D1042619E0304EB242E2
:1035100001D1052614E02F4EB24201D106260FE05C
:103520002D4EB24201D107260AE02C4EB24201D103
:10353000082605E02A4EB24201D1092600E00A26FB
:103540008F073F0FBE4030431B4E8F0846F82700C1
:10355000244E3068A0435E6806F4801606B120430E
:10356000204E3060361D3068A0435E6806F40016B9
:1035700006B120431B4E361D30601A4E361F306890
:10358000A0435E6806F4003606B12043154E361F90
:103590003060361F3068A0435E6806F4803606B19E
:1035A0002043104E083E3060491C1029FFF41CAF28
:1035B000F8BD0000443802400838014000000240D5
:1035C0000004024000080240000C024000100240CB
:1035D0000014024000180240001C0240002002407B
:1035E00000240240083C01400AB1816101E00B0463
:1035F0008361704701480068704700001800002090
:10360000024692F83D0020281ED1242082F83D0079
:103610001068006820F00100136818601068406AA4
:1036200020F01000136858621068406A084313685D
:1036300058621068006840F001001368186020208C
:1036400082F83D00002070470220FCE710B50246DA
:103650000B46002192F83D0020281DD1242082F83D
:103660003D001068006820F00100146820601068B8
:10367000406A81B221F00F0141EA030081B2106873
:1036800041621068006840F001001468206020204A
:1036900082F83D00002010BD0220FCE770B5044612
:1036A0000CB9012070BD94F83D0028B9002084F8C1
:1036B0003C00204600F010FB242084F83D002068E8
:1036C000006820F00100216808602068006840F46C
:1036D0000040216808602068006820F400402168EC
:1036E000086000F0A1FD05465C496068884206D884
:1036F0005B48854201D2012007E0002005E05948DF
:10370000854201D2012000E00020012800D1C9E754
:103710005548B5FBF0F62068406820F03F00304384
:10372000216848604D496068884201D8701C07E0F4
:103730004FF4967070434FF47A71B0FBF1F0401C77
:103740002168096A21F03F01084321680862434962
:103750006068884214D8681E61684900B0FBF1F0C7
:10376000401CC0F30B00042801D204203DE0681E79
:1037700061684900B0FBF1F0401CC0F30B0034E07D
:10378000A06838B9681E616801EB4101B0FBF1F037
:10379000401C0AE0681E616801EBC10202EB0111E6
:1037A000B0FBF1F0401C40F48040C0F30B0008B9BE
:1037B00001201AE0A06848B9681E616801EB410168
:1037C000B0FBF1F0401CC0F30B000CE0681E616818
:1037D00001EBC10202EB0111B0FBF1F0401CC0F3A0
:1037E0000B0040F4804040F400402168C9694CF669
:1037F000FF72914308432168C861D4E90701084377
:103800002168096821F0C001084321680860D4E9F3
:10381000031008432168896848F2FF329143084346
:1038200021688860D4E9050108432168C96821F04E
:10383000FF0108432168C8602068006840F001006B
:103840002168086000202064202084F83D000020CA
:10385000206384F83E0000BF24E70000A08601003A
:1038600080841E0000093D0040420F002DE9FC5FEE
:1038700004460F4690469946DDE90CAB0E9EFFF7D5
:10388000B9FE054694F83D00202870D11923012285
:10389000B5492046009502F07CFA10B10220BDE83F
:1038A000FC9F00BF94F83C00012801D10220F6E7FC
:1038B000012084F83C0000BF2068006800F001008F
:1038C00028B92068006840F001002168086020687D
:1038D000006820F4006021680860222084F83D0020
:1038E000402084F83E0000202064C4F824A0A4F8FE
:1038F0002AB0608D20859D48E0624B46424639469D
:103900002046CDE9006502F0F1F808B10120C6E7D4
:10391000208D88B900BF0020019020684069019087
:1039200020688069019000BF00BF2068006840F4F3
:1039300000702168086040E0208D012818D12068BF
:10394000006820F480602168086000BF00200190BA
:1039500020684069019020688069019000BF00BF25
:103960002068006840F400702168086025E0F8E0F5
:10397000208D022816D12068006820F4806021681C
:1039800008602068006840F400602168086000BF9B
:1039900000200190206840690190206880690190B2
:1039A00000BF0AE000BF002001902068406901903C
:1039B00020688069019000BF00BFC3E0208D03280C
:1039C0007ED8208D012815D12A463146204602F0A6
:1039D000BCFA08B1012062E720680069616A0870DA
:1039E000606A401C6062208D401E2085608D401EF4
:1039F0006085A7E0208D02282AD1334600225C4949
:103A00002046009502F0C5F908B1012047E720687B
:103A1000006840F400702168086020680069616AED
:103A20000870606A401C6062208D401E2085608D99
:103A3000401E608520680069616A0870606A401CE9
:103A40006062208D401E2085608D401E608579E07B
:103A50003346002246492046009502F09AF908B103
:103A600001201CE72068006820F48060216808605D
:103A700020680069616A0870606A401C6062208D7D
:103A8000401E2085608D401E6085334600223849E7
:103A90002046009502F07DF908B10120FFE620687C
:103AA000006840F400702168086020680069616A5D
:103AB0000870606A401C6062208D401E208500E016
:103AC00010E0608D401E608520680069616A0870A2
:103AD000606A401C6062208D401E2085608D401E03
:103AE00060852FE02A463146204602F02EFA08B1C2
:103AF0000120D4E620680069616A0870606A401C91
:103B00006062208D401E2085608D401E608520688B
:103B10004069C0F38000A8B1208D032805D120683A
:103B2000006820F480602168086020680069616A8C
:103B30000870606A401C6062208D401E2085608D88
:103B4000401E6085208D00287FF438AF202084F847
:103B50003D00002084F83E0000BF84F83C0000BF18
:103B60009DE602209BE60000020010000000FFFF1F
:103B7000040001002DE9FC5F04460F46904699467B
:103B8000DDE90CAB0E9EFFF735FD054694F83D00D0
:103B900020287DD1192301224D492046009502F0AD
:103BA000F8F810B10220BDE8FC9F00BF94F83C007B
:103BB000012801D10220F6E7012084F83C0000BF73
:103BC0002068006800F0010028B92068006840F013
:103BD0000100216808602068006820F40060216806
:103BE0000860212084F83D00402084F83E00002039
:103BF0002064C4F824A0A4F82AB0608D208535483C
:103C0000E0624B46424639462046CDE9006502F067
:103C10001DF808B10120C6E731E02A4631462046AA
:103C200002F0D8F950B1206C042805D12068006852
:103C300040F40070216808600120B4E7606A0078F1
:103C400021680861606A401C6062208D401E2085EA
:103C5000608D401E608520684069C0F3800070B1AF
:103C6000208D60B1606A007821680861606A401C3C
:103C70006062208D401E2085608D401E6085208DF5
:103C80000028CAD12A463146204602F04FF800E00B
:103C90001CE050B1206C042805D12068006840F475
:103CA00000702168086001207DE72068006840F40A
:103CB000007021680860202084F83D00002084F80E
:103CC0003E0000BF84F83C0000BF6CE702206AE7BA
:103CD000020010000000FFFF10B586B0044614215A
:103CE00001A8FCF700FD2A49206888424DD100BF99
:103CF000002000902748006840F004002549086033
:103D00000846006800F00400009000BF00BF00BF3C
:103D1000002000900846006840F001000860084656
:103D2000006800F00100009000BF00BF481501903E
:103D3000122002900120039003200490042005909B
:103D400001A91548FFF748FB4FF48070019012203D
:103D5000029001200390032004900420059001A903
:103D60000E48FFF739FB00BF0020009009481030D3
:103D7000006840F4000007491031086008460068F8
:103D800000F40000009000BF00BF06B010BD0000AE
:103D9000005C004030380240000802400000024051
:103DA00003480068034909780844014908607047DE
:103DB000180000202000002010B50D48006840F4D5
:103DC00000700B4908600846006840F48060086095
:103DD0000846006840F480700860032000F0E0F8B6
:103DE0000F2000F007F800F05FF8002010BD000081
:103DF000003C02402DE9F04188B004460027B84657
:103E000000BF002001902348006840F010002149C5
:103E100008600846006800F01000019000BF00BF75
:103E200002A903A800F0D8F9069F1FB900F0FCF919
:103E3000054602E000F0F8F945001748B5FBF0F040
:103E4000A0F1010815481649086040F2E73114480E
:103E5000C160C0F80480002101618160816100F0CF
:103E60002FFF064696B90E4800F090FF06466EB941
:103E7000362000F043F8102C07D2002221463620CD
:103E800000F050F80748046000E00126304608B012
:103E9000BDE8F0814038024040420F000010004071
:103EA000340E00201C00002008B500BF0020009048
:103EB0001148006840F480400F49086008460068D7
:103EC00000F48040009000BF00BF00BF00200090C1
:103ED000081F006840F08050091F0860084600680D
:103EE00000F08050009000BF00BF00220F21901E04
:103EF00000F018F808BD00004438024001460846AA
:103F000000280DDB00BF00BF00F01F0301229A4014
:103F100043099B0003F1E023C3F8002100BF00BF69
:103F200000BF70472DE9F05F80460D46164600271A
:103F300006F0BCFB074639462A46334601F0070027
:103F4000C0F1070ABAF1040F02D94FF0040A01E0E8
:103F5000C0F1070AD14600F1040ABAF1070F02D2F4
:103F60004FF0000A01E0A0F1030AD4464FF0010A25
:103F70000AFA09FAAAF1010A0AEA020A0AFA0CFA8A
:103F80004FF0010B0BFA0CFBABF1010B0BEA030B2F
:103F90004AEA0B042146404606F090FBBDE8F09F3C
:103FA00000BF00F00702064B19684FF6FF031940E7
:103FB000044B0B4343EA0221014B196000BF7047D9
:103FC0000CED00E00000FA0538B5002400BF002029
:103FD00000901D48006840F080501B49086008466A
:103FE000006800F08050009000BF00BF012017491A
:103FF0000864FFF7FFFA044607E0FFF7FBFA001B2F
:10400000B0F57A7F01D9032038BD1148406800F42B
:104010008030B0F5803FF0D101200C494864FFF7B3
:10402000E9FA044607E0FFF7E5FA001BB0F57A7FEE
:1040300001D90320E8E70648406800F40030B0F5F5
:10404000003FF0D10020DFE74038024000000E4280
:104050000070004070B504460D460CB9012070BDDB
:104060005848006800F00F00A84209D255490D7069
:104070000846006800F00F00A84201D00120EEE7DA
:10408000207800F0020002281DD1207800F0040002
:10409000042805D14C48006840F4E0504A490860C3
:1040A000207800F00800082805D14748006840F44F
:1040B0006040454908604448006820F0F000A1686D
:1040C000084341490860207800F00100A8B3606807
:1040D000012807D13C4808380068C0F34040B8B90F
:1040E0000120BCE76068022802D06068032807D17D
:1040F000354808380068C0F3406048B90120AEE791
:10410000314808380068C0F3400008B90120A6E72C
:104110002D48006820F00300616808432A490860C0
:10412000FFF768FA064609E0FFF764FA801B41F2E0
:104130008831884202D9032091E707E022480068CD
:1041400000F00C006168B0EB810FEDD11D480068F4
:1041500000F00F00A84209D91A490D7008460068FE
:1041600000F00F00A84201D0012078E7207800F08D
:104170000400042807D11448006820F4E050E168E6
:10418000084311490860207800F00800082808D189
:104190000D48006820F46040216940EAC1000A49E6
:1041A000086000F061F808490968C1F30311074A83
:1041B000515CC8400649086006480068FFF71AFECF
:1041C00000204CE7003C024008380240CC080108BF
:1041D000240000201C0000200F2202600D4A1268FB
:1041E00002F0030242600B4A126802F0F0028260A1
:1041F000084A126802F4E052C260064A126802F4E9
:104200006042D2080261044A126802F00F020A609A
:104210007047000008380240003C02400148006836
:10422000704700002400002000B5FFF7F7FF0449A5
:104230000968C1F38221034A515CC84000BD0000F7
:1042400008380240DC08010800B5FFF7E7FF044921
:104250000968C1F34231034A515CC84000BD000007
:1042600008380240DC0801082DE9F0470024002549
:104270000026A1462548006800F00C0020B1042863
:1042800005D008283AD105E0DFF8849039E0DFF85E
:10429000849036E01D48001F006800F03F041B4872
:1042A000001F006800F4800078B11A481749091F00
:1042B0000968C1F38811A0FB017001462246002362
:1042C0003846FCF7D9F805460EE011480F49091F9A
:1042D0000968C1F38811A0FB017001462246002342
:1042E0003846FCF7C9F805460848001F0068C0F3C7
:1042F0000140401C4600B5FBF6F902E0DFF81090E3
:1043000000BF00BF4846BDE8F08700000838024003
:104310000024F400001BB700F8B504460CB90120D6
:10432000F8BD207800F00100002874D0F94800683A
:1043300000F00C0004280DD0F648006800F00C00D6
:10434000082813D1F348001F006800F48000B0F57E
:10435000800F0BD1EF4808380068C0F340400028B8
:1043600059D06068002856D10120D9E700BF6068A5
:10437000B0F5803F08D1E7480838006840F4803045
:10438000E449083908601EE06068B0F5A02F0DD13F
:10439000E0480838006840F48020DE4908390860A9
:1043A0000846006840F4803008600CE0D9480838BE
:1043B000006820F48030D749083908600846006852
:1043C00020F48020086000BF606890B1FFF712F908
:1043D000054606E0FFF70EF9401B642801D90320CB
:1043E0009EE7CC4808380068C0F340400028F1D070
:1043F00011E0FFF7FFF8054606E0FFF7FBF8401B6A
:10440000642801D903208BE7C24808380068C0F34C
:1044100040400028F1D1207800F0020002285FD14E
:10442000BC48006800F00C0058B1BA48006800F0C1
:104430000C0008281CD1B748001F006800F4800059
:10444000B0B9B44808380068C0F3400020B1E06853
:10445000012801D0012063E7AE480838006820F049
:10446000F800216940EAC100AA490839086037E02C
:10447000E06800B30120A8490860FFF7BBF80546D3
:1044800006E0FFF7B7F8401B022801D9032047E7F1
:10449000A04808380068C0F340000028F1D09D48CB
:1044A0000838006820F0F800216940EAC100994905
:1044B0000839086014E0002097490860FFF79AF86F
:1044C000054606E0FFF796F8401B022801D90320B5
:1044D00026E7904808380068C0F340000028F1D172
:1044E000207800F0080008282CD16069A8B10120CC
:1044F0008A490860FFF77EF8054606E0FFF77AF87C
:10450000401B022801D903200AE782486C3000686A
:10451000C0F340000028F1D014E000207F4908607B
:10452000FFF768F8054606E0FFF764F8401B02282D
:1045300001D90320F4E677486C300068C0F34000EE
:104540000028F1D1207800F00400042870D1002761
:1045500070483830006800F0805090B900BF0020EB
:1045600000906C483830006840F08050694938311C
:1045700008600846006800F08050009000BF00BF4F
:1045800001276748006800F48070B0B9644800688B
:1045900040F4807062490860FFF72CF8054606E099
:1045A000FFF728F8401B022801D90320B8E65C4831
:1045B000006800F480700028F2D000BFA0680128D5
:1045C00008D154486830006840F001005149683112
:1045D00008601DE0A06805280DD14E4868300068CD
:1045E00040F004004B49683108600846006840F01C
:1045F000010008600CE047486830006820F00100C6
:104600004449683108600846006820F004000860EA
:1046100000BFA068A8B1FEF7EDFF054609E0FEF770
:10462000E9FF401B41F28831884202D9032077E636
:1046300026E0384868300068C0F340000028EED01B
:1046400013E0FEF7D7FF054608E0FEF7D3FF401B57
:1046500041F28831884201D9032061E62D48683053
:104660000068C0F340000028EFD1012F07D129488E
:104670003830006820F0805026493831086000BF8B
:10468000A069002845D02348006800F00C000828E5
:104690005DD0A069022845D100201F490866FEF7B9
:1046A000A9FF054606E0FEF7A5FF401B022801D939
:1046B000032035E6174808380068C0F3406000283A
:1046C000F1D1D4E907010843616A40EA811101226E
:1046D000A06AC2EB500041EA00412C20005D41EA93
:1046E00000600C49091F086001200B490866FEF7AD
:1046F00081FF054606E0FEF77DFF401B022801D939
:1047000003200DE6034808380068C0F34060002825
:10471000F1D049E00838024000004742800E47428D
:1047200000700040002021490866FEF763FF05463F
:1047300006E0FEF75FFF401B022801D90320EFE5EA
:104740001B480068C0F340600028F2D12CE0A0694B
:10475000012800D1E4E51648001D0668A06901287B
:1047600020D006F48001E06981421BD106F03F01B0
:10477000206A814216D147F6C0703040616AB0EBC2
:10478000811F0FD106F440310122A06AC2EB500014
:10479000B1EB004F06D106F070612C20005DB1EB4B
:1047A000006F01D00120BBE50020B9E500004742C1
:1047B0000038024010B504460CB9012010BD606AF3
:1047C00038B96068B0F5827F00D105E00021E16171
:1047D00002E00021216161610021A16294F8510091
:1047E00028B9002084F85000204600F047F8022045
:1047F00084F851002068006820F0400021680860BB
:10480000A08800F48270218901F404410843A18941
:1048100001F400610843217C01F002010843217D7D
:1048200001F001010843218B01F400710843217F4D
:1048300001F0380108432021095D01F0800108439F
:10484000218D01F400510843216808600421A0690A
:1048500001EA104094F8241001F010010843216887
:1048600048602068C06920F400602168C8610020A9
:104870006065012084F8510000209FE710B586B0E4
:104880000446142101A8FBF72EFF484920688842FE
:104890007ED100BF002000904548006840F4805061
:1048A000434908600846006800F48050009000BF4B
:1048B00000BF00BF002000903D481438006840F061
:1048C00002003B49143908600846006800F0020005
:1048D000009000BF00BF00BF0020009008460068A5
:1048E00040F0010008600846006800F001000090F8
:1048F00000BF00BF18200190022002900120039009
:10490000032004900520059001A92A48FEF764FDC4
:104910008020019002200290012003900320049047
:104920000520059001A92448FEF756FD2348244997
:1049300008604FF0C0604860002121488160C1607C
:104940004FF480610161002141618161C1610162B7
:104950004162FEF757FB08B1FDF7DBF900BF1848CD
:10496000E064846300BF15484830164908604FF082
:10497000C06048604021134881600021C1604FF44D
:1049800080610161002141618161C161016200E0DA
:104990000AE04162FEF736FB08B1FDF7BAF900BF45
:1049A0000848A064846300BF06B010BD0030014019
:1049B00044380240000402400000024010640240FB
:1049C000CC0900202C0A00202DE9FF5F0446884610
:1049D00091461D460E9E012002900020019000BFCE
:1049E00094F85000012803D1022004B0BDE8F09FE4
:1049F000012084F8500000BFFEF7FCFD074694F844
:104A000051B060680390AA46BBF1010F0BD0039828
:104A1000B0F5827F04D1A06810B9BBF1040F02D0B9
:104A200002200190E9E0B8F1000F03D0B9F1000FC6
:104A300000D015B901200190DFE094F8510004285E
:104A400002D0052084F8510000206065C4F8389039
:104A5000E587A587C4F83080E586A5862064606474
:104A60002068006800F04000402805D020680068F9
:104A700040F0400021680860E068B0F5006F4DD15B
:104A8000606810B1BAF1010F09D1206B008821686C
:104A9000C860206B801C2063E08E401EE08636E0FC
:104AA0002068806800F00200022810D1E08E70B10A
:104AB000029801280BD1206B00882168C860206B08
:104AC000801C2063E08E401EE0860020029020685B
:104AD000806800F0010068B1E08F58B12068C068BC
:104AE000A16B0880A06B801CA063E08F401EE08754
:104AF00001200290FEF77EFDC01BB04207D3701C60
:104B000028B103200190012084F8510075E0E08E67
:104B10000028C5D1E08F0028C2D14DE0606810B1F7
:104B2000BAF1010F09D1206B007821680873206B5E
:104B3000401C2063E08E401EE08637E020688068DD
:104B400000F00200022810D1E08E70B10298012816
:104B50000BD1206B007821680873206B401C206308
:104B6000E08E401EE086002002902068806800F001
:104B7000010068B1E08F58B12068C068A16B08706F
:104B8000A06B401CA063E08F401EE08701200290D4
:104B9000FEF730FDC01BB04201D3701C00B92EB926
:104BA00003200190012084F8510026E0E08E0028C7
:104BB000C4D1E08F0028C1D13A463146204604F0E6
:104BC000E1FD20B1012001902020606515E0A06882
:104BD00050B900BF002000902068C0680090206895
:104BE0008068009000BF00BF606D10B1012001908F
:104BF00002E0012084F8510000BF00BF002084F8CB
:104C0000500000BF0198F0E67047704730B502468B
:104C10000B4600BF92F83C00012801D1022030BDB4
:104C2000012082F83C0000BF022082F83D0010689D
:104C300044681068816824F07004186804431068A0
:104C40004460184D1068A8421BD01068B0F1804F26
:104C500017D0154D1068A84213D0144D1068A84203
:104C60000FD0134D1068A8420BD0124D1068A84207
:104C700007D0114D1068A84203D0104D1068A8420B
:104C800005D121F08001586801431068816001203E
:104C900082F83D0000BF002082F83C0000BF00BF4A
:104CA000BDE7000000000140000400400008004093
:104CB000000C00400004014000400140001800408A
:104CC00010B504460CB9012010BD94F83D0028B978
:104CD000002084F83C00204600F026F8022084F8EA
:104CE0003D00211D206804F087FE012084F8460065
:104CF00000BF84F83E0001213F20015540200155AE
:104D00004120015500BF00BF012084F8420043202C
:104D10000155442001554520015500BF012084F86C
:104D20003D000020D0E7000008B5154A0168914217
:104D30000FD100BF002100911249096841F0040120
:104D4000104A11601146096801F00401009100BF8A
:104D500015E00D4A0168914211D100BF0021009178
:104D60000849091D096841F40031064A121D116005
:104D70001146096801F40031009100BF00BF08BD71
:104D8000000800404038024000440140014691F8CC
:104D90003D00012801D001207047022081F83D002C
:104DA0000868C06840F001000B68D8601A4B0868BA
:104DB00098421BD00868B0F1804F17D0174B086895
:104DC000984213D0164B086898420FD0154B0868CC
:104DD00098420BD0144B0868984207D0134B0868D0
:104DE000984203D0124B086898420CD1086880683A
:104DF00000F00702062A0CD00868006840F00100A5
:104E00000B68186005E00868006840F001000B6856
:104E100018600020C0E700000000014000040040CE
:104E200000080040000C0040000401400040014028
:104E3000001800402DE9F04104460D46002700BF50
:104E400094F83C00012802D10220BDE8F081012045
:104E500084F83C0000BF022084F83D00206886688A
:104E600026F0770626F47F4620688660286850285A
:104E700033D00CDC202850D004DC00284BD0102884
:104E800051D149E0302849D040284CD139E0602840
:104E90002DD0702807D0B0F5805F03D0B0F5005F4B
:104EA00041D10DE041E0D5E902136A68206804F0C1
:104EB00017FE2068866846F077062068866034E032
:104EC000D5E902136A68206804F00AFE2068806849
:104ED00040F480402168886027E0EA6869682068BB
:104EE00004F0EEFE5021206804F005FE1DE0EA68A3
:104EF0006968206804F0F7FE6021206804F0FBFD7B
:104F000013E0EA686968206804F0DAFE402120684E
:104F100004F0F1FD09E000BF00BF00BF2968206870
:104F200004F0E9FD01E0012700BF00BF012084F883
:104F30003D0000BF002084F83C0000BF384684E7F5
:104F4000704770B504462068C5682068066906F099
:104F50000200022819D105F00200022815D1401FD5
:104F600021680861012020772068806900F0030033
:104F700018B12046FFF7E4FF05E0204600F0F0F806
:104F8000204600F0A4F90020207706F00400042851
:104F900019D105F00400042815D1C0432168086127
:104FA000022020772068806900F4407018B1204604
:104FB000FFF7C6FF05E0204600F0D2F8204600F0DB
:104FC00086F90020207706F00800082819D105F09E
:104FD0000800082815D1C043216808610420207703
:104FE0002068C06900F0030018B12046FFF7A8FF51
:104FF00005E0204600F0B4F8204600F068F90020F3
:10500000207706F01000102819D105F010001028A4
:1050100015D1C04321680861082020772068C06945
:1050200000F4407018B12046FFF78AFF05E02046E3
:1050300000F096F8204600F04AF90020207706F0AC
:10504000010048B105F0010030B16FF001002168A6
:105050000861204600F03CF906F08000802809D164
:1050600005F08000802805D1C043216808612046F2
:10507000FFF7CAFD06F04000402809D105F04000C6
:10508000402805D1C04321680861204600F02CF972
:1050900006F02000202809D105F02000202805D1A5
:1050A000C043216808612046FFF7AFFD70BD0000D6
:1050B00010B586B00446142101A8FBF714FB234960
:1050C000206888421ED100BF002000902048006860
:1050D00040F008001E4908600846006800F008001B
:1050E000009000BF00BF4FF480400190022002906A
:1050F0000120039002200490059001A91548FEF7B5
:105100006BF921E01449206888421DD100BF0020BE
:1051100000900F48006840F020000D4908600846E4
:10512000006800F02000009000BF00BF4020019008
:105130000220029001200390022004900320059099
:1051400001A90648FEF748F906B010BD0008004066
:1051500030380240000C024000440140001402407C
:1051600070472DE9F04104460D461646002700BF62
:1051700094F83C00012802D10220BDE8F081012012
:1051800084F83C0000BF36B1042E1BD0082E31D06D
:105190000C2E5ED145E02946206804F0B5FC20685D
:1051A000806940F00800216888612068806920F0EB
:1051B00004002168886120688069296908432168A2
:1051C000886148E02946206804F0D6FC20688069A0
:1051D00040F40060216888612068806920F4806064
:1051E0002168886120688069296940EA0120216876
:1051F000886130E02946206804F0FCFC2068C06922
:1052000040F008002168C8612068C06920F00400EF
:105210002168C8612068C069296908432168C8619C
:1052200019E02946206804F021FD2068C06940F497
:1052300000602168C8612068C06920F4806021682E
:10524000C8612068C069296940EA01202168C861F5
:1052500001E0012700BF00BF00BF002084F83C0030
:1052600000BF384689E710B504460CB9012010BDCF
:1052700094F83D0028B9002084F83C00204600F056
:1052800025F8022084F83D00211D206804F0B4FBBD
:10529000012084F8460000BF84F83E0001213F2031
:1052A0000155402001554120015500BF00BF01209C
:1052B00084F8420043200155442001554520015502
:1052C00000BF012084F83D000020D0E77047704700
:1052D00010B5044603492068884201D1FEF760FDFD
:1052E00010BD0000001000407047704770B50446C4
:1052F000002520684069C0F3C01594F841002128BA
:1053000017D1B5B100BF00BF2168143151E8001FAB
:1053100021F080002168143141E80002002AF3D115
:1053200000BFA06B10B1A06BFDF7E1FC204604F0BC
:10533000E5FD20684069C0F3801594F842002228FA
:1053400017D1B5B100BF00BF2168143151E8001F6B
:1053500021F040002168143141E80002002AF3D115
:1053600000BFE06B10B1E06BFDF7C1FC204604F01C
:105370007FFD002070BD70472DE9F84F044620687E
:1053800005682068C668206847694FF00009CA466A
:1053900005F00F09B9F1000F0AD105F0200038B16E
:1053A00006F0200020B1204604F0BBFDBDE8F88FD8
:1053B000B9F1000F7CD007F0010018B906F4907025
:1053C000002875D005F0010030B106F4807018B1E6
:1053D000606C40F00100606405F0040030B107F03B
:1053E000010018B1606C40F00200606405F002003A
:1053F00030B107F0010018B1606C40F00400606447
:1054000005F0080048B106F0200010B907F00100CF
:1054100018B1606C40F008006064606C002846D0F1
:1054200005F0200028B106F0200010B1204604F05D
:1054300078FD20684069C0F3801A606C00F00800B5
:1054400010B9BAF1000F2DD0204604F011FD2068EC
:10545000406900F04000402820D100BF00BF216813
:10546000143151E8001F21F040002168143141E857
:105470000002002AF3D100BFE06B50B17748E16B26
:105480000865E06BFDF789FC88B1E06B016D88472A
:105490000DE02046FFF76FFF09E009E02046FFF727
:1054A0006AFF04E02046FFF766FF002060647DE7A6
:1054B000206B012878D105F01000002874D006F088
:1054C00010000028FAD000BF00200090206800687B
:1054D000009020684068009000BF00BF20684069CD
:1054E00000F04000402860D1E06B006840681FFA7F
:1054F00080F8B8F1000F56D0A08D404553DDA4F8D8
:105500002E80E06BC069B0F5807F43D000BF00BF44
:1055100021680C3151E8001F21F4807021680C31A2
:1055200041E80002002AF3D100BF00BF00BF21689C
:10553000143151E8001F21F001002168143141E8C5
:105540000002002AF3D100BF00BF00BF2168143160
:1055500051E8001F21F040002168143141E80002A9
:10556000002AF3D100BF202084F8420000202063ED
:1055700000BF00BF21680C3151E8001F21F010006E
:1055800021680C3141E80002002AF3D100BFE06B32
:10559000FDF7ADFB02206063A08DE28D801A81B221
:1055A0002046FFF7A2FE01E742E0A08DE18D401A00
:1055B0001FFA80F8E08DD0B3B8F1000F37D000BFEC
:1055C00000BF21680C3151E8001F21F49070216860
:1055D0000C3141E80002002AF3D100BF00BF00BF38
:1055E0002168143151E8001F21F0010021681431B5
:1055F00041E80002002AF3D100BF202084F84200D5
:105600000020206300BF00BF21680C3151E8001F5B
:1056100021F0100021680C3141E80002002AF3D18A
:1056200000BF0220606341462046FFF75EFEBDE6F4
:1056300005F0800030B106F0800018B1204604F07B
:1056400069FEB3E605F0400030B106F0400018B145
:10565000204604F043FCA9E600BFA7E6359D0008FC
:1056600010B504460CB9012010BDA06900B100E0DE
:1056700000BF94F8410028B9002084F8400020467B
:1056800000F02AF8242084F841002068C06820F443
:1056900000502168C860204604F0C2FC2068006900
:1056A00020F49040216808612068406920F02A00B9
:1056B000216848612068C06840F400502168C860D3
:1056C00000206064202084F8410084F8420000201B
:1056D000606300BFC8E7000010B586B0044614211F
:1056E00001A8FBF700F8BC492068884275D100BFCB
:1056F00000200090B948006840F08040B749086039
:105700000846006800F08040009000BF00BF00BF66
:1057100000200090B1481038006840F01000AF49F8
:10572000103908600846006800F01000009000BFC3
:1057300000BF4FF4C070019002200290002003903F
:10574000032004900820059001A9A548FDF744FE18
:10575000A448A54908604FF0206048600021A24895
:105760008160C1604FF4806101610021416181610C
:10577000C16101624162FDF745FC08B1FCF7C9FA5D
:1057800000BF9948E063846300BF9648303897496A
:105790000860800548604021944881600021C16014
:1057A0004FF480610161002141618161C161016249
:1057B0004162FDF727FC08B1FCF7ABFA00BF8B484C
:1057C000A063846300BF002205215220FEF7AAFBDC
:1057D0005220FEF793FBFCE0FFE7854920688842F2
:1057E00075D100BF002000907C48006840F0004068
:1057F0007A4908600846006800F00040009000BF49
:1058000000BF00BF0020009074481038006840F0CE
:1058100010007249103908600846006800F0100056
:10582000009000BF00BF03200190022002900020E2
:105830000390032004900820059001A96848FDF713
:10584000CBFD684848306B4908600005486000217E
:1058500068488160C1604FF480610161002141614D
:105860008161C16101624162FDF7CCFB08B1FCF7C7
:1058700050FA00BF5F48E063846300BF594848386E
:105880005D4908604FF02060486040215A488160BF
:105890000021C1604FF4806101610021416181619B
:1058A000C16101624162FDF7ADFB08B1FCF731FA5D
:1058B00000BF5148A063846300BF0022052153202C
:1058C000FEF730FB5320FEF719FB82E0FFE74B4960
:1058D000206888427DD100BF002000903F48001D15
:1058E000006840F020003D49091D08600846006836
:1058F00000F02000009000BF00BF00BF002000901B
:1059000036481038006840F04000344910390860CB
:105910000846006800F04000009000BF00BF4FF450
:105920008440019002200290002003900320049004
:105930000820059001A93248FDF74EFD3148324953
:1059400008608005486000212F488160C1604FF4E5
:10595000806101610021416181614FF48071C16109
:105960004FF44031016200214162FDF74BFB08B169
:10597000FCF7CFF900BF2448E063846300BF2148EF
:105980007830224908604FF02060486040211F486D
:1059900081600021C1604FF480610161002141619B
:1059A00081614FF48071C161002101624162FDF7A4
:1059B00029FB08B1FCF7ADF900BF1448A06384636C
:1059C00000BF002205214720FEF7ACFA4720FEF772
:1059D00095FA06B010BD0000007800404038024043
:1059E0000010024058600240F40B0020540C0020CC
:1059F000007C0040B40C0020140D00200014014075
:105A00000018024028640240740D0020D40D0020CC
:105A100070B504460D46164694F8420020280BD176
:105A200005B10EB9012070BD002020633246294621
:105A3000204604F00BFCF6E70220F4E770477047BD
:105A400010B5034693F84100202813D101B10AB9DB
:105A5000012010BD19629A84DA8400205864212044
:105A600083F841001868C06840F080001C68E0605E
:105A70000020EEE70220ECE710B504460749206855
:105A8000884209D1002280210548FDF7ADFD054877
:105A90000068401C0349086010BD0000001401406C
:105AA000002002403C02002000BFFEE701460868DB
:105AB0004069C0F38020B0B16FF480600A68506123
:105AC00000200863202081F83D00002081F83E007E
:105AD000086C40F00400086400BF002081F83C001E
