:020000040800F2
:10000000A85A00204D030008DD430008533D0008B6
:10001000D9430008F9080008C9540008000000008E
:100020000000000000000000000000008D02000839
:100030000F0B000800000000E902000889460008D4
:1000400067030008670300086703000867030008E8
:1000500067030008670300086703000867030008D8
:100060006703000867030008670300089509000894
:10007000A509000867030008B50900086703000820
:10008000C5090008D50900086703000867030008D0
:10009000FD0800086703000867030008110B00084B
:1000A0006703000867030008670300086703000888
:1000B0006703000867030008670300086703000878
:1000C0006703000867030008670300086703000868
:1000D0006703000867030008F15100080152000897
:1000E0006703000867030008670300086703000848
:1000F0006703000867030008670300086703000838
:100100006703000867030008670300086703000827
:10011000D94A0008670300088D47000867030008F4
:1001200067030008E5090008670300086703000883
:1001300067030008670300086703000867030008F7
:1001400067030008670300086703000867030008E7
:1001500067030008F509000867030008115200084A
:1001600067030008670300086703000867030008C7
:100170006703000867030008670300080000000029
:100180006703000867030008E94A0008FD4A000801
:100190006703000867030008670300086703000897
:1001A00000000000000000006703000800F002F8F3
:1001B00000F05CF80AA090E8000C82448344AAF1A5
:1001C0000107DA4501D100F051F8AFF2090EBAE8A3
:1001D0000F0013F0010F18BFFB1A43F0010318477B
:1001E000B0C20000D0C200000A444FF0000C10F86A
:1001F000013B13F0070408BF10F8014B1D1108BFA5
:1002000010F8015B641E05D010F8016B641E01F844
:10021000016BF9D113F0080F1EBF10F8014BAD1C94
:100220000C1B09D16D1E58BF01F801CBFAD505E0B2
:1002300014F8016B01F8016B6D1EF9D59142D6D30C
:10024000704700000023002400250026103A28BF34
:1002500078C1FBD8520728BF30C148BF0B60704738
:100260001FB50BF039FE1FBD10B510BD00F0FCF935
:100270001146FFF7F5FF07F055FF00F01AFA03B437
:10028000FFF7F2FF03BC00F07FFA00002C4B196867
:100290000868B0E8F04F80F30988BFF36F8F4FF024
:1002A000000080F3118870470000000008480068D3
:1002B000006880F308884FF0000080F3148862B66D
:1002C00061B6BFF34F8FBFF36F8F00DF00BF00BF7A
:1002D00008ED00E0DFF80C00016841F470010160F6
:1002E000704700BF88ED00E0EFF30980BFF36F8F28
:1002F000134B1A681EF0100F08BF20ED108A20E97A
:10030000F04F106009B44FF0500080F31188BFF334
:100310004F8FBFF36F8F09F055FB4FF0000080F354
:10032000118809BC19680868B0E8F04F1EF0100F7A
:1003300008BFB0EC108A80F30988BFF36F8F704755
:1003400038000020EFF3058070470000094880471F
:1003500009480047FEE7FEE7FEE7FEE7FEE7FEE7A7
:10036000FEE7FEE7FEE7FEE704480549054A064BBF
:100370007047000079470008AD010008A85400202C
:10038000A85A0020A8560020A856002053EA020CC4
:1003900000F069802DE9F04B4FF00006002B1FBFE5
:1003A000B3FA83F503FA05F424FA05F65E4012BFAA
:1003B0001643B2FA82F502FA05F4C5F120051EBF14
:1003C00022FA05FC44EA0C04203556EA044C4FEAB4
:1003D000144418BF641C4FF000084FF0000990420D
:1003E00071EB030C39D3002919BFB1FA81F701FA77
:1003F00007F6B0FA80F700FA07F6C7F120071EBF2C
:1004000020FA07FC46EA0C062037B6FBF4FCA7EB03
:100410000507103F07F01F0BCBF120060CFA0BFB72
:100420002CFA06F644BFB3460026202FA4BF5E4632
:100430004FF0000B5BEA060C08BF4FF0010B19EB05
:100440000B09ABFB027C48EB0608C01B06FB02CC89
:100450000BFB03CC71EB0C01C1E70B460246414696
:100460004846BDE8F08B13B54FF000004FF0000197
:10047000AFF30080BDE81C407047032A40F2308093
:1004800010F0030C00F0158011F8013BBCF1020FD5
:10049000624498BF11F801CB00F8013B38BF11F856
:1004A000013BA2F1040298BF00F801CB38BF00F86D
:1004B000013B11F0030300F02580083AC0F00880EA
:1004C00051F8043B083A51F804CBA0E80810F5E7CE
:1004D000121D5CBF51F8043B40F8043BAFF30080B1
:1004E000D20724BF11F8013B11F801CB48BF11F826
:1004F000012B24BF00F8013B00F801CB48BF00F8F6
:10050000012B704710B5203AC0F00B80B1E81850AD
:10051000203AA0E81850B1E81850A0E81850BFF4ED
:10052000F5AF5FEA027C24BFB1E81850A0E818508C
:1005300044BF18C918C0BDE810405FEA827C24BFE0
:1005400051F8043B40F8043B08BF7047D20728BF6E
:1005500031F8023B48BF11F8012B28BF20F8023BBD
:1005600048BF00F8012B704702F0FF0343EA032263
:1005700042EA024200F037B84FF0000200B51346DD
:1005800094469646203922BFA0E80C50A0E80C50B3
:10059000B1F12001BFF4F7AF090728BFA0E80C5064
:1005A00048BF0CC05DF804EB890028BF40F8042B5D
:1005B00008BF704748BF20F8022B11F0804F18BFCA
:1005C00000F8012B704770477047704710B500F076
:1005D0002BF8006810BD10B5044600F025F8046043
:1005E00010BD4FF000020429C0F0128010F0030C7F
:1005F0003FF4C4AFCCF1040CBCF1020F18BF00F8FB
:10060000012BA8BF20F8022BA1EB0C01FFF7B6BF0E
:100610005FEAC17C24BF00F8012B00F8012B48BF22
:1006200000F8012B70470000004870474854002034
:100630001FB584B000200A9C06AB04AA02A900944E
:10064000AFF3008018B1DDE9020108B010BD034826
:10065000204000F037F800200146F6E70000207C3B
:1006600000487047485400207546FFF7F9FFAE4632
:1006700005006946534620F00700854618B020B5AE
:10068000FFF772FEBDE820404FF000064FF0000774
:100690004FF000084FF0000B21F00701AC46ACE82A
:1006A000C009ACE8C009ACE8C009ACE8C0098D4697
:1006B000704710B50446AFF300802046BDE81040F7
:1006C000FFF7DDBD10B500F009F8BDE81040AFF34D
:1006D0000080002801D000F057B8704710B50228FC
:1006E00003D0410103D50DA112E0002010BD01018E
:1006F00001D50FA10CE0C10001D511A108E08100D6
:1007000001D512A104E0400001D513A100E00021B1
:1007100015A000F03FF8012010BD0000496E766181
:100720006C6964204F7065726174696F6E000000BF
:10073000446976696465204279205A65726F0000C9
:100740004F766572666C6F7700000000556E6465C9
:1007500072666C6F77000000496E65786163742083
:10076000526573756C7400005349474650453A20F2
:1007700041726974686D657469632065786365703A
:1007800074696F6E3A20000001491820ABBEFEE785
:100790002600020070B505460C460A2000E06D1CDC
:1007A00000F011F835B128780028F8D102E0641C77
:1007B00000F009F814B120780028F8D1BDE87040A5
:1007C0000A20AFF3008008B569468DF800000320C9
:1007D000ABBE08BD7047000010B59FED152ADFEDD8
:1007E000151A9FED151ADFED150A9FED150A15482C
:1007F00006F084FB08F00EFC6420134908804E22AA
:100800001249A1F14E0008F0A1FCDFED110AB0EE93
:10081000000A104A0021104803F000FFF6EE000A1B
:10082000B0EE000A0D4A00210D4803F0F7FE10BD9E
:10083000852B3C4300001643A410B3433D0AC3413B
:1008400000000C437C52002060520020AA5300207C
:10085000CDCC4C3E88C30008D051002094C3000882
:100860001852002040F2651008F052FF40F2651067
:1008700008F04EFF40F2651008F04AFF06F074FCE5
:1008800031E01948007858B30121084606F09CFC75
:10089000322007F053FD15480078401E1449085CCB
:1008A00014490978884202D01248007818B94FF4E8
:1008B000FA7007F043FD0D480078401E0C49085CB3
:1008C0000C490978884202D00A48007818B94FF4D8
:1008D000FA7007F033FD03F03FFA00200249087078
:1008E000052007F02BFDCCE70101002000010020CE
:1008F000614D00202400002000BFFEE710B5024833
:1009000000F0E7FB10BD0000D8080020F8B507464E
:100910000C4615461E464FF400700D490860002035
:100920008860C86008200861380A0A4908704F705A
:10093000200A8870CC70280A08714D71300A8871BD
:10094000CE716B460A460249034800F0C0F9F8BD73
:100950002C4D0020C6000020D808002038B50446E1
:1009600040F2FF100849086000208860C860082035
:100970000861200A054908704C706B460A46024916
:10098000034800F0A4F938BD444D0020CE000020FB
:10099000D808002010B5024800F076FF10BD000016
:1009A000600C002010B5024800F06EFF10BD000082
:1009B000A00B002010B5024800F066FF10BD00003B
:1009C000400B002010B5024800F05EFF10BD000093
:1009D000C00C002010B5024800F056FF10BD00000A
:1009E000000C002010B5024800F04EFF10BD0000C2
:1009F000200D002010B5024800F046FF10BD000099
:100A0000800D00200146087810381823B0FBF3F25F
:100A10000848805CC865032A05D908686FF3090097
:100A2000001D886503E008686FF309008865886D1C
:100A300070470000FCC20008014600208A6A8B69EA
:100A4000CBB932B1012A0DD0022A03D0032A10D12A
:100A50000EE000BFCB6A03F08073B3F1807F00D15A
:100A6000012007E0CB6AB3F1C07F00D1012001E093
:100A700000E000BF34E08B69B3F5005F1AD132B1FA
:100A8000012A07D0022A03D0032A11D10AE000BFAD
:100A900001200EE0CB6A03F08073B3F1807F00D1B8
:100AA000012006E0CB6AB3F1C07F00D1012000E055
:100AB00000BF15E032B1012A05D0022A04D0032A72
:100AC0000CD103E000BF00BF012008E0CB6A03F0B7
:100AD0008073B3F1807F00D1012000E000BF00BF30
:100AE000704730B50468246824F4802405682C60BD
:100AF000046863608468402C04D10468A2600468C0
:100B0000E16003E00468A1600468E26030BD704702
:100B100010B5202001F098F810BD72B600BFFEE7B6
:100B20008A78513000F8032C0A7900F8022C91F9E8
:100B3000062040F8012CCA79C270B1F90C2000EEF1
:100B4000102AF8EEC00A9FED501A80EE810A10EECE
:100B5000102A4260B1F90E2000EE102AB8EEC00A49
:100B60009FED4A1AC0EE010A9FED491A80EE810AF4
:100B700010EE102A82600A6900EE102A9FED441AD6
:100B8000C0EE010A10EE902AC260B1F91A2000EE00
:100B9000102AB8EEC00A9FED3D1AC0EE010A9FED83
:100BA0003C1A80EE810A10EE102A0261D1F81E2054
:100BB00000EE102AF8EEC00A9FED351A80EE810A89
:100BC0009FED341AC0EE010AB0EE000A20EE800A52
:100BD000DFED310A20EE200A10EE102A4261B1F951
:100BE000262000EE102AB8EEC00ADFED2C0A20EE17
:100BF000200A10EE102A82615138B1F9282000EE47
:100C0000102AB8EEC00ADFED250A20EE200A10EE09
:100C1000102AC0F86D20B1F92A2000EE102AB8EE93
:100C2000C00ADFED1E0A20EE200A10EE102AC0F8DE
:100C30007120B1F92C2000EE102AB8EEC00ADFEDC9
:100C4000180A20EE200A10EE102AC0F87520B1F91B
:100C50002E2000EE102AB8EEC00ADFED110A20EEB9
:100C6000200A10EE102AC0F87920B1F9302000EEE9
:100C7000102AB8EEC00ADFED0A0A20EE200A10EEB4
:100C8000102AC0F87D207047000080430000004318
:100C90009A99114100008046DA0F49407F8C8D3AC5
:100CA00039B41C3B10B5024692F82030012B01D01C
:100CB000022B06D110684069084314686061002067
:100CC00010BD506A40F4802050620120F8E7F0B572
:100CD00004460D461E4694F8207020688368A86874
:100CE00000B900E000BF012F01D0022F7DD103F039
:100CF000806030B903F0006018B903F0805000281C
:100D00007ED0C3F30161012088403060A86860B9DB
:100D1000B5F800C0E86840EA4C5C206800F5C07097
:100D200000EB0110C0F800C00FE0D5E901C040EAB7
:100D3000CC00D5F80CC040EA0C00D4F800C00CF58B
:100D4000C07C0CEB011CCCF80000D5F810C020686A
:100D500000F5C07000EB0110C0F804C0287D012828
:100D60000ED1206800F5C07000EB0110406840F41F
:100D7000807C206800F5C07000EB0110C0F804C052
:100D8000D079000692F806C040EA0C4092F805C0FF
:100D900040EA0C2092F804C040EA0C00D4F800C0ED
:100DA0000CF5C07C0CEB011CCCF80C00D0780006D4
:100DB00092F802C040EA0C4092F801C040EA0C20D0
:100DC00092F800C040EA0C00D4F800C00CF5C07CDA
:100DD0000CEB011CCCF80800206800F5C07000EB9B
:100DE0000110006840F0010C01E00FE008E020680D
:100DF00000F5C07000EB0110C0F800C00020F0BD8D
:100E0000606A40F4001060620120F8E7606A40F414
:100E1000802060620120F2E7F0B504460A462168AE
:100E200094F82050012D01D0022D7ED1424901F5C8
:100E30000071086840F001000860086820F47C50E8
:100E400008600868566A40EA06200860107D00F0D5
:100E50001F06012000FA06F3C8699843C861A1F58E
:100E60000071D069C8B9D1F80C029843C1F80C02DE
:100E7000908880B2968940EA064601F5107057695D
:100E800040F83760108880B2168940EA064601F5BE
:100E90001070576900EBC7004660D069012819D16E
:100EA000D1F80C021843C1F80C02908880B2168861
:100EB00040EA064601F51070576940F8376090899E
:100EC00080B2168940EA064601F51070576900EBBA
:100ED000C7004660906928B9D1F804029843C1F868
:100EE000040204E0D1F804021843C1F804021069B6
:100EF00028B9D1F814029843C1F8140204E0D1F8DB
:100F000014021843C1F81402106A012804D1D1F860
:100F10001C021843C1F81C02D1F8000220F00100A5
:100F2000C1F800020020F0BDFFE7606A40F48020B5
:100F300060620120F7E7000000640040704770B570
:100F4000044694F82050012D01D0022D7DD151B9D5
:100F50002068C06800F0030080B9606A40F40010A7
:100F60006062012070BD2068006900F0030028B9AC
:100F7000606A40F4001060620120F3E7206800F529
:100F8000D87000EB0110006800F0040090609068D9
:100F900040B9206800F5D87000EB01100068400DE2
:100FA000106007E0206800F5D87000EB01100068C1
:100FB000C0085060206800F5D87000EB0110006890
:100FC00000F00200D060206800F5D87000EB01103E
:100FD000406800F00F00082802D30820106108E0E4
:100FE000206800F5D87000EB0110406800F00F0099
:100FF0001061206800F5D87000EB0110406800F423
:101000007F40000A9061206800F5D87000EB011065
:101010004068000C5061206800F5D87000EB0110AA
:1010200080681870206800F5D87000EB01108068A7
:1010300000F47F40000A5870206800F5D87000EB7B
:101040000110806800F47F0000E03CE0000C987024
:10105000206800F5D87000EB01108068000ED87091
:10106000206800F5D87000EB0110C0681871206886
:1010700000F5D87000EB0110C06800F47F40000A52
:101080005871206800F5D87000EB0110C06800F4BA
:101090007F00000C9871206800F5D87000EB0110FB
:1010A000C068000ED87131B92068C06840F02000D7
:1010B0002668F06005E02068006940F0200026689E
:1010C000306100204EE7606A40F4802060620120B9
:1010D00048E72DE9F05F044600252068466920684E
:1010E000D0F80490206887682068D0F80CA02068A9
:1010F000D0F810B02068D0F8188006F00100002861
:1011000055D007F00100C0B101202168886007F0C8
:10111000020018B1204600F046FB0EE007F0040084
:1011200010B145F4006508E007F0080010B145F47F
:10113000805502E0204600F035FB07F48070C8B10E
:101140004FF480702168886007F4007018B1204661
:1011500000F02BFB0EE007F4806010B145F4005561
:1011600008E007F4006010B145F4804502E0204635
:1011700000F01AFB07F48030C8B14FF480302168CA
:10118000886007F4003018B1204600F010FB0EE034
:1011900007F4802010B145F4004508E007F4002072
:1011A00010B145F4803502E0204600F0FFFA06F069
:1011B000080038B10AF0100020B145F40075102085
:1011C0002168C86006F0040040B10AF0080028B1A8
:1011D00008202168C860204600F0A8F906F0020047
:1011E00038B12068C06800F0030010B1204600F05C
:1011F0009FF906F0400038B10BF0100020B145F423
:10120000806510202168086106F0200040B10BF0D5
:10121000080028B1082021680861204600F090FAF3
:1012200006F0100038B12068006900F0030010B12A
:10123000204600F086FA06F4003040B109F01000B4
:1012400028B1102021684860204600F07BFA06F49F
:10125000803040B109F0080028B1082021684860BA
:10126000204600F0A5FA06F4004088B309F0040017
:1012700078B306F4807020B108F0010008B145F0A1
:10128000010506F4007020B108F0020008B145F035
:10129000020506F4806020B108F0040008B145F0B2
:1012A000040506F40060A0B108F0700088B108F0F1
:1012B0007000402817D006DC10280BD020280CD056
:1012C000302819D10CE0502810D0602814D110E03B
:1012D0001DE019E045F008050FE045F010050CE0B1
:1012E00045F0200509E045F0400506E045F08005A1
:1012F00003E045F4807500E000BF00BF206880690E
:1013000020F07000216888610420216848602DB1B8
:10131000606A284360622046FFF710FEBDE8F09F38
:1013200070B504460CB9012070BD94F8200010B9C6
:10133000204600F0AFF82068006840F00100216806
:10134000086000F09DFD05460DE000F099FD401B92
:101350000A2808D9606A40F400306062052084F8E9
:1013600020000120E0E72068406800F0010000282C
:10137000EBD02068006820F002002168086000F0CF
:101380007FFD05460DE000F07BFD401B0A2808D9D3
:10139000606A40F400306062052084F8200001207B
:1013A000C2E72068406800F002000028EBD1207EF0
:1013B000012806D12068006840F08000216808609C
:1013C00005E02068006820F0800021680860607EE9
:1013D000012806D12068006840F0400021680860BC
:1013E00005E02068006820F0400021680860A07EC9
:1013F000012806D12068006840F0200021680860BC
:1014000005E02068006820F0200021680860E07E88
:10141000012806D12068006820F0100021680860CB
:1014200005E02068006840F0100021680860207F17
:10143000012806D12068006840F008002168086093
:1014400005E02068006820F0080021680860607FDF
:10145000012806D12068006840F004002168086077
:1014600005E02068006820F0040021680860D4E9E5
:101470000201084321690843616908436168491E04
:1014800008432168C86100206062012084F82000C0
:10149000002049E710B586B00446142101A8FFF7E3
:1014A0006BF81F492068884237D100BF00200090A8
:1014B0001C48006840F000701A490860084600683F
:1014C00000F00070009000BF00BF00BF002000903F
:1014D00014481038006840F00800124910390860BC
:1014E0000846006800F00800009000BF00BF03201D
:1014F0000190022002900020039003200490092014
:10150000059001A9084800F0ADFB00220621142037
:1015100000F07EFD142000F067FD06B010BD000055
:101520000064004040380240000C02407047000058
:1015300010B58AB0044601AB03AA00212046FFF78C
:10154000FEFC0398A0F20120052877D2DFE800F026
:1015500003040506070000BF00BF00BF00BF0398DB
:10156000401E734908700846007800EB400071493E
:1015700031F8300000B26E49097801EB41016D4A43
:1015800002EBC10108819DF805009DF8041040EAB6
:1015900001206749097801EB410122F831009DF8EB
:1015A00007009DF8061040EA012000B26049097862
:1015B00001EB410102EBC10148809DF809009DF853
:1015C000081040EA012000B25949097801EB4101B5
:1015D00002EBC10188809DF80A005549097801EBAA
:1015E000410102EBC1018871534851490978405CBF
:1015F000002870D04E48007800EB4000114631F8CA
:1016000030004B49097801EB410102EBC101B1F90E
:101610000810401AB0F5805F11DD4548007800EBF6
:101620004000114601EBC0004069401E4049097866
:1016300001EB410102EBC101486124E073E03C4849
:10164000007800EB40003B4931F830003849097818
:1016500001EB4101374A02EBC101B1F90810401A10
:1016600010F5805F0FDA3248007800EB4000114639
:1016700001EBC0004069401C2D49097801EB410194
:1016800002EBC10148612A48007800EB400029497B
:1016900031F830102648007800EB4000254A02EB74
:1016A000C000406901EB40302149097801EB41015C
:1016B00002EBC101098A401A00EE100AB8EEC00A16
:1016C0001B48007800EB4000114601EBC00080EDA4
:1016D000030A27E0FFE701201749154A12788854CA
:1016E0009FED160A1248007800EB4000114901EB0B
:1016F000C00080ED030A00200D49097801EB41018B
:101700000C4A02EBC10148610948007800EB400037
:10171000114631F830000649097801EB410102EB2E
:10172000C101088200E000BF00BF0AB010BD000088
:10173000D0000020B44C0020BC00002000000000BD
:1017400070477047704770B5044694F82000012830
:1017500022D1022084F820002068006820F00100D7
:101760002168086000F08CFB05460DE000F088FB66
:10177000401B0A2808D9606A40F4003060620520E6
:1017800084F82000012070BD2068406800F001004E
:101790000028EBD16062F6E7606A40F400206062E6
:1017A0000120F0E7704770477047704770477047F7
:1017B000704770B50446A56D00F062FB064694F8CC
:1017C0003500022808D08020606500BF002084F822
:1017D000340000BF012070BD2068006820F01600B2
:1017E000216808602068406920F080002168486115
:1017F000206C08B9A06C28B12068006820F00800AF
:10180000216808602068006820F0010021680860F5
:1018100010E000F035FB801B05280BD92020606507
:10182000032084F8350000BF002084F8340000BF96
:101830000320D0E72068006800F001000028E8D10C
:1018400094F85C103F208840A860012084F835009F
:1018500000BF002084F8340000BF00BFBBE7014692
:1018600091F83500022803D0802048650120704798
:10187000052081F835000868006820F001000A683A
:1018800010600020F3E70000F8B504460020009047
:101890008C4800684FF41651B0FBF1F7A56D2E6827
:1018A00094F85C1008208840304098B120680068A7
:1018B00000F0040070B12068006820F00400216886
:1018C000086094F85C1008208840A860606D40F0C3
:1018D0000100606594F85C1001208840304068B1D8
:1018E0002068406900F0800040B194F85C1001204D
:1018F0008840A860606D40F00200606594F85C105C
:1019000004208840304068B12068006800F0020080
:1019100040B194F85C1004208840A860606D40F0ED
:101920000400606594F85C1010208840304078B363
:101930002068006800F0080050B394F85C10102094
:101940008840A8602068006800F4802080B120688A
:10195000006800F4002028B9206CC8B12046216C32
:10196000884715E0A06C98B12046A16C88470FE02D
:101970002068006800F4807028B92068006820F0B2
:10198000080021680860206C10B12046216C88474F
:1019900094F85C10202088403040002865D02068F2
:1019A000006800F0100000285FD094F85C10202040
:1019B0008840A86094F83500052828D12068006880
:1019C00020F01600216808602068406920F080003F
:1019D00021684861206C08B9A06C28B120680068B3
:1019E00020F008002168086094F85C103F208840CF
:1019F000A860012084F8350000BF002084F834007E
:101A000000BF206D10B12046216D8847F8BD2068C9
:101A1000006800F4802080B12068006800F4002095
:101A200028B9606C10B12046616C88471DE0E06BFE
:101A3000D8B12046E16B884717E02068006800F4C1
:101A4000807068B92068006820F010002168086084
:101A5000012084F8350000BF002084F8340000BF66
:101A6000E06B10B12046E16B8847606D38B3606D64
:101A700000F00100F0B1052084F83500206800680E
:101A800020F001002168086000BF0098401C009011
:101A9000B84200D905E02068006800F00100002885
:101AA000F3D100BF012084F8350000BF002084F886
:101AB000340000BFE06C10B12046E16C884700BFE5
:101AC000A4E70000340000202DE9F0410446002581
:101AD00000F0D6F9074614B90120BDE8F081606A2C
:101AE00000B100BF022084F8350000BF002084F858
:101AF000340000BF2068006820F001002168086001
:101B00000AE000F0BDF9C01B052805D9202060655A
:101B1000032084F83500E0E72068006800F0010049
:101B20000028EED12068056821480540D4E901016C
:101B30000843E16808432169084361690843A169D2
:101B40000843E1690843216A08430543606A0428A1
:101B500003D1D4E90B0108430543206805602068E0
:101B6000456925F00705606A0543606A04280DD1C0
:101B7000A06A0543E06A48B12046FEF75DFF28B140
:101B800040206065012084F83500A6E720684561A3
:101B90002046FEF737FF064694F85C103F20884049
:101BA000B06000206065012084F83500002094E7D3
:101BB0003F8010F02DE9F04704460D4616461F46BB
:101BC0004FF00008D4F8589000BF94F83400012872
:101BD00002D10220BDE8F087012084F8340000BF64
:101BE00094F83500012825D1022084F83500002022
:101BF00060653B46324629462046FEF772FF94F860
:101C00005C103F208840C9F808002068006840F058
:101C1000160021680860206C28B12068006840F038
:101C20000800216808602068006840F00100216811
:101C3000086006E000BF002084F8340000BF4FF0C9
:101C400002084046C6E7704710B5044604480068DD
:101C5000204020B1024804602046FFF7F4FF10BD89
:101C6000143C0140F8B502460B4600250024002034
:101C70000021E0E0012606FA01F51E6806EA0504E7
:101C8000AC4274D11E7906F00306012E04D01E79F1
:101C900006F00306022E13D190684F000326BE40C3
:101CA000B0434F00DE68BE4030439060506801266C
:101CB0008E40B0431E79C6F300168E40304350600C
:101CC0001E7906F00306032E09D0D0684F000326C4
:101CD000BE40B0434F009E68BE403043D0601E7986
:101CE00006F00306022E13D1CF0802F1200656F8A3
:101CF00027004E07F70E0F26BE40B0434F07FF0EDA
:101D00001E69BE403043CF0802F1200646F8270086
:101D100010684F000326BE40B0431E7906F003064C
:101D20004F00BE40304310605E6806F44036002E1F
:101D30001DD000BF00260096414E366846F480460E
:101D40003F4F3E603E46366806F48046009600BF30
:101D500000BF3C4E8F0856F827008E07370F0F261E
:101D6000BE40B043384EB24202D100262EE061E0C0
:101D7000364EB24201D1012628E0354EB24201D1A1
:101D8000022623E0334EB24201D103261EE0324E3A
:101D9000B24201D1042619E0304EB24201D10526EB
:101DA00014E02F4EB24201D106260FE02D4EB24272
:101DB00001D107260AE02C4EB24201D1082605E0E7
:101DC0002A4EB24201D1092600E00A268F073F0FB2
:101DD000BE4030431B4E8F0846F82700244E306823
:101DE000A0435E6806F4801606B12043204E3060A2
:101DF000361D3068A0435E6806F4001606B1204325
:101E00001B4E361D30601A4E361F3068A0435E6888
:101E100006F4003606B12043154E361F3060361FDB
:101E20003068A0435E6806F4803606B12043104E49
:101E3000083E3060491C1029FFF41CAFF8BD0000BB
:101E400044380240083801400000024000040240CB
:101E500000080240000C0240001002400014024042
:101E600000180240001C02400020024000240240F2
:101E7000083C01400AB1816101E00B0483617047B5
:101E800001480068704700002800002003480068EF
:101E90000349097808440149086070472800002078
:101EA0003000002010B50D48006840F400700B4968
:101EB00008600846006840F48060086008460068D2
:101EC00040F480700860032000F0E0F80F2000F07C
:101ED00007F800F05FF8002010BD0000003C024051
:101EE0002DE9F04188B004460027B84600BF002025
:101EF00001902348006840F010002149086008461E
:101F0000006800F01000019000BF00BF02A903A804
:101F100000F0D8F9069F1FB900F0FCF9054602E071
:101F200000F0F8F945001748B5FBF0F0A0F1010802
:101F300015481649086040F2E7311448C160C0F8FE
:101F40000480002101618160816100F005FD064689
:101F500096B90E4800F04EFD06466EB9362000F0E8
:101F600043F8102C07D200222146362000F050F80A
:101F70000748046000E00126304608B0BDE8F08163
:101F80004038024040420F00001000402C0E00205C
:101F90002C00002008B500BF002000901148006808
:101FA00040F480400F4908600846006800F4804013
:101FB000009000BF00BF00BF00200090081F006815
:101FC00040F08050091F08600846006800F080500B
:101FD000009000BF00BF00220F21901E00F018F8F3
:101FE00008BD0000443802400146084600280DDBC9
:101FF00000BF00BF00F01F0301229A4043099B006D
:1020000003F1E023C3F8002100BF00BF00BF704709
:102010002DE9F05F80460D461646002703F004FBCD
:10202000074639462A46334601F00700C0F1070A41
:10203000BAF1040F02D94FF0040A01E0C0F1070A17
:10204000D14600F1040ABAF1070F02D24FF0000A9C
:1020500001E0A0F1030AD4464FF0010A0AFA09FA96
:10206000AAF1010A0AEA020A0AFA0CFA4FF0010B75
:102070000BFA0CFBABF1010B0BEA030B4AEA0B0466
:102080002146404603F0D8FABDE8F09F00BF00F0BB
:102090000702064B19684FF6FF031940044B0B4328
:1020A00043EA0221014B196000BF70470CED00E0CC
:1020B0000000FA0538B5002400BF002000901D483C
:1020C000006840F080501B4908600846006800F036
:1020D0008050009000BF00BF012017490864FFF73F
:1020E000CFFE044607E0FFF7CBFE001BB0F57A7F7A
:1020F00001D9032038BD1148406800F48030B0F5A4
:10210000803FF0D101200C494864FFF7B9FE044636
:1021100007E0FFF7B5FE001BB0F57A7F01D9032079
:10212000E8E70648406800F40030B0F5003FF0D121
:102130000020DFE74038024000000E4200700040FF
:1021400070B504460D460CB9012070BD58480068B2
:1021500000F00F00A84209D255490D7008460068EA
:1021600000F00F00A84201D00120EEE7207800F037
:10217000020002281DD1207800F00400042805D1B7
:102180004C48006840F4E0504A490860207800F06C
:102190000800082805D14748006840F460404549D8
:1021A00008604448006820F0F000A16808434149F5
:1021B0000860207800F00100A8B36068012807D10A
:1021C0003C4808380068C0F34040B8B90120BCE77B
:1021D0006068022802D06068032807D135480838B3
:1021E0000068C0F3406048B90120AEE731480838C4
:1021F0000068C0F3400008B90120A6E72D48006838
:1022000020F00300616808432A490860FFF738FEA0
:10221000064609E0FFF734FE801B41F28831884210
:1022200002D9032091E707E02248006800F00C0083
:102230006168B0EB810FEDD11D48006800F00F0020
:10224000A84209D91A490D700846006800F00F002D
:10225000A84201D0012078E7207800F0040004288B
:1022600007D11448006820F4E050E16808431149A0
:102270000860207800F00800082808D10D480068A0
:1022800020F46040216940EAC1000A49086000F07A
:1022900061F808490968C1F30311074A515CC84055
:1022A0000649086006480068FFF71AFE00204CE760
:1022B000003C02400838024004C3000834000020FB
:1022C0002C0000200F2202600D4A126802F0030267
:1022D00042600B4A126802F0F0028260084A1268FB
:1022E00002F4E052C260064A126802F46042D20868
:1022F0000261044A126802F00F020A60704700008F
:1023000008380240003C0240014800687047000065
:102310003400002000B5FFF7F7FF04490968C1F356
:102320008221034A515CC84000BD000008380240C9
:1023300014C3000800B5FFF7E7FF04490968C1F3BB
:102340004231034A515CC84000BD000008380240D9
:1023500014C300082DE9F047002400250026A146FB
:102360002548006800F00C0020B1042805D008289A
:102370003AD105E0DFF8849039E0DFF8849036E068
:102380001D48001F006800F03F041B48001F006844
:1023900000F4800078B11A481749091F0968C1F391
:1023A0008811A0FB01700146224600233846FDF744
:1023B000EDFF05460EE011480F49091F0968C1F3FA
:1023C0008811A0FB01700146224600233846FDF724
:1023D000DDFF05460848001F0068C0F30140401CAF
:1023E0004600B5FBF6F902E0DFF8109000BF00BF31
:1023F0004846BDE8F0870000083802400024F40099
:10240000001BB700F8B504460CB90120F8BD2078D0
:1024100000F00100002874D0F948006800F00C00BA
:1024200004280DD0F648006800F00C00082813D1ED
:10243000F348001F006800F48000B0F5800F0BD156
:10244000EF4808380068C0F34040002859D0606861
:10245000002856D10120D9E700BF6068B0F5803F61
:1024600008D1E7480838006840F48030E44908396A
:1024700008601EE06068B0F5A02F0DD1E048083874
:10248000006840F48020DE4908390860084600688A
:1024900040F4803008600CE0D9480838006820F427
:1024A0008030D749083908600846006820F4802049
:1024B000086000BF606890B1FFF7E2FC054606E0E7
:1024C000FFF7DEFC401B642801D903209EE7CC48BF
:1024D00008380068C0F340400028F1D011E0FFF751
:1024E000CFFC054606E0FFF7CBFC401B642801D972
:1024F00003208BE7C24808380068C0F3404000283A
:10250000F1D1207800F0020002285FD1BC480068B9
:1025100000F00C0058B1BA48006800F00C00082820
:102520001CD1B748001F006800F48000B0B9B4485F
:1025300008380068C0F3400020B1E068012801D0ED
:10254000012063E7AE480838006820F0F8002169F0
:1025500040EAC100AA490839086037E0E06800B3E2
:102560000120A8490860FFF78BFC054606E0FFF74D
:1025700087FC401B022801D9032047E7A048083800
:102580000068C0F340000028F1D09D48083800687A
:1025900020F0F800216940EAC10099490839086033
:1025A00014E0002097490860FFF76AFC054606E042
:1025B000FFF766FC401B022801D9032026E790485C
:1025C00008380068C0F340000028F1D1207800F0FE
:1025D000080008282CD16069A8B101208A49086048
:1025E000FFF74EFC054606E0FFF74AFC401B0228B9
:1025F00001D903200AE782486C300068C0F340002C
:102600000028F1D014E000207F490860FFF738FC73
:10261000054606E0FFF734FC401B022801D90320E1
:10262000F4E677486C300068C0F340000028F1D130
:10263000207800F00400042870D10027704838305A
:10264000006800F0805090B900BF002000906C48F6
:102650003830006840F080506949383108600846D9
:10266000006800F08050009000BF00BF012767485D
:10267000006800F48070B0B96448006840F480706D
:1026800062490860FFF7FCFB054606E0FFF7F8FB30
:10269000401B022801D90320B8E65C48006800F41A
:1026A00080700028F2D000BFA068012808D15448EB
:1026B0006830006840F001005149683108601DE051
:1026C000A06805280DD14E486830006840F004002D
:1026D0004B49683108600846006840F00100086016
:1026E0000CE047486830006820F001004449683138
:1026F00008600846006820F00400086000BFA06879
:10270000A8B1FFF7BDFB054609E0FFF7B9FB401B89
:1027100041F28831884202D9032077E626E0384822
:1027200068300068C0F340000028EED013E0FFF7E7
:10273000A7FB054608E0FFF7A3FB401B41F28831E9
:10274000884201D9032061E62D4868300068C0F353
:1027500040000028EFD1012F07D129483830006808
:1027600020F0805026493831086000BFA069002859
:1027700045D02348006800F00C0008285DD0A0690F
:10278000022845D100201F490866FFF779FB05465E
:1027900006E0FFF775FB401B022801D9032035E650
:1027A000174808380068C0F340600028F1D1D4E928
:1027B00007010843616A40EA81110122A06AC2EB65
:1027C000500041EA00412C20005D41EA00600C49C4
:1027D000091F086001200B490866FFF751FB0546F9
:1027E00006E0FFF74DFB401B022801D903200DE650
:1027F000034808380068C0F340600028F1D049E081
:102800000838024000004742800E474200700040F6
:10281000002021490866FFF733FB054606E0FFF775
:102820002FFB401B022801D90320EFE51B4800685D
:10283000C0F340600028F2D12CE0A069012800D14B
:10284000E4E51648001D0668A069012820D006F4BA
:102850008001E06981421BD106F03F01206A81427C
:1028600016D147F6C0703040616AB0EB811F0FD1BE
:1028700006F440310122A06AC2EB5000B1EB004FD8
:1028800006D106F070612C20005DB1EB006F01D025
:102890000120BBE50020B9E50000474200380240B6
:1028A0007047704730B502460B4600BF92F83C00B7
:1028B000012801D1022030BD012082F83C0000BF78
:1028C000022082F83D00106844681068816824F096
:1028D00070041868044310684460184D1068A842DA
:1028E0001BD01068B0F1804F17D0154D1068A8426A
:1028F00013D0144D1068A8420FD0134D1068A84291
:102900000BD0124D1068A84207D0114D1068A84294
:1029100003D0104D1068A84205D121F080015868FD
:10292000014310688160012082F83D0000BF002053
:1029300082F83C0000BF00BFBDE70000000001407E
:102940000004004000080040000C0040000401406A
:10295000004001400018004010B504460CB90120A9
:1029600010BD94F83D0028B9002084F83C002046B2
:1029700000F026F8022084F83D00211D206801F0B7
:102980000DFF012084F8460000BF84F83E000121BD
:102990003F200155402001554120015500BF00BF97
:1029A000012084F842004320015544200155452070
:1029B000015500BF012084F83D000020D0E7000051
:1029C00008B50A4A016891420FD100BF0021009169
:1029D0000749096841F00401054A11601146096878
:1029E00001F00401009100BF00BF08BD00080040D5
:1029F00040380240014691F83D00012801D00120F5
:102A00007047022081F83D000868C06840F001006E
:102A10000B68D8601A4B086898421BD00868B0F160
:102A2000804F17D0174B0868984213D0164B086890
:102A300098420FD0154B086898420BD0144B086889
:102A4000984207D0134B0868984203D0124B08688D
:102A500098420CD10868806800F00702062A0CD062
:102A60000868006840F001000B68186005E008681D
:102A7000006840F001000B6818600020C0E700000B
:102A8000000001400004004000080040000C00402D
:102A90000004014000400140001800402DE9F041D1
:102AA00004460D46002700BF94F83C00012802D1DF
:102AB0000220BDE8F081012084F83C0000BF022024
:102AC00084F83D002068866826F0770626F47F4665
:102AD000206886602868502833D00CDC202850D02D
:102AE00004DC00284BD0102851D149E0302849D0CF
:102AF00040284CD139E060282DD0702807D0B0F59F
:102B0000805F03D0B0F5005F41D10DE041E0D5E931
:102B100002136A68206801F0C6FE2068866846F0E5
:102B200077062068866034E0D5E902136A68206879
:102B300001F0B9FE2068806840F480402168886018
:102B400027E0EA686968206801F09EFF502120684C
:102B500001F0B4FE1DE0EA686968206801F0A7FF93
:102B60006021206801F0AAFE13E0EA686968206825
:102B700001F08AFF4021206801F0A0FE09E000BFBB
:102B800000BF00BF2968206801F098FE01E001271E
:102B900000BF00BF012084F83D0000BF002084F882
:102BA0003C0000BF384684E7704770B50446206893
:102BB000C5682068066906F00200022819D105F0F0
:102BC0000200022815D1401F2168086101202077EA
:102BD0002068806900F0030018B12046FFF7E4FF89
:102BE00005E0204600F00EF9204600F0DBF9002059
:102BF000207706F00400042819D105F00400042809
:102C000015D1C043216808610220207720688069BF
:102C100000F4407018B12046FFF7C6FF05E02046DB
:102C200000F0F0F8204600F0BDF90020207706F013
:102C30000800082819D105F00800082815D1C0435C
:102C400021680861042020772068C06900F0030033
:102C500018B12046FFF7A8FF05E0204600F0D2F8A3
:102C6000204600F09FF90020207706F01000102881
:102C700019D105F01000102815D1C0432168086152
:102C8000082020772068C06900F4407018B1204601
:102C9000FFF78AFF05E0204600F0B4F8204600F078
:102CA00081F90020207706F0010048B105F001000D
:102CB00030B16FF0010021680861204600F0FAF998
:102CC00006F08000802809D105F08000802805D119
:102CD000C043216808612046FFF7E2FD06F040008E
:102CE000402809D105F04000402805D1C0432168A3
:102CF0000861204600F0EAF906F02000202809D1FA
:102D000005F02000202805D1C04321680861204635
:102D1000FFF7C7FD70BD000010B586B00446142152
:102D200001A8FDF729FC3149206888421ED100BF67
:102D3000002000902E48006840F008002C490860F0
:102D40000846006800F00800009000BF00BF4FF484
:102D50008040019002200290012003900220049004
:102D6000059001A92348FEF77DFF3DE02249206838
:102D7000884239D100BF002000901D48006840F40F
:102D800080701B4908600846006800F4807000905D
:102D900000BF00BF00BF002000900846006840F060
:102DA000800008600846006800F08000009000BFC6
:102DB00000BF0120019002200290002003900490A7
:102DC0000220059001A90D48FEF74CFF4FF48050FA
:102DD00001900220029000200390049002200590B0
:102DE00001A90748FEF73EFF06B010BD00080040ED
:102DF00030380240000C0240000C0040002002402D
:102E0000001C024070472DE9F04104460D4616466D
:102E1000002700BF94F83C00012802D10220BDE841
:102E2000F081012084F83C0000BF36B1042E1BD095
:102E3000082E31D00C2E5ED145E02946206801F0E5
:102E400047FD2068806940F008002168886120689B
:102E5000806920F004002168886120688069296900
:102E600008432168886148E02946206801F068FD30
:102E70002068806940F4006021688861206880696A
:102E800020F480602168886120688069296940EAAF
:102E900001202168886130E02946206801F08EFD1C
:102EA0002068C06940F008002168C8612068C069D6
:102EB00020F004002168C8612068C06929690843BE
:102EC0002168C86119E02946206801F0B3FD206837
:102ED000C06940F400602168C8612068C06920F4BE
:102EE00080602168C8612068C069296940EA0120C2
:102EF0002168C86101E0012700BF00BF00BF0020BA
:102F000084F83C0000BF384689E710B504460CB988
:102F1000012010BD94F83D0028B9002084F83C0041
:102F2000204600F025F8022084F83D00211D20688D
:102F300001F034FC012084F8460000BF84F83E0014
:102F400001213F200155402001554120015500BF7E
:102F500000BF012084F84200432001554420015560
:102F60004520015500BF012084F83D000020D0E736
:102F700008B50A4A016891420FD100BF00210091B3
:102F80000749096841F00801054A116011460968BE
:102F900001F00801009100BF00BF08BD000C004017
:102FA000403802407047000070B504460D4615B920
:102FB00094F83E000BE0042D02D13F20005D06E0B6
:102FC000082D02D14020005D01E04120005D012874
:102FD00001D0012070BD1DB9022084F83E000EE032
:102FE000042D03D102213F20015508E0082D03D113
:102FF00002214020015502E0022141200155012219
:103000002946206801F03EFC23492068884203D00D
:1030100022492068884201D1012000E0002028B127
:103020002068406C40F40040216848641A492068D8
:1030300088421BD02068B0F1804F17D01849206813
:10304000884213D01749206888420FD0164920685B
:1030500088420BD011492068884207D01349206864
:10306000884203D01249206888420CD120688068C9
:1030700000F00706062E0CD02068006840F0010022
:103080002168086005E02068006840F001002168C0
:10309000086000209EE7000000000140000401409D
:1030A0000004004000080040000C004000400140C7
:1030B0000018004010B5044603492068884201D139
:1030C000FEF7E4FE10BD0000001000407047F8B5A8
:1030D00004460E46174694F8420020282ED106B129
:1030E0000FB90120F8BD01202063002060633A463B
:1030F0003146204601F0C8FF0546EDB9206B012896
:1031000019D100BF0020009020680068009020685E
:103110004068009000BF00BF00BF00BF21680C31B5
:1031200051E8001F41F0100021680C3141E8000215
:10313000002AF3D100E001252846D3E70220D1E799
:10314000F8B504460E46174694F8420020282ED1C2
:1031500006B10FB90120F8BD012020630020606393
:103160003A463146204601F0F3FF0546EDB9206BA3
:10317000012819D100BF002000902068006800904D
:1031800020684068009000BF00BF00BF00BF2168FA
:103190000C3151E8001F41F0100021680C3141E86A
:1031A0000002002AF3D100E001252846D3E70220DF
:1031B000D1E7000070B504460D46574884426FD1F0
:1031C0001A225649FFF783FF54480078FF2867D139
:1031D0005248407EFE2863D1002005E04F4A411C42
:1031E000515C4F4A1154401C0428F7DB4C4890EDC9
:1031F000000A4C4880ED000A002005E0474A411DC6
:10320000515C474A1154401C0428F7DB444890EDB8
:10321000000A444880ED010A002006E03F4A00F120
:103220000901515C3E4A1154401C0428F6DB3C481D
:1032300090ED000A3B4880ED020A002006E0374A84
:1032400000F10D01515C364A1154401C0428F6DB94
:10325000334890ED000A334880ED030A002006E071
:103260002E4A00F11101515C2D4A1154401C0428D2
:10327000F6DB2B4890ED000A2A4880ED040A002076
:1032800006E0264A00F11501515C254A1154401C04
:103290000428F6DB224890ED000A224880ED050A5A
:1032A000214884421CD116222049FFF749FF1F48BC
:1032B0000078042814D10020002104E01B4A525C4D
:1032C00050404A1CD1B21529F8DBC143C8B2174996
:1032D000497D814203D11549C97B154A117000BF50
:1032E0001448844217D105221349FFF729FF1248D9
:1032F0000078FE280FD110480079104908700E4858
:10330000C07848700C48807888700B484078C87046
:103310000B480968016070BD200A0020E00D002004
:1033200010000020FC0D0020B00A0020140E002028
:1033300024000020680A002014000020190000204A
:103340002000002070B50446002520684069C0F3C5
:10335000C01594F84100212817D1B5B100BF00BFB6
:103360002168143151E8001F21F0800021681431D8
:1033700041E80002002AF3D100BFA06B10B1A06B9E
:10338000FEF717FA204601F0D8FC20684069C0F328
:10339000801594F84200222817D1B5B100BF00BFB4
:1033A0002168143151E8001F21F0400021681431D8
:1033B00041E80002002AF3D100BFE06B10B1E06BDE
:1033C000FEF7F7F9204601F072FC002070BD70474F
:1033D0002DE9F84F0446206805682068C668206813
:1033E00047694FF00009CA4605F00F09B9F1000F0F
:1033F0000AD105F0200038B106F0200020B12046A7
:1034000001F0AEFCBDE8F88FB9F1000F7CD007F0F9
:10341000010018B906F49070002875D005F001007D
:1034200030B106F4807018B1606C40F00100606447
:1034300005F0040030B107F0010018B1606C40F0F5
:103440000200606405F0020030B107F0010018B11D
:10345000606C40F00400606405F0080048B106F0BC
:10346000200010B907F0010018B1606C40F00800AE
:103470006064606C002846D005F0200028B106F09A
:10348000200010B1204601F06BFC20684069C0F3B9
:10349000801A606C00F0080010B9BAF1000F2DD04E
:1034A000204601F004FC2068406900F040004028FC
:1034B00020D100BF00BF2168143151E8001F21F066
:1034C00040002168143141E80002002AF3D100BF16
:1034D000E06B50B17748E16B0865E06BFEF7BFF930
:1034E00088B1E06B016D88470DE02046FFF76FFF64
:1034F00009E009E02046FFF76AFF04E02046FFF7F5
:1035000066FF002060647DE7206B012878D105F01C
:103510001000002874D006F010000028FAD000BF78
:1035200000200090206800680090206840680090AB
:1035300000BF00BF2068406900F04000402860D113
:10354000E06B006840681FFA80F8B8F1000F56D0B1
:10355000A08D404553DDA4F82E80E06BC069B0F526
:10356000807F43D000BF00BF21680C3151E8001FAD
:1035700021F4807021680C3141E80002002AF3D167
:1035800000BF00BF00BF2168143151E8001F21F0C7
:1035900001002168143141E80002002AF3D100BF84
:1035A00000BF00BF2168143151E8001F21F0400026
:1035B0002168143141E80002002AF3D100BF202025
:1035C00084F842000020206300BF00BF21680C3156
:1035D00051E8001F21F0100021680C3141E8000281
:1035E000002AF3D100BFE06BFEF7E3F8022060632E
:1035F000A08DE28D801A81B22046FFF7DBFD01E746
:1036000042E0A08DE18D401A1FFA80F8E08DD0B322
:10361000B8F1000F37D000BF00BF21680C3151E86E
:10362000001F21F4907021680C3141E80002002A4B
:10363000F3D100BF00BF00BF2168143151E8001F63
:1036400021F001002168143141E80002002AF3D181
:1036500000BF202084F842000020206300BF00BF8C
:1036600021680C3151E8001F21F0100021680C3155
:1036700041E80002002AF3D100BF02206063414606
:103680002046FFF797FDBDE605F0800030B106F05B
:10369000800018B1204601F07BFDB3E605F0400044
:1036A00030B106F0400018B1204601F036FBA9E623
:1036B00000BFA7E60D4B000810B504460CB9012069
:1036C00010BDA06900B100E000BF94F8410028B926
:1036D000002084F84000204600F02AF8242084F8D6
:1036E00041002068C06820F400502168C86020466E
:1036F00001F0B4FB2068006920F490402168086163
:103700002068406920F02A00216848612068C0686C
:1037100040F400502168C86000206064202084F8D4
:10372000410084F842000020606300BFC8E7000049
:1037300010B586B00446142101A8FCF71DFFFE4910
:103740002068884238D100BF00200090FB48006804
:1037500040F40020F94908600846006800F40020A1
:10376000009000BF00BF00BF00200090F348103859
:10377000006840F00100F14910390860084600680F
:1037800000F00100009000BF00BF03200190022064
:10379000029000200390032004900820059001A9C6
:1037A000E748FEF75FFA002205213420FEF730FCDF
:1037B0003420FEF719FC2FE2E2492068884275D1D7
:1037C00000BF00200090DD48006840F08040DB49E9
:1037D00008600846006800F08040009000BF00BF0D
:1037E00000BF00200090D5481038006840F010005D
:1037F000D249103908600846006800F010000090B7
:1038000000BF00BF4FF4C070019002200290002062
:103810000390032004900820059001A9CA48FEF7F0
:1038200021FACA48CA4908604FF020604860002168
:10383000C7488160C1604FF480610161002141612E
:103840008161C16101624162FEF73EF908B1FDF795
:1038500064F900BFBE48E063846300BFBB483038F2
:10386000BC490860800548604021BA488160002159
:10387000C1604FF480610161002141618161C161DA
:1038800001624162FEF720F908B1FDF746F900BF79
:10389000B048A063846300BF002205215220FEF7D8
:1038A000B7FB5220FEF7A0FBB6E1FFE7AA4920686C
:1038B000884275D100BF00200090A048006840F009
:1038C00000409E4908600846006800F000400090F3
:1038D00000BF00BF00BF002000909848103800686B
:1038E00040F010009549103908600846006800F063
:1038F0001000009000BF00BF032001900220029042
:1039000000200390032004900820059001A98E4810
:10391000FEF7A8F98D4848309049086000054860D6
:1039200000218E488160C1604FF4806101610021F7
:1039300041618161C16101624162FEF7C5F808B170
:10394000FDF7EBF800BF8548E063846300BF7F4864
:103950004838834908604FF0206048604021804823
:1039600081600021C1604FF48061016100214161EB
:103970008161C16101624162FEF7A6F808B1FDF7FD
:10398000CCF800BF7648A063846300BF0022052105
:103990005320FEF73DFB5320FEF726FB3CE1FFE7FB
:1039A00070492068884256D100BF002000906348CB
:1039B000006840F40030614908600846006800F47F
:1039C0000030009000BF00BF00BF002000905B48A7
:1039D0001038006840F00100584910390860084666
:1039E000006800F00100009000BF00BF0C200190B3
:1039F00002200290002003900320049007200590ED
:103A000001A94F48FEF72EF950483030564908605A
:103A10004FF000604860002153488160C1604FF45E
:103A200080610161002141618161C1610162416286
:103A3000FEF74AF808B1FDF770F800BF4A48E063A6
:103A4000846300BF002205212620FEF7E1FA26202C
:103A5000FEF7CAFAE0E045492068884239D100BF44
:103A6000002000903548006840F480203349086009
:103A70000846006800F48020009000BF00BF00BF2F
:103A8000002000902D481038006840F008002B49B5
:103A9000103908600846006800F00800009000BF78
:103AA00000BF4FF44070019002200290002003906C
:103AB000032004900720059001A92D48FEF7D2F8B5
:103AC000002205212720FEF7A3FA2720FEF78CFA13
:103AD000A2E0284920688842BCD100BF00200090A5
:103AE0001648001D006840F020001449091D0860B8
:103AF0000846006800F02000009000BF00BF00BF33
:103B0000002000900D481038006840F040000B493C
:103B1000103908600846006800F04000009000BFBF
:103B200000BF4FF4844001900220029000200390D7
:103B30000320049008201FE0004C00404038024061
:103B4000000002400078004000100240586002402F
:103B5000400B0020A00B0020007C0040000C002047
:103B6000600C002000440040C00C002000480040D1
:103B7000000C024000140140059001A92748FEF7FF
:103B800071F82748274908608005486000212548CA
:103B90008160C1604FF480610161002141618161F8
:103BA0004FF48071C1614FF44031016200214162E4
:103BB000FDF78AFF08B1FCF7B0FF00BF1948E063CA
:103BC000846300BF16487830174908604FF02060C2
:103BD00048604021144881600021C1604FF4806139
:103BE00001610021416181614FF48071C161002157
:103BF00001624162FDF768FF08B1FCF78EFF00BF6C
:103C00000948A063846300BF002205214720FEF716
:103C1000FFF94720FEF7E8F906B010BD0018024092
:103C200028640240200D0020800D002070B504465D
:103C30000D46164694F8420020280BD105B10EB966
:103C4000012070BD0020206332462946204601F045
:103C50001BFAF6E70220F4E770477047F7B5044611
:103C6000154694F84100202836D1019800B10DB9CD
:103C70000120FEBD01982062A584E58400206064D7
:103C8000212084F841001548A16BC8631448A16B3A
:103C900008641448A16BC8640020A16B086501AEDC
:103CA00023681A1D31682B46A06BFDF783FF6FF068
:103CB00040002168086000BF00BF2168143151E84E
:103CC000001F41F080002168143141E80002002A01
:103CD000F3D100BF0020CCE70220CAE7494C00081E
:103CE000A14C0008214B000810B5034693F8410091
:103CF000202813D101B10AB9012010BD19629A849C
:103D0000DA8400205864212083F841001868C068D4
:103D100040F080001C68E0600020EEE70220ECE745
:103D200010B5044607492068884209D10022802145
:103D30000548FEF79FF805480068401C03490860E5
:103D400010BD0000001401400020024028020020A5
:103D5000704700BFFEE700000E48007840B10D48F4
:103D60000078401E0C49085C0C49097888420FD045
:103D70000A4801780848074A1278815401210A301C
:103D8000044A1278815403480078401C01490870A5
:103D90007047000000010020614D00202400002039
:103DA00010B50D480D4908600920486000210B48F6
:103DB0008160C1604FF480310161090141610021DE
:103DC000017641768176C17601774177FDF7A8FAD1
:103DD00008B1FCF7A2FE10BD00640040D808002026
:103DE00008B500BF002000902A48006840F4800019
:103DF000284908600846006800F48000009000BF71
:103E000000BF00BF002000900846006840F400108A
:103E100008600846006800F40010009000BF00BF72
:103E2000002205210B20FEF7F3F80B20FEF7DCF84B
:103E3000002205210C20FEF7EBF80C20FEF7D4F849
:103E4000002205210E20FEF7E3F80E20FEF7CCF845
:103E5000002205211020FEF7DBF81020FEF7C4F841
:103E6000002205211120FEF7D3F81120FEF7BCF83F
:103E7000002205213920FEF7CBF83920FEF7B4F8EF
:103E8000002205214520FEF7C3F84520FEF7ACF8D7
:103E900008BD00003038024000B5A3B01C221E4906
:103EA0001CA8FCF72FFB00211CA804F058FA1B49A2
:103EB00008601C2218491C3115A8FCF723FB0021BF
:103EC00015A804F04CFA164908601C221249383132
:103ED0000EA8FCF717FB00210EA804F040FA1149C8
:103EE00008601C220C49543107A8FCF70BFB002189
:103EF00007A804F034FA0C4908601C220649703106
:103F00006846FCF7FFFA0021684604F028FA0649E3
:103F1000086023B000BD000070C200080C00002043
:103F200000000020040000200800002000B587B039
:103F3000142102A8FCF720FB00BF002001907F485D
:103F4000006840F010007D4908600846006800F0F5
:103F50001000019000BF00BF00BF00200190084684
:103F6000006840F0400008600846006800F040002B
:103F7000019000BF00BF00BF00200190084600680C
:103F800040F0010008600846006800F00100019060
:103F900000BF00BF00BF002001900846006840F04D
:103FA000080008600846006800F00800019000BFA3
:103FB00000BF00BF002001900846006840F48070F8
:103FC00008600846006800F48070019000BF00BFE0
:103FD00000BF002001900846006840F080000860A3
:103FE0000846006800F08000019000BF00BF00BFDD
:103FF000002001900846006840F020000860084654
:10400000006800F02000019000BF00BF00BF00204A
:1040100001900846006840F0040008600846006807
:1040200000F00400019000BF00BF00BF002001901D
:104030000846006840F0020008600846006800F08A
:104040000200019000BF00BF002280213C48FDF724
:1040500011FF012240213B48FDF70CFF01221021F6
:104060003948FDF707FF012211463848FDF702FFE6
:10407000802002900120039000200490059002A966
:104080002F48FDF7EFFD402002900120039004909F
:10409000059002A92B48FDF7E5FD40200290022083
:1040A000039001200490022005900320069002A9AD
:1040B0002748FDF7D7FD082002904FF40410039025
:1040C0000120049002A91F48FDF7CCFD10200290AA
:1040D0000120039004900220059002A91A48FDF7E0
:1040E000C1FD302002904FF4041003900120049091
:1040F00002A91848FDF7B6FD802002900220039027
:1041000001200490032005900520069002A90E4886
:10411000FDF7A8FD01200290039004900220059075
:1041200002A90A48FDF79EFD002205211720FDF790
:104130006FFF1720FDF758FF07B000BD3038024071
:10414000002002400018024000000240000402402B
:10415000001402400008024000B58DB00020099014
:104160000A900B900C90079008901C216846FCF771
:1041700003FA204820490860B320486000211E4807
:1041800081604FF6FF71C160002101618161FEF71E
:10419000E3FB08B1FCF7C1FC4FF48050099009A97A
:1041A0001548FEF77BFC08B1FCF7B7FC1248FEF798
:1041B000ACFE08B1FCF7B1FC00200790089007A9FD
:1041C0000D48FEF76FFB08B1FCF7A7FC60200090DC
:1041D0000020019002900490082269460648FEF7EC
:1041E00012FE08B1FCF799FC0348FEF795FD0DB0EF
:1041F00000BD0000000800400009002000B589B0A3
:104200000020079008901C216846FCF7B5F91C486F
:104210001C490860B420486000211A48816042F2BD
:104220001071C160002101618161FEF76EFE08B16D
:10423000FCF773FC00200790089007A91148FEF7CF
:1042400031FB08B1FCF769FC602000900020019070
:1042500002900490082269460A48FEF7D4FD08B18E
:10426000FCF75BFC0C2269460648FEF7CCFD08B162
:10427000FCF753FC0348FEF74FFD09B000BD0000FA
:10428000000C00404809002010B50B480B4908609D
:104290004FF4E1304860002108488160C16001614D
:1042A0000C21416100218161C161FFF705FA08B16C
:1042B000FCF733FC10BD0000004C004090090020CA
:1042C00010B50B480B4908604FF4165048600021A8
:1042D00008488160C16001610C2141610021816158
:1042E000C161FFF7E9F908B1FCF717FC10BD000048
:1042F00000780040D809002010B50B480B49086031
:104300004FF4E1304860002108488160C1600161DC
:104310000C21416100218161C161FFF7CDF908B134
:10432000FCF7FBFB10BD0000007C0040200A0020D1
:1043300010B50B480B4908604FF4E130486000218C
:1043400008488160C16001610C21416100218161E7
:10435000C161FFF7B1F908B1FCF7DFFB10BD000048
:1043600000440040680A002010B50B480B49086063
:104370004FF4E1304860002108488160C16001616C
:104380000C21416100218161C161FFF795F908B1FC
:10439000FCF7C3FB10BD000000480040B00A00203D
:1043A00010B50A480A4908600A48486000210848D0
:1043B0008160C16001610C21416100218161C161A5
:1043C000FFF77AF908B1FCF7A8FB10BD0014014013
:1043D000F80A002060284A0000BFFEE700BFFEE7A1
:1043E000B0EE401A10B99FED790A704790ED100AAF
:1043F00080ED110A90ED0F0A80ED100AC0ED060A5B
:1044000080ED071A30EEC10A80ED0F0A017800290D
:1044100075D190ED010AD0ED0F1A20EE210A80ED42
:10442000090A90ED0A0AD0ED021A90ED0F2A01EE6A
:10443000820A80ED0A0A90ED0D0A80ED0E0A90EDD9
:104440000C0A80ED0D0A90ED0F0AD0ED101A30EE37
:10445000610A80ED0C0A90ED030AD0ED0C1A20EEF3
:10446000210A80ED0B0A90ED0A0AD0ED051AB4EE90
:10447000E10AF1EE10FA04DD90ED050A80ED0A0A7A
:1044800010E090ED0A0AD0ED051AF1EE611AB4EED3
:10449000E10AF1EE10FA05D290ED050AB1EE400AFC
:1044A00080ED0A0A90ED090AD0ED0A1A30EE210AD1
:1044B000D0ED0B1A30EE210A80ED080A90ED080AC3
:1044C000D0ED041AB4EEE10AF1EE10FA04DD90ED3D
:1044D000040A80ED080A76E090ED080AD0ED041A8F
:1044E000F1EE611AB4EEE10AF1EE10FA6BD290ED42
:1044F000040AB1EE400A80ED080A64E0FFE70178A3
:10450000012960D190ED0F0AD0ED101A30EE610A4A
:10451000D0ED011A20EE210A80ED090A90ED020A81
:10452000D0ED0F1A20EE210A80ED0A0A90ED0D0A57
:1045300080ED0E0A90ED0C0A80ED0D0A90ED0F0A49
:10454000D0ED101AB0EE002A02EE610AD0ED111A79
:1045500030EE210A80ED0C0A90ED030AD0ED0C1A22
:1045600020EE210A80ED0B0A90ED090AD0ED0A1A1F
:1045700030EE210AD0ED0B1A30EE210AD0ED081AE8
:1045800030EE210A80ED080A90ED080AD0ED041AF9
:10459000B4EEE10AF1EE10FA04DD90ED040A80EDCC
:1045A000080A10E090ED080AD0ED041AF1EE611A45
:1045B000B4EEE10AF1EE10FA05D290ED040AB1EE84
:1045C000400A80ED080A90ED080A0EE7000000009E
:1045D00000B970479FED100A80ED110A80ED100AB6
:1045E00080ED0F0A9FED0C0A80ED0E0A80ED0D0A9A
:1045F00080ED0C0A9FED080A80ED0B0A80ED0A0A97
:1046000080ED090A80ED080A9FED030A80ED060A95
:1046100080ED070A00BFDCE70000000000B102B92E
:104620007047017092ED001A80ED011A92ED011AA7
:1046300080ED021A92ED021A80ED031A80ED040A51
:10464000C0ED050A9FED0C1A80ED0E1A80ED0D1AD3
:1046500080ED0C1A9FED081A80ED081A80ED0B1AF8
:1046600080ED0A1A80ED091A80ED111A80ED101AFA
:1046700080ED0F1A00BFD3E70000000000BF01204B
:1046800003F05CFEFBE7000010B500BF502080F394
:104690001188BFF34F8FBFF36F8F00BF05F048FE47
:1046A00018B14FF080500449086000BF002080F32B
:1046B000118800BF10BD000004ED00E000B593B00C
:1046C000302107A8FBF758FF142102A8FBF754FF7D
:1046D00000BF002001902648006840F08050244927
:1046E00008600846006800F08050019000BF00BFDD
:1046F00000BF002001901F48006840F440401D4961
:1047000008600846006800F44040019000BF00BF08
:10471000012007900004089002200D9041050E91A1
:1047200006210F91B42110910221119104211291BF
:1047300007A8FDF767FE08B1FCF7EFF9FDF7BAFC33
:1047400008B1FCF7EAF90F20029002200390002044
:1047500004904FF4A05005904FF48050069005212E
:1047600002A8FDF7EDFC08B1FCF7D7F913B000BDC6
:1047700040380240007000400348006840F4700078
:10478000014908607047000088ED00E010B502485C
:10479000FEF70BFA10BD00002C0E002010B50268C9
:1047A0002D4B98420ED0B0F1804F0BD02B4B98423E
:1047B00008D02B4B984205D02A4B984202D02A4B66
:1047C000984203D122F070024B681A43224B984260
:1047D00020D0B0F1804F1DD0204B98421AD0204BF2
:1047E000984217D01F4B984214D01F4B984211D0BB
:1047F0001E4B98420ED01E4B98420BD01D4B984238
:1048000008D01D4B984205D01C4B984202D01C4B3F
:10481000984203D122F44072CB681A4322F08003FD
:104820004C6943EA040202608B68C3620B688362CE
:10483000094B984202D00C4B984201D10B6903639B
:1048400001234361036903F001031BB1036923F0F2
:104850000103036110BD000000000140000400409E
:1048600000080040000C00400004014000400140EE
:10487000004401400048014000180040001C004076
:104880000020004030B501F01F05012404FA05F3B3
:10489000046A9C430462046A01F01F0502FA05F5EC
:1048A0002C43046230BD30B50C46816821F47F4151
:1048B00042EA032525432943816030BD0A468168C9
:1048C00021F0700142F00703194381607047000036
:1048D00030B5026A056A25F00105056243688469FE
:1048E00024F0700424F003040D682C4322F002022B
:1048F0008D682A43104DA84200D103E00F4DA84215
:1049000006D100BF22F00802CD682A4322F004023B
:10491000094DA84202D0094DA84207D123F4807363
:1049200023F400734D692B438D692B4343608461ED
:104930004D684563026230BD000001400004014043
:1049400030B5026A056A25F010050562436884697E
:1049500024F4E04424F440740D6844EA052422F071
:1049600020028D6842EA0512124DA84200D103E0F0
:10497000114DA84207D100BF22F08002CD6842EA63
:10498000051222F040020B4DA84202D00A4DA84267
:1049900009D123F4806323F400634D6943EA85035E
:1049A0008D6943EA8503436084614D6885630262D3
:1049B00030BD0000000001400004014030B5026A33
:1049C000056A25F4807505624368C46924F07004A3
:1049D00024F003040D682C4322F400728D6842EA2F
:1049E0000522124DA84200D103E0114DA84207D183
:1049F00000BF22F40062CD6842EA052222F4806200
:104A00000A4DA84202D00A4DA84209D123F480538E
:104A100023F400534D6943EA05138D6943EA0513F6
:104A20004360C4614D68C563026230BD000001404F
:104A30000004014030B5036A056A25F4805505621B
:104A40004468C26922F4E04222F440720D6842EAEE
:104A5000052223F400538D6843EA0533084DA8422C
:104A600002D0084DA84204D124F480444D6944EAA0
:104A700085144460C2614D680564036230BD000066
:104A8000000001400004014030B50B461446026AA4
:104A9000056A25F001050562816921F0F00141EA0E
:104AA000041122F00A021A438161026230BD30B55E
:104AB0000B461446026A056A25F0100505628169F5
:104AC00021F4704141EA043122F0A00242EA0312CB
:104AD0008161026230BD000010B50248FEF778FC2B
:104AE00010BD00009009002010B50348FEF770FCCF
:104AF00000F022FC10BD0000D809002010B50248CB
:104B0000FEF766FC10BD0000200A002070B50546C7
:104B1000AC6B0020E085E0842046FEF758FC70BDB9
:104B200070B506460025B46B20684069C0F3C01517
:104B300094F84100212805D125B10020E0842046C9
:104B400000F0FBF820684069C0F3801594F842003B
:104B5000222805D125B10020E085204600F0A7F8E5
:104B6000606C40F0100060642046FEF730FC70BDC1
:104B700070B50546AC6B2868006800F480700028AA
:104B800042D1E08500BF00BF21680C3151E8001F11
:104B900021F4807021680C3141E80002002AF3D131
:104BA00000BF00BF00BF2168143151E8001F21F091
:104BB00001002168143141E80002002AF3D100BF4E
:104BC00000BF00BF2168143151E8001F21F04000F0
:104BD0002168143141E80002002AF3D100BF2020EF
:104BE00084F84200206B01280ED100BF00BF21686D
:104BF0000C3151E8001F21F0100021680C3141E810
:104C00000002002AF3D100BF00206063206B01285E
:104C100004D1A18D2046FEF7CDFA02E02046FFF731
:104C20001BF870BD70B50546AC6B01206063206B4E
:104C3000012805D1A08D41082046FEF7BBFA02E00D
:104C40002046FFF70AF870BD70B50546AC6B2868C2
:104C5000006800F48070F8B90020E08400BF00BF55
:104C60002168143151E8001F21F0800021681431BF
:104C700041E80002002AF3D100BF00BF00BF216855
:104C80000C3151E8001F41F0400021680C3141E82F
:104C90000002002AF3D102E02046FFF741F870BD80
:104CA00070B50446A56B2846FFF752F870BD00BFEB
:104CB00000BF02680C3252E8002F22F490710268A3
:104CC0000C3242E80013002BF3D100BF00BF00BF3D
:104CD0000268143252E8002F22F0010102681432F7
:104CE00042E80013002BF3D100BF016B01290ED164
:104CF00000BF00BF02680C3252E8002F22F0100102
:104D000002680C3242E80013002BF3D100BF2021CF
:104D100080F8421000210163704710B504462068F6
:104D2000C06820F040002168C860202084F841005D
:104D30002046FEF7F5FF002010BD00BF00BF02684F
:104D40000C3252E8002F22F0C00102680C3242E817
:104D50000013002BF3D100BF202180F841107047D1
:104D6000F8B5044694F84200222875D1A068B0F541
:104D7000805F0CD1206950B90025A66A2068406880
:104D8000C0F308003080A06A801CA06215E0A56A0C
:104D90000026A068B0F5805F03D0A06828B920691C
:104DA00018B920684068287004E02068406800F066
:104DB0007F002870A06A401CA062E08D401E80B277
:104DC000E085002846D12068C06820F020002168D6
:104DD000C8602068C06820F480702168C8602068BE
:104DE000406920F0010021684861202084F84200D9
:104DF00000206063206B012826D10020206300BFC3
:104E000000BF21680C3151E8001F21F0100021681B
:104E10000C3141E80002002AF3D100BF206800688D
:104E200000F0100010280AD100BF00200090206878
:104E30000068009020684068009000BF00BFA18D0E
:104E40002046FEF7B7F902E02046FEF705FF0020F6
:104E5000F8BD01E00020FBE70220F9E72DE9F84F5B
:104E600004462068006920F44050E1680843216846
:104E700008612169A068084361690843E169084342
:104E800000902068C06849F20C618843009908438B
:104E90002168C8602068406920F44070A169084317
:104EA0002168486176492068884203D075492068A6
:104EB000884203D1FDF73EFA814602E0FDF72AFA67
:104EC0008146E069B0F5004F6CD102206168A0FB1B
:104ED000015003461920A9FB007001462A463846B6
:104EE000FBF754FA6421B0FBF1F04FEA001A0220FC
:104EF0006168A0FB01510B461920A9FB00712A46ED
:104F00003846FBF743FA834602206168A0FB015054
:104F100003461920A9FB00712A463846FBF736FAEA
:104F20006421B0FBF1F000EBC00101EB0010ABEB32
:104F30008000322101EBC0006421B0FBF1F000F0F1
:104F4000F8000AEB400A02206168A0FB015003460A
:104F50001920A9FB007001462A463846FBF716FACD
:104F6000834602206168A0FB015003461920A9FB7B
:104F700000712A463846FBF709FA6421B0FBF1F0CC
:104F800000EBC00101EB0010ABEB8000322101EB24
:104F9000C0006421B0FBF1F000F00700504421682C
:104FA00088606AE004206168A0FB01500346192074
:104FB000A9FB007001462A463846FBF7E7F982460E
:104FC00004206168A0FB015003461920A9FB007072
:104FD00001462A463846FBF7D9F96421B0FBF1F0C7
:104FE00000EBC00101EB0010AAEB8000322101EBC5
:104FF00000106421B0FBF1F000F0F00A04206168B9
:10500000A0FB017003461920A9FB00513A4628462F
:10501000FBF7BCF96421B0FBF1F00AEB001A0420A5
:105020006168A0FB01510B461920A9FB00712A46BB
:105030003846FBF7ABF9834604206168A0FB0150BA
:1050400003461920A9FB007001462A463846FBF7A3
:105050009DF96421B0FBF1F000EBC00101EB001001
:10506000ABEB8000322101EB00106421B0FBF1F0CA
:1050700000F00F00504421688860BDE8F88F000000
:10508000001001400014014077B581B00446154678
:105090000298A062A58500206064222084F8420066
:1050A0002848E16BC8632848E16B08642748E16B36
:1050B000C8640020E16B086502AE32682368191DE0
:1050C0002B46E06BFCF776FD00BF002000902068C7
:1050D0000068009020684068009000BF00BF206911
:1050E00070B100BF00BF21680C3151E8001F41F4CE
:1050F000807021680C3141E80002002AF3D100BF22
:1051000000BF00BF2168143151E8001F41F00100C9
:105110002168143141E80002002AF3D100BF00BF2A
:1051200000BF2168143151E8001F41F040002168A0
:10513000143141E80002002AF3D100BF002004B07E
:1051400070BD0000714B0008254C0008214B000881
:1051500010B5034699629A85DA85002058642220AA
:1051600083F84200186928B11868C06840F480705C
:105170001C68E0601868406940F001001C686061CC
:105180001868C06840F020001C68E060002010BD76
:10519000014691F84100212828D18868B0F5805F48
:1051A0000BD1086948B90A6A1088C0F308000B6877
:1051B0005860086A801C086205E00B6A581C086287
:1051C00018780B685860C88C401E80B2C88458B9E3
:1051D0000868C06820F080000B68D8600868C06864
:1051E00040F040000B68D860002070470220FCE7C8
:1051F00010B50248FEF7ECF810BD0000680A002068
:1052000010B50248FEF7E4F810BD0000B00A002017
:1052100010B50348FEF7DCF800F014F910BD0000EB
:10522000F80A002070B52DED048B05463A488542FA
:1052300070D100200FE000EB4001891D374A525C1D
:1052400000EB4001C91D354B595C42EA0121344A4B
:1052500022F81010401C0328EDDB31490988C1F504
:10526000FA7005F025FF41EC190B9FED2E0B53EC66
:10527000102B05F07DFF41EC180B05F0B9FA2B4916
:10528000086027494988A1F5FA7005F011FF41EC43
:10529000190B9FED240B53EC102B05F069FF41EC2B
:1052A000180B05F0A5FA214948601D48808800EEDA
:1052B000100AB8EE400A084680ED020A1648FEF7CA
:1052C00041F81B4800684068C0F1FF00C4B21348B1
:1052D0000078552803D11148407855280BD0214635
:1052E0000E48FBF749F9FF220C490B48FEF79EFCDC
:1052F000BDEC048B70BD224608490E48FBF702F94D
:1053000021460648FBF738F9FF2204490248FEF718
:105310008DFC00BF00BFEBE7D8090020345300200C
:105320001C020020B81E85EB51B8CE3FA8520020C9
:10533000400B00204853002008B50B480068006867
:10534000C0F3001078B100BF00200090064800684C
:1053500000680090044800684068009000BF00BFEB
:105360000148FFF75FFF08BDD809002010B50446CB
:105370002E48844259D12E480068006800F400206D
:1053800048BB2B480068006820F0010028490968E4
:105390000860274800684068C0F19C0025490880E3
:1053A0009C202349096848602348006840F4002095
:1053B000214908601E480068006840F001001C494F
:1053C000096808601B4800884E282ED11B491C48DC
:1053D00002F02CFD29E016480068006820F001006A
:1053E000134909680860124800684068C0F19C00D1
:1053F000104908809C200E49096848600E480068E2
:1054000020F400200C49086009480068006840F05A
:105410000100074909680860064800884E2804D141
:1054200006494E31064802F001FD10BDF80A002081
:10543000200D002024020020286402405C5300203C
:10544000F853002008B514480068006800F02000F8
:1054500060B100BF002000900F4800680068009015
:105460000D4800684068009000BF14E00B480068D9
:1054700000F0100078B100BF0020009006480068DE
:1054800000680090044800684068009000BF00BFBA
:105490000148FFF76BFF08BDF80A00200014014027
:1054A00010B50446012280210548FCF7E3FC00BF4B
:1054B000222221460348FEF717FC0028F8D110BD30
:1054C00000200240F80A002000BFFEE710B50446A5
:1054D000FE202070EE20607094F82200A070002062
:1054E000E07094F824002071FF2161710021A17106
:1054F000E171A160D4F8260000EE100ADFED2B0A5E
:1055000020EE200ABDEEC00A10EE100A01B2201DE6
:10551000A181D4F82A0000EE100ADFED250A20EE62
:10552000200ABDEEC00A10EE100A01B2201DE18172
:10553000D4F82E0000EE100A9FED1E1AC0EE010AEC
:105540009FED1D0A20EE800ABDEEC00A10EE100A83
:105550002061D4F8320000EE100ADFED180A20EEC8
:10556000200ABDEEC00A10EE100A01B2201DA18271
:10557000D4F8360000EE100ADFED110A20EE200A02
:10558000BDEEC00A10EE100A01B2201DE18200211A
:1055900021766176D4F83A10C4F81A100721204613
:1055A00002F016FCC4F81E0010BD0000000080438D
:1055B00000000043F90FC94000008046000000458C
:1055C0000000804403B401984100009850EAC120D3
:1055D00018BF04204A0D18BF40F0010040F2FF72CE
:1055E000B2EB515F08BF40F00200012808BF052060
:1055F00002B070474100080218BF04200A0E18BF0D
:1056000040F001004FF07F4232EA010108BF40F054
:105610000200012808BF05207047014621F0004024
:10562000C0F1FF40C00F704702480068C0F302207D
:10563000704700000CED00E010B5002804DB0A07FD
:10564000130E054A135406E00A07140E034A00F02D
:105650000F031B1FD45410BD00E400E018ED00E060
:1056600010B510EE104A4FF01A402DED028B00EBF2
:105670004400B0F1C85F4AD84FF0FC40B0EB440F93
:1056800022D2B0EEC00AF7EE000A30EEC00AF6EE03
:10569000000A20EE208A18EE100A03F038FD00EE12
:1056A000100A14F0004F1DBF9FED281ADFED280AE5
:1056B000B1EE400A9FED271A08BFF0EE410AF8EE5E
:1056C000001A20EE210A05E020EE008A9FED221A42
:1056D000DFED220ADFED221A9FED222A70EEC00ACA
:1056E00020EE080A08EE212ADFED1F1A48EE021A02
:1056F0009FED1E2A08EE212ADFED1D1A48EE021A40
:10570000BDEC028B40EE610A30EE810A10BD4FF015
:10571000CC40B0EB440F82BF9FED160ABDEC028B6C
:1057200010BD4FF07F40B0EB440F05D2BDEC028BB3
:10573000BDE8104001F0A0B90120FAF74CFFBDEC24
:10574000028BBDE8104001F09BB900000000494009
:1057500022AA7D3A000000000000C93F22AAFD39BC
:1057600024FE1C3DC78AD83C1E67383D1B93993DDB
:10577000AFAA2A3EDB0FC93F10B54FF00E412DED09
:10578000028BB0EE408A18EE100A01EB4001B1F135
:10579000145F5CD24FF0FE41B1EB400F24BF9FED90
:1057A000400AF0EE400A12D210F0004F19BFDFEDB0
:1057B0003D0A9FED3D0ADFED3D0A9FED3D0AFFEEFC
:1057C000001A81EE881AB0EE418A18EE100A4FF0E6
:1057D000FC41B1EB400F1BD210F0004FDFED351A4A
:1057E0009FED352A1DBFBEEE001A70EEE10A30EEC5
:1057F000420AB6EE001A04BF70EEA10A30EE020AA9
:1058000038EE412AF7EE001A48EE011A82EE218A9C
:10581000DFED2A1A9FED2A2A28EE081A01EE212A26
:10582000DFED281A41EE021A9FED272A01EE212A08
:10583000DFED261A41EE021A28EE011A01EE210AC6
:1058400030EE080ABDEC028B30EE200A10BD4FF09E
:10585000E441B1EB400F0CD918EE100AFFF7CAFE75
:10586000042808BF01F014F9B0EE480ABDEC028B21
:1058700010BD4FF07F41B1EB400F07D2B0EE480AA8
:10588000BDEC028BBDE8104001F0F6B810F0004FFF
:1058900014BF9FED0F0A9FED0F0ABDEC028B10BDE8
:1058A000000000000000C9BF22AAFDB90000C93FE6
:1058B00022AAFD390060ED3EC30ACE372DAD65BD8D
:1058C0008FB8D53D0FB511BE61C84C3EA8AAAABE7F
:1058D000DB0FC9BFDB0FC93F10EE101A08B5444AF1
:1058E0006846B2EB410F28D94FF0E640B0EB410FCC
:1058F00094BF00204FF0FF3000900098002861DB3B
:1059000060EE000A10F0010F45D010F0020FDFED3D
:10591000391A9FED391A00EEE11ADFED381A40EE20
:10592000811A21EEA01AF0EE400A40EE010A08BFEB
:10593000F1EE600AB0EE600A08BD314B21F0004282
:1059400093423CD911F0004FDFED2E0A20EE201AD1
:10595000DFED2D0A19BF31EE601A71EE200A31EE2B
:10596000201A71EE600ABDEEE01A11EE100A9FEDEA
:10597000271A00F0030000EEC10A9FED251A0090DF
:1059800000EEC10A9FED231A00EEC10A9FED221A14
:1059900000EEC10AB1E79FED211A9FED210A10F038
:1059A000020F00EE810A9FED1F1A00EE801AB7EE7B
:1059B000000A00EE810A18BFB1EE400A08BD01F0EE
:1059C0006FF89AE710EE100A4000B0F17F4F3CBF2D
:1059D000B7EE000A08BD07D14FF00100FAF7FBFD52
:1059E000BDE8084001F04CB8BDE8084001F044B8FB
:1059F000B61F927E336D4C39DA82083CA0AA2ABECB
:105A0000490E494683F9223F0000004B0000C93F80
:105A100000A0FD390020A2331A61342CB93AB2BA81
:105A2000CA9F2A3DDDFFFFBE2DED020B019820F03D
:105A3000004001909DED000B02B070470000000097
:105A40002DE9F04D2DED040B2DED0E8B96B0DDE91B
:105A50002550279CDDF890A025F0004624F0004852
:105A6000BAF1000F14BF0121002101EB4502FC49EE
:105A700053184A1093422AD3002814BF012300234D
:105A800003EB44030B44F7498B4220D358EA00014F
:105A90009FEDF59B76D0DFF8D8B35D4503D1BAF121
:105AA000000F05D188E0BAF1000F08BF002100D037
:105AB000012101EB450111F5001F08D8002814BF92
:105AC0000121002101EB440111F5001F0BD99DEDCF
:105AD000261B9DED240B16B0BDEC0E8B04B0BDE86B
